:020000040000FA
:0400000062EF12F0A9
:102400001200FFFF0F013F8F3F9B12004EC03CF0B8
:102410004FC03DF01200550EA76EAA0EA76E0F0119
:102420003F8B12007650FC0B0209766E000E786E20
:1024300076941200CA50FC0B0209CA6E000ECC6ED4
:10244000CA94000E496E120054C001F0020E011829
:10245000D8A41200CA94000E496E12003F0E7916DD
:10246000300E79127982000E7B6E000E7A6E7990B2
:102470001200000E896E000E8A6E000E8B6E080E22
:10248000856E000E886E1200CD503F0B8009CD6E18
:10249000CF0ECD16CD86CD829A9E9E909D90CD90EA
:1024A0001200D59AD59CD550F80B0509D56ED59656
:1024B000000ED76E000ED66EF29AF294D59E000EE4
:1024C000556E1200020EF66E240EF76E000EF86EB8
:1024D0000900F5CF59F00900F5CF5AF000EE3AF0B7
:1024E0001F0EEE6AE806FDE1000EF86E0001E3EF54
:1024F00013F0000EB36E900EB26E010EB16E220E8E
:10250000926E520E936E0C0E946E80908190809617
:10251000809E0F0148691F0E496FC290220E926E75
:102520001200000E586E000E576E000E4C6E000E1C
:102530004B6E000E536E000E526E000E516E000E6A
:10254000506E000E416E000E406E000E3F6E000E8B
:102550003E6E000E566E000E4F6E000E4E6E120056
:10256000220E926E0D0E0E01E76F010EE86F020E45
:10257000E96FC08E0F014D914D934C85F18CF18A1E
:10258000F188F186F292F298F090F086F092F0885D
:10259000F094F08AF28EF28C80BA120080B21200AF
:1025A000D39E4D9F03001200D6CF11F0D7CF12F06B
:1025B00012500E6E0D6A11500F6E106A0D500F10F2
:1025C000136E0E501010146E3C50135E3D50145A92
:1025D00014BE120014BE05D01304200E1458D8B037
:1025E00012005450D8A412005850D8A412005750CA
:1025F000D8A412001BEC18F05404D8A41200010E49
:102600004A6E120054C00BF0130E0B18D8A42DD034
:10261000000E436E010E426E0BEC12F03F8B3F9F9B
:102620003F913F8399CF03F0D70E0324F66EF76AEC
:102630003D0EF7220800F5CF01F00128046E0C0EC4
:10264000046402D0010E046E3F913F833F0E0424C8
:10265000F66EF76A3F0EF7220800F5CF03F003C0CD
:1026600099FF3F8F02EC12F097D0120E0B18D8A4EE
:1026700028D0000E436E010E426E0BEC12F03F8B21
:102680003F9F3F813F9398CF05F0D70E0524F66E0C
:10269000F76A3D0EF7220800F5CF01F00128066E1B
:1026A000170E066402D0000E066E3F0E0624F66E6C
:1026B000F76A3F0EF7220800F5CF05F005C098FF36
:1026C000D0D7140E0B18D8A41BD0000E436E010EE9
:1026D000426E0BEC12F03F8B3F9F3F813F9399CFAF
:1026E00002F002C001F0070E01160128076E060E67
:1026F000076402D0000E076E3F8107C099FFB1D773
:10270000150E0B18D8A428D0000E436E010E426E91
:102710000BEC12F03F8B3F9F030E3F1398CF08F056
:10272000D70E0824F66EF76A3D0EF7220800F5CFA3
:1027300001F00128096E630E096402D0000E096ED3
:102740003F0E0924F66EF76A3F0EF7220800F5CF18
:1027500008F008C098FF85D7160E0B18D8A41CD017
:10276000000E436E010E426E0BEC12F03F8B3F9F4A
:102770003ECF0AF00AAE08D0FD0E0A6402D0000E69
:1027800007D0020E0A2605D07D0E0A64FAD7820E03
:102790000A6E0AC03EFF65D75850D8A412004C50AC
:1027A000D8A412004B50D8A41200030E0B18D8A4C2
:1027B00003D0050E546E1200050E0B18D8A412009B
:1027C000040E546E120039EC12F079EC12F051EC58
:1027D00012F044EC12F01AEC12F02EEC12F012ECA3
:1027E00012F0C8EC14F091EC12F0C0A603D0C09621
:1027F0004C9107D0000ECC6ECA84010E496E010EBA
:10280000546EF28EF28CF18CF18AF188F186F18EA1
:10281000000E486E000E4D6E000E436E010E426EAD
:10282000000E386EF2EC1BF04D6E4950D8B458D003
:102830009F0ECC644CD0000ECC6E54C039F0120EFA
:10284000396010D04A50D8A404D0010E376E770EEC
:1028500003D0020E376E0D0E366E36C034F037C020
:1028600035F004D0040E356EE20E346E424A432A2F
:102870003450425C35504358D8A029D05850D8A481
:1028800022D05750D8A41FD0100E3918D8B41BD05E
:10289000120E3918D8A40FD0640E4618D8A40BD045
:1028A0000BEC12F03F8B3F9FFC0E3F17000E986E13
:1028B000100E546E0CD0CA94000E436E000E426E81
:1028C000000E496E04D0000E436E640E426E4250FC
:1028D0004310D8B402D0010E01D0000E4D1204D026
:1028E000000E436E010E426E4D50D8B40AD0030E56
:1028F0003818D8A404D074EC19F0010E92D7382AF5
:1029000091D7000E466E000E456E520E936E0C0E61
:10291000946E000E826E010E8116270E80160BEC4F
:1029200012F03F8B3F8F000E546E91EC12F0000EB0
:10293000556E000E496E000E486ED59ECA943FB982
:10294000FED73F9B02EC12F0000E4A6EF18EF2921F
:10295000F298F090F086F092F088F094F08AF29479
:10296000F18CF18AF188F1869E90A490F28EF28C1F
:10297000B39EC290499FB0EC12F0000E436E010E60
:10298000426E000E386E39EC12F079EC12F04AD734
:102990003FB9FED70BEC12F03F8B3F9F3FB9FED7FC
:1029A000000E016E030E3F1398CF02F0370E022483
:1029B000F66EF76A3D0EF7220800F5CF03F0630EBE
:1029C000036402D0010E016E995098CF02F0370EC9
:1029D0000224F66EF76A3D0EF7220800F5CF03F0E9
:1029E0000350D8B403D01F0E036402D0010E016E51
:1029F00099CF02F0370E0224F66EF76A3D0EF722E9
:102A00000800F5CF03F00350D8B403D00C0E0364D4
:102A100002D0010E016E98CF02F0370E0224F66E3E
:102A2000F76A3D0EF7220800F5CF03F0170E036496
:102A300002D0010E016E99CF02F0370E0224F66E1D
:102A4000F76A3D0EF7220800F5CF03F0060E036487
:102A500002D0010E016E98CF02F0370E0224F66EFE
:102A6000F76A3D0EF7220800F5CF03F03B0E036432
:102A700002D0010E016E99CF02F0370E0224F66EDD
:102A8000F76A3D0EF7220800F5CF03F03B0E036412
:102A900002D0010E016E0150D8B426D03FB9FED746
:102AA000030E3F13550EF66E3F0EF76E0800F5CF7E
:102AB00098FF9950010E986E010E996E000E986E57
:102AC000030E996E000E986E000E996E9190918291
:102AD00035D0010E8F6E000E8E6E010E8F6E000EC1
:102AE0008E6E000E8F6E35D0000E016E9180919229
:102AF0008ECF02F0370E0224F66EF76A3D0EF722F3
:102B00000800F5CF03F0170E036402D0010E016E2A
:102B10008F508FCF02F0370E0224F66EF76A3D0E0B
:102B2000F7220800F5CF03F03B0E036402D0010E3C
:102B3000016E919091820150D8B403D0010E8E6E37
:102B4000C8D7010E8E6E010E8F6E010E8F6E000EB5
:102B50008E6E3FB9FED73F913F93919C9150C30B2E
:102B60001809916E919E000E906EA3903F8F3FB911
:102B7000FED702EC12F01200540E0B6E0B50D96E01
:102B8000DA6A130EDE18D8A42DD0000E436E010EA3
:102B9000426E0BEC12F03F8B3F9F3F913F8399CFEA
:102BA00003F0D70E0324F66EF76A3D0EF7220800F5
:102BB000F5CF01F00128046E0C0E046402D0010E62
:102BC000046E3F913F833F0E0424F66EF76A3F0E7A
:102BD000F7220800F5CF03F003C099FF3F8F02EC06
:102BE00012F0CAD00B50D96EDA6A120EDE18D8A4D1
:102BF00028D0000E436E010E426E0BEC12F03F8B9C
:102C00003F9F3F813F9398CF05F0D70E0524F66E86
:102C1000F76A3D0EF7220800F5CF01F00128066E95
:102C2000170E066402D0000E066E3F0E0624F66EE6
:102C3000F76A3F0EF7220800F5CF05F005C098FFB0
:102C4000CDD70B50D96EDA6A140EDE18D8A41BD07B
:102C5000000E436E010E426E0BEC12F03F8B3F9F55
:102C60003F813F9399CF02F002C001F0070E011699
:102C70000128076E060E076402D0000E076E3F8122
:102C800007C099FFABD70B50D96EDA6A150EDE1864
:102C9000D8A428D0000E436E010E426E0BEC12F049
:102CA0003F8B3F9F030E3F1398CF08F0D70E0824A9
:102CB000F66EF76A3D0EF7220800F5CF01F0012805
:102CC000096E630E096402D0000E096E3F0E0924DE
:102CD000F66EF76A3F0EF7220800F5CF08F008C03D
:102CE00098FF7CD70B50D96EDA6A160EDE18D8A47E
:102CF0001CD0000E436E010E426E0BEC12F03F8BA7
:102D00003F9F3ECF0AF00AAE08D0FD0E0A6402D003
:102D1000000E07D0020E0A2605D07D0E0A64FAD7EF
:102D2000820E0A6E0AC03EFF59D7000E466E030E91
:102D3000456022D0452A030E4518D8A41DD00B505B
:102D4000D96EDA6A050EDE18D8A405D00B50D96EFC
:102D5000DA6A140E10D00B50D96EDA6A040EDE183F
:102D6000D8A405D00B50D96EDA6A150E04D00B50DA
:102D7000D96EDA6A130EDF6E0B50D96EDA6ADF5045
:102D8000D8A40AD0000E436E010E426E0B50D96ECD
:102D9000DA6A030EDF6E12000B50D96EDA6ADE04B7
:102DA000D8A41200F3D754C00AF0130E0A18D8A4FE
:102DB0008ED0000E436E010E426E0BEC12F03F8B74
:102DC0003F9F010E0C6E3F813F9398CF09F0D70EC5
:102DD0000924F66EF76A3D0EF7220800F5CF0BF0D6
:102DE0000C0E0B6010D00C0E0B263F0E0B24F66E53
:102DF000F76A3F0EF7220800F5CF09F009C098FFE7
:102E0000000E0C6E0DD00C0E0B5E3F0E0B24F66EFA
:102E1000F76A3F0EF7220800F5CF09F009C098FFC6
:102E20000C50D8B450D03F913F8398CF09F0D70EC3
:102E30000924F66EF76A3D0EF7220800F5CF01F07F
:102E400001280B6E99CF09F0D70E0924F66EF76AA8
:102E50003D0EF7220800F5CF0CF0020E0C18D8A496
:102E600006D01D0E0B6422D0010E0B6E1FD00C0479
:102E7000D8B418D0030E0C18D8B414D0050E0C1802
:102E8000D8B410D0070E0C18D8B40CD0080E0C18FB
:102E9000D8B408D00A0E0C18D8B404D00C0E0C18F4
:102EA000D8A402D01F0EDED71E0EDCD73F913F8381
:102EB0003F0E0B24F66EF76A3F0EF7220800F5CF9F
:102EC00009F009C098FF3F8F02EC12F09DD0120E5E
:102ED0000A18D8A42FD0000E436E010E426E0BECE0
:102EE00012F03F8B3F9FFC0E3F1799CF03F0D70E98
:102EF0000324F66EF76A3D0EF7220800F5CF01F0C5
:102F00000128046E3B0E046402D0000E046E3F0ED6
:102F10000424F66EF76A3F0EF7220800F5CF03F09F
:102F200003C099FF000E986E3F8F02EC12F0640E02
:102F3000466E6AD0140E0A18D8A41AD0000E436E3A
:102F4000010E426E0BEC12F03F8B3F9F3F813F938F
:102F500099CF02F00250070B066E0650D8A403D09A
:102F6000060E066E01D006063F8106C099FFABD75C
:102F7000150E0A18D8A428D0000E436E010E426E1A
:102F80000BEC12F03F8B3F9F030E3F1398CF05F0E1
:102F9000D70E0524F66EF76A3D0EF7220800F5CF2E
:102FA00007F00750D8A403D0630E076E01D00706C0
:102FB0003F0E0724F66EF76A3F0EF7220800F5CFA2
:102FC00005F005C098FF7FD7160E0A18D8A41CD0AC
:102FD000000E436E010E426E0BEC12F03F8B3F9FD2
:102FE0003ECF08F008AE08D0820E086002D07E0EF8
:102FF00007D0020E085E05D0020E0860FAD7FE0E5A
:10300000086E08C03EFF5FD74C50D8A412004B504A
:10301000D8A412000A04D8A403D0020E546E1200E1
:10302000040E0A18D8B404D0110E0A18D8A412003D
:103030000E0E546E120054C00AF0130E0A18D8A4D3
:103040008ED0000E436E010E426E0BEC12F03F8BE1
:103050003F9F010E0C6E3F813F9398CF09F0D70E32
:103060000924F66EF76A3D0EF7220800F5CF0BF043
:103070000C0E0B6010D00C0E0B263F0E0B24F66EC0
:10308000F76A3F0EF7220800F5CF09F009C098FF54
:10309000000E0C6E0DD00C0E0B5E3F0E0B24F66E68
:1030A000F76A3F0EF7220800F5CF09F009C098FF34
:1030B0000C50D8B450D03F913F8398CF09F0D70E31
:1030C0000924F66EF76A3D0EF7220800F5CF01F0ED
:1030D00001280B6E99CF09F0D70E0924F66EF76A16
:1030E0003D0EF7220800F5CF0CF0020E0C18D8A404
:1030F00006D01D0E0B6422D0010E0B6E1FD00C04E7
:10310000D8B418D0030E0C18D8B414D0050E0C186F
:10311000D8B410D0070E0C18D8B40CD0080E0C1868
:10312000D8B408D00A0E0C18D8B404D00C0E0C1861
:10313000D8A402D01F0EDED71E0EDCD73F913F83EE
:103140003F0E0B24F66EF76A3F0EF7220800F5CF0C
:1031500009F009C098FF3F8F02EC12F0AFD0120EB9
:103160000A18D8A42FD0000E436E010E426E0BEC4D
:1031700012F03F8B3F9FFC0E3F1799CF03F0D70E05
:103180000324F66EF76A3D0EF7220800F5CF01F032
:103190000128046E3B0E046402D0000E046E3F0E44
:1031A0000424F66EF76A3F0EF7220800F5CF03F00D
:1031B00003C099FF000E986E3F8F02EC12F0640E70
:1031C000466E7CD0140E0A18D8A41AD0000E436E96
:1031D000010E426E0BEC12F03F8B3F9F3F813F93FD
:1031E00099CF02F00250070B066E0650D8A403D008
:1031F000060E066E01D006063F8106C099FFABD7CA
:10320000150E0A18D8A428D0000E436E010E426E87
:103210000BEC12F03F8B3F9F030E3F1398CF05F04E
:10322000D70E0524F66EF76A3D0EF7220800F5CF9B
:1032300007F00750D8A403D0630E076E01D007062D
:103240003F0E0724F66EF76A3F0EF7220800F5CF0F
:1032500005F005C098FF7FD7160E0A18D8A41CD019
:10326000000E436E010E426E0BEC12F03F8B3F9F3F
:103270003ECF08F008AE08D0820E086002D07E0E65
:1032800007D0020E085E05D0020E0860FAD7FE0EC7
:10329000086E08C03EFF5FD7000E456E030E466005
:1032A0000DD0462A030E4618D8A408D00E0E0A18D0
:1032B000D8A402D0160E01D0120E546E100E0A18A9
:1032C000D8A408D0010E546E0BEC12F03F8B3F8F48
:1032D00002EC12F00A50D8A41200000E436E010E48
:1032E000426E010E546E120048C007F00750D8A479
:1032F0001BD15A685968000E476E54C006F006C0CC
:1033000044F0B6D00F013F813F9398CF0BF0D70E1A
:103310000B24F66EF76A3D0EF7220800F5CF5AF03F
:10332000170E5A6402D0000E5A6EBB0E5A24F66E67
:10333000F76A3F0EF7220800F5CF5AF0995099CF5F
:103340000BF0D70E0B24F66EF76A3D0EF72208003D
:10335000F5CF59F03B0E596402D0000E596E030EA2
:10336000476ECAD0FC0E0F013F175A6898CF0BF07A
:10337000D70E0B24F66EF76A3D0EF7220800F5CF44
:1033800059F03B0E5964B8D0000E70D03ECF0BF010
:103390000BAE06D0800E5A6EFF0E0B1A0B2A01D010
:1033A0005A68D8900B3062D00F013F913F8398CF7D
:1033B0000BF0D70E0B24F66EF76A3D0EF7220800CD
:1033C000F5CF59F01F0E596402D0010E596E99CFF6
:1033D0000BF0D70E0B24F66EF76A3D0EF7220800AD
:1033E000F5CF5AF00C0E5A6402D0010E5A6E3F818E
:1033F0003F9398CF0BF0D70E0B24F66EF76A3D0E75
:10340000F7220800F5CF0BF0170E0B6402D0000E68
:103410000B6EA30E0B24F66EF76A3F0EF722080020
:10342000F5CF47F069D0030E0F013F1398CF0BF093
:10343000D70E0B24F66EF76A3D0EF7220800F5CF83
:1034400059F0630E596402D0000E596E5A6854D078
:103450000F013F813F9399CF0BF0060E0B6402D012
:10346000000E0B6E0BC059F047D0070E596E44D0BA
:103470000650016E026A0250000AD8A43DD00150E5
:10348000000AD8B439D0010AD8B43CD7030AD8B45A
:1034900069D7010AD8B488D7070AD8B4C4D7010AB3
:1034A000D8B4D6D7020AD8B42DD70F0AD8B42AD7A1
:1034B000010AD8B479D7030AD8B476D7010AD8B4A8
:1034C000B2D7070AD8B4C4D7010AD8B44BD7030A75
:1034D000D8B45CD71E0AD8B4C8D7020AD8B412D759
:1034E000010AD8B461D7070AD8B4B2D7010AD8B450
:1034F0009AD7030AD8B44AD7050E0618D8B410D004
:103500000C0E0618D8B40CD0140E0618D8B408D077
:10351000100E0618D8B404D0E60E3A6E3F0E03D053
:10352000D60E3A6E3F0E3B6E3AC009F03BC00AF031
:10353000010E07647DD05AC00BF00B28D8B46FD0B1
:10354000020E0718D8A43CD0800E0B18D8A402D0C5
:103550000A0E08D0DB0E0B24F66EF76A3E0EF72239
:103560000800F5500924016E000E0A20026E01C009
:10357000F6FF02C0F7FF0800F5CF0BF0000E056E56
:10358000000E086E0BB008880BB2088A0BB4088CCA
:103590000BB605860BB8088E0BBA058A0BBC0584E2
:1035A0000C0E946E520E936E000E826E010E8116FA
:1035B0000850821205508112500E936E819209D1EB
:1035C0000C0E946E520E936E000E826E010E8116DA
:1035D000090E0B6405D00D0E0B6002D08288818627
:1035E00047A003D0016A012A01D0016A013A0146CD
:1035F00082500118DF0B0118826E47A203D0016AC6
:10360000012A01D0016A013A01460146825001189F
:10361000BF0B0118826E120E936E819CDAD0520E8F
:10362000936E0C0E946E000E826E010E8116D1D038
:1036300059C00BF00B28D8B4F2D70750D8A454D0F7
:10364000D60E09181BE13F0E0A18D8A417D00B504C
:10365000016E026AD8900136023609C003F00AC032
:1036600004F00150032602500422010E0326000E2E
:10367000042203C0F6FF04C0F7FF11D0DB0E0B24B9
:10368000F66EF76A3E0EF7220800F5500924016E27
:10369000000E0A20026E01C0F6FF02C0F7FF08000C
:1036A000F5CF0BF0000E056E000E086E0BB008880B
:1036B0000BB2088A0BB4088C0BB605860BB8088EC3
:1036C0000BBA058A0BBC0584520E936E0C0E946ED9
:1036D000000E826E010E8116085082120550811272
:1036E000040E946E829675D0D60E091817E13F0E1F
:1036F0000A18D8A413D00B50016E026AD890013674
:10370000023609C003F00AC004F00150032602503B
:10371000042203C0F6FF04C0F7FF34D00A0E0B608A
:103720001ED008D0000E0B6E30D009C0F6FF0AC0C4
:10373000F7FF28D04450016E026A0250000AD8A454
:10374000F4D70150030AD8B4EDD70A0AD8B4EAD79F
:10375000030AD8B4E7D7190AD8B4E4D7E6D7770E66
:103760000B24F66EF76A3E0EF7220800F5CF0BF039
:103770000B500924016E000E0A20026E01C0F6FFF4
:1037800002C0F7FF0800F5CF0BF0000E056E000E2B
:10379000086E0BB008880BB2088A0BB4088C0BB605
:1037A00005860BB8088E0BBA058A0BBC0584520E31
:1037B000936E0C0E946E000E826E010E81160B50ED
:1037C000D8B407D00850821205508112420E936E71
:1037D0008198072A030E076402D0000E076E07C007
:1037E00048F01200000E2F6E000E286E550E316E3E
:1037F00045D0580E326E336A520E306E000E80BACB
:10380000010E236E360E266E300E276EA60E296E22
:103810002D0E2A6E480E2B6E240E29D0570E326EB6
:10382000336A500E306E000E80B2010E236E780E99
:10383000266E2B0E276E040E296E260E2A6E000EA3
:103840002B6E240E14D0560E326E336A4E0E306E2E
:10385000000E82B4010E236E0C0E266E240E276E0F
:10386000000E296E000E2A6EA80E2B6E250E2C6EF1
:1038700017D0000E326E000E336E12D02F50156E20
:10388000166A1650000AD8A4F4D71550000AD8B406
:10389000B0D7010AD8B4C2D7050AD8B4D4D7E9D76B
:1038A00032503310D8B441D22350D8A453D122D2AD
:1038B000040E2F18D8A406D05450D8A436D24D5098
:1038C000D8A433D232C0D9FF33C0DAFF010EDF6E85
:1038D0003150D96EDA6ADF50D8A40DD0000ED76E01
:1038E000000ED66ED58E3050D96EDA6A000EDE6EBE
:1038F000000EDD6E15D0D6CF19F0D7CF1AF01A50C2
:10390000166E156A1950176E186A15501712165050
:1039100018123050D96EDA6A17C0DEFF18C0DDFF0A
:103920002FC015F0010E166E152A02D0D89016364B
:10393000152EFCD73150D96EDA6A1650DF12010EFF
:10394000286EF3D1D6CF1BF0D7CF1CF01C50166ECB
:10395000156A1B50176E186A155017102D6E1650E9
:1039600018102E6E3050D96EDA6ADECF15F0DDCF2A
:1039700016F02DC017F02EC018F01550175E165017
:10398000185A010E1724BA0E1820800BD8A43ED066
:1039900029502A10D8B41AD032C0D9FF33C0DAFF68
:1039A000030EDF6E3050D96EDA6A2DC0DEFF2EC0F6
:1039B000DDFF01D806D00500FA6E2950FD6E2A50B1
:1039C00054D0010E496E56D0CA84B9D732C0D9FF3F
:1039D00033C0DAFF000EDF6E2FC015F0010E166E39
:1039E000152A02D0D8901636152EFCD71650FF0A8D
:1039F000176E3150D96EDA6A1750DF163150D96E12
:103A0000DA6ADF50D8A49BD7D59E99D73050D96EAB
:103A1000DA6ADECF15F0DDCF16F02DC017F02EC01C
:103A200018F01550175E1650185A000E1724FC0E89
:103A30001820800BD8A483D732C0D9FF33C0DAFF57
:103A4000020EDE18D8B47BD732C0D9FF33C0DAFFFC
:103A5000020EDF6E26502710D8B4B3D701D8B1D7E5
:103A60000500FA6E2650FD6E2750FE6EF850FF6E70
:103A7000FA501200000ECC6EA7D7D6CF1DF0D7CFCC
:103A80001EF01E50166E156A1D50176E186A1550DE
:103A900017102D6E165018102E6E300E256E000E5B
:103AA000246E10D0110E546421D0200E256E000E0D
:103AB000246E1CD0110E546401D0F7D7450E256E2C
:103AC000246814D02F50156E166A1650000AD8A418
:103AD0000DD01550000AD8B4E5D7010AD8B4EAD7FA
:103AE000030AD8B4E2D7010AD8B4DFD73050D96E70
:103AF000DA6ADECF15F0DDCF16F0151E161E154A58
:103B0000162A2450155E2550165A2D5015242E5075
:103B10001620800BD8A413D73050D96EDA6A2DC086
:103B2000DEFF2EC0DDFF29502A10D8B408D701D8F7
:103B300006D70500FA6E2950FD6E2A50FE6EF85029
:103B4000FF6EFA50120032C0D9FF33C0DAFF030E05
:103B5000DF6EF5D632C0D9FF33C0DAFFDF50156E05
:103B6000166A1650000AD8A4E0D01550000AD8B43E
:103B70009FD6010AD8B4E6D6030AD8B4E3D6010A20
:103B8000D8B47BD7070AD8B4DED7CFD032C0D9FF9C
:103B900033C0DAFF000EDF6E2FC015F0010E166E77
:103BA000152A02D0D8901636152EFCD71650FF0ACB
:103BB000176E3150D96EDA6A1750DF163150D96E50
:103BC000DA6ADF50D8A4BBD6D59EAFD032C0D9FFB9
:103BD00033C0DAFF000EDF6E2FC015F0010E166E37
:103BE000152A02D0D8901636152EFCD71650FF0A8B
:103BF000176E3150D96EDA6A1750DF163150D96E10
:103C0000DA6ADF50D8A402D0D59E02D0010E286E09
:103C10002B502C10D8B489D001D887D00500FA6E6B
:103C20002B50FD6E2C50FE6EF850FF6EFA501200B5
:103C300032C0D9FF33C0DAFF040EDF6E3150D96EC7
:103C4000DA6ADF50D8B44AD6D6CF1FF0D7CF20F0EB
:103C50002050166E156A1F5056D6D6CF21F0D7CFFA
:103C600022F02250166E156A2150176E186A1550F0
:103C700017102D6E165018102E6E3050D96EDA6A4D
:103C8000DECF15F0DDCF16F02DC017F02EC018F0E6
:103C90001550175E1650185A000E1724FC0E1820E7
:103CA000800BD8A44CD62FC015F0010E166E152A25
:103CB00002D0D8901636152EFCD71650FF0A176E74
:103CC0003150D96EDA6A1750DF163150D96EDA6A80
:103CD000DF50D8A402D0D59E02D0010E286E32C08B
:103CE000D9FF33C0DAFF000EDF6E2B502C10D8A4A2
:103CF00093D71BD032C0D9FF33C0DAFFDF50156E27
:103D0000166A1650000AD8A410D01550000AD8B46C
:103D10000CD0010AD8B43AD7030AD8B457D7010A4D
:103D2000D8B486D7070AD8B498D72F2A040E2F64A0
:103D3000A5D528501200000001020304050607085B
:103D4000097F7F7F7F7F7F0A0B0C0D0E0F101112F2
:103D5000137F7F7F7F7F7F1415161718191A1B1C7E
:103D60001D7F7F7F7F7F7F1E1F202122232425260A
:103D7000277F7F7F7F7F7F28292A2B2C2D2E2F3096
:103D8000317F7F7F7F7F7F32333435363738393A22
:103D90003B7F7F7F7F7F7F3C3D3E3F4041424344AE
:103DA000457F7F7F7F7F7F464748494A4B4C4D4E3A
:103DB0004F7F7F7F7F7F7F505152535455565758C6
:103DC000597F7F7F7F7F7F5A5B5C5D5E5F60616252
:103DD000637F7F7F7F7F7F00010203040506070862
:103DE000090000000000000A0B0C0D0E0F1011124C
:103DF000130000000000001415161718191A1B1CD8
:103E00001D0000000000001E1F2021222324252663
:103E10002700000000000028292A2B2C2D2E2F30EF
:103E20003100000000000032333435363738393A7B
:103E30003B0000000000003C3D3E3F404142434407
:103E400045000000000000464748494A4B4C4D4E93
:103E50004F0000000000005051525354555657581F
:103E6000590000000000005A5B5C5D5E5F606162AB
:103E700063000000000000000000000000000000DF
:103E8000000101010101010101010102020202021E
:103E900002020202020303030303030303030304F6
:103EA00004040404040404040405050505050505CB
:103EB00005050506060606060606060606070707A2
:103EC0000707070707070708080808080808080879
:103ED0000809090909090909090909000102030476
:103EE0000506070809000102030405060708090082
:103EF0000102030405060708090001020304050680
:103F00000708090001020304050607080900010269
:103F10000304050607080900010203040506070853
:103F20000900010203040506070809000102030451
:103F30000506070809000102030405060708090031
:103F400001020304050607080910111213141516BF
:103F50001718192021222324252627282930313219
:103F60003334353637383940414243444546474873
:103F700049505152535455565758596061626364C1
:103F80006566676869707172737475767778798021
:103F9000818283848586878889909192939495966F
:103FA000979899010101010101010101010101023B
:103FB00002020202020202020202020C01020304D5
:103FC00005060708090A0B0C010203040506070889
:103FD000090A0B052A546D3E373F313E3E79317652
:103FE00071776D7700403F065B4F666D7D077F6F91
:073FF000404040404040004A
:083FF80080F4D8FFFFF8CFF1BF
:00000001FF
