:020000040000FA
:04000000D6EF0CF03B
:1018DE001200FFFF0F013F8F3F9B120050C03EF0E2
:1018EE0051C03FF01200550EA76EAA0EA76E0F0143
:1018FE003F8B12007650FC0B0209766E000E786E4E
:10190E0076941200CA50FC0B0209CA6E000ECC6E01
:10191E00CA94000E4B6E12003F0E7916300E7912DD
:10192E007982000E7B6E000E7A6E79901200000E98
:10193E00896E000E8A6E000E8B6E080E856E000E7E
:10194E00886E1200CD503F0B8009CD6ECF0ECD1696
:10195E00CD86CD829A9E9E909D90CD90120056C0BF
:10196E0001F0020E0118D8A4BFEF0CF0C1EF0CF07D
:10197E00C4EF0CF0CA94000E4B6E1200D59AD59C93
:10198E00D550F80B0509D56ED596000ED76E000E04
:10199E00D66EF29AF294D59E000E576E1200E00E9D
:1019AE00F66E180EF76E000EF86E0900F5CF5BF0AE
:1019BE000900F5CF5CF000EE3CF01F0EEE6AE80673
:1019CE00FDE1000EF86E0001A1EF0DF0000EB36EFA
:1019DE00900EB26E010EB16E220E926E520E936E7C
:1019EE000C0E946E809081908096809E0F014869B7
:1019FE001F0E496FC290220E926E1200000E5A6E8A
:101A0E00000E596E000E4E6E000E4D6E000E556E8F
:101A1E00000E546E000E536E000E526E000E436E8C
:101A2E00000E426E000E416E000E406E000E586E9D
:101A3E00000E516E000E506E1200220E926E0D0EA2
:101A4E000E01E76F010EE86F020EE96FC08E0F01F7
:101A5E004D914D934C85F18CF18AF188F186F2927D
:101A6E00F298F090F086F092F088F094F08AF28E70
:101A7E00F28C80BA45EF0DF047EF0DF051EF0DF0FF
:101A8E0080B24CEF0DF04EEF0DF051EF0DF0D39EF6
:101A9E004D9F03001200D6CF11F0D7CF12F0125087
:101AAE000E6E0D6A11500F6E106A0D500F10136EE0
:101ABE000E501010146E3E50135E3F50145A14BE4A
:101ACE006BEF0DF06DEF0DF0A0EF0DF014BE7AEF91
:101ADE000DF01304200E1458D8B078EF0DF07AEFF5
:101AEE000DF0A0EF0DF05650D8A480EF0DF082EF60
:101AFE000DF0A0EF0DF05A50D8A488EF0DF08AEF3C
:101B0E000DF0A0EF0DF05950D8A490EF0DF092EF1C
:101B1E000DF0A0EF0DF013EC15F05604D8A49AEFCB
:101B2E000DF09CEF0DF0A0EF0DF0010E4C6EA0EF3E
:101B3E000DF012009EEC0CF0EDEC0CF0C5EC0CF080
:101B4E00A9EC0CF089EC0CF093EC0CF081EC0CF0A1
:101B5E002AEC10F005EC0DF0C0A6B8EF0DF0BAEFC0
:101B6E000DF0BFEF0DF0C0960F014C91C6EF0DF0CA
:101B7E00000ECC6ECA84010E4B6E010E566EF28EA6
:101B8E00F28CF18CF18AF188F186F18E000E4A6E9C
:101B9E00000E4F6E000E456E010E446E000E3A6E34
:101BAE001AEC17F04F6E4B50D8B4E0EF0DF0E2EF99
:101BBE000DF072EF0EF09F0ECC64E8EF0DF0EAEF31
:101BCE000DF064EF0EF0000ECC6E56C03BF0120E10
:101BDE003B60F4EF0DF0F6EF0DF00EEF0EF04C5003
:101BEE00D8A4FCEF0DF0FEEF0DF004EF0EF0010E99
:101BFE00396E770E386E08EF0EF0020E396E0D0E3E
:101C0E00386E38C036F039C037F012EF0EF0040ED1
:101C1E00376EE20E366E444A452A3650445C3750D3
:101C2E004558D8A01DEF0EF01FEF0EF064EF0EF02A
:101C3E005A50D8A425EF0EF027EF0EF060EF0EF0FD
:101C4E005950D8A42DEF0EF02FEF0EF060EF0EF0DE
:101C5E00100E3B18D8B436EF0EF038EF0EF060EFE2
:101C6E000EF0120E3B18D8A43FEF0EF041EF0EF01F
:101C7E0057EF0EF0640E4818D8A448EF0EF04AEF56
:101C8E000EF057EF0EF07AEC0CF00F013F8B3F9FEA
:101C9E00FC0E3F17000E986E100E566E64EF0EF08F
:101CAE00CA94000E456E000E446E000E4B6E64EF2D
:101CBE000EF0000E456E640E446E44504510D8A4CE
:101CCE006BEF0EF06EEF0EF0010E6FEF0EF0000EDA
:101CDE004F1276EF0EF0000E456E010E446E4F5011
:101CEE00D8B47CEF0EF07EEF0EF090EF0EF0030EF8
:101CFE003A18D8A485EF0EF087EF0EF08DEF0EF0A8
:101D0E00C8EC1AF0010E3A6ED7EF0DF03A2AD7EF63
:101D1E000DF0000E486E000E476E520E936E0C0EB6
:101D2E00946E000E826E010E8116270E80167AECCE
:101D3E000CF00F013F8B3F8F000E566E05EC0DF031
:101D4E00000E576E000E4B6E000E4A6ED59ECA9454
:101D5E000F013FB9B5EF0EF0B7EF0EF0AFEF0EF08B
:101D6E003F9B71EC0CF0000E4C6EF18EF292F298DD
:101D7E00F090F086F092F088F094F08AF294F18C64
:101D8E00F18AF188F1869E90A490F28EF28CB39E29
:101D9E00C2900F01499F24EC0DF0000E456E010E0E
:101DAE00446E000E3A6E9EEC0CF0EDEC0CF0D7EF9C
:101DBE000DF000EF00F056C00BF0130E0B18D8A468
:101DCE00EBEF0EF0EDEF0EF021EF0FF0000E456E83
:101DDE00010E446E7AEC0CF00F013F8B3F9F3F914A
:101DEE003F8399CF03F0D70E0324F66EF76A3D0EAC
:101DFE00F7220800F5CF01F00128046E0C0E0464E2
:101E0E000BEF0FF00DEF0FF00FEF0FF0010E046E52
:101E1E003F913F833F0E0424F66EF76A3F0EF72282
:101E2E000800F5CF03F003C099FF3F8F71EC0CF063
:101E3E00F9EF0FF0120E0B18D8A428EF0FF02AEFBF
:101E4E000FF05AEF0FF0000E456E010E446E7AEC55
:101E5E000CF00F013F8B3F9F3F813F9398CF05F0D2
:101E6E00D70E0524F66EF76A3D0EF7220800F5CF61
:101E7E0001F00128066E170E066448EF0FF04AEFC8
:101E8E000FF04CEF0FF0000E066E3F0E0624F66EAE
:101E9E00F76A3F0EF7220800F5CF05F005C098FF50
:101EAE003F8F1DEF0FF0140E0B18D8A461EF0FF03B
:101EBE0063EF0FF086EF0FF0000E456E010E446ECD
:101ECE007AEC0CF00F013F8B3F9F3F813F9399CFF0
:101EDE0002F002C001F0070E01160128076E060E71
:101EEE0007647CEF0FF07EEF0FF080EF0FF0000E27
:101EFE00076E3F8107C099FF3F8F1DEF0FF0150E44
:101F0E000B18D8A48DEF0FF08FEF0FF0BFEF0FF07F
:101F1E00000E456E010E446E7AEC0CF00F013F8BF5
:101F2E003F9F030E3F1398CF08F0D70E0824F66E8E
:101F3E00F76A3D0EF7220800F5CF01F00128096E71
:101F4E00630E0964ADEF0FF0AFEF0FF0B1EF0FF0CE
:101F5E00000E096E3F0E0924F66EF76A3F0EF72249
:101F6E000800F5CF08F008C098FF3F8F1DEF0FF067
:101F7E00160E0B18D8A4C6EF0FF0C8EF0FF0F9EF3E
:101F8E000FF0000E456E010E446E7AEC0CF00F0150
:101F9E003F8B3F9F3ECF0AF00AAED8EF0FF0DAEF3D
:101FAE000FF0EAEF0FF0FD0E0A64E0EF0FF0E2EF34
:101FBE000FF0E6EF0FF0000E0A6EF4EF0FF0020EC8
:101FCE000A26F4EF0FF07D0E0A64F0EF0FF0F2EF39
:101FDE000FF0E6EF0FF0820E0A6E0AC03EFF3F8F43
:101FEE001DEF0FF05A50D8A4FFEF0FF001EF10F0D5
:101FFE0029EF10F04E50D8A407EF10F009EF10F0B3
:10200E0029EF10F04D50D8A40FEF10F011EF10F093
:10201E0029EF10F0030E0B18D8A418EF10F01AEFDA
:10202E0010F01EEF10F0050E566E29EF10F0050E93
:10203E000B18D8A425EF10F027EF10F029EF10F0B1
:10204E00040E566E12000F013FB930EF10F032EF52
:10205E0010F02AEF10F07AEC0CF00F013F8B3F9F3F
:10206E003FB93CEF10F03EEF10F037EF10F0000EDE
:10207E00016E030E3F1398CF02F0370E0224F66E58
:10208E00F76A3D0EF7220800F5CF03F0630E0364E6
:10209E0053EF10F055EF10F057EF10F0010E016EE8
:1020AE00995098CF02F0370E0224F66EF76A3D0E65
:1020BE00F7220800F5CF03F00350D8B469EF10F003
:1020CE006BEF10F073EF10F01F0E036471EF10F052
:1020DE0073EF10F075EF10F0010E016E99CF02F054
:1020EE00370E0224F66EF76A3D0EF7220800F5CF82
:1020FE0003F00350D8B486EF10F088EF10F090EF95
:10210E0010F00C0E03648EEF10F090EF10F092EFC3
:10211E0010F0010E016E98CF02F0370E0224F66E0B
:10212E00F76A3D0EF7220800F5CF03F0170E036491
:10213E00A3EF10F0A5EF10F0A7EF10F0010E016E57
:10214E0099CF02F0370E0224F66EF76A3D0EF72293
:10215E000800F5CF03F0060E0364B8EF10F0BAEFE7
:10216E0010F0BCEF10F0010E016E98CF02F0370E9A
:10217E000224F66EF76A3D0EF7220800F5CF03F043
:10218E003B0E0364CDEF10F0CFEF10F0D1EF10F057
:10219E00010E016E99CF02F0370E0224F66EF76A29
:1021AE003D0EF7220800F5CF03F03B0E0364E2EF7D
:1021BE0010F0E4EF10F0E6EF10F0010E016E01509A
:1021CE00D8B4ECEF10F0EEEF10F01BEF11F03FB9BA
:1021DE00F3EF10F0F5EF10F0EEEF10F0030E3F13EB
:1021EE00550EF66E3F0EF76E0800F5CF98FF99501C
:1021FE00010E986E010E996E000E986E030E996E7A
:10220E00000E986E000E996E91909182010E8E6E58
:10221E00010E8F6E000E8E6E010E8F6E000E8E6E84
:10222E00000E8F6E6AEF11F0000E016E918091928A
:10223E008ECF02F0370E0224F66EF76A3D0EF722AD
:10224E000800F5CF03F0170E036430EF11F032EFF4
:10225E0011F034EF11F0010E016E8F508FCF02F09E
:10226E00370E0224F66EF76A3D0EF7220800F5CF00
:10227E0003F03B0E036446EF11F048EF11F04AEF06
:10228E0011F0010E016E919091820150D8B452EF6F
:10229E0011F054EF11F062EF11F0010E8E6E010E7F
:1022AE008F6E000E8E6E010E8F6E000E8E6E000EF5
:1022BE008F6E6AEF11F0010E8E6E010E8F6E010E93
:1022CE008F6E000E8E6E3FB96FEF11F071EF11F041
:1022DE006AEF11F03F913F93919C9150C30B1809F7
:1022EE00916E919E000E906EA3903F8F3FB982EF3C
:1022FE0011F084EF11F07DEF11F071EC0CF0120083
:10230E00560E0B6E000E0C6E0BC0D9FF0CC0DAFF12
:10231E00130EDE18D8A496EF11F098EF11F0CCEF53
:10232E0011F0000E456E010E446E7AEC0CF00F01AA
:10233E003F8B3F9F3F913F8399CF03F0D70E0324EE
:10234E00F66EF76A3D0EF7220800F5CF01F0012870
:10235E00046E0C0E0464B6EF11F0B8EF11F0BAEF84
:10236E0011F0010E046E3F913F833F0E0424F66E72
:10237E00F76A3F0EF7220800F5CF03F003C099FF6E
:10238E003F8F71EC0CF0F8EF12F00BC0D9FF0CC0C0
:10239E00DAFF120EDE18D8A4D7EF11F0D9EF11F034
:1023AE0009EF12F0000E456E010E446E7AEC0CF041
:1023BE000F013F8B3F9F3F813F9398CF05F0D70E84
:1023CE000524F66EF76A3D0EF7220800F5CF01F0F0
:1023DE000128066E170E0664F7EF11F0F9EF11F0F3
:1023EE00FBEF11F0000E066E3F0E0624F66EF76A36
:1023FE003F0EF7220800F5CF05F005C098FF3F8F7E
:10240E00C8EF11F00BC0D9FF0CC0DAFF140EDE18A6
:10241E00D8A414EF12F016EF12F039EF12F0000EEE
:10242E00456E010E446E7AEC0CF00F013F8B3F9F10
:10243E003F813F9399CF02F002C001F0070E0116C3
:10244E000128076E060E07642FEF12F031EF12F01F
:10245E0033EF12F0000E076E3F8107C099FF3F8FDA
:10246E00C8EF11F00BC0D9FF0CC0DAFF150EDE1845
:10247E00D8A444EF12F046EF12F076EF12F0000EF1
:10248E00456E010E446E7AEC0CF00F013F8B3F9FB0
:10249E00030E3F1398CF08F0D70E0824F66EF76A96
:1024AE003D0EF7220800F5CF01F00128096E630EEC
:1024BE00096464EF12F066EF12F068EF12F0000E8E
:1024CE00096E3F0E0924F66EF76A3F0EF7220800DA
:1024DE00F5CF08F008C098FF3F8FC8EF11F00BC082
:1024EE00D9FF0CC0DAFF160EDE18D8A481EF12F059
:1024FE0083EF12F0B4EF12F0000E456E010E446E33
:10250E007AEC0CF00F013F8B3F9F3ECF0AF00AAEE4
:10251E0093EF12F095EF12F0A5EF12F0FD0E0A6494
:10252E009BEF12F09DEF12F0A1EF12F0000E0A6E6B
:10253E00AFEF12F0020E0A26AFEF12F07D0E0A6414
:10254E00ABEF12F0ADEF12F0A1EF12F0820E0A6EA9
:10255E000AC03EFF3F8FC8EF11F0000E486E030E0B
:10256E004760BCEF12F0BEEF12F0F8EF12F0472A00
:10257E00030E4718D8A4C6EF12F0C8EF12F0F8EF0A
:10258E0012F00BC0D9FF0CC0DAFF050EDE18D8A46E
:10259E00D3EF12F0D5EF12F0DDEF12F00BC0D9FF32
:1025AE000CC0DAFF140EDF6EF8EF12F00BC0D9FF7D
:1025BE000CC0DAFF040EDE18D8A4E8EF12F0EAEF32
:1025CE0012F0F2EF12F00BC0D9FF0CC0DAFF150EAD
:1025DE00DF6EF8EF12F00BC0D9FF0CC0DAFF130E4E
:1025EE00DF6E0BC0D9FF0CC0DAFFDF50D8A402EFAC
:1025FE0013F004EF13F010EF13F0000E456E010E02
:10260E00446E0BC0D9FF0CC0DAFF030EDF6E1EEF57
:10261E0013F00BC0D9FF0CC0DAFFDE04D8A41AEFFA
:10262E0013F01CEF13F01EEF13F008EF13F012006F
:10263E0056C00AF0130E0A18D8A428EF13F02AEF8A
:10264E0013F003EF14F0000E456E010E446E7AEC9B
:10265E000CF00F013F8B3F9F010E0C6E3F813F939D
:10266E0098CF09F0D70E0924F66EF76A3D0EF722C1
:10267E000800F5CF0BF00C0E0B6048EF13F04AEF8D
:10268E0013F05BEF13F00C0E0B263F0E0B24F66EC1
:10269E00F76A3F0EF7220800F5CF09F009C098FF40
:1026AE00000E0C6E68EF13F00C0E0B5E3F0E0B243B
:1026BE00F66EF76A3F0EF7220800F5CF09F009C053
:1026CE0098FF0C50D8B46EEF13F070EF13F0FEEFCE
:1026DE0013F03F913F8398CF09F0D70E0924F66E81
:1026EE00F76A3D0EF7220800F5CF01F001280B6EB8
:1026FE0099CF09F0D70E0924F66EF76A3D0EF72230
:10270E000800F5CF0CF0020E0C18D8A491EF13F0C0
:10271E0093EF13F09FEF13F01D0E0B6499EF13F070
:10272E009BEF13F0F1EF13F0010E0B6EF1EF13F0C0
:10273E000C04D8B4A5EF13F0A7EF13F0DDEF13F0F0
:10274E00030E0C18D8B4AEEF13F0B0EF13F0DDEFAC
:10275E0013F0050E0C18D8B4B7EF13F0B9EF13F051
:10276E00DDEF13F0070E0C18D8B4C0EF13F0C2EF64
:10277E0013F0DDEF13F0080E0C18D8B4C9EF13F0F8
:10278E00CBEF13F0DDEF13F00A0E0C18D8B4D2EF26
:10279E0013F0D4EF13F0DDEF13F00C0E0C18D8A4D9
:1027AE00DBEF13F0DDEF13F0E7EF13F01F0E0B640A
:1027BE00E3EF13F0E5EF13F0F1EF13F09BEF13F0EF
:1027CE001E0E0B64EDEF13F0EFEF13F0F1EF13F0BD
:1027DE009BEF13F03F913F833F0E0B24F66EF76A8B
:1027EE003F0EF7220800F5CF09F009C098FF3F8F82
:1027FE0071EC0CF0E2EF14F0120E0A18D8A40AEFE6
:10280E0014F00CEF14F042EF14F0000E456E010EB2
:10281E00446E7AEC0CF00F013F8B3F9FFC0E3F177E
:10282E0099CF03F0D70E0324F66EF76A3D0EF7220A
:10283E000800F5CF01F00128046E3B0E04642AEF68
:10284E0014F02CEF14F02EEF14F0000E046E3F0E69
:10285E000424F66EF76A3F0EF7220800F5CF03F058
:10286E0003C099FF000E986E3F8F71EC0CF0640E52
:10287E00486EE2EF14F0140E0A18D8A449EF14F0C3
:10288E004BEF14F06EEF14F0000E456E010E446E19
:10289E007AEC0CF00F013F8B3F9F3F813F9399CF16
:1028AE0002F00250070B066E0650D8A461EF14F02A
:1028BE0063EF14F067EF14F0060E066E68EF14F077
:1028CE0006063F8106C099FF3F8FFFEF13F0150EEE
:1028DE000A18D8A475EF14F077EF14F0A8EF14F0DF
:1028EE00000E456E010E446E7AEC0CF00F013F8B1C
:1028FE003F9F030E3F1398CF05F0D70E0524F66EBB
:10290E00F76A3D0EF7220800F5CF07F00750D8A45E
:10291E0093EF14F095EF14F099EF14F0630E076E29
:10292E009AEF14F007063F0E0724F66EF76A3F0E75
:10293E00F7220800F5CF05F005C098FF3F8FFFEF97
:10294E0013F0160E0A18D8A4AFEF14F0B1EF14F06E
:10295E00E2EF14F0000E456E010E446E7AEC0CF0B0
:10296E000F013F8B3F9F3ECF08F008AEC1EF14F032
:10297E00C3EF14F0D3EF14F0820E0860C9EF14F019
:10298E00CBEF14F0CFEF14F07E0E086EDDEF14F0E7
:10299E00020E085EDDEF14F0020E0860D9EF14F09F
:1029AE00DBEF14F0CFEF14F0FE0E086E08C03EFF02
:1029BE003F8FFFEF13F04E50D8A4E8EF14F0EAEF7C
:1029CE0014F012EF15F04D50D8A4F0EF14F0F2EF12
:1029DE0014F012EF15F00A04D8A4F8EF14F0FAEF81
:1029EE0014F0FEEF14F0020E566E12EF15F0040EF8
:1029FE000A18D8B405EF15F007EF15F010EF15F023
:102A0E00110E0A18D8A40EEF15F010EF15F012EFF4
:102A1E0015F00E0E566E120056C00AF0130E0A185E
:102A2E00D8A41CEF15F01EEF15F0F7EF15F0000E01
:102A3E00456E010E446E7AEC0CF00F013F8B3F9FFA
:102A4E00010E0C6E3F813F9398CF09F0D70E0924EB
:102A5E00F66EF76A3D0EF7220800F5CF0BF00C0E5E
:102A6E000B603CEF15F03EEF15F04FEF15F00C0E2E
:102A7E000B263F0E0B24F66EF76A3F0EF722080068
:102A8E00F5CF09F009C098FF000E0C6E5CEF15F043
:102A9E000C0E0B5E3F0E0B24F66EF76A3F0EF722FE
:102AAE000800F5CF09F009C098FF0C50D8B462EFBA
:102ABE0015F064EF15F0F2EF15F03F913F8398CFCC
:102ACE0009F0D70E0924F66EF76A3D0EF7220800BC
:102ADE00F5CF01F001280B6E99CF09F0D70E09241E
:102AEE00F66EF76A3D0EF7220800F5CF0CF0020ED7
:102AFE000C18D8A485EF15F087EF15F093EF15F0AD
:102B0E001D0E0B648DEF15F08FEF15F0E5EF15F040
:102B1E00010E0B6EE5EF15F00C04D8B499EF15F01D
:102B2E009BEF15F0D1EF15F0030E0C18D8B4A2EFF1
:102B3E0015F0A4EF15F0D1EF15F0050E0C18D8B462
:102B4E00ABEF15F0ADEF15F0D1EF15F0070E0C1839
:102B5E00D8B4B4EF15F0B6EF15F0D1EF15F0080EAE
:102B6E000C18D8B4BDEF15F0BFEF15F0D1EF15F07E
:102B7E000A0E0C18D8B4C6EF15F0C8EF15F0D1EF49
:102B8E0015F00C0E0C18D8A4CFEF15F0D1EF15F0F0
:102B9E00DBEF15F01F0E0B64D7EF15F0D9EF15F024
:102BAE00E5EF15F08FEF15F01E0E0B64E1EF15F04B
:102BBE00E3EF15F0E5EF15F08FEF15F03F913F8342
:102BCE003F0E0B24F66EF76A3F0EF7220800F5CF84
:102BDE0009F009C098FF3F8F71EC0CF0F9EF16F079
:102BEE00120E0A18D8A4FEEF15F000EF16F036EF0D
:102BFE0016F0000E456E010E446E7AEC0CF00F01CD
:102C0E003F8B3F9FFC0E3F1799CF03F0D70E032447
:102C1E00F66EF76A3D0EF7220800F5CF01F0012897
:102C2E00046E3B0E04641EEF16F020EF16F022EF3A
:102C3E0016F0000E046E3F0E0424F66EF76A3F0E79
:102C4E00F7220800F5CF03F003C099FF000E986E2F
:102C5E003F8F71EC0CF0640E486EF9EF16F0140E07
:102C6E000A18D8A43DEF16F03FEF16F062EF16F0FB
:102C7E00000E456E010E446E7AEC0CF00F013F8B88
:102C8E003F9F3F813F9399CF02F00250070B066E94
:102C9E000650D8A455EF16F057EF16F05BEF16F06E
:102CAE00060E066E5CEF16F006063F8106C099FF13
:102CBE003F8FF3EF15F0150E0A18D8A469EF16F032
:102CCE006BEF16F09CEF16F0000E456E010E446E83
:102CDE007AEC0CF00F013F8B3F9F030E3F1398CF02
:102CEE0005F0D70E0524F66EF76A3D0EF7220800A2
:102CFE00F5CF07F00750D8A487EF16F089EF16F03E
:102D0E008DEF16F0630E076E8EEF16F007063F0E70
:102D1E000724F66EF76A3F0EF7220800F5CF05F08E
:102D2E0005C098FF3F8FF3EF15F0160E0A18D8A4C2
:102D3E00A3EF16F0A5EF16F0D6EF16F0000E456EC7
:102D4E00010E446E7AEC0CF00F013F8B3F9F3ECF8D
:102D5E0008F008AEB5EF16F0B7EF16F0C7EF16F0A5
:102D6E00820E0860BDEF16F0BFEF16F0C3EF16F03F
:102D7E007E0E086ED1EF16F0020E085ED1EF16F041
:102D8E00020E0860CDEF16F0CFEF16F0C3EF16F07F
:102D9E00FE0E086E08C03EFF3F8FF3EF15F0000EDB
:102DAE00476E030E4860DEEF16F0E0EF16F0F9EF17
:102DBE0016F0482A030E4818D8A4E8EF16F0EAEFEA
:102DCE0016F0F9EF16F00E0E0A18D8A4F1EF16F061
:102DDE00F3EF16F0F7EF16F0160E566EF9EF16F03B
:102DEE00120E566E100E0A18D8A400EF17F002EF4E
:102DFE0017F00BEF17F0010E566E7AEC0CF00F0178
:102E0E003F8B3F8F71EC0CF00A50D8A411EF17F0E6
:102E1E0013EF17F019EF17F0000E456E010E446E0A
:102E2E00010E566E1200000E2F6E000E286E570EFB
:102E3E00326E000E336E78EF17F05A0E346E000EAF
:102E4E00356E540E306E000E316E000E80BA010ECD
:102E5E00236E260E266E2A0E276E3E0E296E260E27
:102E6E002A6E6C0E2B6E190E2C6E91EF17F0590EFA
:102E7E00346E000E356E520E306E000E316E000E38
:102E8E0080B2010E236E0E0E266E230E276EC40E1A
:102E9E00296E1D0E2A6EDE0E2B6E180E2C6E91EF05
:102EAE0017F0580E346E000E356E500E306E000E4A
:102EBE00316E000E82B4010E236EEA0E266E180ECF
:102ECE00276E000E296E000E2A6EA40E2B6E1A0EA1
:102EDE002C6E91EF17F0000E346E000E356E91EFE2
:102EEE0017F02F50156E166A1650000AD8B482EFDE
:102EFE0017F072EF17F01550000AD8B424EF17F040
:102F0E00010AD8B43EEF17F0050AD8B458EF17F0FF
:102F1E0072EF17F034503510D8B498EF17F09AEFCF
:102F2E0017F0BDEF1AF02350D8B4A0EF17F0A2EFB0
:102F3E0017F098EF1AF071EF19F0040E2F18D8A4AD
:102F4E00ABEF17F0ADEF17F0C1EF17F05650D8B446
:102F5E00B3EF17F0B5EF17F0B7EF17F0BDEF1AF0AC
:102F6E004F50D8B4BDEF17F0BFEF17F0C1EF17F009
:102F7E00BDEF1AF034C0D9FF35C0DAFF010EDF6E97
:102F8E0032C0D9FF33C0DAFFDF50D8A4D1EF17F02B
:102F9E00D3EF17F0E2EF17F0000ED76E000ED66EDD
:102FAE00D58E30C0D9FF31C0DAFF000EDE6E000EB6
:102FBE00DD6EF8EF17F0D6CF19F0D7CF1AF01A5002
:102FCE00166E156A1950176E186A1550171216508C
:102FDE00181230C0D9FF31C0DAFF17C0DEFF18C09B
:102FEE00DDFF2FC015F0010E166E152A01EF18F039
:102FFE00D8901636152EFFEF17F032C0D9FF33C01A
:10300E00DAFF1650DF12010E286EBDEF1AF0D6CF82
:10301E001BF0D7CF1CF01C50166E156A1B50176E86
:10302E00186A155017102D6E165018102E6E30C0CF
:10303E00D9FF31C0DAFFDECF15F0DDCF16F02DC08F
:10304E0017F02EC018F01550175E1650185A010EB4
:10305E001724BA0E1820800BD8A438EF18F03AEFC8
:10306E0018F091EF18F029502A10D8B441EF18F04B
:10307E0043EF18F065EF18F034C0D9FF35C0DAFF12
:10308E00030EDF6E30C0D9FF31C0DAFF2DC0DEFF78
:10309E002EC0DDFF02D85EEF18F00500FA6E295043
:1030AE00FD6E2A50FE6EF850FF6EFA501200010EA1
:1030BE004B6E000ECC6ECA840AEF18F034C0D9FFE6
:1030CE0035C0DAFF000EDF6E2FC015F0010E166E42
:1030DE00152A74EF18F0D8901636152E72EF18F0D8
:1030EE001650FF0A176E32C0D9FF33C0DAFF1750E1
:1030FE00DF1632C0D9FF33C0DAFFDF50D8A48AEF13
:10310E0018F08CEF18F08FEF18F0D59E0AEF18F02C
:10311E000AEF18F030C0D9FF31C0DAFFDECF15F05C
:10312E00DDCF16F02DC017F02EC018F01550175E1B
:10313E001650185A000E1724FC0E1820800BD8A417
:10314E00ABEF18F0ADEF18F00AEF18F034C0D9FF5E
:10315E0035C0DAFF020EDE18D8B4B8EF18F0BAEFA9
:10316E0018F00AEF18F034C0D9FF35C0DAFF020E9E
:10317E00DF6E26502710D8B4C7EF18F0C9EF18F03D
:10318E00D6EF18F002D8D6EF18F00500FA6E2650DA
:10319E00FD6E2750FE6EF850FF6EFA501200010EB3
:1031AE004B6E000ECC6ECA840AEF18F0D6CF1DF00F
:1031BE00D7CF1EF01E50166E156A1D50176E186A68
:1031CE00155017102D6E165018102E6E300E256ECF
:1031DE00000E246E10EF19F0110E5664F9EF18F070
:1031EE00FBEF18F02DEF19F0200E256E000E246E59
:1031FE002DEF19F0110E566407EF19F009EF19F0C3
:10320E000BEF19F0FBEF18F0450E256E24682DEF2D
:10321E0019F02F50156E166A1650000AD8B41AEF10
:10322E0019F02DEF19F01550000AD8B4F3EF18F07D
:10323E00010AD8B401EF19F0030AD8B4FBEF18F065
:10324E00010AD8B4FBEF18F02DEF19F030C0D9FFFA
:10325E0031C0DAFFDECF15F0DDCF16F0151E161ECB
:10326E00154A162A2450155E2550165A2D5015242F
:10327E002E501620800BD8A447EF19F049EF19F005
:10328E000AEF18F030C0D9FF31C0DAFF2DC0DEFFD3
:10329E002EC0DDFF29502A10D8B458EF19F05AEF7E
:1032AE0019F00AEF18F002D867EF19F00500FA6E60
:1032BE002950FD6E2A50FE6EF850FF6EFA50120025
:1032CE000AEF18F034C0D9FF35C0DAFF030EDF6EF7
:1032DE000AEF18F034C0D9FF35C0DAFFDF50156E93
:1032EE00166A1650000AD8B47FEF19F0BDEF1AF027
:1032FE001550000AD8B4A4EF17F0010AD8B40EEF97
:10330E0018F0030AD8B40EEF18F0010AD8B4DDEFA6
:10331E0018F0070AD8B469EF19F0BDEF1AF034C0EF
:10332E00D9FF35C0DAFF000EDF6E2FC015F0010E8B
:10333E00166E152AA5EF19F0D8901636152EA3EF96
:10334E0019F01650FF0A176E32C0D9FF33C0DAFFDC
:10335E001750DF1632C0D9FF33C0DAFFDF50D8A4C2
:10336E00BBEF19F0BDEF19F00AEF18F0D59EBDEFC7
:10337E001AF034C0D9FF35C0DAFF000EDF6E2FC051
:10338E0015F0010E166E152ACFEF19F0D8901636DD
:10339E00152ECDEF19F01650FF0A176E32C0D9FF59
:1033AE0033C0DAFF1750DF1632C0D9FF33C0DAFF51
:1033BE00DF50D8A4E5EF19F0E7EF19F0EAEF19F0B6
:1033CE00D59EECEF19F0010E286E2B502C10D8B4B0
:1033DE00F3EF19F0F5EF19F0BDEF1AF002D802EF86
:1033EE001AF00500FA6E2B50FD6E2C50FE6EF85042
:1033FE00FF6EFA501200BDEF1AF034C0D9FF35C07F
:10340E00DAFF040EDF6E32C0D9FF33C0DAFFDF50B1
:10341E00D8A414EF1AF016EF1AF01DEF1AF0000EE2
:10342E00D76E000ED66ED58ED8EF17F0D6CF1FF012
:10343E00D7CF20F02050166E156A1F50176E186ADF
:10344E00155017121650181230C0D9FF31C0DAFFBE
:10345E0017C0DEFF18C0DDFFF8EF17F0D6CF21F052
:10346E00D7CF22F02250166E156A2150176E186AA9
:10347E00155017102D6E165018102E6E30C0D9FF25
:10348E0031C0DAFFDECF15F0DDCF16F02DC017F00C
:10349E002EC018F01550175E1650185A000E17242D
:1034AE00FC0E1820800BD8A45FEF1AF061EF1AF013
:1034BE000AEF18F02FC015F0010E166E152A6AEFDE
:1034CE001AF0D8901636152E68EF1AF01650FF0A1D
:1034DE00176E32C0D9FF33C0DAFF1750DF1632C075
:1034EE00D9FF33C0DAFFDF50D8A480EF1AF082EF95
:1034FE001AF085EF1AF0D59E87EF1AF0010E286E9E
:10350E0034C0D9FF35C0DAFF000EDF6E2B502C1001
:10351E00D8B494EF1AF096EF1AF0BDEF1AF0F5EF5B
:10352E0019F034C0D9FF35C0DAFFDF50156E166AB8
:10353E001650000AD8B4A6EF1AF0BDEF1AF01550C7
:10354E00000AD8B4BDEF1AF0010AD8B496EF19F0FC
:10355E00030AD8B4C0EF19F0010AD8B404EF1AF078
:10356E00070AD8B435EF1AF0BDEF1AF02F2A040E61
:10357E002F64C4EF1AF0C6EF1AF078EF17F0285048
:10358E0012004AC006F00650D8A4D0EF1AF0D2EFBF
:10359E001AF054EF1CF05C685B68000E496E56C062
:1035AE0005F005C046F0C9EF1BF00F013F813F93B8
:1035BE0098CF09F0D70E0924F66EF76A3D0EF72262
:1035CE000800F5CF5CF0170E5C64F0EF1AF0F2EF26
:1035DE001AF0F4EF1AF0000E5C6EBB0E5C24F66E61
:1035EE00F76A3F0EF7220800F5CF5CF0995099CF9D
:1035FE0009F0D70E0924F66EF76A3D0EF722080081
:10360E00F5CF5BF03B0E5B640FEF1BF011EF1BF081
:10361E0013EF1BF0000E5B6E030E496E26EF1CF0CF
:10362E00FC0E0F013F175C6898CF09F0D70E0924E6
:10363E00F66EF76A3D0EF7220800F5CF5BF03B0EF3
:10364E005B642CEF1BF02EEF1BF026EF1CF0000E30
:10365E005B6E26EF1CF03ECF09F009AE39EF1BF082
:10366E003BEF1BF042EF1BF0800E5C6EFF0E091A53
:10367E00092A43EF1BF05C68D89009305B6E26EF89
:10368E001CF00F013F913F8398CF09F0D70E09240C
:10369E00F66EF76A3D0EF7220800F5CF5BF01F0EAF
:1036AE005B645CEF1BF05EEF1BF060EF1BF0010E36
:1036BE005B6E99CF09F0D70E0924F66EF76A3D0EB0
:1036CE00F7220800F5CF5CF00C0E5C6471EF1BF076
:1036DE0073EF1BF075EF1BF0010E5C6E3F813F9395
:1036EE0098CF09F0D70E0924F66EF76A3D0EF72231
:1036FE000800F5CF09F0170E096488EF1BF08AEF6A
:10370E001BF08CEF1BF0000E096EA30E0924F66E53
:10371E00F76A3F0EF7220800F5CF49F026EF1CF0AE
:10372E00030E0F013F1398CF09F0D70E0924F66E42
:10373E00F76A3D0EF7220800F5CF5BF0630E5B646F
:10374E00ABEF1BF0ADEF1BF0AFEF1BF0000E5B6E9F
:10375E005C6826EF1CF00F013F813F9399CF09F073
:10376E00060E0964BDEF1BF0BFEF1BF0C1EF1BF09F
:10377E00000E096E09C05BF026EF1CF0070E5B6EA3
:10378E0026EF1CF00550016E026A0250000AD8B4F2
:10379E00D3EF1BF026EF1CF00150000AD8B426EF31
:1037AE001CF0010AD8B4DCEF1AF0030AD8B417EFF4
:1037BE001BF0010AD8B448EF1BF0070AD8B497EFF4
:1037CE001BF0010AD8B4B2EF1BF0020AD8B4DCEF3A
:1037DE001AF00F0AD8B4DCEF1AF0010AD8B448EF89
:1037EE001BF0030AD8B448EF1BF0010AD8B497EFC8
:1037FE001BF0070AD8B4B2EF1BF0010AD8B417EFCA
:10380E001BF0030AD8B432EF1BF01E0AD8B4C5EF72
:10381E001BF0020AD8B4DCEF1AF0010AD8B448EF54
:10382E001BF0070AD8B4B2EF1BF0010AD8B497EF19
:10383E001BF0030AD8B432EF1BF026EF1CF0050E76
:10384E000518D8B42DEF1CF02FEF1CF050EF1CF024
:10385E000C0E0518D8B436EF1CF038EF1CF050EFF4
:10386E001CF0140E0518D8B43FEF1CF041EF1CF0FD
:10387E0050EF1CF0100E0518D8B448EF1CF04AEFAC
:10388E001CF050EF1CF0E60E3C6E3F0E3D6E54EFFA
:10389E001CF0D60E3C6E3F0E3D6E3CC007F03DC098
:1038AE0008F0010E06645EEF1CF060EF1CF03BEFBB
:1038BE001DF05CC009F00928D8B468EF1CF06AEF5F
:1038CE001CF02FEF1DF0020E0618D8A471EF1CF09D
:1038DE0073EF1CF0E4EF1CF0800E0918D8A47AEFF9
:1038EE001CF07CEF1CF08BEF1CF00A0E0724016E0F
:1038FE00000E0820026E01C0F6FF02C0F7FF08009E
:10390E00F5CF09F09FEF1CF0DB0E0924F66EF76A77
:10391E003E0EF7220800F5500724016E000E082017
:10392E00026E01C0F6FF02C0F7FF0800F5CF09F0E6
:10393E00520E936E0C0E946E000E826E010E811658
:10394E0009A0ACEF1CF0AEEF1CF0AFEF1CF08288BC
:10395E0009A2B4EF1CF0B6EF1CF0B7EF1CF0828A90
:10396E0009A4BCEF1CF0BEEF1CF0BFEF1CF0828C64
:10397E0009A6C4EF1CF0C6EF1CF0C7EF1CF0818641
:10398E0009A8CCEF1CF0CEEF1CF0CFEF1CF0828E0E
:10399E0009AAD4EF1CF0D6EF1CF0D7EF1CF0818AE9
:1039AE0009ACDCEF1CF0DEEF1CF0DFEF1CF08184C5
:1039BE008192500E936E8DEF1EF0030E0618D8A452
:1039CE00EBEF1CF0EDEF1CF039EF1DF0520E936E85
:1039DE000C0E946E000E826E010E8116090E096495
:1039EE00FBEF1CF0FDEF1CF007EF1DF00D0E096054
:1039FE0003EF1DF005EF1DF007EF1DF082888186A5
:103A0E0049B00CEF1DF010EF1DF0016A012A11EF05
:103A1E001DF0016A013A014682500118DF0B0118B0
:103A2E00826E49B21DEF1DF021EF1DF0016A012AD1
:103A3E0022EF1DF0016A013A01460146825001183B
:103A4E00BF0B0118826E819C120E936E8DEF1EF0CD
:103A5E00520E936E0C0E946E000E826E010E811637
:103A6E008DEF1EF08DEF1EF05BC009F00928D8B463
:103A7E0043EF1DF045EF1DF02FEF1DF00650D8A4BB
:103A8E004BEF1DF04DEF1DF0CDEF1DF0D60E0718CC
:103A9E0007E13F0E0818D8A457EF1DF059EF1DF09F
:103AAE0074EF1DF00950016E026AD890013602368D
:103ABE0007C003F008C004F0015003260250042290
:103ACE00010E0326000E042203C0F6FF04C0F7FF0A
:103ADE000800F5CF09F088EF1DF0DB0E0924F66E15
:103AEE00F76A3E0EF7220800F5500724016E000E0D
:103AFE000820026E01C0F6FF02C0F7FF0800F5CFE6
:103B0E0009F0520E936E0C0E946E000E826E010E24
:103B1E00811609A095EF1DF097EF1DF098EF1DF09F
:103B2E00828809A29DEF1DF09FEF1DF0A0EF1DF002
:103B3E00828A09A4A5EF1DF0A7EF1DF0A8EF1DF0D6
:103B4E00828C09A6ADEF1DF0AFEF1DF0B0EF1DF0AA
:103B5E00818609A8B5EF1DF0B7EF1DF0B8EF1DF087
:103B6E00828E09AABDEF1DF0BFEF1DF0C0EF1DF054
:103B7E00818A09ACC5EF1DF0C7EF1DF0C8EF1DF02F
:103B8E0081848296040E946E8DEF1EF00604D8A4E6
:103B9E00D3EF1DF0D5EF1DF08DEF1EF0D60E0718EA
:103BAE0007E13F0E0818D8A4DFEF1DF0E1EF1DF07E
:103BBE00F8EF1DF00950016E026AD89001360236F8
:103BCE0007C003F008C004F001500326025004227F
:103BDE0003C0F6FF04C0F7FF0800F5CF09F042EF6F
:103BEE001EF00A0E0960FEEF1DF000EF1EF02CEF26
:103BFE001EF00FEF1EF0000E096E42EF1EF007C012
:103C0E00F6FF08C0F7FF0800F5CF09F042EF1EF0EF
:103C1E004650016E026A0250000AD8B419EF1EF027
:103C2E0006EF1EF00150030AD8B402EF1EF00A0A86
:103C3E00D8B402EF1EF0030AD8B402EF1EF0190A30
:103C4E00D8B402EF1EF006EF1EF0770E0924F66EC2
:103C5E00F76A3E0EF7220800F5CF09F00950072447
:103C6E00016E000E0820026E01C0F6FF02C0F7FFC3
:103C7E000800F5CF09F0520E936E0C0E946E000EE6
:103C8E00826E010E81160950D8B450EF1EF052EF1D
:103C9E001EF039EF1DF009A057EF1EF059EF1EF080
:103CAE005AEF1EF0828809A25FEF1EF061EF1EF040
:103CBE0062EF1EF0828A09A467EF1EF069EF1EF014
:103CCE006AEF1EF0828C09A66FEF1EF071EF1EF0E8
:103CDE0072EF1EF0818609A877EF1EF079EF1EF0C5
:103CEE007AEF1EF0828E09AA7FEF1EF081EF1EF092
:103CFE0082EF1EF0818A09AC87EF1EF089EF1EF06D
:103D0E008AEF1EF081848198420E936E062A030E6E
:103D1E00066494EF1EF096EF1EF098EF1EF0000E64
:103D2E00066E06C04AF012000000010203040506EA
:103D3E000708097F7F7F7F7F7F0A0B0C0D0E0F1008
:103D4E001112137F7F7F7F7F7F1415161718191A94
:103D5E001B1C1D7F7F7F7F7F7F1E1F202122232420
:103D6E002526277F7F7F7F7F7F28292A2B2C2D2EAC
:103D7E002F30317F7F7F7F7F7F3233343536373838
:103D8E00393A3B7F7F7F7F7F7F3C3D3E3F404142C4
:103D9E004344457F7F7F7F7F7F464748494A4B4C50
:103DAE004D4E4F7F7F7F7F7F7F50515253545556DC
:103DBE005758597F7F7F7F7F7F5A5B5C5D5E5F6068
:103DCE006162637F7F7F7F7F7F00010203040506B0
:103DDE000708090000000000000A0B0C0D0E0F1062
:103DEE001112130000000000001415161718191AEE
:103DFE001B1C1D0000000000001E1F20212223247A
:103E0E0025262700000000000028292A2B2C2D2E05
:103E1E002F30310000000000003233343536373891
:103E2E00393A3B0000000000003C3D3E3F4041421D
:103E3E00434445000000000000464748494A4B4CA9
:103E4E004D4E4F0000000000005051525354555635
:103E5E005758590000000000005A5B5C5D5E5F60C1
:103E6E00616263000000000000000000000000001E
:103E7E000000000101010101010101010102020224
:103E8E0002020202020202030303030303030303FB
:103E9E0003040404040404040404040505050505D0
:103EAE0005050505050606060606060606060607A8
:103EBE00070707070707070707080808080808087D
:103ECE00080808090909090909090909090001026F
:103EDE000304050607080900010203040506070886
:103EEE000900010203040506070809000102030484
:103EFE000506070809000102030405060708090064
:103F0E000102030405060708090001020304050661
:103F1E00070809000102030405060708090001024B
:103F2E000304050607080900010203040506070835
:103F3E0009000102030405060708091011121314E3
:103F4E001516171819202122232425262728293053
:103F5E0031323334353637383940414243444546A1
:103F6E0047484950515253545556575859606162FB
:103F7E006364656667686970717273747576777855
:103F8E0079808182838485868788899091929394A3
:103F9E009596979899010101010101010101010115
:103FAE00010202020202020202020202020C0102DB
:103FBE00030405060708090A0B0C01020304050693
:103FCE000708090A0B052A546D3E373F313E3E79EC
:103FDE00317671776D7700403F065B4F666D7D07DA
:093FEE007F6F404040404040005C
:083FF80080F4D8FFFFF8CFF1BF
:00000001FF
