:020000040000FA
:04000000DEEF0CF033
:1018EE001200FFFF0F013F8F3F9B120050C03EF0D2
:1018FE0051C03FF01200550EA76EAA0EA76E0F0133
:10190E003F8B12007650FC0B0209766E000E786E3D
:10191E0076941200CA50FC0B0209CA6E000ECC6EF1
:10192E00CA94000E4B6E12003F0E7916300E7912CD
:10193E007982000E7B6E000E7A6E79901200000E88
:10194E00896E000E8A6E000E8B6E080E856E000E6E
:10195E00886E1200CD503F0B8009CD6ECF0ECD1686
:10196E00CD86CD829A9E9E909D90CD90120056C0AF
:10197E0001F0020E0118D8A4C7EF0CF0C9EF0CF05D
:10198E00CCEF0CF0CA94000E4B6E1200D59AD59C7B
:10199E00D550F80B0509D56ED596000ED76E000EF4
:1019AE00D66EF29AF294D59E000E576E1200F00E7D
:1019BE00F66E180EF76E000EF86E0900F5CF5BF09E
:1019CE000900F5CF5CF000EE3CF01F0EEE6AE80663
:1019DE00FDE1000EF86E0001A9EF0DF0000EB36EE2
:1019EE00900EB26E010EB16E220E926E520E936E6C
:1019FE000C0E946E809081908096809E0F014869A7
:101A0E001F0E496FC290220E926E1200000E5A6E79
:101A1E00000E596E000E4E6E000E4D6E000E556E7F
:101A2E00000E546E000E536E000E526E000E436E7C
:101A3E00000E426E000E416E000E406E000E586E8D
:101A4E00000E516E000E506E1200220E926E0D0E92
:101A5E000E01E76F010EE86F020EE96FC08E0F01E7
:101A6E004D914D934C85F18CF18AF188F186F2926D
:101A7E00F298F090F086F092F088F094F08AF28E60
:101A8E00F28C80BA4DEF0DF04FEF0DF059EF0DF0D7
:101A9E0080B254EF0DF056EF0DF059EF0DF0D39ECE
:101AAE004D9F03001200D6CF11F0D7CF12F0125077
:101ABE000E6E0D6A11500F6E106A0D500F10136ED0
:101ACE000E501010146E3E50135E3F50145A14BE3A
:101ADE0073EF0DF075EF0DF0A8EF0DF014BE82EF61
:101AEE000DF01304200E1458D8B080EF0DF082EFD5
:101AFE000DF0A8EF0DF05650D8A488EF0DF08AEF38
:101B0E000DF0A8EF0DF05A50D8A490EF0DF092EF13
:101B1E000DF0A8EF0DF05950D8A498EF0DF09AEFF4
:101B2E000DF0A8EF0DF017EC15F05604D8A4A2EFA7
:101B3E000DF0A4EF0DF0A8EF0DF0010E4C6EA8EF16
:101B4E000DF01200A6EC0CF0F5EC0CF0CDEC0CF058
:101B5E00B1EC0CF091EC0CF09BEC0CF089EC0CF071
:101B6E0032EC10F00DEC0DF0C0A6C0EF0DF0C2EF90
:101B7E000DF0C7EF0DF0C0960F014C91CEEF0DF0AA
:101B8E00000ECC6ECA84010E4B6E010E566EF28E96
:101B9E00F28CF18CF18AF188F186F18E000E4A6E8C
:101BAE00000E4F6E000E456E010E446E000E3A6E24
:101BBE001AEC17F04F6E4B50D8B4E8EF0DF0EAEF79
:101BCE000DF07AEF0EF09F0ECC64F0EF0DF0F2EF09
:101BDE000DF06CEF0EF0000ECC6E56C03BF0120EF8
:101BEE003B60FCEF0DF0FEEF0DF016EF0EF04C50DB
:101BFE00D8A404EF0EF006EF0EF00CEF0EF0010E6F
:101C0E00396E770E386E10EF0EF0010E396EF40E3F
:101C1E00386E38C036F039C037F01AEF0EF0040EB9
:101C2E00376EE20E366E444A452A3650445C3750C3
:101C3E004558D8A025EF0EF027EF0EF06CEF0EF002
:101C4E005A50D8A42DEF0EF02FEF0EF068EF0EF0D5
:101C5E005950D8A435EF0EF037EF0EF068EF0EF0B6
:101C6E00100E3B18D8B43EEF0EF040EF0EF068EFBA
:101C7E000EF0120E3B18D8A447EF0EF049EF0EF0FF
:101C8E005FEF0EF0640E4818D8A450EF0EF052EF2E
:101C9E000EF05FEF0EF082EC0CF00F013F8B3F9FCA
:101CAE00FC0E3F17000E986E100E566E6CEF0EF077
:101CBE00CA94000E456E000E446E000E4B6E6CEF15
:101CCE000EF0000E456E640E446E44504510D8A4BE
:101CDE0073EF0EF076EF0EF0010E77EF0EF0000EB2
:101CEE004F127EEF0EF0000E456E010E446E4F50F9
:101CFE00D8B484EF0EF086EF0EF098EF0EF0030ED0
:101D0E003A18D8A48DEF0EF08FEF0EF095EF0EF07F
:101D1E00C8EC1AF0010E3A6EDFEF0DF03A2ADFEF43
:101D2E000DF0000E486E000E476E520E936E0C0EA6
:101D3E00946E000E826E010E8116270E801682ECB6
:101D4E000CF00F013F8B3F8F000E566E0DEC0DF019
:101D5E00000E576E000E4B6E000E4A6ED59ECA9444
:101D6E000F013FB9BDEF0EF0BFEF0EF0B7EF0EF063
:101D7E003F9B79EC0CF0000E4C6EF18EF292F298C5
:101D8E00F090F086F092F088F094F08AF294F18C54
:101D9E00F18AF188F1869E90A490F28EF28CB39E19
:101DAE00C2900F01499F2CEC0DF0000E456E010EF6
:101DBE00446E000E3A6EA6EC0CF0F5EC0CF0DFEF74
:101DCE000DF000EF00F056C00BF0130E0B18D8A458
:101DDE00F3EF0EF0F5EF0EF029EF0FF0000E456E5B
:101DEE00010E446E82EC0CF00F013F8B3F9F3F9132
:101DFE003F8399CF03F0D70E0324F66EF76A3D0E9C
:101E0E00F7220800F5CF01F00128046E0C0E0464D1
:101E1E0013EF0FF015EF0FF017EF0FF0010E046E2A
:101E2E003F913F833F0E0424F66EF76A3F0EF72272
:101E3E000800F5CF03F003C099FF3F8F79EC0CF04B
:101E4E0001EF10F0120E0B18D8A430EF0FF032EF96
:101E5E000FF062EF0FF0000E456E010E446E82EC35
:101E6E000CF00F013F8B3F9F3F813F9398CF05F0C2
:101E7E00D70E0524F66EF76A3D0EF7220800F5CF51
:101E8E0001F00128066E170E066450EF0FF052EFA8
:101E9E000FF054EF0FF0000E066E3F0E0624F66E96
:101EAE00F76A3F0EF7220800F5CF05F005C098FF40
:101EBE003F8F25EF0FF0140E0B18D8A469EF0FF01B
:101ECE006BEF0FF08EEF0FF0000E456E010E446EAD
:101EDE0082EC0CF00F013F8B3F9F3F813F9399CFD8
:101EEE0002F002C001F0070E01160128076E060E61
:101EFE00076484EF0FF086EF0FF088EF0FF0000EFF
:101F0E00076E3F8107C099FF3F8F25EF0FF0150E2B
:101F1E000B18D8A495EF0FF097EF0FF0C7EF0FF057
:101F2E00000E456E010E446E82EC0CF00F013F8BDD
:101F3E003F9F030E3F1398CF08F0D70E0824F66E7E
:101F4E00F76A3D0EF7220800F5CF01F00128096E61
:101F5E00630E0964B5EF0FF0B7EF0FF0B9EF0FF0A6
:101F6E00000E096E3F0E0924F66EF76A3F0EF72239
:101F7E000800F5CF08F008C098FF3F8F25EF0FF04F
:101F8E00160E0B18D8A4CEEF0FF0D0EF0FF001EF16
:101F9E0010F0000E456E010E446E82EC0CF00F0137
:101FAE003F8B3F9F3ECF0AF00AAEE0EF0FF0E2EF1D
:101FBE000FF0F2EF0FF0FD0E0A64E8EF0FF0EAEF0C
:101FCE000FF0EEEF0FF0000E0A6EFCEF0FF0020EA8
:101FDE000A26FCEF0FF07D0E0A64F8EF0FF0FAEF11
:101FEE000FF0EEEF0FF0820E0A6E0AC03EFF3F8F2B
:101FFE0025EF0FF05A50D8A407EF10F009EF10F0AC
:10200E0031EF10F04E50D8A40FEF10F011EF10F08A
:10201E0031EF10F04D50D8A417EF10F019EF10F06B
:10202E0031EF10F0030E0B18D8A420EF10F022EFB2
:10203E0010F026EF10F0050E566E31EF10F0050E73
:10204E000B18D8A42DEF10F02FEF10F031EF10F089
:10205E00040E566E12000F013FB938EF10F03AEF32
:10206E0010F032EF10F082EC0CF00F013F8B3F9F1F
:10207E003FB944EF10F046EF10F03FEF10F0000EB6
:10208E00016E030E3F1398CF02F0370E0224F66E48
:10209E00F76A3D0EF7220800F5CF03F0630E0364D6
:1020AE005BEF10F05DEF10F05FEF10F0010E016EC0
:1020BE00995098CF02F0370E0224F66EF76A3D0E55
:1020CE00F7220800F5CF03F00350D8B471EF10F0EB
:1020DE0073EF10F07BEF10F01F0E036479EF10F02A
:1020EE007BEF10F07DEF10F0010E016E99CF02F034
:1020FE00370E0224F66EF76A3D0EF7220800F5CF72
:10210E0003F00350D8B48EEF10F090EF10F098EF6C
:10211E0010F00C0E036496EF10F098EF10F09AEF9B
:10212E0010F0010E016E98CF02F0370E0224F66EFB
:10213E00F76A3D0EF7220800F5CF03F0170E036481
:10214E00ABEF10F0ADEF10F0AFEF10F0010E016E2F
:10215E0099CF02F0370E0224F66EF76A3D0EF72283
:10216E000800F5CF03F0060E0364C0EF10F0C2EFC7
:10217E0010F0C4EF10F0010E016E98CF02F0370E82
:10218E000224F66EF76A3D0EF7220800F5CF03F033
:10219E003B0E0364D5EF10F0D7EF10F0D9EF10F02F
:1021AE00010E016E99CF02F0370E0224F66EF76A19
:1021BE003D0EF7220800F5CF03F03B0E0364EAEF65
:1021CE0010F0ECEF10F0EEEF10F0010E016E01507A
:1021DE00D8B4F4EF10F0F6EF10F023EF11F03FB992
:1021EE00FBEF10F0FDEF10F0F6EF10F0030E3F13C3
:1021FE00550EF66E3F0EF76E0800F5CF98FF99500C
:10220E00010E986E010E996E000E986E030E996E69
:10221E00000E986E000E996E91909182010E8E6E48
:10222E00010E8F6E000E8E6E010E8F6E000E8E6E74
:10223E00000E8F6E72EF11F0000E016E9180919272
:10224E008ECF02F0370E0224F66EF76A3D0EF7229D
:10225E000800F5CF03F0170E036438EF11F03AEFD4
:10226E0011F03CEF11F0010E016E8F508FCF02F086
:10227E00370E0224F66EF76A3D0EF7220800F5CFF0
:10228E0003F03B0E03644EEF11F050EF11F052EFDE
:10229E0011F0010E016E919091820150D8B45AEF57
:1022AE0011F05CEF11F06AEF11F0010E8E6E010E5F
:1022BE008F6E000E8E6E010E8F6E000E8E6E000EE5
:1022CE008F6E72EF11F0010E8E6E010E8F6E010E7B
:1022DE008F6E000E8E6E3FB977EF11F079EF11F021
:1022EE0072EF11F03F913F93919C9150C30B1809DF
:1022FE00916E919E000E906EA3903F8F3FB98AEF24
:10230E0011F08CEF11F085EF11F079EC0CF012005A
:10231E00560E0B6E000E0C6E0BC0D9FF0CC0DAFF02
:10232E00130EDE18D8A49EEF11F0A0EF11F0D4EF2B
:10233E0011F0000E456E010E446E82EC0CF00F0192
:10234E003F8B3F9F3F913F8399CF03F0D70E0324DE
:10235E00F66EF76A3D0EF7220800F5CF01F0012860
:10236E00046E0C0E0464BEEF11F0C0EF11F0C2EF5C
:10237E0011F0010E046E3F913F833F0E0424F66E62
:10238E00F76A3F0EF7220800F5CF03F003C099FF5E
:10239E003F8F79EC0CF000EF13F00BC0D9FF0CC09F
:1023AE00DAFF120EDE18D8A4DFEF11F0E1EF11F014
:1023BE0011EF12F0000E456E010E446E82EC0CF021
:1023CE000F013F8B3F9F3F813F9398CF05F0D70E74
:1023DE000524F66EF76A3D0EF7220800F5CF01F0E0
:1023EE000128066E170E0664FFEF11F001EF12F0D2
:1023FE0003EF12F0000E066E3F0E0624F66EF76A1D
:10240E003F0EF7220800F5CF05F005C098FF3F8F6D
:10241E00D0EF11F00BC0D9FF0CC0DAFF140EDE188E
:10242E00D8A41CEF12F01EEF12F041EF12F0000EC6
:10243E00456E010E446E82EC0CF00F013F8B3F9FF8
:10244E003F813F9399CF02F002C001F0070E0116B3
:10245E000128076E060E076437EF12F039EF12F0FF
:10246E003BEF12F0000E076E3F8107C099FF3F8FC2
:10247E00D0EF11F00BC0D9FF0CC0DAFF150EDE182D
:10248E00D8A44CEF12F04EEF12F07EEF12F0000EC9
:10249E00456E010E446E82EC0CF00F013F8B3F9F98
:1024AE00030E3F1398CF08F0D70E0824F66EF76A86
:1024BE003D0EF7220800F5CF01F00128096E630EDC
:1024CE0009646CEF12F06EEF12F070EF12F0000E66
:1024DE00096E3F0E0924F66EF76A3F0EF7220800CA
:1024EE00F5CF08F008C098FF3F8FD0EF11F00BC06A
:1024FE00D9FF0CC0DAFF160EDE18D8A489EF12F041
:10250E008BEF12F0BCEF12F0000E456E010E446E12
:10251E0082EC0CF00F013F8B3F9F3ECF0AF00AAECC
:10252E009BEF12F09DEF12F0ADEF12F0FD0E0A646C
:10253E00A3EF12F0A5EF12F0A9EF12F0000E0A6E43
:10254E00B7EF12F0020E0A26B7EF12F07D0E0A64F4
:10255E00B3EF12F0B5EF12F0A9EF12F0820E0A6E81
:10256E000AC03EFF3F8FD0EF11F0000E486E030EF3
:10257E004760C4EF12F0C6EF12F000EF13F0472AD7
:10258E00030E4718D8A4CEEF12F0D0EF12F000EFE2
:10259E0013F00BC0D9FF0CC0DAFF050EDE18D8A45D
:1025AE00DBEF12F0DDEF12F0E5EF12F00BC0D9FF0A
:1025BE000CC0DAFF140EDF6E00EF13F00BC0D9FF64
:1025CE000CC0DAFF040EDE18D8A4F0EF12F0F2EF12
:1025DE0012F0FAEF12F00BC0D9FF0CC0DAFF150E95
:1025EE00DF6E00EF13F00BC0D9FF0CC0DAFF130E35
:1025FE00DF6E0BC0D9FF0CC0DAFFDF50D8A40AEF94
:10260E0013F00CEF13F014EF13F00BC0D9FF0CC046
:10261E00DAFF030EDF6E22EF13F00BC0D9FF0CC0F2
:10262E00DAFFDE04D8A41EEF13F020EF13F022EF32
:10263E0013F00CEF13F0120056C00AF0130E0A1826
:10264E00D8A42CEF13F02EEF13F007EF14F0000EBA
:10265E00456E010E446E82EC0CF00F013F8B3F9FD6
:10266E00010E0C6E3F813F9398CF09F0D70E0924CF
:10267E00F66EF76A3D0EF7220800F5CF0BF00C0E42
:10268E000B604CEF13F04EEF13F05FEF13F00C0EE8
:10269E000B263F0E0B24F66EF76A3F0EF72208004C
:1026AE00F5CF09F009C098FF000E0C6E6CEF13F019
:1026BE000C0E0B5E3F0E0B24F66EF76A3F0EF722E2
:1026CE000800F5CF09F009C098FF0C50D8B472EF8E
:1026DE0013F074EF13F002EF14F03F913F8398CF95
:1026EE0009F0D70E0924F66EF76A3D0EF7220800A0
:1026FE00F5CF01F001280B6E99CF09F0D70E092402
:10270E00F66EF76A3D0EF7220800F5CF0CF0020EBA
:10271E000C18D8A495EF13F097EF13F0A3EF13F066
:10272E001D0E0B649DEF13F09FEF13F0F5EF13F0FA
:10273E00010E0B6EF5EF13F00C04D8B4A9EF13F0E5
:10274E00ABEF13F0E1EF13F0030E0C18D8B4B2EFA9
:10275E0013F0B4EF13F0E1EF13F0050E0C18D8B42C
:10276E00BBEF13F0BDEF13F0E1EF13F0070E0C18F3
:10277E00D8B4C4EF13F0C6EF13F0E1EF13F0080E68
:10278E000C18D8B4CDEF13F0CFEF13F0E1EF13F038
:10279E000A0E0C18D8B4D6EF13F0D8EF13F0E1EF01
:1027AE0013F00C0E0C18D8A4DFEF13F0E1EF13F0BA
:1027BE00EBEF13F01F0E0B64E7EF13F0E9EF13F0DE
:1027CE00F5EF13F09FEF13F01E0E0B64F1EF13F005
:1027DE00F3EF13F0F5EF13F09FEF13F03F913F83FC
:1027EE003F0E0B24F66EF76A3F0EF7220800F5CF68
:1027FE0009F009C098FF3F8F79EC0CF0E6EF14F06A
:10280E00120E0A18D8A40EEF14F010EF14F046EFC3
:10281E0014F0000E456E010E446E82EC0CF00F01AA
:10282E003F8B3F9FFC0E3F1799CF03F0D70E03242B
:10283E00F66EF76A3D0EF7220800F5CF01F001287B
:10284E00046E3B0E04642EEF14F030EF14F032EFF2
:10285E0014F0000E046E3F0E0424F66EF76A3F0E5F
:10286E00F7220800F5CF03F003C099FF000E986E13
:10287E003F8F79EC0CF0640E486EE6EF14F0140EF8
:10288E000A18D8A44DEF14F04FEF14F072EF14F0B5
:10289E00000E456E010E446E82EC0CF00F013F8B64
:1028AE003F9F3F813F9399CF02F00250070B066E78
:1028BE000650D8A465EF14F067EF14F06BEF14F028
:1028CE00060E066E6CEF14F006063F8106C099FFE9
:1028DE003F8F03EF14F0150E0A18D8A479EF14F0F9
:1028EE007BEF14F0ACEF14F0000E456E010E446E4B
:1028FE0082EC0CF00F013F8B3F9F030E3F1398CFDE
:10290E0005F0D70E0524F66EF76A3D0EF722080085
:10291E00F5CF07F00750D8A497EF14F099EF14F005
:10292E009DEF14F0630E076E9EEF14F007063F0E38
:10293E000724F66EF76A3F0EF7220800F5CF05F072
:10294E0005C098FF3F8F03EF14F0160E0A18D8A497
:10295E00B3EF14F0B5EF14F0E6EF14F0000E456E81
:10296E00010E446E82EC0CF00F013F8B3F9F3ECF69
:10297E0008F008AEC5EF14F0C7EF14F0D7EF14F05F
:10298E00820E0860CDEF14F0CFEF14F0D3EF14F0F9
:10299E007E0E086EE1EF14F0020E085EE1EF14F009
:1029AE00020E0860DDEF14F0DFEF14F0D3EF14F039
:1029BE00FE0E086E08C03EFF3F8F03EF14F04E5020
:1029CE00D8A4ECEF14F0EEEF14F016EF15F04D5016
:1029DE00D8A4F4EF14F0F6EF14F016EF15F00A0485
:1029EE00D8A4FCEF14F0FEEF14F002EF15F0020E77
:1029FE00566E16EF15F0040E0A18D8B409EF15F03E
:102A0E000BEF15F014EF15F0110E0A18D8A412EFF3
:102A1E0015F014EF15F016EF15F00E0E566E12009F
:102A2E0056C00AF0130E0A18D8A420EF15F022EFA4
:102A3E0015F0FBEF15F0000E456E010E446E82ECA4
:102A4E000CF00F013F8B3F9F010E0C6E3F813F93A9
:102A5E0098CF09F0D70E0924F66EF76A3D0EF722CD
:102A6E000800F5CF0BF00C0E0B6040EF15F042EFA7
:102A7E0015F053EF15F00C0E0B263F0E0B24F66ED1
:102A8E00F76A3F0EF7220800F5CF09F009C098FF4C
:102A9E00000E0C6E60EF15F00C0E0B5E3F0E0B244D
:102AAE00F66EF76A3F0EF7220800F5CF09F009C05F
:102ABE0098FF0C50D8B466EF15F068EF15F0F6EFEE
:102ACE0015F03F913F8398CF09F0D70E0924F66E8B
:102ADE00F76A3D0EF7220800F5CF01F001280B6EC4
:102AEE0099CF09F0D70E0924F66EF76A3D0EF7223C
:102AFE000800F5CF0CF0020E0C18D8A489EF15F0D3
:102B0E008BEF15F097EF15F01D0E0B6491EF15F08E
:102B1E0093EF15F0E9EF15F0010E0B6EE9EF15F0DE
:102B2E000C04D8B49DEF15F09FEF15F0D5EF15F00E
:102B3E00030E0C18D8B4A6EF15F0A8EF15F0D5EFCC
:102B4E0015F0050E0C18D8B4AFEF15F0B1EF15F067
:102B5E00D5EF15F0070E0C18D8B4B8EF15F0BAEF84
:102B6E0015F0D5EF15F0080E0C18D8B4C1EF15F00E
:102B7E00C3EF15F0D5EF15F00A0E0C18D8B4CAEF46
:102B8E0015F0CCEF15F0D5EF15F00C0E0C18D8A4EF
:102B9E00D3EF15F0D5EF15F0DFEF15F01F0E0B6428
:102BAE00DBEF15F0DDEF15F0E9EF15F093EF15F013
:102BBE001E0E0B64E5EF15F0E7EF15F0E9EF15F0DB
:102BCE0093EF15F03F913F833F0E0B24F66EF76A9D
:102BDE003F0EF7220800F5CF09F009C098FF3F8F8E
:102BEE0079EC0CF0FDEF16F0120E0A18D8A402EFD5
:102BFE0016F004EF16F03AEF16F0000E456E010EC9
:102C0E00446E82EC0CF00F013F8B3F9FFC0E3F1782
:102C1E0099CF03F0D70E0324F66EF76A3D0EF72216
:102C2E000800F5CF01F00128046E3B0E046422EF7C
:102C3E0016F024EF16F026EF16F0000E046E3F0E7F
:102C4E000424F66EF76A3F0EF7220800F5CF03F064
:102C5E0003C099FF000E986E3F8F79EC0CF0640E56
:102C6E00486EFDEF16F0140E0A18D8A441EF16F0B8
:102C7E0043EF16F066EF16F0000E456E010E446E31
:102C8E0082EC0CF00F013F8B3F9F3F813F9399CF1A
:102C9E0002F00250070B066E0650D8A459EF16F03C
:102CAE005BEF16F05FEF16F0060E066E60EF16F095
:102CBE0006063F8106C099FF3F8FF7EF15F0150E00
:102CCE000A18D8A46DEF16F06FEF16F0A0EF16F0FD
:102CDE00000E456E010E446E82EC0CF00F013F8B20
:102CEE003F9F030E3F1398CF05F0D70E0524F66EC7
:102CFE00F76A3D0EF7220800F5CF07F00750D8A46B
:102D0E008BEF16F08DEF16F091EF16F0630E076E47
:102D1E0092EF16F007063F0E0724F66EF76A3F0E87
:102D2E00F7220800F5CF05F005C098FF3F8FF7EFAB
:102D3E0015F0160E0A18D8A4A7EF16F0A9EF16F084
:102D4E00DAEF16F0000E456E010E446E82EC0CF0BA
:102D5E000F013F8B3F9F3ECF08F008AEB9EF16F044
:102D6E00BBEF16F0CBEF16F0820E0860C1EF16F037
:102D7E00C3EF16F0C7EF16F07E0E086ED5EF16F005
:102D8E00020E085ED5EF16F0020E0860D1EF16F0B7
:102D9E00D3EF16F0C7EF16F0FE0E086E08C03EFF1A
:102DAE003F8FF7EF15F0000E476E030E4860E2EF0F
:102DBE0016F0E4EF16F0FDEF16F0482A030E481851
:102DCE00D8A4ECEF16F0EEEF16F0FDEF16F00E0EA7
:102DDE000A18D8A4F5EF16F0F7EF16F0FBEF16F081
:102DEE00160E566EFDEF16F0120E566E100E0A18D7
:102DFE00D8A404EF17F006EF17F00FEF17F0010E3F
:102E0E00566E82EC0CF00F013F8B3F8F79EC0CF07D
:102E1E000A50D8A415EF17F017EF17F019EF17F0A7
:102E2E00010E566E1200000E2F6E000E286E570EFB
:102E3E00326E000E336E78EF17F05A0E346E000EAF
:102E4E00356E540E306E000E316E000E80BA010ECD
:102E5E00236E2E0E266E2A0E276E460E296E260E17
:102E6E002A6E7C0E2B6E190E2C6E91EF17F0590EEA
:102E7E00346E000E356E520E306E000E316E000E38
:102E8E0080B2010E236E1E0E266E230E276ED40EFA
:102E9E00296E1D0E2A6EEE0E2B6E180E2C6E91EFF5
:102EAE0017F0580E346E000E356E500E306E000E4A
:102EBE00316E000E82B4010E236EFA0E266E180EBF
:102ECE00276E000E296E000E2A6EB40E2B6E1A0E91
:102EDE002C6E91EF17F0000E346E000E356E91EFE2
:102EEE0017F02F50156E166A1650000AD8B482EFDE
:102EFE0017F072EF17F01550000AD8B424EF17F040
:102F0E00010AD8B43EEF17F0050AD8B458EF17F0FF
:102F1E0072EF17F034503510D8B498EF17F09AEFCF
:102F2E0017F0BDEF1AF02350D8B4A0EF17F0A2EFB0
:102F3E0017F098EF1AF071EF19F0040E2F18D8A4AD
:102F4E00ABEF17F0ADEF17F0C1EF17F05650D8B446
:102F5E00B3EF17F0B5EF17F0B7EF17F0BDEF1AF0AC
:102F6E004F50D8B4BDEF17F0BFEF17F0C1EF17F009
:102F7E00BDEF1AF034C0D9FF35C0DAFF010EDF6E97
:102F8E0032C0D9FF33C0DAFFDF50D8A4D1EF17F02B
:102F9E00D3EF17F0E2EF17F0000ED76E000ED66EDD
:102FAE00D58E30C0D9FF31C0DAFF000EDE6E000EB6
:102FBE00DD6EF8EF17F0D6CF19F0D7CF1AF01A5002
:102FCE00166E156A1950176E186A1550171216508C
:102FDE00181230C0D9FF31C0DAFF17C0DEFF18C09B
:102FEE00DDFF2FC015F0010E166E152A01EF18F039
:102FFE00D8901636152EFFEF17F032C0D9FF33C01A
:10300E00DAFF1650DF12010E286EBDEF1AF0D6CF82
:10301E001BF0D7CF1CF01C50166E156A1B50176E86
:10302E00186A155017102D6E165018102E6E30C0CF
:10303E00D9FF31C0DAFFDECF15F0DDCF16F02DC08F
:10304E0017F02EC018F01550175E1650185A010EB4
:10305E001724BA0E1820800BD8A438EF18F03AEFC8
:10306E0018F091EF18F029502A10D8B441EF18F04B
:10307E0043EF18F065EF18F034C0D9FF35C0DAFF12
:10308E00030EDF6E30C0D9FF31C0DAFF2DC0DEFF78
:10309E002EC0DDFF02D85EEF18F00500FA6E295043
:1030AE00FD6E2A50FE6EF850FF6EFA501200010EA1
:1030BE004B6E000ECC6ECA840AEF18F034C0D9FFE6
:1030CE0035C0DAFF000EDF6E2FC015F0010E166E42
:1030DE00152A74EF18F0D8901636152E72EF18F0D8
:1030EE001650FF0A176E32C0D9FF33C0DAFF1750E1
:1030FE00DF1632C0D9FF33C0DAFFDF50D8A48AEF13
:10310E0018F08CEF18F08FEF18F0D59E0AEF18F02C
:10311E000AEF18F030C0D9FF31C0DAFFDECF15F05C
:10312E00DDCF16F02DC017F02EC018F01550175E1B
:10313E001650185A000E1724FC0E1820800BD8A417
:10314E00ABEF18F0ADEF18F00AEF18F034C0D9FF5E
:10315E0035C0DAFF020EDE18D8B4B8EF18F0BAEFA9
:10316E0018F00AEF18F034C0D9FF35C0DAFF020E9E
:10317E00DF6E26502710D8B4C7EF18F0C9EF18F03D
:10318E00D6EF18F002D8D6EF18F00500FA6E2650DA
:10319E00FD6E2750FE6EF850FF6EFA501200010EB3
:1031AE004B6E000ECC6ECA840AEF18F0D6CF1DF00F
:1031BE00D7CF1EF01E50166E156A1D50176E186A68
:1031CE00155017102D6E165018102E6E300E256ECF
:1031DE00000E246E10EF19F0110E5664F9EF18F070
:1031EE00FBEF18F02DEF19F0200E256E000E246E59
:1031FE002DEF19F0110E566407EF19F009EF19F0C3
:10320E000BEF19F0FBEF18F0450E256E24682DEF2D
:10321E0019F02F50156E166A1650000AD8B41AEF10
:10322E0019F02DEF19F01550000AD8B4F3EF18F07D
:10323E00010AD8B401EF19F0030AD8B4FBEF18F065
:10324E00010AD8B4FBEF18F02DEF19F030C0D9FFFA
:10325E0031C0DAFFDECF15F0DDCF16F0151E161ECB
:10326E00154A162A2450155E2550165A2D5015242F
:10327E002E501620800BD8A447EF19F049EF19F005
:10328E000AEF18F030C0D9FF31C0DAFF2DC0DEFFD3
:10329E002EC0DDFF29502A10D8B458EF19F05AEF7E
:1032AE0019F00AEF18F002D867EF19F00500FA6E60
:1032BE002950FD6E2A50FE6EF850FF6EFA50120025
:1032CE000AEF18F034C0D9FF35C0DAFF030EDF6EF7
:1032DE000AEF18F034C0D9FF35C0DAFFDF50156E93
:1032EE00166A1650000AD8B47FEF19F0BDEF1AF027
:1032FE001550000AD8B4A4EF17F0010AD8B40EEF97
:10330E0018F0030AD8B40EEF18F0010AD8B4DDEFA6
:10331E0018F0070AD8B469EF19F0BDEF1AF034C0EF
:10332E00D9FF35C0DAFF000EDF6E2FC015F0010E8B
:10333E00166E152AA5EF19F0D8901636152EA3EF96
:10334E0019F01650FF0A176E32C0D9FF33C0DAFFDC
:10335E001750DF1632C0D9FF33C0DAFFDF50D8A4C2
:10336E00BBEF19F0BDEF19F00AEF18F0D59EBDEFC7
:10337E001AF034C0D9FF35C0DAFF000EDF6E2FC051
:10338E0015F0010E166E152ACFEF19F0D8901636DD
:10339E00152ECDEF19F01650FF0A176E32C0D9FF59
:1033AE0033C0DAFF1750DF1632C0D9FF33C0DAFF51
:1033BE00DF50D8A4E5EF19F0E7EF19F0EAEF19F0B6
:1033CE00D59EECEF19F0010E286E2B502C10D8B4B0
:1033DE00F3EF19F0F5EF19F0BDEF1AF002D802EF86
:1033EE001AF00500FA6E2B50FD6E2C50FE6EF85042
:1033FE00FF6EFA501200BDEF1AF034C0D9FF35C07F
:10340E00DAFF040EDF6E32C0D9FF33C0DAFFDF50B1
:10341E00D8A414EF1AF016EF1AF01DEF1AF0000EE2
:10342E00D76E000ED66ED58ED8EF17F0D6CF1FF012
:10343E00D7CF20F02050166E156A1F50176E186ADF
:10344E00155017121650181230C0D9FF31C0DAFFBE
:10345E0017C0DEFF18C0DDFFF8EF17F0D6CF21F052
:10346E00D7CF22F02250166E156A2150176E186AA9
:10347E00155017102D6E165018102E6E30C0D9FF25
:10348E0031C0DAFFDECF15F0DDCF16F02DC017F00C
:10349E002EC018F01550175E1650185A000E17242D
:1034AE00FC0E1820800BD8A45FEF1AF061EF1AF013
:1034BE000AEF18F02FC015F0010E166E152A6AEFDE
:1034CE001AF0D8901636152E68EF1AF01650FF0A1D
:1034DE00176E32C0D9FF33C0DAFF1750DF1632C075
:1034EE00D9FF33C0DAFFDF50D8A480EF1AF082EF95
:1034FE001AF085EF1AF0D59E87EF1AF0010E286E9E
:10350E0034C0D9FF35C0DAFF000EDF6E2B502C1001
:10351E00D8B494EF1AF096EF1AF0BDEF1AF0F5EF5B
:10352E0019F034C0D9FF35C0DAFFDF50156E166AB8
:10353E001650000AD8B4A6EF1AF0BDEF1AF01550C7
:10354E00000AD8B4BDEF1AF0010AD8B496EF19F0FC
:10355E00030AD8B4C0EF19F0010AD8B404EF1AF078
:10356E00070AD8B435EF1AF0BDEF1AF02F2A040E61
:10357E002F64C4EF1AF0C6EF1AF078EF17F0285048
:10358E0012004AC006F00650D8A4D0EF1AF0D2EFBF
:10359E001AF054EF1CF05C685B68000E496E56C062
:1035AE0005F005C046F0C9EF1BF00F013F813F93B8
:1035BE0098CF09F0D70E0924F66EF76A3D0EF72262
:1035CE000800F5CF5CF0170E5C64F0EF1AF0F2EF26
:1035DE001AF0F4EF1AF0000E5C6EBB0E5C24F66E61
:1035EE00F76A3F0EF7220800F5CF5CF0995099CF9D
:1035FE0009F0D70E0924F66EF76A3D0EF722080081
:10360E00F5CF5BF03B0E5B640FEF1BF011EF1BF081
:10361E0013EF1BF0000E5B6E030E496E26EF1CF0CF
:10362E00FC0E0F013F175C6898CF09F0D70E0924E6
:10363E00F66EF76A3D0EF7220800F5CF5BF03B0EF3
:10364E005B642CEF1BF02EEF1BF026EF1CF0000E30
:10365E005B6E26EF1CF03ECF09F009AE39EF1BF082
:10366E003BEF1BF042EF1BF0800E5C6EFF0E091A53
:10367E00092A43EF1BF05C68D89009305B6E26EF89
:10368E001CF00F013F913F8398CF09F0D70E09240C
:10369E00F66EF76A3D0EF7220800F5CF5BF01F0EAF
:1036AE005B645CEF1BF05EEF1BF060EF1BF0010E36
:1036BE005B6E99CF09F0D70E0924F66EF76A3D0EB0
:1036CE00F7220800F5CF5CF00C0E5C6471EF1BF076
:1036DE0073EF1BF075EF1BF0010E5C6E3F813F9395
:1036EE0098CF09F0D70E0924F66EF76A3D0EF72231
:1036FE000800F5CF09F0170E096488EF1BF08AEF6A
:10370E001BF08CEF1BF0000E096EA30E0924F66E53
:10371E00F76A3F0EF7220800F5CF49F026EF1CF0AE
:10372E00030E0F013F1398CF09F0D70E0924F66E42
:10373E00F76A3D0EF7220800F5CF5BF0630E5B646F
:10374E00ABEF1BF0ADEF1BF0AFEF1BF0000E5B6E9F
:10375E005C6826EF1CF00F013F813F9399CF09F073
:10376E00060E0964BDEF1BF0BFEF1BF0C1EF1BF09F
:10377E00000E096E09C05BF026EF1CF0070E5B6EA3
:10378E0026EF1CF00550016E026A0250000AD8B4F2
:10379E00D3EF1BF026EF1CF00150000AD8B426EF31
:1037AE001CF0010AD8B4DCEF1AF0030AD8B417EFF4
:1037BE001BF0010AD8B448EF1BF0070AD8B497EFF4
:1037CE001BF0010AD8B4B2EF1BF0020AD8B4DCEF3A
:1037DE001AF00F0AD8B4DCEF1AF0010AD8B448EF89
:1037EE001BF0030AD8B448EF1BF0010AD8B497EFC8
:1037FE001BF0070AD8B4B2EF1BF0010AD8B417EFCA
:10380E001BF0030AD8B432EF1BF01E0AD8B4C5EF72
:10381E001BF0020AD8B4DCEF1AF0010AD8B448EF54
:10382E001BF0070AD8B4B2EF1BF0010AD8B497EF19
:10383E001BF0030AD8B432EF1BF026EF1CF0050E76
:10384E000518D8B42DEF1CF02FEF1CF050EF1CF024
:10385E000C0E0518D8B436EF1CF038EF1CF050EFF4
:10386E001CF0140E0518D8B43FEF1CF041EF1CF0FD
:10387E0050EF1CF0100E0518D8B448EF1CF04AEFAC
:10388E001CF050EF1CF0E60E3C6E3F0E3D6E54EFFA
:10389E001CF0D60E3C6E3F0E3D6E3CC007F03DC098
:1038AE0008F0010E06645EEF1CF060EF1CF03BEFBB
:1038BE001DF05CC009F00928D8B468EF1CF06AEF5F
:1038CE001CF02FEF1DF0020E0618D8A471EF1CF09D
:1038DE0073EF1CF0E4EF1CF0800E0918D8A47AEFF9
:1038EE001CF07CEF1CF08BEF1CF00A0E0724016E0F
:1038FE00000E0820026E01C0F6FF02C0F7FF08009E
:10390E00F5CF09F09FEF1CF0DB0E0924F66EF76A77
:10391E003E0EF7220800F5500724016E000E082017
:10392E00026E01C0F6FF02C0F7FF0800F5CF09F0E6
:10393E00520E936E0C0E946E000E826E010E811658
:10394E0009A0ACEF1CF0AEEF1CF0AFEF1CF08288BC
:10395E0009A2B4EF1CF0B6EF1CF0B7EF1CF0828A90
:10396E0009A4BCEF1CF0BEEF1CF0BFEF1CF0828C64
:10397E0009A6C4EF1CF0C6EF1CF0C7EF1CF0818641
:10398E0009A8CCEF1CF0CEEF1CF0CFEF1CF0828E0E
:10399E0009AAD4EF1CF0D6EF1CF0D7EF1CF0818AE9
:1039AE0009ACDCEF1CF0DEEF1CF0DFEF1CF08184C5
:1039BE008192500E936E8DEF1EF0030E0618D8A452
:1039CE00EBEF1CF0EDEF1CF039EF1DF0520E936E85
:1039DE000C0E946E000E826E010E8116090E096495
:1039EE00FBEF1CF0FDEF1CF007EF1DF00D0E096054
:1039FE0003EF1DF005EF1DF007EF1DF082888186A5
:103A0E0049B00CEF1DF010EF1DF0016A012A11EF05
:103A1E001DF0016A013A014682500118DF0B0118B0
:103A2E00826E49B21DEF1DF021EF1DF0016A012AD1
:103A3E0022EF1DF0016A013A01460146825001183B
:103A4E00BF0B0118826E819C120E936E8DEF1EF0CD
:103A5E00520E936E0C0E946E000E826E010E811637
:103A6E008DEF1EF08DEF1EF05BC009F00928D8B463
:103A7E0043EF1DF045EF1DF02FEF1DF00650D8A4BB
:103A8E004BEF1DF04DEF1DF0CDEF1DF0D60E0718CC
:103A9E0007E13F0E0818D8A457EF1DF059EF1DF09F
:103AAE0074EF1DF00950016E026AD890013602368D
:103ABE0007C003F008C004F0015003260250042290
:103ACE00010E0326000E042203C0F6FF04C0F7FF0A
:103ADE000800F5CF09F088EF1DF0DB0E0924F66E15
:103AEE00F76A3E0EF7220800F5500724016E000E0D
:103AFE000820026E01C0F6FF02C0F7FF0800F5CFE6
:103B0E0009F0520E936E0C0E946E000E826E010E24
:103B1E00811609A095EF1DF097EF1DF098EF1DF09F
:103B2E00828809A29DEF1DF09FEF1DF0A0EF1DF002
:103B3E00828A09A4A5EF1DF0A7EF1DF0A8EF1DF0D6
:103B4E00828C09A6ADEF1DF0AFEF1DF0B0EF1DF0AA
:103B5E00818609A8B5EF1DF0B7EF1DF0B8EF1DF087
:103B6E00828E09AABDEF1DF0BFEF1DF0C0EF1DF054
:103B7E00818A09ACC5EF1DF0C7EF1DF0C8EF1DF02F
:103B8E0081848296040E946E8DEF1EF00604D8A4E6
:103B9E00D3EF1DF0D5EF1DF08DEF1EF0D60E0718EA
:103BAE0007E13F0E0818D8A4DFEF1DF0E1EF1DF07E
:103BBE00F8EF1DF00950016E026AD89001360236F8
:103BCE0007C003F008C004F001500326025004227F
:103BDE0003C0F6FF04C0F7FF0800F5CF09F042EF6F
:103BEE001EF00A0E0960FEEF1DF000EF1EF02CEF26
:103BFE001EF00FEF1EF0000E096E42EF1EF007C012
:103C0E00F6FF08C0F7FF0800F5CF09F042EF1EF0EF
:103C1E004650016E026A0250000AD8B419EF1EF027
:103C2E0006EF1EF00150030AD8B402EF1EF00A0A86
:103C3E00D8B402EF1EF0030AD8B402EF1EF0190A30
:103C4E00D8B402EF1EF006EF1EF0770E0924F66EC2
:103C5E00F76A3E0EF7220800F5CF09F00950072447
:103C6E00016E000E0820026E01C0F6FF02C0F7FFC3
:103C7E000800F5CF09F0520E936E0C0E946E000EE6
:103C8E00826E010E81160950D8B450EF1EF052EF1D
:103C9E001EF039EF1DF009A057EF1EF059EF1EF080
:103CAE005AEF1EF0828809A25FEF1EF061EF1EF040
:103CBE0062EF1EF0828A09A467EF1EF069EF1EF014
:103CCE006AEF1EF0828C09A66FEF1EF071EF1EF0E8
:103CDE0072EF1EF0818609A877EF1EF079EF1EF0C5
:103CEE007AEF1EF0828E09AA7FEF1EF081EF1EF092
:103CFE0082EF1EF0818A09AC87EF1EF089EF1EF06D
:103D0E008AEF1EF081848198420E936E062A030E6E
:103D1E00066494EF1EF096EF1EF098EF1EF0000E64
:103D2E00066E06C04AF012000000010203040506EA
:103D3E000708097F7F7F7F7F7F0A0B0C0D0E0F1008
:103D4E001112137F7F7F7F7F7F1415161718191A94
:103D5E001B1C1D7F7F7F7F7F7F1E1F202122232420
:103D6E002526277F7F7F7F7F7F28292A2B2C2D2EAC
:103D7E002F30317F7F7F7F7F7F3233343536373838
:103D8E00393A3B7F7F7F7F7F7F3C3D3E3F404142C4
:103D9E004344457F7F7F7F7F7F464748494A4B4C50
:103DAE004D4E4F7F7F7F7F7F7F50515253545556DC
:103DBE005758597F7F7F7F7F7F5A5B5C5D5E5F6068
:103DCE006162637F7F7F7F7F7F00010203040506B0
:103DDE000708090000000000000A0B0C0D0E0F1062
:103DEE001112130000000000001415161718191AEE
:103DFE001B1C1D0000000000001E1F20212223247A
:103E0E0025262700000000000028292A2B2C2D2E05
:103E1E002F30310000000000003233343536373891
:103E2E00393A3B0000000000003C3D3E3F4041421D
:103E3E00434445000000000000464748494A4B4CA9
:103E4E004D4E4F0000000000005051525354555635
:103E5E005758590000000000005A5B5C5D5E5F60C1
:103E6E00616263000000000000000000000000001E
:103E7E000000000101010101010101010102020224
:103E8E0002020202020202030303030303030303FB
:103E9E0003040404040404040404040505050505D0
:103EAE0005050505050606060606060606060607A8
:103EBE00070707070707070707080808080808087D
:103ECE00080808090909090909090909090001026F
:103EDE000304050607080900010203040506070886
:103EEE000900010203040506070809000102030484
:103EFE000506070809000102030405060708090064
:103F0E000102030405060708090001020304050661
:103F1E00070809000102030405060708090001024B
:103F2E000304050607080900010203040506070835
:103F3E0009000102030405060708091011121314E3
:103F4E001516171819202122232425262728293053
:103F5E0031323334353637383940414243444546A1
:103F6E0047484950515253545556575859606162FB
:103F7E006364656667686970717273747576777855
:103F8E0079808182838485868788899091929394A3
:103F9E009596979899010101010101010101010115
:103FAE00010202020202020202020202020C0102DB
:103FBE00030405060708090A0B0C01020304050693
:103FCE000708090A0B052A546D3E373F313E3E79EC
:103FDE00317671776D7700403F065B4F666D7D07DA
:093FEE007F6F404040404040005C
:083FF80080F4D8FFFFF8CFF1BF
:00000001FF
