:020000040000FA
:040000008AEF0DF086
:101A0400FFFF0F013F8F3F9B1200CA94000E3B6EF5
:101A14001200550EA76EAA0EA76E0F013F8B12007F
:101A2400000E3E6E000E3D6EF00EBA167694120055
:101A3400CA50FC0B0209CA6E000ECC6ECA94000E8A
:101A44003B6E12003F0E7916300E79127982000E29
:101A54007B6E000E7A6E799012007650FC0B0209B0
:101A6400766E000E786E76940F01529152831200B6
:101A7400000E896E000E8A6E000E8B6E080E856E47
:101A8400000E886E1200CD503F0B8009CD6ECF0E34
:101A9400CD16CD86CD829A9E9E909D90CD901200BB
:101AA400D59AD59CD550F80B0509D56ED596000E60
:101AB400D76E000ED66EF29AF294D59E000E486E42
:101AC400120047C001F0080E0118D8A46CEF0DF005
:101AD4006EEF0DF072EF0DF0100E476E75EF0DF016
:101AE400CA94000E3B6E1200016EF00EBA16769484
:101AF4000150F80DF350540F776E0150FC0DF35064
:101B04002A0FBB6E7684BA50F00B0C09BA6E120021
:101B1400040EF66E1A0EF76E000EF86E0900F5CF7D
:101B24004DF00900F5CF4EF000EE36F0170EEE6AD8
:101B3400E806FDE1000EF86E0001C1EF13F0000E9F
:101B44004C6E000E4B6E000E4A6E000E496E000E77
:101B5400466E000E456E000E446E000E436E000E7F
:101B6400426E000E416E000E406E000E3F6E12007B
:101B7400000EB36E900EB26E010EB16E270E926E11
:101B8400530E936E080E946E8096809E0F014869E2
:101B94001F0E496FC290270E926E550EA76EAA0EA5
:101BA400A76E0E01FF910E0ED36FFF81120001C0CC
:101BB4003DF002C03EF04750D8A4E3EF0DF0E5EF4E
:101BC4000DF0E7EF0DF0010E476E010E3B6E000EB7
:101BD400CC6ECA84BA9EBA9C540E776ECF0EBA16D7
:101BE4002A0EBB6E7684BA50F00B0C09BA6E120042
:101BF40047C001F00A0E0118D8A403EF0EF005EF58
:101C04000EF009EF0EF0090E476E22EF0EF00B0EE8
:101C14000118D8A410EF0EF012EF0EF016EF0EF02C
:101C24000C0E476E22EF0EF0020E0118D8A41DEF21
:101C34000EF01FEF0EF022EF0EF0CA94000E3B6E72
:101C440012004A50D8A429EF0EF02BEF0EF055EFF6
:101C54000EF04950D8A431EF0EF033EF0EF055EFEB
:101C64000EF047C001F00104D8A43BEF0EF03DEFA5
:101C74000EF041EF0EF0020E476E55EF0EF0040E1B
:101C84000118D8B448EF0EF04AEF0EF053EF0EF0FF
:101C9400110E0118D8A451EF0EF053EF0EF055EFCA
:101CA4000EF00E0E476E1200470E026E000E036E0B
:101CB40002C0D9FF03C0DAFF060EDE18D8A465EF10
:101CC4000EF067EF0EF08FEF0EF0020E4C18D8B442
:101CD4006EEF0EF070EF0EF079EF0EF0030E4C186D
:101CE400D8A477EF0EF079EF0EF08FEF0EF04A5094
:101CF400D8A47FEF0EF081EF0EF08FEF0EF0495075
:101D0400D8A487EF0EF089EF0EF08FEF0EF002C02B
:101D1400D9FF03C0DAFF0F0EDF6E12004C50D8A4B7
:101D240096EF0EF098EF0EF0D2EF0EF04A50D8A4D2
:101D34009EEF0EF0A0EF0EF0D2EF0EF04950D8A4B3
:101D4400A6EF0EF0A8EF0EF0D2EF0EF0470E026EE3
:101D5400000E036E02C0D9FF03C0DAFFDF50016E2C
:101D6400030E0118D8A4B9EF0EF0BBEF0EF0C3EFC9
:101D74000EF002C0D9FF03C0DAFF050EDF6ED2EF0A
:101D84000EF0050E0118D8A4CAEF0EF0CCEF0EF039
:101D9400D2EF0EF002C0D9FF03C0DAFF040EDF6EEB
:101DA4001200270E926E000E0E01E76F010EE86F0F
:101DB400020EE96FC08E0F014D914D934C85F18C4D
:101DC400F18AF188F186F292F288F090F086F0922E
:101DD400F088F094F08AA49091AE02D0A38001D050
:101DE400A390F28EF28C80BAFAEF0EF0FCEF0EF0B4
:101DF40015EF0FF080B201EF0FF003EF0FF015EFC6
:101E04000FF081B008EF0FF00AEF0FF015EF0FF0AD
:101E140080B00FEF0FF011EF0FF015EF0FF0D39E1E
:101E24000F014D9F030012003D503E10D8B41DEF2A
:101E34000FF01FEF0FF021EF0FF012EC0DF047C081
:101E440001F0100E0118D8A42AEF0FF02CEF0FF0B8
:101E540035EF0FF0010E476E0BEC0DF00F013F8BC9
:101E64003F8F03EC0DF00150D8A43BEF0FF03DEF92
:101E74000FF041EF0FF0010E476E62EF0FF0030E0B
:101E84000118D8B448EF0FF04AEF0FF053EF0FF0FA
:101E9400090E0118D8A451EF0FF053EF0FF057EFCC
:101EA4000FF00A0E476E62EF0FF00C0E0118D8A463
:101EB4005EEF0FF060EF0FF062EF0FF00B0E476E66
:101EC40012003D503E10D8B46AEF0FF06CEF0FF0E3
:101ED4006EEF0FF012EC0DF0470E056E000E066E5D
:101EE40005C0D9FF06C0DAFFDF50076E0750D8A43B
:101EF4007EEF0FF080EF0FF088EF0FF005C0D9FFF1
:101F040006C0DAFF080EDF6EDDEF0FF00704D8B469
:101F14008EEF0FF090EF0FF080EF0FF0070E071821
:101F2400D8A497EF0FF099EF0FF09BEF0FF080EF2D
:101F34000FF0030E0718D8B4A2EF0FF0A4EF0FF0C0
:101F4400BFEF0FF0040E0718D8B4ABEF0FF0ADEFEE
:101F54000FF0BFEF0FF0050E0718D8B4B4EF0FF071
:101F6400B6EF0FF0BFEF0FF00A0E0718D8A4BDEFBD
:101F74000FF0BFEF0FF0DDEF0FF0010E4B64C5EF74
:101F84000FF0C7EF0FF0DDEF0FF0010E4C64CDEF53
:101F94000FF0CFEF0FF0D7EF0FF005C0D9FF06C059
:101FA400DAFF0B0EDF6EDDEF0FF005C0D9FF06C0C0
:101FB400DAFF0C0EDF6E4FEC11F012003D503E10B4
:101FC400D8B4E7EF0FF0E9EF0FF0EBEF0FF012ECFE
:101FD4000DF0470E066E000E076E06C0D9FF07C04F
:101FE400DAFFDF50D8A4F9EF0FF0FBEF0FF003EFA7
:101FF40010F006C0D9FF07C0DAFF070EDF6E71EFDD
:1020040010F006C0D9FF07C0DAFFDF50086E030ED8
:102014000818D8B410EF10F012EF10F024EF10F0FD
:102024000A0E0818D8B419EF10F01BEF10F024EFC3
:1020340010F0090E0818D8A422EF10F024EF10F0C5
:1020440044EF10F0010E4B642AEF10F02CEF10F067
:1020540071EF10F0010E4C6432EF10F034EF10F019
:102064003CEF10F006C0D9FF07C0DAFF0A0EDF6E9E
:1020740071EF10F006C0D9FF07C0DAFF090EDF6E5A
:1020840071EF10F00804D8B44AEF10F04CEF10F0E0
:10209400FBEF0FF0080E0818D8B453EF10F055EF0B
:1020A40010F0FBEF0FF00D0E0818D8A45CEF10F041
:1020B4005EEF10F060EF10F0FBEF0FF0040E081865
:1020C400D8A467EF10F069EF10F071EF10F006C0BC
:1020D400D9FF07C0DAFF0B0EDF6E71EF10F02DECA5
:1020E40015F012003D503E10D8B47BEF10F07DEF98
:1020F40010F07FEF10F012EC0DF0470E066E000E9C
:10210400076E06C0D9FF07C0DAFFDF50D8A48DEFF1
:1021140010F08FEF10F097EF10F006C0D9FF07C052
:10212400DAFF030EDF6E4EEF11F006C0D9FF07C0D1
:10213400DAFFDE04D8B4A1EF10F0A3EF10F0B0EF93
:1021440010F006C0D9FF07C0DAFF020EDE18D8A4CB
:10215400AEEF10F0B0EF10F0B8EF10F006C0D9FFFA
:1021640007C0DAFF060EDF6E4EEF11F006C0D9FF8E
:1021740007C0DAFF0F0EDE18D8A4C3EF10F0C5EFC6
:1021840010F04EEF11F0020E4C18D8B4CCEF10F052
:10219400CEEF10F0D7EF10F0030E4C18D8A4D5EF03
:1021A40010F0D7EF10F04EEF11F04A50D8A4DDEF45
:1021B40010F0DFEF10F04EEF11F04950D8A4E5EF26
:1021C40010F0E7EF10F04EEF11F00BEC0DF00F01F3
:1021D4003F8B3F9F9150C30B1809916E91AEF5EF61
:1021E40010F0F8EF10F0010EF9EF10F0000E046E8D
:1021F400056A04500510D8A402EF11F006EF11F09F
:10220400016A012A07EF11F0016A013A0146014609
:1022140091500118BF0B0118916E04500510D8A4F9
:1022240016EF11F018EF11F01EEF11F0000E036E0F
:10223400000E026E21EF11F0000E036E026802C060
:1022440090FF04500510D8A42AEF11F02EEF11F0DE
:10225400016A012A2FEF11F0016AA3500118FE0B45
:102264000118A36EA49004500510D8A43CEF11F0FB
:1022740040EF11F0016A012A41EF11F0016A0132C5
:102284000132915001187F0B0118916E0F013F8F9D
:1022940003EC0DF04EEF11F0120047C002F0080EEF
:1022A4000218D8A458EF11F05AEF11F087EF11F08B
:1022B4000BEC0DF00F013F8B3F9FFC0E3F1799CFA6
:1022C40004F0CD0E0424F66EF76A3D0EF7220800E2
:1022D400F5CF01F00128036E3B0E036474EF11F097
:1022E40076EF11F078EF11F0000E036E350E032433
:1022F400F66EF76A3F0EF7220800F5CF04F004C02B
:1023040099FF000E986E64EF12F00B0E0218D8A419
:102314008EEF11F090EF11F0BEEF11F00BEC0DF019
:102324000F013F8B3F9F030E3F1398CF04F0CD0E58
:102334000424F66EF76A3D0EF7220800F5CF01F08B
:102344000128036E630E0364AAEF11F0ACEF11F0E1
:10235400AEEF11F0000E036E350E0324F66EF76A2D
:102364003F0EF7220800F5CF04F004C098FF3F8F1A
:1023740003EC0DF064EF12F00C0E0218D8A4C5EFB4
:1023840011F0C7EF11F0E6EF11F00BEC0DF00F01B7
:102394003F8B3F9F3F813F9399CF04F004C001F0EE
:1023A400070E01160128036E060E0364DCEF11F01C
:1023B400DEEF11F0E0EF11F0000E036E3F8103C079
:1023C40099FF3F8FBAEF11F00E0E0218D8A4EDEF6B
:1023D40011F0EFEF11F01CEF12F00BEC0DF00F0108
:1023E4003F8B3F9F3ECF04F004AEFBEF11F0FDEFB7
:1023F40011F00DEF12F0FD0E046403EF12F005EF7F
:1024040012F009EF12F0000E046E17EF12F0020E34
:10241400042617EF12F07D0E046413EF12F015EF8B
:1024240012F009EF12F0820E046E04C03EFF3F8FDB
:10243400BAEF11F0060E0218D8B423EF12F025EF0C
:1024440012F02EEF12F00F0E0218D8A42CEF12F097
:102454002EEF12F064EF12F00BEC0DF00F013F8B36
:102464003F9F919091928FCF04F0CD0E0424F66E8D
:10247400F76A3D0EF7220800F5CF01F00128036E3C
:102484003B0E036448EF12F04AEF12F04CEF12F0E7
:10249400000E036E350E0324F66EF76A3F0EF72224
:1024A4000800F5CF04F004C08FFF000E8E6E9190EB
:1024B4009182010E8E6E010E8F6E010E8F6E3F8F14
:1024C400BAEF11F012000F013FB96BEF12F06DEF8C
:1024D40012F065EF12F00BEC0DF00F013F8B3F9FF4
:1024E4003FB977EF12F079EF12F072EF12F0000EAD
:1024F400016E030E3F1398CF02F02D0E0224F66EE8
:10250400F76A3D0EF7220800F5CF03F0630E03646B
:102514008EEF12F090EF12F092EF12F0010E016EB6
:10252400995098CF02F02D0E0224F66EF76A3D0EF4
:10253400F7220800F5CF03F01F0E0364A4EF12F096
:10254400A6EF12F0A8EF12F0010E016E99CF02F07F
:102554002D0E0224F66EF76A3D0EF7220800F5CF21
:1025640003F00350D8B4B9EF12F0BBEF12F0C3EF8D
:1025740012F00C0E0364C1EF12F0C3EF12F0C5EFBA
:1025840012F0010E016E98CF02F02D0E0224F66EA9
:10259400F76A3D0EF7220800F5CF03F0170E036427
:1025A400D6EF12F0D8EF12F0DAEF12F0010E016E4E
:1025B40099CF02F02D0E0224F66EF76A3D0EF72233
:1025C4000800F5CF03F0060E0364EBEF12F0EDEF15
:1025D40012F0EFEF12F0010E016E98CF02F02D0E03
:1025E4000224F66EF76A3D0EF7220800F5CF03F0D9
:1025F4003B0E036400EF13F002EF13F004EF13F04B
:10260400010E016E99CF02F02D0E0224F66EF76AC8
:102614003D0EF7220800F5CF03F03B0E036415EFDF
:1026240013F017EF13F019EF13F0010E016E0150C0
:10263400D8B41FEF13F021EF13F053EF13F03FB9A9
:1026440026EF13F028EF13F021EF13F0030E3F13DE
:102654004A0EF66E3F0EF76E0800F5CF98FF9950BC
:10266400010E986E010E996E410EF66E3F0EF76ED6
:102674000800F5CF98FF030E996E000E986E000EB9
:10268400996E91909182010E8E6E010E8F6E000EE6
:102694008E6E010E8F6E000E8E6E000E8F6EA4EF86
:1026A40013F0000E016E918091928ECF02F02D0EE8
:1026B4000224F66EF76A3D0EF7220800F5CF03F008
:1026C400170E036468EF13F06AEF13F06CEF13F066
:1026D400010E016E8F508FCF02F02D0E0224F66E84
:1026E400F76A3D0EF7220800F5CF03F03B0E0364B2
:1026F4007EEF13F080EF13F082EF13F0010E016E02
:102704000150D8B488EF13F08AEF13F09AEF13F066
:1027140091909182010E8E6E010E8F6E000E8E6E60
:10272400010E8F6E000E8E6E000E8F6EA4EF13F0EE
:1027340091909182010E8E6E010E8F6E010E8F6E3E
:10274400000E8E6E3FB9A9EF13F0ABEF13F0A4EFB8
:1027540013F03F913F93919C9150C30B1809916ED4
:10276400919E000E906EA3903F8F3FB9BCEF13F083
:10277400BEEF13F0B7EF13F003EC0DF012003AECD8
:102784000DF0BAEC0DF052EC0DF045EC0DF01AEC36
:102794000DF024EC0DF02FEC0DF065EC12F0A1EC33
:1027A4000DF0C0A6D8EF13F0DAEF13F0DFEF13F05B
:1027B400C0960F014C91ECEF13F0000ECC6ECA845E
:1027C400010E3B6E010E476E010E026EC00E016ECD
:1027D400D9EC0DF0F28EF28CF18CF18AF188F1864D
:1027E400F18E000E3A6E000E356E010E346E000E40
:1027F400306EA4A000EF14F002EF14F00CEF14F00C
:10280400A4909068170E026E700E016ED9EC0DF054
:10281400000E3C6EB8EC16F02F6E3B50D8B415EF9A
:1028240014F017EF14F0C2EF14F09F0ECC641DEFF8
:1028340014F01FEF14F0B4EF14F0000ECC6E3D0E44
:10284400326E000E336E32C0D9FF33C0DAFFDE5071
:10285400DE10D8B430EF14F032EF14F071EF14F04E
:1028640032C0D9FF33C0DAFFDE06000EDD5A32C0B3
:10287400D9FF33C0DAFFDECF2DF0DDCF2EF02D509F
:102884002E10D8A448EF14F04AEF14F04EEF14F0D1
:1028940012EC0DF06DEF14F02DC02AF02EC02BF0C9
:1028A400060E2C6ED8902B322A322C2E54EF14F0B4
:1028B4002A50070B76EC0DF03CC031F0312AEF0EB4
:1028C400316467EF14F069EF14F06BEF14F0000E4D
:1028D400316E31C03CF0000E356E640E346E344AF5
:1028E400352A5E0E345C010E3558D8A07CEF14F006
:1028F4007EEF14F0B4EF14F04C50D8A484EF14F02D
:1029040086EF14F0B0EF14F04B50D8A48CEF14F011
:102914008EEF14F0B0EF14F04A50D8A494EF14F0F2
:1029240096EF14F0B0EF14F04950D8A49CEF14F0D3
:102934009EEF14F0B0EF14F0100E4718D8B4A5EFC2
:1029440014F0A7EF14F0B0EF14F0CA94000E356E33
:10295400000E346E000E3B6EB4EF14F0000E356EB4
:10296400640E346E34503510D8A4BBEF14F0BEEFAF
:1029740014F0010EBFEF14F0000E2F12C6EF14F086
:10298400000E356E010E346E2F50D8B4CCEF14F017
:10299400CEEF14F0DEEF14F0030E3018D8A4D5EF08
:1029A40014F0D7EF14F0DBEF14F0000E306E16ECD9
:1029B4001AF0302AFBEF13F0530E936E080E946E48
:1029C400000E826E010E8116270E80160BEC0DF0A0
:1029D4000F013F8B3F8F000E476EA1EC0DF0000EF0
:1029E400486E000E3B6E000E3A6ED59ECA940F01DF
:1029F4003FB9FFEF14F001EF15F0F9EF14F03F9B2E
:102A040003EC0DF012EC0DF0F292F288F090F086E7
:102A1400F092F088F094F08AF294F18CF18AF188C3
:102A2400F1869E90A49091AE02D0A38001D0A39091
:102A3400F28EF28CC290D3EC0EF0000E356E010EC5
:102A4400346E000E306E3AEC0DF0BAEC0DF0FBEF84
:102A540013F000EF00F047C002F0070E0218D8A4EC
:102A640036EF15F038EF15F066EF15F00BEC0DF0BE
:102A74000F013F8B3F9F3F813F9398CF04F0CD0ED2
:102A84000424F66EF76A3D0EF7220800F5CF01F034
:102A94000128056E170E056452EF15F054EF15F07A
:102AA40056EF15F0000E056E350E0524F66EF76A26
:102AB4003F0EF7220800F5CF04F004C098FF3F8FC3
:102AC40003EC0DF0B7EF16F0090E0218D8A46DEF61
:102AD40015F06FEF15F09DEF15F00BEC0DF00F01F5
:102AE4003F8B3F9F3F913F8399CF04F0CD0E042449
:102AF400F66EF76A3D0EF7220800F5CF01F00128C3
:102B0400056E0C0E056489EF15F08BEF15F08DEF53
:102B140015F0010E056E3F913F83350E0524F66EC8
:102B2400F76A3F0EF7220800F5CF04F004C099FFBE
:102B34003F8F62EF15F00A0E0218D8A4A4EF15F027
:102B4400A6EF15F03CEF16F00BEC0DF00F013F8BE8
:102B54003F9F3F913F8398CF04F0CD0E0424F66E3F
:102B6400F76A3D0EF7220800F5CF01F00128056E43
:102B740099CF04F0CD0E0424F66EF76A3D0EF722C9
:102B84000800F5CF03F0020E0318D8A4CCEF15F01B
:102B9400CEEF15F0DAEF15F01D0E0564D4EF15F045
:102BA400D6EF15F02CEF16F0010E056E2CEF16F093
:102BB4000304D8B4E0EF15F0E2EF15F018EF16F0C7
:102BC400030E0318D8B4E9EF15F0EBEF15F018EF86
:102BD40016F0050E0318D8B4F2EF15F0F4EF15F063
:102BE40018EF16F0070E0318D8B4FBEF15F0FDEF3D
:102BF40015F018EF16F0080E0318D8B404EF16F009
:102C040006EF16F018EF16F00A0E0318D8B40DEFFD
:102C140016F00FEF16F018EF16F00C0E0318D8A4E8
:102C240016EF16F018EF16F022EF16F01F0E0564DB
:102C34001EEF16F020EF16F02CEF16F0D6EF15F07D
:102C44001E0E056428EF16F02AEF16F02CEF16F08E
:102C5400D6EF15F03F913F83350E0524F66EF76AE3
:102C64003F0EF7220800F5CF04F004C098FF3F8F11
:102C740062EF15F00B0E0218D8A443EF16F045EFDF
:102C840016F071EF16F00BEC0DF00F013F8B3F9F28
:102C9400030E3F1398CF04F0CD0E0424F66EF76AAA
:102CA4003D0EF7220800F5CF01F00128056E630EF2
:102CB40005645FEF16F061EF16F063EF16F0000E97
:102CC400056E350E0524F66EF76A3F0EF7220800EE
:102CD400F5CF04F004C098FF3F8F62EF15F0060EA5
:102CE4000218D8B478EF16F07AEF16F083EF16F0E6
:102CF4000F0E0218D8A481EF16F083EF16F0B7EF89
:102D040016F00BEC0DF00F013F8B3F9F91809192D9
:102D14008ECF04F0CD0E0424F66EF76A3D0EF72232
:102D24000800F5CF01F00128056E170E05649DEF2C
:102D340016F09FEF16F0A1EF16F0000E056E350E9B
:102D44000524F66EF76A3F0EF7220800F5CF04F06B
:102D540004C08EFF91909182010E8E6E010E8F6ED3
:102D6400010E8F6E3F8F62EF15F01200000E236E7E
:102D7400000E1C6E480E246E000E256E2AEF17F00E
:102D84004B0E286E000E296E430E266E000E276E23
:102D9400000E80B2010E196EE80E1A6E200E1B6E24
:102DA400200E1D6E1D0E1E6EAC0E1F6E1C0E206EB0
:102DB40043EF17F04A0E286E000E296E410E266E60
:102DC400000E276E000E81B0010E196EC00E1A6E31
:102DD4001F0E1B6E5A0E1D6E2A0E1E6E0E0E1F6ED9
:102DE4001A0E206E43EF17F0490E286E000E296E5E
:102DF4003F0E266E000E276E000E80B0010E196E77
:102E0400C60E1A6E1E0E1B6E9E0E1D6E220E1E6EBA
:102E1400C60E1F6E1A0E206E43EF17F04C0E286E6E
:102E2400000E296E450E266E000E276E000E80BA27
:102E3400010E196E2C0E1A6E1E0E1B6E460E1D6EA2
:102E44001C0E1E6EF40E1F6E1B0E206E43EF17F049
:102E54002350096E0A6A0A50000AD8B434EF17F0F6
:102E640010EF17F00950010AD8B4C2EF16F0030AA4
:102E7400D8B4DCEF16F0010AD8B4F6EF16F010EF70
:102E840017F01950D8B449EF17F04BEF17F0E6EFED
:102E940019F0BFEF18F028C0D9FF29C0DAFF010EDE
:102EA400DF6E24C0D9FF25C0DAFFDF50D8A45DEF60
:102EB40017F05FEF17F06EEF17F0000ED76E000EED
:102EC400D66ED58E26C0D9FF27C0DAFF000EDE6E7F
:102ED400000EDD6E84EF17F0D6CF0DF0D7CF0EF0D5
:102EE4000E500A6E096A0D500B6E0C6A09500B12D3
:102EF4000A500C1226C0D9FF27C0DAFF0BC0DEFF30
:102F04000CC0DDFF23C009F0010E0A6E092A8DEF03
:102F140017F0D8900A36092E8BEF17F024C0D9FF8A
:102F240025C0DAFF0A50DF12010E1C6E0BEF1AF0F7
:102F3400D6CF0FF0D7CF10F010500A6E096A0F5099
:102F44000B6E0C6A09500B10216E0A500C10226E85
:102F540026C0D9FF27C0DAFFDECF09F0DDCF0AF0A3
:102F640021C00BF022C00CF009500B5E0A500C5A21
:102F7400010E0B24BA0E0C20800BD8A4C4EF17F05A
:102F8400C6EF17F0F1EF17F028C0D9FF29C0DAFF18
:102F9400030EDF6E26C0D9FF27C0DAFF21C0DEFF93
:102FA40022C0DDFF1D501E10D8B4DBEF17F0DDEF9B
:102FB40017F0EAEF17F002D8EAEF17F00500FA6EFF
:102FC4001D50FD6E1E50FE6EF850FF6EFA5012003A
:102FD400010E3B6E000ECC6ECA8496EF17F026C02D
:102FE400D9FF27C0DAFFDECF09F0DDCF0AF021C018
:102FF4000BF022C00CF009500B5E0A500C5A000E64
:103004000B24FC0E0C20800BD8A40BEF18F00DEF52
:1030140018F096EF17F028C0D9FF29C0DAFF020E86
:10302400DE18D8B418EF18F01AEF18F096EF17F06E
:1030340028C0D9FF29C0DAFF020EDF6E1A501B1018
:10304400D8B427EF18F029EF18F036EF18F002D8AB
:1030540036EF18F00500FA6E1A50FD6E1B50FE6E26
:10306400F850FF6EFA501200010E3B6E000ECC6E4B
:10307400CA8496EF17F0D6CF11F0D7CF12F01250C2
:103084000A6E096A11500B6E0C6A09500B10216EFE
:103094000A500C10226E300E186E000E176E5EEF82
:1030A40018F0450E186E17687BEF18F0200E186E96
:1030B400000E176E7BEF18F02350096E0A6A0A504F
:1030C400000AD8B468EF18F07BEF18F00950000A32
:1030D400D8B47BEF18F0010AD8B453EF18F0030A00
:1030E400D8B458EF18F0010AD8B458EF18F07BEFB1
:1030F40018F026C0D9FF27C0DAFFDECF09F0DDCFF4
:103104000AF0091E0A1E094A0A2A1750095E1850B5
:103114000A5A2150092422500A20800BD8A495EF82
:1031240018F097EF18F096EF17F026C0D9FF27C0D4
:10313400DAFF21C0DEFF22C0DDFF1D501E10D8B40F
:10314400A6EF18F0A8EF18F096EF17F002D8B5EF35
:1031540018F00500FA6E1D50FD6E1E50FE6EF850FC
:10316400FF6EFA50120096EF17F028C0D9FF29C05D
:10317400DAFF030EDF6E96EF17F028C0D9FF29C0DF
:10318400DAFFDF50096E0A6A0A50000AD8B4CDEF9C
:1031940018F00BEF1AF00950000AD8B44DEF17F0ED
:1031A400010AD8B49AEF17F0030AD8B49AEF17F0CB
:1031B400010AD8B43DEF18F0070AD8B4B7EF18F0F5
:1031C4000BEF1AF028C0D9FF29C0DAFF000EDF6E1A
:1031D40023C009F0010E0A6E092AF3EF18F0D89003
:1031E4000A36092EF1EF18F00A50FF0A0B6E24C0BC
:1031F400D9FF25C0DAFF0B50DF1624C0D9FF25C044
:10320400DAFFDF50D8A409EF19F00BEF19F096EFAD
:1032140017F0D59E0BEF1AF028C0D9FF29C0DAFFAA
:10322400000EDF6E23C009F0010E0A6E092A1DEF9D
:1032340019F0D8900A36092E1BEF19F00A50FF0A2C
:103244000B6E24C0D9FF25C0DAFF0B50DF1624C053
:10325400D9FF25C0DAFFDF50D8A433EF19F035EFDA
:1032640019F038EF19F0D59E3AEF19F0010E1C6EE3
:103274001F502010D8B441EF19F043EF19F00BEFB1
:103284001AF002D850EF19F00500FA6E1F50FD6EC7
:103294002050FE6EF850FF6EFA5012000BEF1AF039
:1032A40028C0D9FF29C0DAFF040EDF6E24C0D9FF7D
:1032B40025C0DAFFDF50D8A462EF19F064EF19F0EB
:1032C4006BEF19F0000ED76E000ED66ED58E64EF3C
:1032D40017F0D6CF13F0D7CF14F014500A6E096A42
:1032E40013500B6E0C6A09500B120A500C1226C0B4
:1032F400D9FF27C0DAFF0BC0DEFF0CC0DDFF84EF6F
:1033040017F0D6CF15F0D7CF16F016500A6E096A0B
:1033140015500B6E0C6A09500B10216E0A500C10DC
:10332400226E26C0D9FF27C0DAFFDECF09F0DDCF39
:103334000AF021C00BF022C00CF009500B5E0A50B9
:103344000C5A000E0B24FC0E0C20800BD8A4ADEFFD
:1033540019F0AFEF19F096EF17F023C009F0010E42
:103364000A6E092AB8EF19F0D8900A36092EB6EF7A
:1033740019F00A50FF0A0B6E24C0D9FF25C0DAFFEA
:103384000B50DF1624C0D9FF25C0DAFFDF50D8A4C4
:10339400CEEF19F0D0EF19F0D3EF19F0D59ED5EF99
:1033A40019F0010E1C6E28C0D9FF29C0DAFF000EE7
:1033B400DF6E1F502010D8B4E2EF19F0E4EF19F0DB
:1033C4000BEF1AF043EF19F028C0D9FF29C0DAFF38
:1033D400DF50096E0A6A0A50000AD8B4F4EF19F0F3
:1033E4000BEF1AF00950000AD8B40BEF1AF0010AD7
:1033F400D8B4E4EF18F0030AD8B40EEF19F0010AB8
:10340400D8B452EF19F0070AD8B483EF19F00BEFD0
:103414001AF0232A030E236412EF1AF014EF1AF0A1
:103424002AEF17F01C5012003AC008F00850D8A434
:103434001EEF1AF020EF1AF0BEEF1BF04E684D6835
:10344400000E396E47C007F007C038F048EF1BF094
:10345400070E4D6E99EF1BF00F013F813F9398CFFC
:103464000BF0CD0E0B24F66EF76A3D0EF722080022
:10347400F5CF4EF0170E4E6442EF1AF044EF1AF0F7
:1034840046EF1AF0000E4E6E995099CF0BF0CD0E08
:103494000B24F66EF76A3D0EF7220800F5CF4DF0C7
:1034A4003B0E4D6458EF1AF05AEF1AF05CEF1AF025
:1034B400000E4D6E3D503E10D8B463EF1AF065EF28
:1034C4001AF099EF1BF03C40E8423F0B016E026A90
:1034D400990E0124F66E3F0E0220F76E0800F5CF18
:1034E40039F099EF1BF0FC0E0F013F174E6898CF8F
:1034F4000BF0CD0E0B24F66EF76A3D0EF722080092
:10350400F5CF4DF03B0E4D648AEF1AF08CEF1AF0B4
:1035140099EF1BF0000E4D6E99EF1BF03ECF0BF0B0
:103524000BAE97EF1AF099EF1AF0A0EF1AF0800E95
:103534004E6EFF0E0B1A0B2AA1EF1AF04E68D890AC
:103544000B304D6E99EF1BF00F013F913F8398CFE5
:103554000BF0CD0E0B24F66EF76A3D0EF722080031
:10356400F5CF4DF01F0E4D64BAEF1AF0BCEF1AF010
:10357400BEEF1AF0010E4D6E99CF0BF0CD0E0B2459
:10358400F66EF76A3D0EF7220800F5CF4EF00C0EEA
:103594004E64CFEF1AF0D1EF1AF0D3EF1AF0010E08
:1035A4004E6E010E396E99EF1BF0030E0F013F139F
:1035B40098CF0BF0CD0E0B24F66EF76A3D0EF72272
:1035C4000800F5CF4DF0630E4D64EBEF1AF0EDEF0C
:1035D4001AF0EFEF1AF0000E4D6E140E4E6E99EFC6
:1035E4001BF00F013F813F9399CF0BF0060E0B6444
:1035F400FEEF1AF000EF1BF002EF1BF0000E0B6E53
:103604000BC04DF099EF1BF0918091928ECF0BF08F
:10361400CD0E0B24F66EF76A3D0EF7220800F5CFA7
:103624004EF0170E4E6419EF1BF01BEF1BF01DEF4D
:103634001BF0000E4E6E8F508FCF0BF0CD0E0B246F
:10364400F66EF76A3D0EF7220800F5CF4DF03B0EFB
:103654004D642FEF1BF031EF1BF033EF1BF0000E26
:103664004D6E91BE38EF1BF03AEF1BF040EF1BF0AC
:10367400000E066E000E056E44EF1BF0000E066E83
:10368400020E056E05C039F099EF1BF00750016E6C
:10369400026A0250000AD8B452EF1BF099EF1BF0F3
:1036A4000150000AD8B499EF1BF0010AD8B42EEFE8
:1036B4001AF0030AD8B475EF1AF0010AD8B4A6EFC9
:1036C4001AF0070AD8B4D7EF1AF0010AD8B4F3EF06
:1036D4001AF0030AD8B406EF1BF0010AD8B42EEF8F
:1036E4001AF00F0AD8B42EEF1AF0010AD8B4A6EFD4
:1036F4001AF0030AD8B4A6EF1AF0010AD8B4D7EF27
:103704001AF0070AD8B4F3EF1AF0010AD8B475EF27
:103714001AF0030AD8B490EF1AF0010AD8B406EFED
:103724001BF01F0AD8B42AEF1AF099EF1BF0050E0C
:103734000718D8B4A0EF1BF0A2EF1BF0BAEF1BF0F0
:103744000C0E0718D8B4A9EF1BF0ABEF1BF0BAEFBF
:103754001BF0100E0718D8B4B2EF1BF0B4EF1BF037
:10376400BAEF1BF0E50E366E3F0E376EBEEF1BF060
:10377400D50E366E3F0E376E36C009F037C00AF0EC
:10378400010E0864C8EF1BF0CAEF1BF028EF1DF010
:103794004EC00BF00B28D8B4D2EF1BF0D4EF1BF0C3
:1037A4001BEF1DF0020E0818D8A4DBEF1BF0DDEFB1
:1037B4001BF057EF1CF0800E0B18D8A4E4EF1BF09D
:1037C400E6EF1BF0F5EF1BF00A0E0924016E000E64
:1037D4000A20026E01C0F6FF02C0F7FF0800F5CF11
:1037E4000BF009EF1CF0D10E0B24F66EF76A3E0EB7
:1037F400F7220800F5500924016E000E0A20026E1B
:1038040001C0F6FF02C0F7FF0800F5CF0BF0530E1E
:10381400936E080E946EF00E82122C0E8112808C20
:103824000BA017EF1CF019EF1CF01AEF1CF0829894
:103834000BA21FEF1CF021EF1CF022EF1CF0829A68
:103844000BA427EF1CF029EF1CF02AEF1CF0829C3C
:103854000BA62FEF1CF031EF1CF032EF1CF0819619
:103864000BA837EF1CF039EF1CF03AEF1CF0829EE6
:103874000BAA3FEF1CF041EF1CF042EF1CF0819AC1
:103884000BAC47EF1CF049EF1CF04AEF1CF081949D
:1038940039A04FEF1CF051EF1CF052EF1CF0809C4C
:1038A4008182510E936E88EF1EF0030E0818D8A47F
:1038B4005EEF1CF060EF1CF088EF1EF00A0E0B6048
:1038C40066EF1CF068EF1CF0A4EF1CF077EF1CF01F
:1038D400000E0B6EC5EF1CF009C0F6FF0AC0F7FF1F
:1038E4000800F5CF0BF0C5EF1CF03850016E026AEA
:1038F4000250000AD8B481EF1CF06EEF1CF00150A6
:10390400010AD8B46AEF1CF0020AD8B46AEF1CF0BA
:10391400050AD8B46AEF1CF0010AD8B46AEF1CF0A7
:103924000F0AD8B46AEF1CF0010AD8B46AEF1CF08D
:10393400030AD8B46AEF1CF0050AD8B46AEF1CF085
:103944006EEF1CF0800E0B18D8A4ABEF1CF0ADEF9B
:103954001CF0AFEF1CF06AEF1CF06D0E0B24F66E3A
:10396400F76A3E0EF7220800F5CF0BF00B5009243E
:10397400016E000E0A20026E01C0F6FF02C0F7FFBE
:103984000800F5CF0BF0530E936E080E946EF00EF4
:1039940082122C0E8112808C0B50D8B4D4EF1CF000
:1039A400D6EF1CF026EF1DF00BA0DBEF1CF0DDEFD3
:1039B4001CF0DEEF1CF082980BA2E3EF1CF0E5EFA5
:1039C4001CF0E6EF1CF0829A0BA4EBEF1CF0EDEF79
:1039D4001CF0EEEF1CF0829C0BA6F3EF1CF0F5EF4D
:1039E4001CF0F6EF1CF081960BA8FBEF1CF0FDEF2A
:1039F4001CF0FEEF1CF0829E0BAA03EF1DF005EFF6
:103A04001DF006EF1DF0819A0BAC0BEF1DF00DEFCE
:103A14001DF00EEF1DF0819439A413EF1DF015EF86
:103A24001DF016EF1DF0809C818C130E936E88EFB1
:103A34001EF0530E936E080E946EF00E82122C0E2E
:103A44008112808C88EF1EF088EF1EF04DC00BF0C1
:103A54000B28D8B430EF1DF032EF1DF01BEF1DF032
:103A64000850D8A438EF1DF03AEF1DF0C3EF1DF055
:103A7400D50E091807E13F0E0A18D8A444EF1DF02B
:103A840046EF1DF061EF1DF00B50016E026AD890F5
:103A94000136023609C003F00AC004F001500326BF
:103AA40002500422010E0326000E042203C0F6FF76
:103AB40004C0F7FF0800F5CF0BF075EF1DF0D10E31
:103AC4000B24F66EF76A3E0EF7220800F55009241F
:103AD400016E000E0A20026E01C0F6FF02C0F7FF5D
:103AE4000800F5CF0BF0530E936E080E946EF00E93
:103AF40082122C0E8112808C0BA083EF1DF085EFB7
:103B04001DF086EF1DF082980BA28BEF1DF08DEF58
:103B14001DF08EEF1DF0829A0BA493EF1DF095EF2C
:103B24001DF096EF1DF0829C0BA69BEF1DF09DEF00
:103B34001DF09EEF1DF081960BA8A3EF1DF0A5EFDD
:103B44001DF0A6EF1DF0829E0BAAABEF1DF0ADEFAA
:103B54001DF0AEEF1DF0819A0BACB3EF1DF0B5EF85
:103B64001DF0B6EF1DF0819439A2BBEF1DF0BDEF3F
:103B74001DF0BEEF1DF0809C8286000E946E88EFCF
:103B84001EF00804D8A4C9EF1DF0CBEF1DF088EF98
:103B94001EF0D50E091807E13F0E0A18D8A4D5EF78
:103BA4001DF0D7EF1DF0EEEF1DF00B50016E026A11
:103BB400D8900136023609C003F00AC004F001505F
:103BC40003260250042203C0F6FF04C0F7FF0800D6
:103BD400F5CF0BF034EF1EF00A0E0B60F4EF1DF07E
:103BE400F6EF1DF01EEF1EF005EF1EF0000E0B6E3B
:103BF40034EF1EF009C0F6FF0AC0F7FF0800F5CF46
:103C04000BF034EF1EF03850016E026A0250000AC5
:103C1400D8B40FEF1EF0FCEF1DF00150030AD8B426
:103C2400F8EF1DF00A0AD8B4F8EF1DF0030AD8B46F
:103C3400F8EF1DF0FCEF1DF06D0E0B24F66EF76A25
:103C44003E0EF7220800F5CF0BF00B500924016E4D
:103C5400000E0A20026E01C0F6FF02C0F7FF080042
:103C6400F5CF0BF0530E936E080E946EF00E821285
:103C74002C0E8112808C0B50D8B443EF1EF045EF0C
:103C84001EF026EF1DF00BA04AEF1EF04CEF1EF0C5
:103C94004DEF1EF082980BA252EF1EF054EF1EF06F
:103CA40055EF1EF0829A0BA45AEF1EF05CEF1EF043
:103CB4005DEF1EF0829C0BA662EF1EF064EF1EF017
:103CC40065EF1EF081960BA86AEF1EF06CEF1EF0F4
:103CD4006DEF1EF0829E0BAA72EF1EF074EF1EF0C1
:103CE40075EF1EF0819A0BAC7AEF1EF07CEF1EF09C
:103CF4007DEF1EF0819439A682EF1EF084EF1EF052
:103D040085EF1EF0809C8188430E936E082A030E73
:103D140008648FEF1EF091EF1EF093EF1EF0000E7B
:103D2400086E08C03AF01200000001020304050600
:103D34000708097F7F7F7F7F7F0A0B0C0D0E0F1012
:103D44001112137F7F7F7F7F7F1415161718191A9E
:103D54001B1C1D7F7F7F7F7F7F1E1F20212223242A
:103D64002526277F7F7F7F7F7F28292A2B2C2D2EB6
:103D74002F30317F7F7F7F7F7F3233343536373842
:103D8400393A3B7F7F7F7F7F7F3C3D3E3F404142CE
:103D94004344457F7F7F7F7F7F464748494A4B4C5A
:103DA4004D4E4F7F7F7F7F7F7F50515253545556E6
:103DB4005758597F7F7F7F7F7F5A5B5C5D5E5F6072
:103DC4006162637F7F7F7F7F7F00010203040506BA
:103DD4000708090000000000000A0B0C0D0E0F106C
:103DE4001112130000000000001415161718191AF8
:103DF4001B1C1D0000000000001E1F202122232484
:103E040025262700000000000028292A2B2C2D2E0F
:103E14002F3031000000000000323334353637389B
:103E2400393A3B0000000000003C3D3E3F40414227
:103E3400434445000000000000464748494A4B4CB3
:103E44004D4E4F000000000000505152535455563F
:103E54005758590000000000005A5B5C5D5E5F60CB
:103E64006162630000000000000000000000000028
:103E7400000000010101010101010101010202022E
:103E84000202020202020203030303030303030305
:103E940003040404040404040404040505050505DA
:103EA40005050505050606060606060606060607B2
:103EB4000707070707070707070808080808080887
:103EC4000808080909090909090909090900010279
:103ED4000304050607080900010203040506070890
:103EE400090001020304050607080900010203048E
:103EF400050607080900010203040506070809006E
:103F0400010203040506070809000102030405066B
:103F14000708090001020304050607080900010255
:103F2400030405060708090001020304050607083F
:103F340009000102030405060708091011121314ED
:103F4400151617181920212223242526272829305D
:103F540031323334353637383940414243444546AB
:103F64004748495051525354555657585960616205
:103F7400636465666768697071727374757677785F
:103F840079808182838485868788899091929394AD
:103F94009596979899040404040404040404040101
:103FA40001010101010101010108080808080808CC
:103FB40008080802020202020202020202080808B9
:103FC40008080808080808010101010101010101AC
:103FD400016D3E373F313E3E79317671776D770022
:103FE400403F065B4F666D7D077F6F404040404019
:043FF400402A54000B
:083FF80080F4D8FFFFF8CFF1BF
:00000001FF
