:020000040000FA
:04000000AEEF0EF061
:101C88001200FFFF0F013F8F3F9B1200CA94000E06
:101C9800386E1200550EA76EAA0EA76E0F013F8B65
:101CA80012007650FC0B0209766E000E786E769460
:101CB8001200CA50FC0B0209CA6E000ECC6ECA9400
:101CC800000E386E12003F0E7916300E79127982A6
:101CD800000E7B6E000E7A6E79901200000E896EEF
:101CE800000E8A6E000E8B6E080E856E000E886ED2
:101CF8001200CD503F0B8009CD6ECF0ECD16CD868C
:101D0800CD829A9E9E909D90CD901200D59AD59C9A
:101D1800D550F80B0509D56ED596000ED76E000E76
:101D2800D66EF29AF294D59E000E436E120042C00F
:101D380001F0080E0118D8A4A4EF0EF0A6EF0EF0DB
:101D4800AAEF0EF0100E426EADEF0EF0CA94000E20
:101D5800386E12008A0EF66E1C0EF76E000EF86EC4
:101D68000900F5CF48F00900F5CF49F000EE2CF056
:101D78001C0EEE6AE806FDE1000EF86E00014BEF5E
:101D880012F0000E476E000E466E000E456E000EF5
:101D9800446E000E416E000E406E000E3F6E000E47
:101DA8003E6E000E3D6E000E3C6E000E3B6E000E49
:101DB8003A6E1200000EB36E900EB26E010EB16E46
:101DC800270E926E530E936E0C0E946E8096809E24
:101DD8000F014869170E496FC18EC19CC150C70BCE
:101DE8000809C16EC150F80B0209C16E498FC29C27
:101DF800C29EC250C30B2C09C26EC280270E926EBF
:101E08001200420E026E000E036E02C0D9FF03C01C
:101E1800DAFFDF50D8A413EF0FF015EF0FF01DEF26
:101E28000FF002C0D9FF03C0DAFF030EDF6E2BEFFD
:101E38000FF002C0D9FF03C0DAFFDE04D8A427EFF1
:101E48000FF029EF0FF02BEF0FF015EF0FF0120046
:101E580042C001F00A0E0118D8A435EF0FF037EF91
:101E68000FF03BEF0FF0090E426E54EF0FF00B0E20
:101E78000118D8A442EF0FF044EF0FF048EF0FF02D
:101E88000C0E426E54EF0FF0020E0118D8A44FEF5B
:101E98000FF051EF0FF054EF0FF0CA94000E386EA8
:101EA800120042C001F04550D8A45DEF0FF05FEF7B
:101EB8000FF087EF0FF04450D8A465EF0FF067EFED
:101EC8000FF087EF0FF00104D8A46DEF0FF06FEF5C
:101ED8000FF073EF0FF0020E426E87EF0FF0040E53
:101EE8000118D8B47AEF0FF07CEF0FF085EF0FF000
:101EF800110E0118D8A483EF0FF085EF0FF087EFCC
:101F08000FF00E0E426E1200000E066E000E056EE9
:101F180003500410D8B493EF0FF095EF0FF0BDEF16
:101F28000FF0010E076E9DEF0FF0D89003360436C0
:101F3800072A04AEA2EF0FF0A4EF0FF099EF0FF00D
:101F4800D890053606360350015C04500258D8A0D4
:101F5800B0EF0FF0B2EF0FF0B7EF0FF00350015EE4
:101F68000450025A0580D89004320332072EA4EF99
:101F78000FF005C001F006C002F01200270E926EA5
:101F8800000E0E01E76F010EE86F020EE96FC08EBA
:101F98000F014D914D934C85F18CF18AF188F186B2
:101FA800F292F288F090F086F092F088F094F08A3D
:101FB800F28EF28C80BAE3EF0FF0E5EF0FF0FDEF51
:101FC8000FF080B2EAEF0FF0ECEF0FF0FDEF0FF03B
:101FD80081B0F1EF0FF0F3EF0FF0FDEF0FF080B0ED
:101FE800F8EF0FF0FAEF0FF0FDEF0FF0D39E4D9FD3
:101FF8000300120042C001F04750D8A406EF10F0C9
:1020080008EF10F03FEF10F04550D8A40EEF10F095
:1020180010EF10F03FEF10F04450D8A416EF10F076
:1020280018EF10F03FEF10F0030E0118D8A41FEFBF
:1020380010F021EF10F025EF10F0050E426E3FEF83
:1020480010F0050E0118D8A42CEF10F02EEF10F0A8
:1020580032EF10F0040E426E3FEF10F0040E01183C
:10206800D8A439EF10F03BEF10F03FEF10F0110E4D
:10207800426E3FEF10F0120042C001F0100E01183E
:10208800D8A449EF10F04BEF10F054EF10F0010E08
:10209800426E4EEC0EF00F013F8B3F8F46EC0EF078
:1020A8000150D8A45AEF10F05CEF10F060EF10F078
:1020B800010E426E81EF10F0030E0118D8B467EFDD
:1020C80010F069EF10F072EF10F0090E0118D8A4A3
:1020D80070EF10F072EF10F076EF10F00A0E426E0B
:1020E80081EF10F00C0E0118D8A47DEF10F07FEFEF
:1020F80010F081EF10F00B0E426E1200420E056ECA
:10210800000E066E05C0D9FF06C0DAFFDF50076E65
:102118000750D8A492EF10F094EF10F09CEF10F055
:1021280005C0D9FF06C0DAFF080EDF6EF1EF10F028
:102138000704D8B4A2EF10F0A4EF10F094EF10F059
:10214800070E0718D8A4ABEF10F0ADEF10F0AFEF03
:1021580010F094EF10F0030E0718D8B4B6EF10F093
:10216800B8EF10F0D3EF10F0040E0718D8B4BFEF93
:1021780010F0C1EF10F0D3EF10F0050E0718D8B427
:10218800C8EF10F0CAEF10F0D3EF10F00A0E0718DE
:10219800D8A4D1EF10F0D3EF10F0F1EF10F0010E4A
:1021A8004664D9EF10F0DBEF10F0F1EF10F0010EFC
:1021B8004764E1EF10F0E3EF10F0EBEF10F005C02B
:1021C800D9FF06C0DAFF0B0EDF6EF1EF10F005C085
:1021D800D9FF06C0DAFF0C0EDF6E7DEC11F012009D
:1021E800420E066E000E076E06C0D9FF07C0DAFF62
:1021F800DF50D8A402EF11F004EF11F00CEF11F04A
:1022080006C0D9FF07C0DAFF070EDF6E7AEF11F0BC
:1022180006C0D9FF07C0DAFFDF50086E030E0818A2
:10222800D8B419EF11F01BEF11F02DEF11F00A0ED1
:102238000818D8B422EF11F024EF11F02DEF11F0A7
:10224800090E0818D8A42BEF11F02DEF11F04DEF5F
:1022580011F0010E466433EF11F035EF11F07AEF0B
:1022680011F0010E47643BEF11F03DEF11F045EF1F
:1022780011F006C0D9FF07C0DAFF0A0EDF6E7AEF49
:1022880011F006C0D9FF07C0DAFF090EDF6E7AEF3A
:1022980011F00804D8B453EF11F055EF11F004EF22
:1022A80011F0080E0818D8B45CEF11F05EEF11F0C9
:1022B80004EF11F00D0E0818D8A465EF11F067EFC0
:1022C80011F069EF11F004EF11F0040E0818D8A40A
:1022D80070EF11F072EF11F07AEF11F006C0D9FF2C
:1022E80007C0DAFF0B0EDF6E7AEF11F0C4EC14F0C2
:1022F800120042C002F0080E0218D8A486EF11F0AE
:1023080088EF11F0B5EF11F04EEC0EF00F013F8B96
:102318003F9FFC0E3F1799CF04F0D70E0424F66EAA
:10232800F76A3D0EF7220800F5CF01F00128036E89
:102338003B0E0364A2EF11F0A4EF11F0A6EF11F029
:10234800000E036E3F0E0324F66EF76A3F0EF72267
:102358000800F5CF04F004C099FF000E986E4AEF0C
:1023680012F00B0E0218D8A4BCEF11F0BEEF11F05A
:10237800ECEF11F04EEC0EF00F013F8B3F9F030E78
:102388003F1398CF04F0D70E0424F66EF76A3D0E7B
:10239800F7220800F5CF01F00128036E630E0364ED
:1023A800D8EF11F0DAEF11F0DCEF11F0000E036E48
:1023B8003F0E0324F66EF76A3F0EF7220800F5CFAA
:1023C80004F004C098FF3F8F46EC0EF04AEF12F07D
:1023D8000C0E0218D8A4F3EF11F0F5EF11F014EF7A
:1023E80012F04EEC0EF00F013F8B3F9F3F813F9361
:1023F80099CF04F004C001F0070E01160128036EFE
:10240800060E03640AEF12F00CEF12F00EEF12F052
:10241800000E036E3F8103C099FF3F8FE8EF11F074
:102428000E0E0218D8A41BEF12F01DEF12F04AEF9F
:1024380012F04EEC0EF00F013F8B3F9F3ECF04F0A1
:1024480004AE29EF12F02BEF12F03BEF12F0FD0E65
:10245800046431EF12F033EF12F037EF12F0000E90
:10246800046E45EF12F0020E042645EF12F07D0EC1
:10247800046441EF12F043EF12F037EF12F0820ECE
:10248800046E04C03EFF3F8FE8EF11F0120072ECBB
:102498000EF0DEEC0EF08AEC0EF07DEC0EF05DEC4A
:1024A8000EF067EC0EF055EC0EF06DEC13F0C5EC89
:1024B8000EF0C0A662EF12F064EF12F069EF12F0AE
:1024C800C0960F014C9170EF12F0000ECC6ECA84CA
:1024D800010E386E010E426EF28EF28CF18CF18A8A
:1024E800F188F186F18E000E376E000E366E000E02
:1024F800346E000E356E000E396E000E316E010E10
:10250800306E000E2B6E7CEC16F0396E3850D8B455
:1025180090EF12F092EF12F0EFEF12F09F0ECC64F2
:1025280098EF12F09AEF12F0E1EF12F0000ECC6E75
:10253800304A312A5E0E305C010E3158D8A0A7EF20
:1025480012F0A9EF12F0E1EF12F042C02AF0475062
:10255800D8A4B1EF12F0B3EF12F0DDEF12F046504D
:10256800D8A4B9EF12F0BBEF12F0DDEF12F045502E
:10257800D8A4C1EF12F0C3EF12F0DDEF12F044500F
:10258800D8A4C9EF12F0CBEF12F0DDEF12F0100E65
:102598002A18D8B4D2EF12F0D4EF12F0DDEF12F00F
:1025A800CA94000E316E000E306E000E386EE1EFE8
:1025B80012F0000E316E640E306E30503110D8A417
:1025C800E8EF12F0EBEF12F0010EECEF12F0000E54
:1025D8003912F3EF12F0000E316E010E306E3950E1
:1025E800D8B4F9EF12F0FBEF12F01AEF13F03450F1
:1025F800D8B401EF13F003EF13F008EF13F034062B
:10260800020E2B6E87EF12F0030E2B18D8A40FEFD3
:1026180013F011EF13F017EF13F019EC1AF0010E85
:102628002B6E87EF12F02B2A87EF12F0530E936E62
:102638000C0E946E000E826E010E8116270E801607
:102648004EEC0EF00F013F8B3F8F000E426E000ED6
:102658002F6E000E2E6EC5EC0EF0000E436E000EAF
:10266800386E000E376ED59ECA940F013FB93FEF02
:1026780013F041EF13F039EF13F03F9B46EC0EF0E7
:10268800F18EF292F288F090F086F092F088F09451
:10269800F08AF294F18CF18AF188F1869E90A490E8
:1026A800F28EF28CC290C2EC0FF0000E316E010E69
:1026B800306E000E346E000E366E000E356E000E53
:1026C8002B6E72EC0EF0DEEC0EF087EF12F000EFDE
:1026D80000F00F013FB973EF13F075EF13F06DEFD2
:1026E80013F04EEC0EF00F013F8B3F9F3FB97FEF89
:1026F80013F081EF13F07AEF13F0000E016E030E62
:102708003F1398CF02F0370E0224F66EF76A3D0E9B
:10271800F7220800F5CF03F0630E036496EF13F079
:1027280098EF13F09AEF13F0010E016E995098CFBD
:1027380002F0370E0224F66EF76A3D0EF722080003
:10274800F5CF03F01F0E0364ACEF13F0AEEF13F0F8
:10275800B0EF13F0010E016E99CF02F0370E02248C
:10276800F66EF76A3D0EF7220800F5CF03F0035026
:10277800D8B4C1EF13F0C3EF13F0CBEF13F00C0E86
:102788000364C9EF13F0CBEF13F0CDEF13F0010E94
:10279800016E98CF02F0370E0224F66EF76A3D0EEE
:1027A800F7220800F5CF03F0170E0364DEEF13F0ED
:1027B800E0EF13F0E2EF13F0010E016E99CF02F093
:1027C800370E0224F66EF76A3D0EF7220800F5CFA1
:1027D80003F0060E0364F3EF13F0F5EF13F0F7EFD1
:1027E80013F0010E016E98CF02F0370E0224F66E38
:1027F800F76A3D0EF7220800F5CF03F03B0E03649D
:1028080008EF14F00AEF14F00CEF14F0010E016E4B
:1028180099CF02F0370E0224F66EF76A3D0EF722C2
:102828000800F5CF03F03B0E03641DEF14F01FEF13
:1028380014F021EF14F0010E016E0150D8B427EF07
:1028480014F029EF14F056EF14F03FB92EEF14F0FE
:1028580030EF14F029EF14F0030E3F13540EF66E08
:102868003F0EF76E0800F5CF98FF9950010E986E4D
:10287800010E996E000E986E030E996E000E986EFA
:10288800000E996E91909182010E8E6E010E8F6EE0
:10289800000E8E6E010E8F6E000E8E6E000E8F6E05
:1028A800A7EF14F0000E016E918091928ECF02F086
:1028B800370E0224F66EF76A3D0EF7220800F5CFB0
:1028C80003F0170E03646BEF14F06DEF14F06FEF65
:1028D80014F0010E016E8F508FCF02F0370E0224D4
:1028E800F66EF76A3D0EF7220800F5CF03F03B0EAF
:1028F800036481EF14F083EF14F085EF14F0010EF8
:10290800016E0150D8B48BEF14F08DEF14F09DEFE9
:1029180014F091909182010E8E6E010E8F6E000E52
:102928008E6E010E8F6E000E8E6E000E8F6EA7EFEC
:1029380014F091909182010E8E6E010E8F6E010E31
:102948008F6E000E8E6E3FB9ACEF14F0AEEF14F040
:10295800A7EF14F03F913F93919C9150C30B180936
:10296800916E919E000E906EA3903F8F3FB9BFEF7E
:1029780014F0C1EF14F0BAEF14F046EC0EF01200A8
:1029880042C002F0070E0218D8A4CDEF14F0CFEF22
:1029980014F0FDEF14F04EEC0EF00F013F8B3F9F4B
:1029A8003F813F9398CF05F0D70E0524F66EF76A5E
:1029B8003D0EF7220800F5CF01F00128046E170E2E
:1029C8000464E9EF14F0EBEF14F0EDEF14F0000EEF
:1029D800046E3F0E0424F66EF76A3F0EF7220800D5
:1029E800F5CF05F005C098FF3F8F46EC0EF07BEF62
:1029F80016F0090E0218D8A404EF15F006EF15F02A
:102A080034EF15F04EEC0EF00F013F8B3F9F3F91D6
:102A18003F8399CF05F0D70E0524F66EF76A3D0E71
:102A2800F7220800F5CF01F00128046E0C0E0464AB
:102A380020EF15F022EF15F024EF15F0010E046ECB
:102A48003F913F833F0E0424F66EF76A3F0EF7224C
:102A58000800F5CF05F005C099FF3F8FF9EF14F096
:102A68000A0E0218D8A43BEF15F03DEF15F010EF51
:102A780016F04EEC0EF00F013F8B3F9F010E036ED8
:102A88003F813F9398CF05F0D70E0524F66EF76A7D
:102A98003D0EF7220800F5CF04F00C0E046057EF46
:102AA80015F059EF15F06AEF15F00C0E04263F0EDD
:102AB8000424F66EF76A3F0EF7220800F5CF05F0FA
:102AC80005C098FF000E036E77EF15F00C0E045E3C
:102AD8003F0E0424F66EF76A3F0EF7220800F5CF82
:102AE80005F005C098FF0350D8B47DEF15F07FEFCF
:102AF80015F00DEF16F03F913F8398CF05F0D70EF4
:102B08000524F66EF76A3D0EF7220800F5CF01F0AE
:102B18000128046E99CF05F0D70E0524F66EF76AE2
:102B28003D0EF7220800F5CF03F0020E0318D8A4D3
:102B3800A0EF15F0A2EF15F0AEEF15F01D0E04642E
:102B4800A8EF15F0AAEF15F000EF16F0010E046ECD
:102B580000EF16F00304D8B4B4EF15F0B6EF15F093
:102B6800ECEF15F0030E0318D8B4BDEF15F0BFEF66
:102B780015F0ECEF15F0050E0318D8B4C6EF15F0F4
:102B8800C8EF15F0ECEF15F0070E0318D8B4CFEF27
:102B980015F0D1EF15F0ECEF15F0080E0318D8B4C6
:102BA800D8EF15F0DAEF15F0ECEF15F00A0E031870
:102BB800D8B4E1EF15F0E3EF15F0ECEF15F00C0EDB
:102BC8000318D8A4EAEF15F0ECEF15F0F6EF15F0BE
:102BD8001F0E0464F2EF15F0F4EF15F000EF16F095
:102BE800AAEF15F01E0E0464FCEF15F0FEEF15F0C9
:102BF80000EF16F0AAEF15F03F913F833F0E042433
:102C0800F66EF76A3F0EF7220800F5CF05F005C00B
:102C180098FF3F8FF9EF14F00B0E0218D8A417EFA6
:102C280016F019EF16F045EF16F04EEC0EF00F0106
:102C38003F8B3F9F030E3F1398CF05F0D70E052417
:102C4800F66EF76A3D0EF7220800F5CF01F001286D
:102C5800046E630E046433EF16F035EF16F037EFA9
:102C680016F0000E046E3F0E0424F66EF76A3F0E4F
:102C7800F7220800F5CF05F005C098FF3F8FF9EF60
:102C880014F00E0E0218D8A44CEF16F04EEF16F002
:102C98007BEF16F04EEC0EF00F013F8B3F9F3ECFBF
:102CA80005F005AE5AEF16F05CEF16F06CEF16F073
:102CB800820E056062EF16F064EF16F068EF16F00A
:102CC8007E0E056E76EF16F0020E055E76EF16F0B4
:102CD800020E056072EF16F074EF16F068EF16F04A
:102CE800FE0E056E05C03EFF3F8FF9EF14F012008F
:102CF800000E236E000E1C6E430E266E000E276E0D
:102D0800F4EF16F0470E286E000E296E400E246E62
:102D1800000E256E000E80BA010E196E800E1A6E16
:102D2800200E1B6EAA0E1D6E1E0E1E6E580E1F6EF6
:102D38001E0E206E11EF17F0460E286E000E296E3B
:102D48003E0E246E000E256E000E80B2010E196E26
:102D58000A0E1A6E1E0E1B6EFC0E1D6E1F0E1E6EC8
:102D6800880E1F6E1C0E206E11EF17F0450E286E90
:102D7800000E296E3C0E246E000E256E000E81B0EA
:102D8800010E196EE80E1A6E210E1B6E880E1D6E4E
:102D9800290E1E6E940E1F6E1C0E206E11EF17F07A
:102DA800440E286E000E296E3A0E246E000E256E13
:102DB800000E80B0010E196E040E1A6E210E1B6EE5
:102DC800FA0E1D6E220E1E6E360E1F6E1D0E206E22
:102DD80011EF17F0000E286E000E296E11EF17F094
:102DE8002350096E0A6A0A50000AD8B4FEEF16F09A
:102DF800EEEF16F00950000AD8B486EF16F0010A73
:102E0800D8B4A0EF16F0030AD8B4BAEF16F0010A46
:102E1800D8B4D4EF16F0EEEF16F028502910D8B435
:102E280018EF17F01AEF17F00EEF1AF01950D8B480
:102E380020EF17F022EF17F0E9EF19F0C2EF18F0C2
:102E480028C0D9FF29C0DAFF010EDF6E26C0D9FFDE
:102E580027C0DAFFDF50D8A434EF17F036EF17F0A9
:102E680045EF17F0000ED76E000ED66ED58E24C033
:102E7800D9FF25C0DAFF000EDE6E000EDD6E5BEFB7
:102E880017F0D6CF0FF0D7CF10F010500A6E096A9E
:102E98000F500B6E0C6A09500B120A500C1224C00A
:102EA800D9FF25C0DAFF0BC0DEFF0CC0DDFF23C051
:102EB80009F0010E0A6E092A64EF17F0D8900A3655
:102EC800092E62EF17F026C0D9FF27C0DAFF0A5093
:102ED800DF12010E1C6E0EEF1AF0D6CF11F0D7CF0D
:102EE80012F012500A6E096A11500B6E0C6A0950E2
:102EF8000B10216E0A500C10226E24C0D9FF25C079
:102F0800DAFFDECF09F0DDCF0AF021C00BF022C0D6
:102F18000CF009500B5E0A500C5A010E0B24BA0E25
:102F28000C20800BD8A49BEF17F09DEF17F0F4EF5F
:102F380017F01D501E10D8B4A4EF17F0A6EF17F025
:102F4800C8EF17F028C0D9FF29C0DAFF030EDF6EDB
:102F580024C0D9FF25C0DAFF21C0DEFF22C0DDFF73
:102F680002D8C1EF17F00500FA6E1D50FD6E1E5015
:102F7800FE6EF850FF6EFA501200010E386E000E09
:102F8800CC6ECA846DEF17F028C0D9FF29C0DAFFCC
:102F9800000EDF6E23C009F0010E0A6E092AD7EF72
:102FA80017F0D8900A36092ED5EF17F00A50FF0A05
:102FB8000B6E26C0D9FF27C0DAFF0B50DF1626C0DC
:102FC800D9FF27C0DAFFDF50D8A4EDEF17F0EFEFF5
:102FD80017F0F2EF17F0D59E6DEF17F06DEF17F0C1
:102FE80024C0D9FF25C0DAFFDECF09F0DDCF0AF013
:102FF80021C00BF022C00CF009500B5E0A500C5A8D
:10300800000E0B24FC0E0C20800BD8A40EEF18F039
:1030180010EF18F06DEF17F028C0D9FF29C0DAFFBC
:10302800020EDE18D8B41BEF18F01DEF18F06DEF84
:1030380017F028C0D9FF29C0DAFF020EDF6E1A5038
:103048001B10D8B42AEF18F02CEF18F039EF18F04D
:1030580002D839EF18F00500FA6E1A50FD6E1B50B1
:10306800FE6EF850FF6EFA501200010E386E000E18
:10307800CC6ECA846DEF17F0D6CF13F0D7CF14F00B
:1030880014500A6E096A13500B6E0C6A09500B1023
:10309800216E0A500C10226E300E0E6E000E0D6E50
:1030A80061EF18F0450E0E6E0D687EEF18F0200ED9
:1030B8000E6E000E0D6E7EEF18F02350096E0A6A30
:1030C8000A50000AD8B46BEF18F07EEF18F00950D8
:1030D800000AD8B47EEF18F0010AD8B456EF18F0F9
:1030E800030AD8B45BEF18F0010AD8B45BEF18F004
:1030F8007EEF18F024C0D9FF25C0DAFFDECF09F033
:10310800DDCF0AF0091E0A1E094A0A2A0D50095E77
:103118000E500A5A2150092422500A20800BD8A4A4
:1031280098EF18F09AEF18F06DEF17F024C0D9FF58
:1031380025C0DAFF21C0DEFF22C0DDFF1D501E10B2
:10314800D8B4A9EF18F0ABEF18F06DEF17F002D86C
:10315800B8EF18F00500FA6E1D50FD6E1E50FE6E99
:10316800F850FF6EFA5012006DEF17F028C0D9FF23
:1031780029C0DAFF030EDF6E6DEF17F028C0D9FF04
:1031880029C0DAFFDF50096E0A6A0A50000AD8B46B
:10319800D0EF18F00EEF1AF00950000AD8B424EF57
:1031A80017F0010AD8B471EF17F0030AD8B471EF19
:1031B80017F0010AD8B440EF18F0070AD8B4BAEFEC
:1031C80018F00EEF1AF028C0D9FF29C0DAFF000E58
:1031D800DF6E23C009F0010E0A6E092AF6EF18F017
:1031E800D8900A36092EF4EF18F00A50FF0A0B6E31
:1031F80026C0D9FF27C0DAFF0B50DF1626C0D9FF3B
:1032080027C0DAFFDF50D8A40CEF19F00EEF19F041
:103218006DEF17F0D59E0EEF1AF028C0D9FF29C020
:10322800DAFF000EDF6E23C009F0010E0A6E092ACC
:1032380020EF19F0D8900A36092E1EEF19F00A501F
:10324800FF0A0B6E26C0D9FF27C0DAFF0B50DF1626
:1032580026C0D9FF27C0DAFFDF50D8A436EF19F00F
:1032680038EF19F03BEF19F0D59E3DEF19F0010E3C
:103278001C6E1F502010D8B444EF19F046EF19F017
:103288000EEF1AF002D853EF19F00500FA6E1F502E
:10329800FD6E2050FE6EF850FF6EFA5012000EEFD1
:1032A8001AF028C0D9FF29C0DAFF040EDF6E26C045
:1032B800D9FF27C0DAFFDF50D8A465EF19F067EF10
:1032C80019F06EEF19F0000ED76E000ED66ED58E7F
:1032D8003BEF17F0D6CF15F0D7CF16F016500A6E81
:1032E800096A15500B6E0C6A09500B120A500C1221
:1032F80024C0D9FF25C0DAFF0BC0DEFF0CC0DDFFFC
:103308005BEF17F0D6CF17F0D7CF18F018500A6E2A
:10331800096A17500B6E0C6A09500B10216E0A507F
:103328000C10226E24C0D9FF25C0DAFFDECF09F0C9
:10333800DDCF0AF021C00BF022C00CF009500B5E63
:103348000A500C5A000E0B24FC0E0C20800BD8A43B
:10335800B0EF19F0B2EF19F06DEF17F023C009F0D4
:10336800010E0A6E092ABBEF19F0D8900A36092E09
:10337800B9EF19F00A50FF0A0B6E26C0D9FF27C013
:10338800DAFF0B50DF1626C0D9FF27C0DAFFDF505F
:10339800D8A4D1EF19F0D3EF19F0D6EF19F0D59ED4
:1033A800D8EF19F0010E1C6E28C0D9FF29C0DAFF2A
:1033B800000EDF6E1F502010D8B4E5EF19F0E7EFCC
:1033C80019F00EEF1AF046EF19F028C0D9FF29C0FE
:1033D800DAFFDF50096E0A6A0A50000AD8B4F7EF1C
:1033E80019F00EEF1AF00950000AD8B40EEF1AF0CF
:1033F800010AD8B4E7EF18F0030AD8B411EF19F0AE
:10340800010AD8B455EF19F0070AD8B486EF19F0B5
:103418000EEF1AF0232A030E236415EF1AF017EFA4
:103428001AF0F4EF16F01C50120037C016F01650C0
:10343800D8A421EF1AF023EF1AF0C6EF1AF036508D
:10344800D8B429EF1AF02BEF1AF043EF1AF036062A
:1034580035C010F010C034F01050D8B436EF1AF060
:1034680038EF1AF0D0EF1AF01668530E936E0C0E60
:10347800946E000E826E010E8116D0EF1AF0640E63
:10348800366E530E936E0C0E946E000E826E010E05
:103498008116808CB38EB290B292B382000E0D6EFC
:1034A800000E0C6E0C4A0D2A0DBE64EF1AF00D507A
:1034B80009E1320E0C5CD8A064EF1AF066EF1AF03E
:1034C80056EF1AF0B392B280000E0F6E000E0E6E19
:1034D8000E4A0F2A0FBE7AEF1AF00F5009E1320E8A
:1034E8000E5CD8A07AEF1AF07CEF1AF06CEF1AF0A5
:1034F800B2909E9CC282C2B284EF1AF086EF1AF094
:103508007FEF1AF0C3CF12F0C4CF13F09E9C809CBB
:1035180012C02EF013C02FF012501310D8B497EF2A
:103528001AF099EF1AF0BEEF1AF0135009E1810E64
:10353800125CD8A0A2EF1AF0A4EF1AF0AAEF1AF0C2
:10354800000E136E000E126EAEEF1AF0000E136E20
:10355800010E126E12C034F012C035F01250131062
:10356800D8B4B9EF1AF0BBEF1AF0C4EF1AF0166826
:10357800D0EF1AF0000E346E000E356ED0EF1AF050
:10358800D0EF1AF01628D8A4CCEF1AF0CEEF1AF024
:10359800D0EF1AF0000E166E1628D8B4D6EF1AF02F
:1035A800D8EF1AF098EF1EF01650D8A4DEEF1AF0F4
:1035B800E0EF1AF058EF1CF049684868000E336EC7
:1035C80042C011F011C032F0E6EF1BF00F013F814D
:1035D8003F9398CF17F0D70E1724F66EF76A3D0E73
:1035E800F7220800F5CF49F0170E4964FEEF1AF0EC
:1035F80000EF1BF002EF1BF0000E496EBB0E4924D2
:10360800F66EF76A3F0EF7220800F5CF49F099CF1A
:1036180017F099CF17F0D70E1724F66EF76A3D0EFC
:10362800F7220800F5CF48F03B0E48641EEF1BF068
:1036380020EF1BF022EF1BF0000E486E030E336ED6
:1036480033EF1CF0FC0E0F013F17496898CF17F0B5
:10365800D70E1724F66EF76A3D0EF7220800F5CF4D
:1036680048F03B0E48643BEF1BF03DEF1BF033EF97
:103678001CF0000E486E33EF1CF03ECF17F017AE6B
:1036880048EF1BF04AEF1BF051EF1BF0800E496E1C
:10369800FF0E171A172A52EF1BF04968D8901730F7
:1036A800486E33EF1CF02EC001F02FC002F0000E60
:1036B800046E640E036E88EC0FF00150486E496882
:1036C80033EF1CF00F013F913F8398CF17F0D70ECF
:1036D8001724F66EF76A3D0EF7220800F5CF48F07A
:1036E8001F0E48647AEF1BF07CEF1BF07EEF1BF097
:1036F800010E486E99CF17F0D70E1724F66EF76AA9
:103708003D0EF7220800F5CF49F00C0E49648FEF03
:103718001BF091EF1BF093EF1BF0010E496E3F81F8
:103728003F9398CF17F0D70E1724F66EF76A3D0E21
:10373800F7220800F5CF17F0170E1764A6EF1BF055
:10374800A8EF1BF0AAEF1BF0000E176EA30E1724AC
:10375800F66EF76A3F0EF7220800F5CF33F033EF25
:103768001CF0030E0F013F1398CF17F0D70E172444
:10377800F66EF76A3D0EF7220800F5CF48F0630EA3
:103788004864C9EF1BF0CBEF1BF063EF1BF0000E92
:10379800486E63EF1BF00F013F813F9399CF17F0FD
:1037A800060E1764DAEF1BF0DCEF1BF0DEEF1BF000
:1037B800000E176E17C048F033EF1CF0070E486E66
:1037C80033EF1CF01150086E096A0950000AD8B48A
:1037D800F0EF1BF033EF1CF00850000AD8B433EFB9
:1037E8001CF0010AD8B4EAEF1AF0030AD8B426EF9D
:1037F8001BF0010AD8B466EF1BF0070AD8B4B5EF7E
:103808001BF0010AD8B4CFEF1BF0020AD8B4EAEFD4
:103818001AF00F0AD8B4EAEF1AF0010AD8B466EF22
:103828001BF0030AD8B466EF1BF0010AD8B4B5EF51
:103838001BF0070AD8B4CFEF1BF0010AD8B426EF63
:103848001BF0030AD8B441EF1BF01E0AD8B4E2EF0C
:103858001BF0010AD8B457EF1BF033EF1CF0050E2C
:103868001118D8B43AEF1CF03CEF1CF054EF1CF0E0
:103878000C0E1118D8B443EF1CF045EF1CF054EFB0
:103888001CF0100E1118D8B44CEF1CF04EEF1CF0C1
:1038980054EF1CF0E60E2C6E3F0E2D6E58EF1CF008
:1038A800D60E2C6E3F0E2D6E2CC014F02DC015F0C8
:1038B800010E166462EF1CF064EF1CF03FEF1DF080
:1038C80049C017F01728D8B46CEF1CF06EEF1CF045
:1038D80033EF1DF0020E1618D8A475EF1CF077EF21
:1038E8001CF0E8EF1CF0800E1718D8A47EEF1CF02F
:1038F80080EF1CF08FEF1CF00A0E1424086E000EE7
:103908001520096E08C0F6FF09C0F7FF0800F5CFBB
:1039180017F0A3EF1CF0DB0E1724F66EF76A3E0EC5
:10392800F7220800F5501424086E000E1520096EC1
:1039380008C0F6FF09C0F7FF0800F5CF17F0530ECF
:10394800936E0C0E946E000E826E010E811617A0F7
:10395800B0EF1CF0B2EF1CF0B3EF1CF0828817A296
:10396800B8EF1CF0BAEF1CF0BBEF1CF0828A17A46A
:10397800C0EF1CF0C2EF1CF0C3EF1CF0828C17A63E
:10398800C8EF1CF0CAEF1CF0CBEF1CF0818617A81B
:10399800D0EF1CF0D2EF1CF0D3EF1CF0828E17AAE8
:1039A800D8EF1CF0DAEF1CF0DBEF1CF0818A17ACC3
:1039B800E0EF1CF0E2EF1CF0E3EF1CF08184819251
:1039C800510E936E8DEF1EF0030E1618D8A4EFEF6C
:1039D8001CF0F1EF1CF03DEF1DF0530E936E0C0E32
:1039E800946E000E826E010E8116090E1764FFEFA9
:1039F8001CF001EF1DF00BEF1DF00D0E176007EF27
:103A08001DF009EF1DF00BEF1DF08288818633B0A1
:103A180010EF1DF014EF1DF0086A082A15EF1DF0CD
:103A2800086A083A084682500818DF0B0818826EA0
:103A380033B221EF1DF025EF1DF0086A082A26EFA2
:103A48001DF0086A083A0846084682500818BF0B55
:103A58000818826E819C130E936E8DEF1EF0530E24
:103A6800936E0C0E946E000E826E010E81168DEF11
:103A78001EF08DEF1EF048C017F01728D8B447EF96
:103A88001DF049EF1DF033EF1DF01650D8A44FEF8D
:103A98001DF051EF1DF0D1EF1DF0D60E141807E1FF
:103AA8003F0E1518D8A45BEF1DF05DEF1DF078EF01
:103AB8001DF01750086E096AD8900836093614C0E8
:103AC8000AF015C00BF008500A2609500B22010E07
:103AD8000A26000E0B220AC0F6FF0BC0F7FF0800EB
:103AE800F5CF17F08CEF1DF0DB0E1724F66EF76A92
:103AF8003E0EF7220800F5501424086E000E15201B
:103B0800096E08C0F6FF09C0F7FF0800F5CF17F0E7
:103B1800530E936E0C0E946E000E826E010E81167B
:103B280017A099EF1DF09BEF1DF09CEF1DF0828808
:103B380017A2A1EF1DF0A3EF1DF0A4EF1DF0828ADC
:103B480017A4A9EF1DF0ABEF1DF0ACEF1DF0828CB0
:103B580017A6B1EF1DF0B3EF1DF0B4EF1DF081868D
:103B680017A8B9EF1DF0BBEF1DF0BCEF1DF0828E5A
:103B780017AAC1EF1DF0C3EF1DF0C4EF1DF0818A35
:103B880017ACC9EF1DF0CBEF1DF0CCEF1DF0818411
:103B98008296040E946E8DEF1EF01604D8A4D7EF0B
:103BA8001DF0D9EF1DF08DEF1EF0D60E141807E1A9
:103BB8003F0E1518D8A4E3EF1DF0E5EF1DF0FCEF5C
:103BC8001DF01750086E096AD8900836093614C0D7
:103BD8000AF015C00BF008500A2609500B220AC03B
:103BE800F6FF0BC0F7FF0800F5CF17F042EF1EF005
:103BF8000A0E176002EF1EF004EF1EF02CEF1EF005
:103C080013EF1EF0000E176E42EF1EF014C0F6FF01
:103C180015C0F7FF0800F5CF17F042EF1EF032503D
:103C2800086E096A0950000AD8B41DEF1EF00AEFA1
:103C38001EF00850030AD8B406EF1EF00A0AD8B4DA
:103C480006EF1EF0030AD8B406EF1EF00AEF1EF0C6
:103C5800770E1724F66EF76A3E0EF7220800F5CFA6
:103C680017F017501424086E000E1520096E08C0AE
:103C7800F6FF09C0F7FF0800F5CF17F0530E936E53
:103C88000C0E946E000E826E010E81161750D8B479
:103C980050EF1EF052EF1EF03DEF1DF017A057EF4A
:103CA8001EF059EF1EF05AEF1EF0828817A25FEF40
:103CB8001EF061EF1EF062EF1EF0828A17A467EF14
:103CC8001EF069EF1EF06AEF1EF0828C17A66FEFE8
:103CD8001EF071EF1EF072EF1EF0818617A877EFC5
:103CE8001EF079EF1EF07AEF1EF0828E17AA7FEF92
:103CF8001EF081EF1EF082EF1EF0818A17AC87EF6D
:103D08001EF089EF1EF08AEF1EF081848198430E21
:103D1800936E162A030E166494EF1EF096EF1EF0AB
:103D280098EF1EF0000E166E16C037F01200000055
:103D38000102030405060708097F7F7F7F7F7F0A4A
:103D48000B0C0D0E0F101112137F7F7F7F7F7F14D6
:103D580015161718191A1B1C1D7F7F7F7F7F7F1E62
:103D68001F20212223242526277F7F7F7F7F7F28EE
:103D7800292A2B2C2D2E2F30317F7F7F7F7F7F327A
:103D8800333435363738393A3B7F7F7F7F7F7F3C06
:103D98003D3E3F4041424344457F7F7F7F7F7F4692
:103DA8004748494A4B4C4D4E4F7F7F7F7F7F7F501E
:103DB8005152535455565758597F7F7F7F7F7F5AAA
:103DC8005B5C5D5E5F606162637F7F7F7F7F7F009A
:103DD8000102030405060708090000000000000AA4
:103DE8000B0C0D0E0F101112130000000000001430
:103DF80015161718191A1B1C1D0000000000001EBC
:103E08001F20212223242526270000000000002847
:103E1800292A2B2C2D2E2F303100000000000032D3
:103E2800333435363738393A3B0000000000003C5F
:103E38003D3E3F40414243444500000000000046EB
:103E48004748494A4B4C4D4E4F0000000000005077
:103E58005152535455565758590000000000005A03
:103E68005B5C5D5E5F6061626300000000000000F3
:103E78000000000000000000000101010101010133
:103E8800010101020202020202020202020303030A
:103E980003030303030303040404040404040404E1
:103EA80004050505050505050505050606060606B6
:103EB800060606060607070707070707070707088E
:103EC8000808080808080808080909090909090963
:103ED800090909000102030405060708090001028F
:103EE800030405060708090001020304050607087C
:103EF800090001020304050607080900010203047A
:103F08000506070809000102030405060708090059
:103F18000102030405060708090001020304050657
:103F28000708090001020304050607080900010241
:103F3800030405060708090001020304050607082B
:103F480009101112131415161718192021222324E9
:103F58002526272829303132333435363738394049
:103F68004142434445464748495051525354555697
:103F780057585960616263646566676869707172F1
:103F8800737475767778798081828384858687884B
:103F980089909192939495969798990101010101BE
:103FA80001010101010101020202020202020202F0
:103FB8000202020C0102030405060708090A0B0C99
:103FC8000102030405060708090A0B042A546D3E7A
:103FD800373F313E3E79317671776D7700403F0645
:0F3FE8005B4F666D7D077F6F404040404040005B
:083FF80080F4D8FFFFF8CFF1BF
:00000001FF
