:020000040000FA
:04000000D0EF0EF03F
:101C9000FFFF0F013F8F3F9B1200CA94000E3B6E67
:101CA0001200550EA76EAA0EA76E0F013F8B1200F1
:101CB000000E3E6E000E3D6EF00EBA1676941200C7
:101CC000CA50FC0B0209CA6E000ECC6ECA94000EFC
:101CD0003B6E12003F0E7916300E79127982000E9B
:101CE0007B6E000E7A6E799012007650FC0B020922
:101CF000766E000E786E76940F0152915283120028
:101D0000000E896E000E8A6E000E8B6E080E856EB8
:101D1000000E886E1200CD503F0B8009CD6ECF0EA5
:101D2000CD16CD86CD829A9E9E909D90CD9012002C
:101D3000D59AD59CD550F80B0509D56ED596000ED1
:101D4000D76E000ED66EF29AF294D59E000E486EB3
:101D5000120047C001F0080E0118D8A4B2EF0EF02F
:101D6000B4EF0EF0B8EF0EF00F0E476EBBEF0EF0B3
:101D7000CA94000E3B6E1200016EF00EBA167694F5
:101D80000150F80DF350540F776E0150FC0DF350D5
:101D90002A0FBB6E7684BA50F00B0C09BA6E120093
:101DA000900EF66E1C0EF76E000EF86E0900F5CF61
:101DB0004DF00900F5CF4EF000EE36F0170EEE6A4A
:101DC000E806FDE1000EF86E000161EF14F0000E70
:101DD0004C6E000E4B6E000E4A6E000E496E000EE9
:101DE000466E000E456E000E446E000E436E000EF1
:101DF000426E000E416E000E406E000E3F6E1200ED
:101E00004A50D8A406EF0FF008EF0FF01AEF0FF0CA
:101E10004950D8A40EEF0FF010EF0FF01AEF0FF0AB
:101E20004704D8A416EF0FF018EF0FF01AEF0FF0D9
:101E3000020E476E1200000EB36E900EB26E010ECF
:101E4000B16E270E926E530E936E080E946E8096AE
:101E5000809E0F0148691F0E496FC290270E926E37
:101E6000550EA76EAA0EA76E0E01FF910E0ED36F30
:101E7000FF811200170E3E6E700E3D6E4750D8A4C3
:101E800044EF0FF046EF0FF048EF0FF0010E476EF2
:101E9000010E3B6E000ECC6ECA84BA9EBA9C540EE4
:101EA000776ECF0EBA162A0EBB6E7684BA50F00B40
:101EB0000C09BA6E120047C001F00A0E0118D8A42E
:101EC00064EF0FF066EF0FF06AEF0FF0090E476E48
:101ED00083EF0FF00B0E0118D8A471EF0FF073EF22
:101EE0000FF077EF0FF00C0E476E83EF0FF0020E3E
:101EF0000118D8A47EEF0FF080EF0FF083EF0FF002
:101F0000CA94000E3B6E1200470E026E000E036E66
:101F100002C0D9FF03C0DAFF060EDE18D8A493EF83
:101F20000FF095EF0FF0BDEF0FF0020E4C18D8B484
:101F30009CEF0FF09EEF0FF0A7EF0FF0030E4C1881
:101F4000D8A4A5EF0FF0A7EF0FF0BDEF0FF04A50A8
:101F5000D8A4ADEF0FF0AFEF0FF0BDEF0FF0495089
:101F6000D8A4B5EF0FF0B7EF0FF0BDEF0FF002C040
:101F7000D9FF03C0DAFF0E0EDF6E12004C50D8A45A
:101F8000C4EF0FF0C6EF0FF000EF10F04A50D8A4E6
:101F9000CCEF0FF0CEEF0FF000EF10F04950D8A4C7
:101FA000D4EF0FF0D6EF0FF000EF10F0470E026EF7
:101FB000000E036E02C0D9FF03C0DAFFDF50016ECE
:101FC000030E0118D8A4E7EF0FF0E9EF0FF0F1EFDF
:101FD0000FF002C0D9FF03C0DAFF050EDF6E00EF7D
:101FE00010F0050E0118D8A4F8EF0FF0FAEF0FF07B
:101FF00000EF10F002C0D9FF03C0DAFF040EDF6E5D
:102000001200270E926E000E0E01E76F010EE86FB0
:10201000020EE96FC08E0F014D914D934C85F18CEE
:10202000F18AF188F186F292F288F090F086F092CF
:10203000F088F094F08AA49091AE02D0A38001D0F1
:10204000A390F28EF28C80BA28EF10F02AEF10F0F5
:1020500043EF10F080B22FEF10F031EF10F043EFAC
:1020600010F081B036EF10F038EF10F043EF10F0C1
:1020700080B03DEF10F03FEF10F043EF10F0D39E33
:102080000F014D9F030012003D503E10D8B44BEF9E
:1020900010F04DEF10F04FEF10F058EC0EF047C07D
:1020A00001F00F0E0118D8A458EF10F05AEF10F0FD
:1020B00063EF10F0010E476E51EC0EF00F013F8BF5
:1020C0003F8F49EC0EF00150D8A469EF10F06BEF90
:1020D00010F06FEF10F0010E476E90EF10F0030E4E
:1020E0000118D8B476EF10F078EF10F081EF10F00F
:1020F000090E0118D8A47FEF10F081EF10F085EFE2
:1021000010F00A0E476E90EF10F00C0E0118D8A4D4
:102110008CEF10F08EEF10F090EF10F00B0E476E7A
:1021200012003D503E10D8B498EF10F09AEF10F026
:102130009CEF10F058EC0EF0470E056E000E066E88
:1021400005C0D9FF06C0DAFFDF50076E0750D8A4DC
:10215000ACEF10F0AEEF10F0B6EF10F005C0D9FF05
:1021600006C0DAFF080EDF6E0BEF11F00704D8B4DB
:10217000BCEF10F0BEEF10F0AEEF10F0070E071836
:10218000D8A4C5EF10F0C7EF10F0C9EF10F0AEEF14
:1021900010F0030E0718D8B4D0EF10F0D2EF10F003
:1021A000EDEF10F0040E0718D8B4D9EF10F0DBEF04
:1021B00010F0EDEF10F0050E0718D8B4E2EF10F0B4
:1021C000E4EF10F0EDEF10F00A0E0718D8A4EBEFD3
:1021D00010F0EDEF10F00BEF11F0010E4B64F3EF88
:1021E00010F0F5EF10F00BEF11F0010E4C64FBEF67
:1021F00010F0FDEF10F005EF11F005C0D9FF06C09B
:10220000DAFF0B0EDF6E0BEF11F005C0D9FF06C031
:10221000DAFF0C0EDF6E7DEC12F012003D503E1026
:10222000D8B415EF11F017EF11F019EF11F058ECC9
:102230000EF0470E066E000E076E06C0D9FF07C0EF
:10224000DAFFDF50D8A427EF11F029EF11F031EFBA
:1022500011F006C0D9FF07C0DAFF070EDF6E9FEF4F
:1022600011F006C0D9FF07C0DAFFDF50086E030E79
:102270000818D8B43EEF11F040EF11F052EF11F012
:102280000A0E0818D8B447EF11F049EF11F052EFD9
:1022900011F0090E0818D8A450EF11F052EF11F008
:1022A00072EF11F0010E4B6458EF11F05AEF11F07C
:1022B0009FEF11F0010E4C6460EF11F062EF11F02E
:1022C0006AEF11F006C0D9FF07C0DAFF0A0EDF6E11
:1022D0009FEF11F006C0D9FF07C0DAFF090EDF6ECD
:1022E0009FEF11F00804D8B478EF11F07AEF11F0F5
:1022F00029EF11F0080E0818D8B481EF11F083EF20
:1023000011F029EF11F00D0E0818D8A48AEF11F082
:102310008CEF11F08EEF11F029EF11F0040E081878
:10232000D8A495EF11F097EF11F09FEF11F006C0D0
:10233000D9FF07C0DAFF0B0EDF6E9FEF11F0C3EC81
:1023400015F012003D503E10D8B4A9EF11F0ABEFDC
:1023500011F0ADEF11F058EC0EF0470E066E000EC6
:10236000076E06C0D9FF07C0DAFFDF50D8A4BBEF65
:1023700011F0BDEF11F0C5EF11F006C0D9FF07C095
:10238000DAFF030EDF6E7CEF12F006C0D9FF07C044
:10239000DAFFDE04D8B4CFEF11F0D1EF11F0DEEFA9
:1023A00011F006C0D9FF07C0DAFF020EDE18D8A46C
:1023B000DCEF11F0DEEF11F0E6EF11F006C0D9FF0F
:1023C00007C0DAFF060EDF6E7CEF12F006C0D9FF01
:1023D00007C0DAFF0E0EDE18D8A4F1EF11F0F3EF0C
:1023E00011F07CEF12F0020E4C18D8B4FAEF11F095
:1023F000FCEF11F005EF12F0030E4C18D8A403EF18
:1024000012F005EF12F07CEF12F04A50D8A40BEF57
:1024100012F00DEF12F07CEF12F04950D8A413EF38
:1024200012F015EF12F07CEF12F051EC0EF00F01EC
:102430003F8B3F9F9150C30B1809916E91AE23EFD4
:1024400012F026EF12F0010E27EF12F0000E046ECC
:10245000056A04500510D8A430EF12F034EF12F0E2
:10246000016A012A35EF12F0016A013A014601467C
:1024700091500118BF0B0118916E04500510D8A49B
:1024800044EF12F046EF12F04CEF12F0000E036E24
:10249000000E026E4FEF12F0000E036E026802C0D3
:1024A00090FF04500510D8A458EF12F05CEF12F022
:1024B000016A012A5DEF12F0016AA3500118FE0BB8
:1024C0000118A36EA49004500510D8A46AEF12F06E
:1024D0006EEF12F0016A012A6FEF12F0016A013209
:1024E0000132915001187F0B0118916E0F013F8F3F
:1024F00049EC0EF07CEF12F0120047C002F0080E1B
:102500000218D8A486EF12F088EF12F0B5EF12F09F
:1025100051EC0EF00F013F8B3F9FFC0E3F1799CF00
:1025200003F0CD0E0324F66EF76A3D0EF722080085
:10253000F5CF01F00128046E3B0E0464A2EF12F007
:10254000A4EF12F0A6EF12F0000E046E350E042474
:10255000F66EF76A3F0EF7220800F5CF03F003C0CE
:1025600099FF000E986E5CEF13F00B0E0218D8A4C2
:10257000BCEF12F0BEEF12F0ECEF12F051EC0EF0E7
:102580000F013F8B3F9F030E3F1398CF03F0CD0EFB
:102590000324F66EF76A3D0EF7220800F5CF01F02E
:1025A0000128046E630E0464D8EF12F0DAEF12F023
:1025B000DCEF12F0000E046E350E0424F66EF76A9E
:1025C0003F0EF7220800F5CF03F003C098FF3F8FBE
:1025D00049EC0EF05CEF13F00C0E0218D8A4F3EFE8
:1025E00012F0F5EF12F014EF13F051EC0EF00F01B2
:1025F0003F8B3F9F3F813F9399CF03F003C001F092
:10260000070E01160128046E060E04640AEF13F08B
:102610000CEF13F00EEF13F0000E046E3F8104C0B8
:1026200099FF3F8FE8EF12F0060E0218D8B41BEFA7
:1026300013F01DEF13F026EF13F00E0E0218D8A4BE
:1026400024EF13F026EF13F05CEF13F051EC0EF0D3
:102650000F013F8B3F9F919091928FCF03F0CD0E52
:102660000324F66EF76A3D0EF7220800F5CF01F05D
:102670000128046E3B0E046440EF13F042EF13F0A8
:1026800044EF13F0000E046E350E0424F66EF76A64
:102690003F0EF7220800F5CF03F003C08FFF000EB6
:1026A0008E6E91909182010E8E6E010E8F6E010ED4
:1026B0008F6E3F8FE8EF12F012000F013FB963EF0A
:1026C00013F065EF13F05DEF13F051EC0EF00F0116
:1026D0003F8B3F9F3FB96FEF13F071EF13F06AEF3D
:1026E00013F0000E016E030E3F1398CF02F0CD0ED3
:1026F0000224F66EF76A3D0EF7220800F5CF03F0CC
:10270000630E036486EF13F088EF13F08AEF13F083
:10271000010E016E995098CF02F0CD0E0224F66E94
:10272000F76A3D0EF7220800F5CF03F01F0E036491
:102730009CEF13F09EEF13F0A0EF13F0010E016E6B
:1027400099CF02F0CD0E0224F66EF76A3D0EF72205
:102750000800F5CF03F00350D8B4B1EF13F0B3EF96
:1027600013F0BBEF13F00C0E0364B9EF13F0BBEFE3
:1027700013F0BDEF13F0010E016E98CF02F0CD0EF5
:102780000224F66EF76A3D0EF7220800F5CF03F03B
:10279000170E0364CEEF13F0D0EF13F0D2EF13F067
:1027A000010E016E99CF02F0CD0E0224F66EF76A8B
:1027B0003D0EF7220800F5CF03F0060E0364E3EFA9
:1027C00013F0E5EF13F0E7EF13F0010E016E98CF71
:1027D00002F0CD0E0224F66EF76A3D0EF7220800D5
:1027E000F5CF03F03B0E0364F8EF13F0FAEF13F0AC
:1027F000FCEF13F0010E016E99CF02F0CD0E022412
:10280000F66EF76A3D0EF7220800F5CF03F03B0E97
:1028100003640DEF14F00FEF14F011EF14F0010E3C
:10282000016E0150D8B417EF14F019EF14F044EF13
:1028300014F03FB91EEF14F020EF14F019EF14F06C
:10284000030E3F134A0EF66E3F0EF76E0800F5CFEB
:1028500098FF9950010E986E010E996E0C0E986EAD
:10286000030E996E000E986E000E996E91909182F3
:10287000010E8E6E010E8F6E000E8E6E010E8F6E2B
:10288000000E8E6E000E8F6E3FB949EF14F04BEFC5
:1028900014F044EF14F03F913F93919C9150C30B7F
:1028A0001809916E919E000E906EA3903F8F3FB9D4
:1028B0005CEF14F05EEF14F057EF14F049EC0EF0FB
:1028C000120080EC0EF01BEC0FF098EC0EF08BEC8D
:1028D0000EF060EC0EF06AEC0EF075EC0EF05DECB4
:1028E00013F0E7EC0EF0C0A678EF14F07AEF14F0D6
:1028F0007FEF14F0C0960F014C9186EF14F0000E9C
:10290000CC6ECA84010E3B6E010E476EF28EF28CC5
:10291000F18CF18AF188F186F18E000E3A6E000E8C
:10292000356E010E346E000E306EA4A09AEF14F0D6
:102930009CEF14F0A2EF14F0A49090683AEC0FF022
:10294000000E3C6E4EEC17F02F6E3B50D8B4ABEF40
:1029500014F0ADEF14F058EF15F09F0ECC64B3EF08
:1029600014F0B5EF14F04AEF15F0000ECC6E3D0EEA
:10297000326E000E336E32C0D9FF33C0DAFFDE5044
:10298000DE10D8B4C6EF14F0C8EF14F007EF15F05E
:1029900032C0D9FF33C0DAFFDE06000EDD5A32C086
:1029A000D9FF33C0DAFFDECF2DF0DDCF2EF02D5072
:1029B0002E10D8A4DEEF14F0E0EF14F0E4EF14F0E2
:1029C00058EC0EF003EF15F02DC02AF02EC02BF0BE
:1029D000060E2C6ED8902B322A322C2EEAEF14F0F1
:1029E0002A50070BBCEC0EF03CC031F0312A3150BC
:1029F000D8B4FDEF14F0FFEF14F001EF15F0000E66
:102A0000316E31C03CF0000E356E640E346E344AC7
:102A1000352A5E0E345C010E3558D8A012EF15F041
:102A200014EF15F04AEF15F04C50D8A41AEF15F03A
:102A30001CEF15F046EF15F04B50D8A422EF15F01F
:102A400024EF15F046EF15F04A50D8A42AEF15F000
:102A50002CEF15F046EF15F04950D8A432EF15F0E1
:102A600034EF15F046EF15F00F0E4718D8B43BEFD2
:102A700015F03DEF15F046EF15F0CA94000E356ED7
:102A8000000E346E000E3B6E4AEF15F0000E356EF0
:102A9000640E346E34503510D8A451EF15F054EF55
:102AA00015F0010E55EF15F0000E2F125CEF15F02A
:102AB000000E356E010E346E2F50D8B462EF15F053
:102AC00064EF15F074EF15F0030E3018D8A46BEF17
:102AD00015F06DEF15F071EF15F0000E306EACECE7
:102AE0001AF0302A95EF14F0530E936E080E946E80
:102AF000000E826E010E8116270E801651EC0EF02C
:102B00000F013F8B3F8F000E476EE7EC0EF0000E7B
:102B1000486E000E3B6E000E3A6ED59ECA940F01B1
:102B20003FB995EF15F097EF15F08FEF15F03F9B3C
:102B300049EC0EF058EC0EF0F292F288F090F0862C
:102B4000F092F088F094F08AF294F18CF18AF18896
:102B5000F1869E90A49091AE02D0A38001D0A39064
:102B6000F28EF28CC29001EC10F0000E356E010E68
:102B7000346E000E306E80EC0EF01BEC0FF095EF13
:102B800014F000EF00F047C002F0070E0218D8A4BE
:102B9000CCEF15F0CEEF15F0FCEF15F051EC0EF088
:102BA0000F013F8B3F9F3F813F9398CF04F0CD0EA5
:102BB0000424F66EF76A3D0EF7220800F5CF01F007
:102BC0000128056E170E0564E8EF15F0EAEF15F021
:102BD000ECEF15F0000E056E350E0524F66EF76A63
:102BE0003F0EF7220800F5CF04F004C098FF3F8F96
:102BF00049EC0EF04DEF17F0090E0218D8A403EFC0
:102C000016F005EF16F033EF16F051EC0EF00F0151
:102C10003F8B3F9F3F913F8399CF04F0CD0E04241B
:102C2000F66EF76A3D0EF7220800F5CF01F0012895
:102C3000056E0C0E05641FEF16F021EF16F023EF62
:102C400016F0010E056E3F913F83350E0524F66E9A
:102C5000F76A3F0EF7220800F5CF04F004C099FF91
:102C60003F8FF8EF15F00A0E0218D8A43AEF16F0CD
:102C70003CEF16F0D2EF16F051EC0EF00F013F8B47
:102C80003F9F3F913F8398CF04F0CD0E0424F66E12
:102C9000F76A3D0EF7220800F5CF01F00128056E16
:102CA00099CF04F0CD0E0424F66EF76A3D0EF7229C
:102CB0000800F5CF03F0020E0318D8A462EF16F057
:102CC00064EF16F070EF16F01D0E05646AEF16F053
:102CD0006CEF16F0C2EF16F0010E056EC2EF16F0A3
:102CE0000304D8B476EF16F078EF16F0AEEF16F0D6
:102CF000030E0318D8B47FEF16F081EF16F0AEEF95
:102D000016F0050E0318D8B488EF16F08AEF16F007
:102D1000AEEF16F0070E0318D8B491EF16F093EF4C
:102D200016F0AEEF16F0080E0318D8B49AEF16F0AE
:102D30009CEF16F0AEEF16F00A0E0318D8B4A3EF0E
:102D400016F0A5EF16F0AEEF16F00C0E0318D8A48F
:102D5000ACEF16F0AEEF16F0B8EF16F01F0E0564EC
:102D6000B4EF16F0B6EF16F0C2EF16F06CEF16F0F7
:102D70001E0E0564BEEF16F0C0EF16F0C2EF16F09F
:102D80006CEF16F03F913F83350E0524F66EF76A1F
:102D90003F0EF7220800F5CF04F004C098FF3F8FE4
:102DA000F8EF15F00B0E0218D8A4D9EF16F0DBEFF0
:102DB00016F007EF17F051EC0EF00F013F8B3F9F1D
:102DC000030E3F1398CF04F0CD0E0424F66EF76A7D
:102DD0003D0EF7220800F5CF01F00128056E630EC5
:102DE0000564F5EF16F0F7EF16F0F9EF16F0000EA8
:102DF000056E350E0524F66EF76A3F0EF7220800C1
:102E0000F5CF04F004C098FF3F8FF8EF15F0060EE1
:102E10000218D8B40EEF17F010EF17F019EF17F0F3
:102E20000E0E0218D8A417EF17F019EF17F04DEF98
:102E300017F051EC0EF00F013F8B3F9F9180919264
:102E40008ECF04F0CD0E0424F66EF76A3D0EF72205
:102E50000800F5CF01F00128056E170E056433EF69
:102E600017F035EF17F037EF17F0000E056E350E3F
:102E70000524F66EF76A3F0EF7220800F5CF04F03E
:102E800004C08EFF91909182010E8E6E010E8F6EA6
:102E9000010E8F6E3F8FF8EF15F01200000E236EBB
:102EA000000E1C6E480E246E000E256EC0EF17F04B
:102EB0004B0E286E000E296E430E266E000E276EF6
:102EC000000E80B2010E196E440E1A6E230E1B6E98
:102ED0007C0E1D6E1F0E1E6E080E1F6E1F0E206EC6
:102EE000D9EF17F04A0E286E000E296E410E266E9D
:102EF000000E276E000E81B0010E196E1C0E1A6EA8
:102F0000220E1B6E860E1D6E2B0E1E6E9A0E1F6EEF
:102F10001C0E206ED9EF17F0490E286E000E296E98
:102F20003F0E266E000E276E000E80B0010E196E49
:102F3000220E1A6E210E1B6EFA0E1D6E240E1E6ED0
:102F4000520E1F6E1D0E206ED9EF17F04C0E286E1C
:102F5000000E296E450E266E000E276E000E80BAFA
:102F6000010E196E880E1A6E200E1B6E000E1D6E5D
:102F70001E0E1E6EB60E1F6E1E0E206ED9EF17F0BF
:102F80002350096E0A6A0A50000AD8B4CAEF17F033
:102F9000A6EF17F00950010AD8B458EF17F0030A4A
:102FA000D8B472EF17F0010AD8B48CEF17F0A6EF7F
:102FB00017F01950D8B4DFEF17F0E1EF17F07CEFFE
:102FC0001AF055EF19F028C0D9FF29C0DAFF010E19
:102FD000DF6E24C0D9FF25C0DAFFDF50D8A4F3EF9D
:102FE00017F0F5EF17F004EF18F0000ED76E000E93
:102FF000D66ED58E26C0D9FF27C0DAFF000EDE6E52
:10300000000EDD6E1AEF18F0D6CF0DF0D7CF0EF010
:103010000E500A6E096A0D500B6E0C6A09500B12A5
:103020000A500C1226C0D9FF27C0DAFF0BC0DEFF02
:103030000CC0DDFF23C009F0010E0A6E092A23EF40
:1030400018F0D8900A36092E21EF18F024C0D9FFC5
:1030500025C0DAFF0A50DF12010E1C6EA1EF1AF034
:10306000D6CF0FF0D7CF10F010500A6E096A0F506C
:103070000B6E0C6A09500B10216E0A500C10226E58
:1030800026C0D9FF27C0DAFFDECF09F0DDCF0AF076
:1030900021C00BF022C00CF009500B5E0A500C5AF4
:1030A000010E0B24BA0E0C20800BD8A45AEF18F096
:1030B0005CEF18F087EF18F028C0D9FF29C0DAFFBD
:1030C000030EDF6E26C0D9FF27C0DAFF21C0DEFF66
:1030D00022C0DDFF1D501E10D8B471EF18F073EF41
:1030E00018F080EF18F002D880EF18F00500FA6EA3
:1030F0001D50FD6E1E50FE6EF850FF6EFA5012000D
:10310000010E3B6E000ECC6ECA842CEF18F026C068
:10311000D9FF27C0DAFFDECF09F0DDCF0AF021C0EA
:103120000BF022C00CF009500B5E0A500C5A000E36
:103130000B24FC0E0C20800BD8A4A1EF18F0A3EFF9
:1031400018F02CEF18F028C0D9FF29C0DAFF020EC2
:10315000DE18D8B4AEEF18F0B0EF18F02CEF18F07E
:1031600028C0D9FF29C0DAFF020EDF6E1A501B10EB
:10317000D8B4BDEF18F0BFEF18F0CCEF18F002D8BC
:10318000CCEF18F00500FA6E1A50FD6E1B50FE6E63
:10319000F850FF6EFA501200010E3B6E000ECC6E1E
:1031A000CA842CEF18F0D6CF11F0D7CF12F01250FE
:1031B0000A6E096A11500B6E0C6A09500B10216ED1
:1031C0000A500C10226E300E186E000E176EF4EFBF
:1031D00018F0450E186E176811EF19F0200E186ED2
:1031E000000E176E11EF19F02350096E0A6A0A508B
:1031F000000AD8B4FEEF18F011EF19F00950000AD8
:10320000D8B411EF19F0010AD8B4E9EF18F0030AA5
:10321000D8B4EEEF18F0010AD8B4EEEF18F011EFC1
:1032200019F026C0D9FF27C0DAFFDECF09F0DDCFC5
:103230000AF0091E0A1E094A0A2A1750095E185088
:103240000A5A2150092422500A20800BD8A42BEFBF
:1032500019F02DEF19F02CEF18F026C0D9FF27C078
:10326000DAFF21C0DEFF22C0DDFF1D501E10D8B4E2
:103270003CEF19F03EEF19F02CEF18F002D84BEFAD
:1032800019F00500FA6E1D50FD6E1E50FE6EF850CE
:10329000FF6EFA5012002CEF18F028C0D9FF29C099
:1032A000DAFF030EDF6E2CEF18F028C0D9FF29C01B
:1032B000DAFFDF50096E0A6A0A50000AD8B463EFD9
:1032C00019F0A1EF1AF00950000AD8B4E3EF17F093
:1032D000010AD8B430EF18F0030AD8B430EF18F070
:1032E000010AD8B4D3EF18F0070AD8B44DEF19F09B
:1032F000A1EF1AF028C0D9FF29C0DAFF000EDF6E57
:1033000023C009F0010E0A6E092A89EF19F0D8903E
:103310000A36092E87EF19F00A50FF0A0B6E24C0F7
:10332000D9FF25C0DAFF0B50DF1624C0D9FF25C016
:10333000DAFFDF50D8A49FEF19F0A1EF19F02CEFBE
:1033400018F0D59EA1EF1AF028C0D9FF29C0DAFFE6
:10335000000EDF6E23C009F0010E0A6E092AB3EFDA
:1033600019F0D8900A36092EB1EF19F00A50FF0A69
:103370000B6E24C0D9FF25C0DAFF0B50DF1624C026
:10338000D9FF25C0DAFFDF50D8A4C9EF19F0CBEF81
:1033900019F0CEEF19F0D59ED0EF19F0010E1C6E8A
:1033A0001F502010D8B4D7EF19F0D9EF19F0A1EFC2
:1033B0001AF002D8E6EF19F00500FA6E1F50FD6E04
:1033C0002050FE6EF850FF6EFA501200A1EF1AF076
:1033D00028C0D9FF29C0DAFF040EDF6E24C0D9FF50
:1033E00025C0DAFFDF50D8A4F8EF19F0FAEF19F092
:1033F00001EF1AF0000ED76E000ED66ED58EFAEFE2
:1034000017F0D6CF13F0D7CF14F014500A6E096A14
:1034100013500B6E0C6A09500B120A500C1226C086
:10342000D9FF27C0DAFF0BC0DEFF0CC0DDFF1AEFAB
:1034300018F0D6CF15F0D7CF16F016500A6E096ADD
:1034400015500B6E0C6A09500B10216E0A500C10AF
:10345000226E26C0D9FF27C0DAFFDECF09F0DDCF0C
:103460000AF021C00BF022C00CF009500B5E0A508C
:103470000C5A000E0B24FC0E0C20800BD8A443EF3A
:103480001AF045EF1AF02CEF18F023C009F0010EE6
:103490000A6E092A4EEF1AF0D8900A36092E4CEF20
:1034A0001AF00A50FF0A0B6E24C0D9FF25C0DAFFBC
:1034B0000B50DF1624C0D9FF25C0DAFFDF50D8A497
:1034C00064EF1AF066EF1AF069EF1AF0D59E6BEF11
:1034D0001AF0010E1C6E28C0D9FF29C0DAFF000EB9
:1034E000DF6E1F502010D8B478EF1AF07AEF1AF080
:1034F000A1EF1AF0D9EF19F028C0D9FF29C0DAFFDF
:10350000DF50096E0A6A0A50000AD8B48AEF1AF02E
:10351000A1EF1AF00950000AD8B4A1EF1AF0010A7D
:10352000D8B47AEF19F0030AD8B4A4EF19F0010A5D
:10353000D8B4E8EF19F0070AD8B419EF1AF0A1EFE0
:103540001AF0232A030E2364A8EF1AF0AAEF1AF048
:10355000C0EF17F01C5012003AC008F00850D8A471
:10356000B4EF1AF0B6EF1AF035EF1CF04E684D6864
:10357000000E396E47C007F007C038F0C3EF1BF0EC
:10358000070E4D6E10EF1CF00F013F813F9398CF57
:103590000BF0CD0E0B24F66EF76A3D0EF7220800F5
:1035A000F5CF4EF0170E4E64D8EF1AF0DAEF1AF09E
:1035B000DCEF1AF0000E4E6E995099CF0BF0CD0E45
:1035C0000B24F66EF76A3D0EF7220800F5CF4DF09A
:1035D0003B0E4D64EEEF1AF0F0EF1AF0F2EF1AF036
:1035E000000E4D6E3D503E10D8B4F9EF1AF0FBEFCF
:1035F0001AF010EF1CF0990E3C24F66EF76A3F0E9D
:10360000F7220800F5CF39F010EF1CF0FC0E0F0187
:103610003F174E6898CF0BF0CD0E0B24F66EF76A6D
:103620003D0EF7220800F5CF4DF03B0E4D641BEF29
:103630001BF01DEF1BF010EF1CF0000E4D6E10EF95
:103640001CF00F013F913F8398CF0BF0CD0E0B2460
:10365000F66EF76A3D0EF7220800F5CF4DF01F0E0B
:103660004D6435EF1BF037EF1BF039EF1BF0010E07
:103670004D6E99CF0BF0CD0E0B24F66EF76A3D0E12
:10368000F7220800F5CF4EF00C0E4E644AEF1BF007
:103690004CEF1BF04EEF1BF0010E4E6E010E396E1B
:1036A00010EF1CF0030E0F013F1398CF0BF0CD0E5F
:1036B0000B24F66EF76A3D0EF7220800F5CF4DF0A9
:1036C000630E4D6466EF1BF068EF1BF06AEF1BF0B2
:1036D000000E4D6E140E4E6E10EF1CF00F013F8168
:1036E0003F9399CF0BF0060E0B6479EF1BF07BEF45
:1036F0001BF07DEF1BF0000E0B6E0BC04DF010EFBA
:103700001CF0918091928ECF0BF0CD0E0B24F66EB3
:10371000F76A3D0EF7220800F5CF4EF0170E4E6403
:1037200094EF1BF096EF1BF098EF1BF0000E4E6E1F
:103730008F508FCF0BF0CD0E0B24F66EF76A3D0E37
:10374000F7220800F5CF4DF03B0E4D64AAEF1BF0B9
:10375000ACEF1BF0AEEF1BF0000E4D6E91BEB3EF61
:103760001BF0B5EF1BF0BBEF1BF0000E066E000E5A
:10377000056EBFEF1BF0000E066E020E056E05C053
:1037800039F010EF1CF00750016E026A0250000A77
:10379000D8B4CDEF1BF010EF1CF00150000AD8B4E4
:1037A00010EF1CF0010AD8B4C4EF1AF0030AD8B421
:1037B00006EF1BF0010AD8B421EF1BF0070AD8B4BA
:1037C00052EF1BF0010AD8B46EEF1BF0030AD8B415
:1037D00081EF1BF0010AD8B4C4EF1AF00F0AD8B475
:1037E000C4EF1AF0010AD8B421EF1BF0030AD8B4D1
:1037F00021EF1BF0010AD8B452EF1BF0070AD8B42E
:103800006EEF1BF0010AD8B406EF1BF0030AD8B420
:1038100081EF1BF0010AD8B4C0EF1AF010EF1CF0D2
:10382000050E0718D8B417EF1CF019EF1CF031EF94
:103830001CF00C0E0718D8B420EF1CF022EF1CF07F
:1038400031EF1CF00F0E0718D8B429EF1CF02BEF46
:103850001CF031EF1CF0E50E366E3F0E376E35EF83
:103860001CF0D50E366E3F0E376E36C009F037C0ED
:103870000AF0010E08643FEF1CF041EF1CF07AEFF4
:103880001DF04E28D8B447EF1CF049EF1CF06DEF47
:103890001DF0020E0818D8A450EF1CF052EF1CF0D7
:1038A000B4EF1CF0D10E4E24F66EF76A3E0EF722EE
:1038B0000800F5500924016E000E0A20026E01C0B6
:1038C000F6FF02C0F7FF0800F5CF0BF0530E936E22
:1038D000080E946EF00E82122C0E8112808C0BA0BA
:1038E00074EF1CF076EF1CF077EF1CF082980BA2BF
:1038F0007CEF1CF07EEF1CF07FEF1CF0829A0BA493
:1039000084EF1CF086EF1CF087EF1CF0829C0BA666
:103910008CEF1CF08EEF1CF08FEF1CF081960BA843
:1039200094EF1CF096EF1CF097EF1CF0829E0BAA10
:103930009CEF1CF09EEF1CF09FEF1CF0819A0BACEB
:10394000A4EF1CF0A6EF1CF0A7EF1CF0819439A0A7
:10395000ACEF1CF0AEEF1CF0AFEF1CF0809C81824E
:10396000510E936ED8EF1EF0030E0818D8A4BBEFCB
:103970001CF0BDEF1CF0D8EF1EF00A0E4E60C3EF36
:103980001CF0C5EF1CF001EF1DF0D4EF1CF0000E91
:103990000B6E17EF1DF009C0F6FF0AC0F7FF080015
:1039A000F5CF0BF017EF1DF03850016E026A025090
:1039B000000AD8B4DEEF1CF0CBEF1CF00150010A76
:1039C000D8B4C7EF1CF0020AD8B4C7EF1CF0050A40
:1039D000D8B4C7EF1CF0010AD8B4C7EF1CF00F0A27
:1039E000D8B4C7EF1CF0010AD8B4C7EF1CF0030A23
:1039F000D8B4C7EF1CF0040AD8B4C7EF1CF0CBEF63
:103A00001CF06D0E4E24F66EF76A3E0EF72208008B
:103A1000F5CF0BF00B500924016E000E0A20026E48
:103A200001C0F6FF02C0F7FF0800F5CF0BF0530E00
:103A3000936E080E946EF00E82122C0E8112808C02
:103A40000B50D8B426EF1DF028EF1DF078EF1DF0D5
:103A50000BA02DEF1DF02FEF1DF030EF1DF0829821
:103A60000BA235EF1DF037EF1DF038EF1DF0829AF5
:103A70000BA43DEF1DF03FEF1DF040EF1DF0829CC9
:103A80000BA645EF1DF047EF1DF048EF1DF08196A6
:103A90000BA84DEF1DF04FEF1DF050EF1DF0829E73
:103AA0000BAA55EF1DF057EF1DF058EF1DF0819A4E
:103AB0000BAC5DEF1DF05FEF1DF060EF1DF081942A
:103AC00039A465EF1DF067EF1DF068EF1DF0809CD5
:103AD000818C130E936ED8EF1EF0530E936E080E6A
:103AE000946EF00E82122C0E8112808CD8EF1EF094
:103AF000D8EF1EF04D28D8B480EF1DF082EF1DF0F6
:103B00006DEF1DF00850D8A488EF1DF08AEF1DF06E
:103B100013EF1EF0D50E091807E13F0E0A18D8A4BE
:103B200094EF1DF096EF1DF0B1EF1DF04D50016EBA
:103B3000026AD8900136023609C003F00AC004F0C8
:103B40000150032602500422010E0326000E042217
:103B500003C0F6FF04C0F7FF0800F5CF0BF0C5EF78
:103B60001DF0D10E4D24F66EF76A3E0EF7220800C6
:103B7000F5500924016E000E0A20026E01C0F6FF06
:103B800002C0F7FF0800F5CF0BF0530E936E080E3E
:103B9000946EF00E82122C0E8112808C0BA0D3EF4B
:103BA0001DF0D5EF1DF0D6EF1DF082980BA2DBEFD4
:103BB0001DF0DDEF1DF0DEEF1DF0829A0BA4E3EFA8
:103BC0001DF0E5EF1DF0E6EF1DF0829C0BA6EBEF7C
:103BD0001DF0EDEF1DF0EEEF1DF081960BA8F3EF59
:103BE0001DF0F5EF1DF0F6EF1DF0829E0BAAFBEF26
:103BF0001DF0FDEF1DF0FEEF1DF0819A0BAC03EF01
:103C00001EF005EF1EF006EF1EF0819439A20BEFB7
:103C10001EF00DEF1EF00EEF1EF0809C8286000E4F
:103C2000946ED8EF1EF00804D8A419EF1EF01BEF15
:103C30001EF0D8EF1EF0D50E091807E13F0E0A1846
:103C4000D8A425EF1EF027EF1EF03EEF1EF04D50DA
:103C5000016E026AD8900136023609C003F00AC02C
:103C600004F0015003260250042203C0F6FF04C0F2
:103C7000F7FF0800F5CF0BF084EF1EF00A0E4D6041
:103C800044EF1EF046EF1EF06EEF1EF055EF1EF0F3
:103C9000000E0B6E84EF1EF009C0F6FF0AC0F7FF9E
:103CA0000800F5CF0BF084EF1EF03850016E026A69
:103CB0000250000AD8B45FEF1EF04CEF1EF0015026
:103CC000030AD8B448EF1EF00A0AD8B448EF1EF031
:103CD000030AD8B448EF1EF04CEF1EF06D0E4D24D1
:103CE000F66EF76A3E0EF7220800F5CF0BF00B5088
:103CF0000924016E000E0A20026E01C0F6FF02C008
:103D0000F7FF0800F5CF0BF0530E936E080E946E7C
:103D1000F00E82122C0E8112808C0B50D8B493EFCF
:103D20001EF095EF1EF078EF1DF00BA09AEF1EF03D
:103D30009CEF1EF09DEF1EF082980BA2A2EF1EF0EA
:103D4000A4EF1EF0A5EF1EF0829A0BA4AAEF1EF0BE
:103D5000ACEF1EF0ADEF1EF0829C0BA6B2EF1EF092
:103D6000B4EF1EF0B5EF1EF081960BA8BAEF1EF06F
:103D7000BCEF1EF0BDEF1EF0829E0BAAC2EF1EF03C
:103D8000C4EF1EF0C5EF1EF0819A0BACCAEF1EF017
:103D9000CCEF1EF0CDEF1EF0819439A6D2EF1EF0CD
:103DA000D4EF1EF0D5EF1EF0809C8188430E936EF9
:103DB000082A030E0864DFEF1EF0E1EF1EF0E3EFC8
:103DC0001EF0000E086E08C03AF01200000001025A
:103DD000030405060708090000000000000A0B0C98
:103DE0000D0E0F1011121300000000000014151624
:103DF0001718191A1B1C1D0000000000001E1F20B0
:103E00002122232425262700000000000028292A3B
:103E10002B2C2D2E2F3031000000000000323334C7
:103E200035363738393A3B0000000000003C3D3E53
:103E30003F404142434445000000000000464748DF
:103E4000494A4B4C4D4E4F0000000000005051526B
:103E5000535455565758590000000000005A5B5CF7
:103E60005D5E5F60616263000000000000000000B2
:103E70000000000000000001010101010101010139
:103E8000010202020202020202020203030303030E
:103E900003030303030404040404040404040405E6
:103EA00005050505050505050506060606060606BB
:103EB0000606060707070707070707070708080892
:103EC0000808080808080809090909090909090969
:103ED00009000102030405060708090001020304A2
:103EE0000506070809000102030405060708090082
:103EF0000102030405060708090001020304050680
:103F00000708090001020304050607080900010269
:103F10000304050607080900010203040506070853
:103F20000900010203040506070809000102030451
:103F30000506070809000102030405060708091021
:103F400011121314151617181920212223242526BF
:103F50002728293031323334353637383940414219
:103F60004344454647484950515253545556575873
:103F700059606162636465666768697071727374C1
:103F80007576777879808182838485868788899021
:103F900091929394959697989904040404040404C8
:103FA00004040401010101010101010101080808E3
:103FB00008080808080808020202020202020202B7
:103FC000020808080808080808080801010101019A
:103FD00001010101016D3E373F313E3E793176717D
:103FE000776D7740403F065B4F666D7D077F6F4082
:083FF00040404040402A54000B
:083FF80080F4D8FFFFF8CFF1BF
:00000001FF
