:020000040000FA
:0400000023EF0EF0EC
:101B3600FFFF0F013F8F3F9B1200CA94000E3B6EC2
:101B46001200550EA76EAA0EA76E0F013F8B12004C
:101B5600000E3E6E000E3D6EF00EBA167694120022
:101B6600CA50FC0B0209CA6E000ECC6ECA94000E57
:101B76003B6E12003F0E7916300E79127982000EF6
:101B86007B6E000E7A6E799012007650FC0B02097D
:101B9600766E000E786E76940F0152915283120083
:101BA600000E896E000E8A6E000E8B6E080E856E14
:101BB600000E886E1200CD503F0B8009CD6ECF0E01
:101BC600CD16CD86CD829A9E9E909D90CD90120088
:101BD600D59AD59CD550F80B0509D56ED596000E2D
:101BE600D76E000ED66EF29AF294D59E000E486E0F
:101BF600120047C001F0080E0118D8A405EF0EF038
:101C060007EF0EF00BEF0EF00F0E476E0EEF0EF015
:101C1600CA94000E3B6E1200016EF00EBA16769450
:101C26000150F80DF350540F776E0150FC0DF35030
:101C36002A0FBB6E7684BA50F00B0C09BA6E1200EE
:101C4600360EF66E1B0EF76E000EF86E0900F5CF17
:101C56004DF00900F5CF4EF000EE36F0170EEE6AA5
:101C6600E806FDE1000EF86E00010CEF14F0000E20
:101C76004C6E000E4B6E000E4A6E000E496E000E44
:101C8600466E000E456E000E446E000E436E000E4C
:101C9600426E000E416E000E406E000E3F6E120048
:101CA6004A50D8A459EF0EF05BEF0EF06DEF0EF030
:101CB6004950D8A461EF0EF063EF0EF06DEF0EF011
:101CC6004704D8A469EF0EF06BEF0EF06DEF0EF03F
:101CD600020E476E1200000EB36E900EB26E010E2B
:101CE600B16E270E926E530E936E080E946E80960A
:101CF600809E0F0148691F0E496FC290270E926E93
:101D0600550EA76EAA0EA76E0E01FF910E0ED36F8B
:101D1600FF811200170E3E6E700E3D6E4750D8A41E
:101D260097EF0EF099EF0EF09BEF0EF0010E476E57
:101D3600010E3B6E000ECC6ECA84BA9EBA9C540E3F
:101D4600776ECF0EBA162A0EBB6E7684BA50F00B9B
:101D56000C09BA6E120047C001F00A0E0118D8A489
:101D6600B7EF0EF0B9EF0EF0BDEF0EF0090E476EAD
:101D7600D6EF0EF00B0E0118D8A4C4EF0EF0C6EF86
:101D86000EF0CAEF0EF00C0E476ED6EF0EF0020EF6
:101D96000118D8A4D1EF0EF0D3EF0EF0D6EF0EF067
:101DA600CA94000E3B6E1200470E026E000E036EC2
:101DB60002C0D9FF03C0DAFF060EDE18D8A4E6EF8C
:101DC6000EF0E8EF0EF010EF0FF0020E4C18D8B43C
:101DD600EFEF0EF0F1EF0EF0FAEF0EF0030E4C18E7
:101DE600D8A4F8EF0EF0FAEF0EF010EF0FF04A500D
:101DF600D8A400EF0FF002EF0FF010EF0FF04950EC
:101E0600D8A408EF0FF00AEF0FF010EF0FF002C0A2
:101E1600D9FF03C0DAFF0E0EDF6E12004C50D8A4B5
:101E260017EF0FF019EF0FF053EF0FF04A50D8A449
:101E36001FEF0FF021EF0FF053EF0FF04950D8A42A
:101E460027EF0FF029EF0FF053EF0FF0470E026E5A
:101E5600000E036E02C0D9FF03C0DAFFDF50016E29
:101E6600030E0118D8A43AEF0FF03CEF0FF044EF41
:101E76000FF002C0D9FF03C0DAFF050EDF6E53EF85
:101E86000FF0050E0118D8A44BEF0FF04DEF0FF031
:101E960053EF0FF002C0D9FF03C0DAFF040EDF6E66
:101EA6001200270E926E000E0E01E76F010EE86F0C
:101EB600020EE96FC08E0F014D914D934C85F18C4A
:101EC600F18AF188F186F292F288F090F086F0922B
:101ED600F088F094F08AA49091AE02D0A38001D04D
:101EE600A390F28EF28C80BA7BEF0FF07DEF0FF0AD
:101EF60096EF0FF080B282EF0FF084EF0FF096EFBF
:101F06000FF081B089EF0FF08BEF0FF096EF0FF027
:101F160080B090EF0FF092EF0FF096EF0FF0D39E98
:101F26000F014D9F030012003D503E10D8B49EEFA6
:101F36000FF0A0EF0FF0A2EF0FF0ABEC0DF047C0E3
:101F460001F00F0E0118D8A4ABEF0FF0ADEF0FF0B4
:101F5600B6EF0FF0010E476EA4EC0DF00F013F8BAC
:101F66003F8F9CEC0DF00150D8A4BCEF0FF0BEEFF4
:101F76000FF0C2EF0FF0010E476EE3EF0FF0030E06
:101F86000118D8B4C9EF0FF0CBEF0FF0D4EF0FF074
:101F9600090E0118D8A4D2EF0FF0D4EF0FF0D8EF46
:101FA6000FF00A0E476EE3EF0FF00C0E0118D8A4DF
:101FB600DFEF0FF0E1EF0FF0E3EF0FF00B0E476EE0
:101FC60012003D503E10D8B4EBEF0FF0EDEF0FF0DE
:101FD600EFEF0FF0ABEC0DF0470E056E000E066E40
:101FE60005C0D9FF06C0DAFFDF50076E0750D8A438
:101FF600FFEF0FF001EF10F009EF10F005C0D9FF69
:1020060006C0DAFF080EDF6E5EEF10F00704D8B4E4
:102016000FEF10F011EF10F001EF10F0070E071898
:10202600D8A418EF10F01AEF10F01CEF10F001EF23
:1020360010F0030E0718D8B423EF10F025EF10F0B8
:1020460040EF10F0040E0718D8B42CEF10F02EEF66
:1020560010F040EF10F0050E0718D8B435EF10F069
:1020660037EF10F040EF10F00A0E0718D8A43EEF35
:1020760010F040EF10F05EEF10F0010E4B6446EFEB
:1020860010F048EF10F05EEF10F0010E4C644EEFCA
:1020960010F050EF10F058EF10F005C0D9FF06C051
:1020A600DAFF0B0EDF6E5EEF10F005C0D9FF06C03B
:1020B600DAFF0C0EDF6ED0EC11F012003D503E1030
:1020C600D8B468EF10F06AEF10F06CEF10F0ABECDC
:1020D6000DF0470E066E000E076E06C0D9FF07C04C
:1020E600DAFFDF50D8A47AEF10F07CEF10F084EF1F
:1020F60010F006C0D9FF07C0DAFF070EDF6EF2EF59
:1021060010F006C0D9FF07C0DAFFDF50086E030ED5
:102116000818D8B491EF10F093EF10F0A5EF10F077
:102126000A0E0818D8B49AEF10F09CEF10F0A5EF3D
:1021360010F0090E0818D8A4A3EF10F0A5EF10F0C0
:10214600C5EF10F0010E4B64ABEF10F0ADEF10F0E1
:10215600F2EF10F0010E4C64B3EF10F0B5EF10F093
:10216600BDEF10F006C0D9FF07C0DAFF0A0EDF6E1A
:10217600F2EF10F006C0D9FF07C0DAFF090EDF6ED6
:10218600F2EF10F00804D8B4CBEF10F0CDEF10F05A
:102196007CEF10F0080E0818D8B4D4EF10F0D6EF84
:1021A60010F07CEF10F00D0E0818D8A4DDEF10F03B
:1021B600DFEF10F0E1EF10F07CEF10F0040E0818DE
:1021C600D8A4E8EF10F0EAEF10F0F2EF10F006C036
:1021D600D9FF07C0DAFF0B0EDF6EF2EF10F06EECE0
:1021E60015F012003D503E10D8B4FCEF10F0FEEF93
:1021F60010F000EF11F0ABEC0DF0470E066E000E7E
:10220600076E06C0D9FF07C0DAFFDF50D8A40EEF6D
:1022160011F010EF11F018EF11F006C0D9FF07C04A
:10222600DAFF030EDF6ECFEF11F006C0D9FF07C04D
:10223600DAFFDE04D8B422EF11F024EF11F031EF0B
:1022460011F006C0D9FF07C0DAFF020EDE18D8A4C7
:102256002FEF11F031EF11F039EF11F006C0D9FF71
:1022660007C0DAFF060EDF6ECFEF11F006C0D9FF0A
:1022760007C0DAFF0E0EDE18D8A444EF11F046EFC1
:1022860011F0CFEF11F0020E4C18D8B44DEF11F04B
:102296004FEF11F058EF11F0030E4C18D8A456EF7B
:1022A60011F058EF11F0CFEF11F04A50D8A45EEFBD
:1022B60011F060EF11F0CFEF11F04950D8A466EF9E
:1022C60011F068EF11F0CFEF11F0A4EC0DF00F0153
:1022D6003F8B3F9F9150C30B1809916E91AE76EFDD
:1022E60011F079EF11F0010E7AEF11F0000E046E85
:1022F600056A04500510D8A483EF11F087EF11F09A
:10230600016A012A88EF11F0016A013A0146014685
:1023160091500118BF0B0118916E04500510D8A4F6
:1023260097EF11F099EF11F09FEF11F0000E036E89
:10233600000E026EA2EF11F0000E036E026802C0DC
:1023460090FF04500510D8A4ABEF11F0AFEF11F0D9
:10235600016A012AB0EF11F0016AA3500118FE0BC1
:102366000118A36EA49004500510D8A4BDEF11F077
:10237600C1EF11F0016A012AC2EF11F0016A0132C0
:102386000132915001187F0B0118916E0F013F8F9A
:102396009CEC0DF0CFEF11F0120047C002F0080ED2
:1023A6000218D8A4D9EF11F0DBEF11F008EF12F004
:1023B600A4EC0DF00F013F8B3F9FFC0E3F1799CF0A
:1023C60003F0CD0E0324F66EF76A3D0EF7220800E1
:1023D600F5CF01F00128046E3B0E0464F5EF11F011
:1023E600F7EF11F0F9EF11F0000E046E350E04242C
:1023F600F66EF76A3F0EF7220800F5CF03F003C02A
:1024060099FF000E986EAFEF12F00B0E0218D8A4CB
:102416000FEF12F011EF12F03FEF12F0A4EC0DF0F7
:102426000F013F8B3F9F030E3F1398CF03F0CD0E56
:102436000324F66EF76A3D0EF7220800F5CF01F089
:102446000128046E630E04642BEF12F02DEF12F0D8
:102456002FEF12F0000E046E350E0424F66EF76AA6
:102466003F0EF7220800F5CF03F003C098FF3F8F19
:102476009CEC0DF0AFEF12F00C0E0218D8A446EF4C
:1024860012F048EF12F067EF12F0A4EC0DF00F0116
:102496003F8B3F9F3F813F9399CF03F003C001F0ED
:1024A600070E01160128046E060E04645DEF12F095
:1024B6005FEF12F061EF12F0000E046E3F8104C070
:1024C60099FF3F8F3BEF12F0060E0218D8B46EEF5D
:1024D60012F070EF12F079EF12F00E0E0218D8A477
:1024E60077EF12F079EF12F0AFEF12F0A4EC0DF0E7
:1024F6000F013F8B3F9F919091928FCF03F0CD0EAE
:102506000324F66EF76A3D0EF7220800F5CF01F0B8
:102516000128046E3B0E046493EF12F095EF12F05F
:1025260097EF12F0000E046E350E0424F66EF76A6D
:102536003F0EF7220800F5CF03F003C08FFF000E11
:102546008E6E91909182010E8E6E010E8F6E010E2F
:102556008F6E3F8F3BEF12F012000F013FB9B6EFBF
:1025660012F0B8EF12F0B0EF12F0A4EC0DF00F017C
:102576003F8B3F9F3FB9C2EF12F0C4EF12F0BDEFA1
:1025860012F0000E016E030E3F1398CF02F02D0ECF
:102596000224F66EF76A3D0EF7220800F5CF03F027
:1025A600630E0364D9EF12F0DBEF12F0DDEF12F0E9
:1025B600010E016E995098CF02F02D0E0224F66E90
:1025C600F76A3D0EF7220800F5CF03F01F0E0364ED
:1025D600EFEF12F0F1EF12F0F3EF12F0010E016ED1
:1025E60099CF02F02D0E0224F66EF76A3D0EF72201
:1025F6000800F5CF03F00350D8B404EF13F006EF4C
:1026060013F00EEF13F00C0E03640CEF13F00EEF45
:1026160013F010EF13F0010E016E98CF02F02D0E9D
:102626000224F66EF76A3D0EF7220800F5CF03F096
:10263600170E036421EF13F023EF13F025EF13F0C9
:10264600010E016E99CF02F02D0E0224F66EF76A86
:102656003D0EF7220800F5CF03F0060E036436EFB1
:1026660013F038EF13F03AEF13F0010E016E98CF26
:1026760002F02D0E0224F66EF76A3D0EF7220800D0
:10268600F5CF03F03B0E03644BEF13F04DEF13F061
:102696004FEF13F0010E016E99CF02F02D0E0224BA
:1026A600F66EF76A3D0EF7220800F5CF03F03B0EF3
:1026B600036460EF13F062EF13F064EF13F0010EA2
:1026C600016E0150D8B46AEF13F06CEF13F09EEF71
:1026D60013F03FB971EF13F073EF13F06CEF13F0D3
:1026E600030E3F134A0EF66E3F0EF76E0800F5CF47
:1026F60098FF9950010E986E010E996E410EF66E76
:102706003F0EF76E0800F5CF98FF030E996E000E88
:10271600986E000E996E91909182010E8E6E010E4A
:102726008F6E000E8E6E010E8F6E000E8E6E000E78
:102736008F6EEFEF13F0000E016E918091928ECFA7
:1027460002F02D0E0224F66EF76A3D0EF7220800FF
:10275600F5CF03F0170E0364B3EF13F0B5EF13F0E4
:10276600B7EF13F0010E016E8F508FCF02F02D0ED2
:102776000224F66EF76A3D0EF7220800F5CF03F045
:102786003B0E0364C9EF13F0CBEF13F0CDEF13F05C
:10279600010E016E0150D8B4D3EF13F0D5EF13F04C
:1027A600E5EF13F091909182010E8E6E010E8F6E01
:1027B600000E8E6E010E8F6E000E8E6E000E8F6EE8
:1027C600EFEF13F091909182010E8E6E010E8F6ED7
:1027D600010E8F6E000E8E6E3FB9F4EF13F0F6EF1A
:1027E60013F0EFEF13F03F913F93919C9150C30B81
:1027F6001809916E919E000E906EA3903F8F3FB97F
:1028060007EF14F009EF14F002EF14F09CEC0DF052
:102816001200D3EC0DF06EEC0EF0EBEC0DF0DEECEE
:102826000DF0B3EC0DF0BDEC0DF0C8EC0DF0B0EC16
:1028360012F03AEC0EF0C0A623EF14F025EF14F0D8
:102846002AEF14F0C0960F014C9131EF14F0000EF0
:10285600CC6ECA84010E3B6E010E476EF28EF28C70
:10286600F18CF18AF188F186F18E000E3A6E000E37
:10287600356E010E346E000E306EA4A045EF14F0D6
:1028860047EF14F04DEF14F0A49090688DEC0EF025
:10289600000E3C6EF9EC16F02F6E3B50D8B456EF96
:1028A60014F058EF14F003EF15F09F0ECC645EEFB2
:1028B60014F060EF14F0F5EF14F0000ECC6E3D0E40
:1028C600326E000E336E32C0D9FF33C0DAFFDE50EF
:1028D600DE10D8B471EF14F073EF14F0B2EF14F009
:1028E60032C0D9FF33C0DAFFDE06000EDD5A32C031
:1028F600D9FF33C0DAFFDECF2DF0DDCF2EF02D501D
:102906002E10D8A489EF14F08BEF14F08FEF14F08B
:10291600ABEC0DF0AEEF14F02DC02AF02EC02BF06C
:10292600060E2C6ED8902B322A322C2E95EF14F0F0
:102936002A50070B0FEC0EF03CC031F0312AEF0E97
:102946003164A8EF14F0AAEF14F0ACEF14F0000E07
:10295600316E31C03CF0000E356E640E346E344A72
:10296600352A5E0E345C010E3558D8A0BDEF14F042
:10297600BFEF14F0F5EF14F04C50D8A4C5EF14F0E7
:10298600C7EF14F0F1EF14F04B50D8A4CDEF14F0CC
:10299600CFEF14F0F1EF14F04A50D8A4D5EF14F0AD
:1029A600D7EF14F0F1EF14F04950D8A4DDEF14F08E
:1029B600DFEF14F0F1EF14F00F0E4718D8B4E6EF7E
:1029C60014F0E8EF14F0F1EF14F0CA94000E356E2F
:1029D600000E346E000E3B6EF5EF14F0000E356EF1
:1029E600640E346E34503510D8A4FCEF14F0FFEFAB
:1029F60014F0010E00EF15F0000E2F1207EF15F080
:102A0600000E356E010E346E2F50D8B40DEF15F052
:102A16000FEF15F01FEF15F0030E3018D8A416EFC0
:102A260015F018EF15F01CEF15F0000E306E57EC90
:102A36001AF0302A40EF14F0530E936E080E946E7F
:102A4600000E826E010E8116270E8016A4EC0DF084
:102A56000F013F8B3F8F000E476E3AEC0EF0000ED3
:102A6600486E000E3B6E000E3A6ED59ECA940F015C
:102A76003FB940EF15F042EF15F03AEF15F03F9BE6
:102A86009CEC0DF0ABEC0DF0F292F288F090F08633
:102A9600F092F088F094F08AF294F18CF18AF18841
:102AA600F1869E90A49091AE02D0A38001D0A3900F
:102AB600F28EF28CC29054EC0FF0000E356E010EC1
:102AC600346E000E306ED3EC0DF06EEC0EF040EF6F
:102AD60014F000EF00F047C002F0070E0218D8A469
:102AE60077EF15F079EF15F0A7EF15F0A4EC0DF0E0
:102AF6000F013F8B3F9F3F813F9398CF04F0CD0E50
:102B06000424F66EF76A3D0EF7220800F5CF01F0B1
:102B16000128056E170E056493EF15F095EF15F075
:102B260097EF15F0000E056E350E0524F66EF76A62
:102B36003F0EF7220800F5CF04F004C098FF3F8F40
:102B46009CEC0DF0F8EF16F0090E0218D8A4AEEFC3
:102B560015F0B0EF15F0DEEF15F0A4EC0DF00F0157
:102B66003F8B3F9F3F913F8399CF04F0CD0E0424C6
:102B7600F66EF76A3D0EF7220800F5CF01F0012840
:102B8600056E0C0E0564CAEF15F0CCEF15F0CEEF0E
:102B960015F0010E056E3F913F83350E0524F66E46
:102BA600F76A3F0EF7220800F5CF04F004C099FF3C
:102BB6003F8FA3EF15F00A0E0218D8A4E5EF15F023
:102BC600E7EF15F07DEF16F0A4EC0DF00F013F8B4B
:102BD6003F9F3F913F8398CF04F0CD0E0424F66EBD
:102BE600F76A3D0EF7220800F5CF01F00128056EC1
:102BF60099CF04F0CD0E0424F66EF76A3D0EF72247
:102C06000800F5CF03F0020E0318D8A40DEF16F056
:102C16000FEF16F01BEF16F01D0E056415EF16F0FC
:102C260017EF16F06DEF16F0010E056E6DEF16F04C
:102C36000304D8B421EF16F023EF16F059EF16F07F
:102C4600030E0318D8B42AEF16F02CEF16F059EF3E
:102C560016F0050E0318D8B433EF16F035EF16F05C
:102C660059EF16F0070E0318D8B43CEF16F03EEFF6
:102C760016F059EF16F0080E0318D8B445EF16F003
:102C860047EF16F059EF16F00A0E0318D8B44EEFB8
:102C960016F050EF16F059EF16F00C0E0318D8A4E4
:102CA60057EF16F059EF16F063EF16F01F0E056496
:102CB6005FEF16F061EF16F06DEF16F017EF16F0F6
:102CC6001E0E056469EF16F06BEF16F06DEF16F049
:102CD60017EF16F03F913F83350E0524F66EF76A1F
:102CE6003F0EF7220800F5CF04F004C098FF3F8F8F
:102CF600A3EF15F00B0E0218D8A484EF16F086EF9A
:102D060016F0B2EF16F0A4EC0DF00F013F8B3F9FCB
:102D1600030E3F1398CF04F0CD0E0424F66EF76A27
:102D26003D0EF7220800F5CF01F00128056E630E6F
:102D36000564A0EF16F0A2EF16F0A4EF16F0000E51
:102D4600056E350E0524F66EF76A3F0EF72208006B
:102D5600F5CF04F004C098FF3F8FA3EF15F0060EE1
:102D66000218D8B4B9EF16F0BBEF16F0C4EF16F0A0
:102D76000E0E0218D8A4C2EF16F0C4EF16F0F8EF44
:102D860016F0A4EC0DF00F013F8B3F9F91809192BE
:102D96008ECF04F0CD0E0424F66EF76A3D0EF722B0
:102DA6000800F5CF01F00128056E170E0564DEEF69
:102DB60016F0E0EF16F0E2EF16F0000E056E350E97
:102DC6000524F66EF76A3F0EF7220800F5CF04F0E9
:102DD60004C08EFF91909182010E8E6E010E8F6E51
:102DE600010E8F6E3F8FA3EF15F01200000E236EBB
:102DF600000E1C6E480E246E000E256E6BEF17F04B
:102E06004B0E286E000E296E430E266E000E276EA0
:102E1600000E80B2010E196EEA0E1A6E210E1B6E9E
:102E2600220E1D6E1E0E1E6EAE0E1F6E1D0E206E27
:102E360084EF17F04A0E286E000E296E410E266E9C
:102E4600000E276E000E81B0010E196EC20E1A6EAC
:102E5600200E1B6EDC0E1D6E2A0E1E6E400E1F6EA1
:102E66001B0E206E84EF17F0490E286E000E296E99
:102E76003F0E266E000E276E000E80B0010E196EF4
:102E8600C80E1A6E1F0E1B6EA00E1D6E230E1E6E32
:102E9600F80E1F6E1B0E206E84EF17F04C0E286E78
:102EA600000E296E450E266E000E276E000E80BAA5
:102EB600010E196E2E0E1A6E1F0E1B6EA60E1D6EBD
:102EC6001C0E1E6E5C0E1F6E1D0E206E84EF17F01C
:102ED6002350096E0A6A0A50000AD8B475EF17F033
:102EE60051EF17F00950010AD8B403EF17F0030A9F
:102EF600D8B41DEF17F0010AD8B437EF17F051EF29
:102F060017F01950D8B48AEF17F08CEF17F027EFA7
:102F16001AF000EF19F028C0D9FF29C0DAFF010E18
:102F2600DF6E24C0D9FF25C0DAFFDF50D8A49EEF9C
:102F360017F0A0EF17F0AFEF17F0000ED76E000EE8
:102F4600D66ED58E26C0D9FF27C0DAFF000EDE6EFC
:102F5600000EDD6EC5EF17F0D6CF0DF0D7CF0EF011
:102F66000E500A6E096A0D500B6E0C6A09500B1250
:102F76000A500C1226C0D9FF27C0DAFF0BC0DEFFAD
:102F86000CC0DDFF23C009F0010E0A6E092ACEEF40
:102F960017F0D8900A36092ECCEF17F024C0D9FFC7
:102FA60025C0DAFF0A50DF12010E1C6E4CEF1AF034
:102FB600D6CF0FF0D7CF10F010500A6E096A0F5017
:102FC6000B6E0C6A09500B10216E0A500C10226E03
:102FD60026C0D9FF27C0DAFFDECF09F0DDCF0AF021
:102FE60021C00BF022C00CF009500B5E0A500C5A9F
:102FF600010E0B24BA0E0C20800BD8A405EF18F096
:1030060007EF18F032EF18F028C0D9FF29C0DAFF11
:10301600030EDF6E26C0D9FF27C0DAFF21C0DEFF10
:1030260022C0DDFF1D501E10D8B41CEF18F01EEF95
:1030360018F02BEF18F002D82BEF18F00500FA6EF7
:103046001D50FD6E1E50FE6EF850FF6EFA501200B7
:10305600010E3B6E000ECC6ECA84D7EF17F026C069
:10306600D9FF27C0DAFFDECF09F0DDCF0AF021C095
:103076000BF022C00CF009500B5E0A500C5A000EE1
:103086000B24FC0E0C20800BD8A44CEF18F04EEF4E
:1030960018F0D7EF17F028C0D9FF29C0DAFF020EC3
:1030A600DE18D8B459EF18F05BEF18F0D7EF17F029
:1030B60028C0D9FF29C0DAFF020EDF6E1A501B1096
:1030C600D8B468EF18F06AEF18F077EF18F002D866
:1030D60077EF18F00500FA6E1A50FD6E1B50FE6E63
:1030E600F850FF6EFA501200010E3B6E000ECC6EC9
:1030F600CA84D7EF17F0D6CF11F0D7CF12F01250FF
:103106000A6E096A11500B6E0C6A09500B10216E7B
:103116000A500C10226E300E186E000E176E9FEFBE
:1031260018F0450E186E1768BCEF18F0200E186ED2
:10313600000E176EBCEF18F02350096E0A6A0A508B
:10314600000AD8B4A9EF18F0BCEF18F00950000A2D
:10315600D8B4BCEF18F0010AD8B494EF18F0030AFB
:10316600D8B499EF18F0010AD8B499EF18F0BCEF6B
:1031760018F026C0D9FF27C0DAFFDECF09F0DDCF71
:103186000AF0091E0A1E094A0A2A1750095E185033
:103196000A5A2150092422500A20800BD8A4D6EFBF
:1031A60018F0D8EF18F0D7EF17F026C0D9FF27C0D0
:1031B600DAFF21C0DEFF22C0DDFF1D501E10D8B48D
:1031C600E7EF18F0E9EF18F0D7EF17F002D8F6EFAF
:1031D60018F00500FA6E1D50FD6E1E50FE6EF8507A
:1031E600FF6EFA501200D7EF17F028C0D9FF29C09A
:1031F600DAFF030EDF6ED7EF17F028C0D9FF29C01C
:10320600DAFFDF50096E0A6A0A50000AD8B40EEFD8
:1032160019F04CEF1AF00950000AD8B48EEF17F0E7
:10322600010AD8B4DBEF17F0030AD8B4DBEF17F0C6
:10323600010AD8B47EEF18F0070AD8B4F8EF18F0F0
:103246004CEF1AF028C0D9FF29C0DAFF000EDF6E56
:1032560023C009F0010E0A6E092A34EF19F0D8903E
:103266000A36092E32EF19F00A50FF0A0B6E24C0F7
:10327600D9FF25C0DAFF0B50DF1624C0D9FF25C0C1
:10328600DAFFDF50D8A44AEF19F04CEF19F0D7EF68
:1032960017F0D59E4CEF1AF028C0D9FF29C0DAFFE7
:1032A600000EDF6E23C009F0010E0A6E092A5EEFDA
:1032B60019F0D8900A36092E5CEF19F00A50FF0A69
:1032C6000B6E24C0D9FF25C0DAFF0B50DF1624C0D1
:1032D600D9FF25C0DAFFDF50D8A474EF19F076EFD6
:1032E60019F079EF19F0D59E7BEF19F0010E1C6EDF
:1032F6001F502010D8B482EF19F084EF19F04CEF6C
:103306001AF002D891EF19F00500FA6E1F50FD6E03
:103316002050FE6EF850FF6EFA5012004CEF1AF075
:1033260028C0D9FF29C0DAFF040EDF6E24C0D9FFFA
:1033360025C0DAFFDF50D8A4A3EF19F0A5EF19F0E6
:10334600ACEF19F0000ED76E000ED66ED58EA5EF37
:1033560017F0D6CF13F0D7CF14F014500A6E096ABF
:1033660013500B6E0C6A09500B120A500C1226C031
:10337600D9FF27C0DAFF0BC0DEFF0CC0DDFFC5EFAB
:1033860017F0D6CF15F0D7CF16F016500A6E096A89
:1033960015500B6E0C6A09500B10216E0A500C105A
:1033A600226E26C0D9FF27C0DAFFDECF09F0DDCFB7
:1033B6000AF021C00BF022C00CF009500B5E0A5037
:1033C6000C5A000E0B24FC0E0C20800BD8A4EEEF3A
:1033D60019F0F0EF19F0D7EF17F023C009F0010E3E
:1033E6000A6E092AF9EF19F0D8900A36092EF7EF76
:1033F60019F00A50FF0A0B6E24C0D9FF25C0DAFF68
:103406000B50DF1624C0D9FF25C0DAFFDF50D8A441
:103416000FEF1AF011EF1AF014EF1AF0D59E16EF0F
:103426001AF0010E1C6E28C0D9FF29C0DAFF000E63
:10343600DF6E1F502010D8B423EF1AF025EF1AF0D4
:103446004CEF1AF084EF19F028C0D9FF29C0DAFF33
:10345600DF50096E0A6A0A50000AD8B435EF1AF02E
:103466004CEF1AF00950000AD8B44CEF1AF0010AD2
:10347600D8B425EF19F0030AD8B44FEF19F0010AB2
:10348600D8B493EF19F0070AD8B4C4EF19F04CEF8B
:103496001AF0232A030E236453EF1AF055EF1AF09D
:1034A6006BEF17F01C5012003AC008F00850D8A471
:1034B6005FEF1AF061EF1AF0E5EF1BF04E684D680A
:1034C600000E396E47C007F007C038F073EF1BF0E7
:1034D600070E4D6EC0EF1BF00F013F813F9398CF53
:1034E6000BF0CD0E0B24F66EF76A3D0EF7220800A0
:1034F600F5CF4EF0170E4E6483EF1AF085EF1AF0F3
:1035060087EF1AF0000E4E6E995099CF0BF0CD0E44
:103516000B24F66EF76A3D0EF7220800F5CF4DF044
:103526003B0E4D6499EF1AF09BEF1AF09DEF1AF0DF
:10353600000E4D6E3D503E10D8B4A4EF1AF0A6EF23
:103546001AF0C0EF1BF03C40E8423F0B016E026AE6
:10355600990E0124F66E3F0E0220F76E0800F5CF95
:1035660039F0C0EF1BF0FC0E0F013F174E6898CFE5
:103576000BF0CD0E0B24F66EF76A3D0EF72208000F
:10358600F5CF4DF03B0E4D64CBEF1AF0CDEF1AF0B0
:10359600C0EF1BF0000E4D6EC0EF1BF00F013F9108
:1035A6003F8398CF0BF0CD0E0B24F66EF76A3D0ED7
:1035B600F7220800F5CF4DF01F0E4D64E5EF1AF027
:1035C600E7EF1AF0E9EF1AF0010E4D6E99CF0BF006
:1035D600CD0E0B24F66EF76A3D0EF7220800F5CFE6
:1035E6004EF00C0E4E64FAEF1AF0FCEF1AF0FEEFF6
:1035F6001AF0010E4E6E010E396EC0EF1BF0030E6F
:103606000F013F1398CF0BF0CD0E0B24F66EF76A21
:103616003D0EF7220800F5CF4DF0630E4D6416EF10
:103626001BF018EF1BF01AEF1BF0000E4D6E140E78
:103636004E6EC0EF1BF00F013F813F9399CF0BF009
:10364600060E0B6429EF1BF02BEF1BF02DEF1BF082
:10365600000E0B6E0BC04DF0C0EF1BF091809192E7
:103666008ECF0BF0CD0E0B24F66EF76A3D0EF722C9
:103676000800F5CF4EF0170E4E6444EF1BF046EFF0
:103686001BF048EF1BF0000E4E6E8F508FCF0BF0E5
:10369600CD0E0B24F66EF76A3D0EF7220800F5CF25
:1036A6004DF03B0E4D645AEF1BF05CEF1BF05EEFE6
:1036B6001BF0000E4D6E91BE63EF1BF065EF1BF025
:1036C6006BEF1BF0000E066E000E056E6FEF1BF023
:1036D600000E066E020E056E05C039F0C0EF1BF037
:1036E6000750016E026A0250000AD8B47DEF1BF043
:1036F600C0EF1BF00150000AD8B4C0EF1BF0010A5E
:10370600D8B46FEF1AF0030AD8B4B6EF1AF0010A6C
:10371600D8B4D1EF1AF0070AD8B402EF1BF0010AA9
:10372600D8B41EEF1BF0030AD8B431EF1BF0010A20
:10373600D8B46FEF1AF00F0AD8B46FEF1AF0010A77
:10374600D8B4D1EF1AF0030AD8B4D1EF1AF0010AAF
:10375600D8B402EF1BF0070AD8B41EEF1BF0010A1B
:10376600D8B4B6EF1AF0030AD8B431EF1BF0010A49
:10377600D8B46BEF1AF0C0EF1BF0050E0718D8B4DB
:10378600C7EF1BF0C9EF1BF0E1EF1BF00C0E07189B
:10379600D8B4D0EF1BF0D2EF1BF0E1EF1BF00F0E09
:1037A6000718D8B4D9EF1BF0DBEF1BF0E1EF1BF0E5
:1037B600E50E366E3F0E376EE5EF1BF0D50E366E14
:1037C6003F0E376E36C009F037C00AF0010E0864A6
:1037D600EFEF1BF0F1EF1BF02AEF1DF04E28D8B4E7
:1037E600F7EF1BF0F9EF1BF01DEF1DF0020E0818A6
:1037F600D8A400EF1CF002EF1CF064EF1CF0D10E11
:103806004E24F66EF76A3E0EF7220800F55009249C
:10381600016E000E0A20026E01C0F6FF02C0F7FF1D
:103826000800F5CF0BF0530E936E080E946E000E43
:10383600826E010E8116809C0BA024EF1CF026EFF1
:103846001CF027EF1CF082880BA22CEF1CF02EEF49
:103856001CF02FEF1CF0828A0BA434EF1CF036EF1D
:103866001CF037EF1CF0828C0BA63CEF1CF03EEFF1
:103876001CF03FEF1CF081860BA844EF1CF046EFCE
:103886001CF047EF1CF0828E0BAA4CEF1CF04EEF9B
:103896001CF04FEF1CF0818A0BAC54EF1CF056EF76
:1038A6001CF057EF1CF0818439A05CEF1CF05EEF32
:1038B6001CF05FEF1CF0808C8192510E936E88EFA6
:1038C6001EF0030E0818D8A46BEF1CF06DEF1CF069
:1038D60088EF1EF00A0E4E6073EF1CF075EF1CF0B9
:1038E600B1EF1CF084EF1CF0000E0B6EC7EF1CF05E
:1038F60009C0F6FF0AC0F7FF0800F5CF0BF0C7EFC7
:103906001CF03850016E026A0250000AD8B48EEFDD
:103916001CF07BEF1CF00150010AD8B477EF1CF0C5
:10392600020AD8B477EF1CF0050AD8B477EF1CF07A
:10393600010AD8B477EF1CF00F0AD8B477EF1CF061
:10394600010AD8B477EF1CF0030AD8B477EF1CF05D
:10395600040AD8B477EF1CF07BEF1CF06D0E4E24F2
:10396600F66EF76A3E0EF7220800F5CF0BF00B5005
:103976000924016E000E0A20026E01C0F6FF02C085
:10398600F7FF0800F5CF0BF0530E936E080E946EFA
:10399600000E826E010E8116809C0B50D8B4D6EFB5
:1039A6001CF0D8EF1CF028EF1DF00BA0DDEF1CF08B
:1039B600DFEF1CF0E0EF1CF082880BA2E5EF1CF0B5
:1039C600E7EF1CF0E8EF1CF0828A0BA4EDEF1CF089
:1039D600EFEF1CF0F0EF1CF0828C0BA6F5EF1CF05D
:1039E600F7EF1CF0F8EF1CF081860BA8FDEF1CF03A
:1039F600FFEF1CF000EF1DF0828E0BAA05EF1DF005
:103A060007EF1DF008EF1DF0818A0BAC0DEF1DF0DE
:103A16000FEF1DF010EF1DF0818439A415EF1DF096
:103A260017EF1DF018EF1DF0808C819C130E936E1E
:103A360088EF1EF0530E936E080E946E000E826E83
:103A4600010E8116809C88EF1EF088EF1EF04D282F
:103A5600D8B430EF1DF032EF1DF01DEF1DF0085009
:103A6600D8A438EF1DF03AEF1DF0C3EF1DF0D50EC8
:103A7600091807E13F0E0A18D8A444EF1DF046EFD7
:103A86001DF061EF1DF04D50016E026AD8900136AF
:103A9600023609C003F00AC004F0015003260250A2
:103AA6000422010E0326000E042203C0F6FF04C002
:103AB600F7FF0800F5CF0BF075EF1DF0D10E4D2482
:103AC600F66EF76A3E0EF7220800F5500924016EDD
:103AD600000E0A20026E01C0F6FF02C0F7FF0800C2
:103AE600F5CF0BF0530E936E080E946E000E826E99
:103AF600010E8116809C0BA083EF1DF085EF1DF053
:103B060086EF1DF082880BA28BEF1DF08DEF1DF066
:103B16008EEF1DF0828A0BA493EF1DF095EF1DF03A
:103B260096EF1DF0828C0BA69BEF1DF09DEF1DF00E
:103B36009EEF1DF081860BA8A3EF1DF0A5EF1DF0EB
:103B4600A6EF1DF0828E0BAAABEF1DF0ADEF1DF0B8
:103B5600AEEF1DF0818A0BACB3EF1DF0B5EF1DF093
:103B6600B6EF1DF0818439A2BBEF1DF0BDEF1DF04D
:103B7600BEEF1DF0808C8296000E946E88EF1EF0CC
:103B86000804D8A4C9EF1DF0CBEF1DF088EF1EF096
:103B9600D50E091807E13F0E0A18D8A4D5EF1DF077
:103BA600D7EF1DF0EEEF1DF04D50016E026AD89072
:103BB6000136023609C003F00AC004F0015003269C
:103BC6000250042203C0F6FF04C0F7FF0800F5CF39
:103BD6000BF034EF1EF00A0E4D60F4EF1DF0F6EF19
:103BE6001DF01EEF1EF005EF1EF0000E0B6E34EFFB
:103BF6001EF009C0F6FF0AC0F7FF0800F5CF0BF06C
:103C060034EF1EF03850016E026A0250000AD8B432
:103C16000FEF1EF0FCEF1DF00150030AD8B4F8EFC9
:103C26001DF00A0AD8B4F8EF1DF0030AD8B4F8EF6D
:103C36001DF0FCEF1DF06D0E4D24F66EF76A3E0E7C
:103C4600F7220800F5CF0BF00B500924016E000E89
:103C56000A20026E01C0F6FF02C0F7FF0800F5CF8A
:103C66000BF0530E936E080E946E000E826E010ECC
:103C76008116809C0B50D8B443EF1EF045EF1EF022
:103C860028EF1DF00BA04AEF1EF04CEF1EF04DEF93
:103C96001EF082880BA252EF1EF054EF1EF055EF75
:103CA6001EF0828A0BA45AEF1EF05CEF1EF05DEF49
:103CB6001EF0828C0BA662EF1EF064EF1EF065EF1D
:103CC6001EF081860BA86AEF1EF06CEF1EF06DEFFA
:103CD6001EF0828E0BAA72EF1EF074EF1EF075EFC7
:103CE6001EF0818A0BAC7AEF1EF07CEF1EF07DEFA2
:103CF6001EF0818439A682EF1EF084EF1EF085EF58
:103D06001EF0808C8198430E936E082A030E086479
:103D16008FEF1EF091EF1EF093EF1EF0000E086E6F
:103D260008C03AF012000000010203040506070865
:103D3600097F7F7F7F7F7F0A0B0C0D0E0F101112FC
:103D4600137F7F7F7F7F7F1415161718191A1B1C88
:103D56001D7F7F7F7F7F7F1E1F2021222324252614
:103D6600277F7F7F7F7F7F28292A2B2C2D2E2F30A0
:103D7600317F7F7F7F7F7F32333435363738393A2C
:103D86003B7F7F7F7F7F7F3C3D3E3F4041424344B8
:103D9600457F7F7F7F7F7F464748494A4B4C4D4E44
:103DA6004F7F7F7F7F7F7F505152535455565758D0
:103DB600597F7F7F7F7F7F5A5B5C5D5E5F6061625C
:103DC600637F7F7F7F7F7F0001020304050607086C
:103DD600090000000000000A0B0C0D0E0F10111256
:103DE600130000000000001415161718191A1B1CE2
:103DF6001D0000000000001E1F202122232425266E
:103E06002700000000000028292A2B2C2D2E2F30F9
:103E16003100000000000032333435363738393A85
:103E26003B0000000000003C3D3E3F404142434411
:103E360045000000000000464748494A4B4C4D4E9D
:103E46004F00000000000050515253545556575829
:103E5600590000000000005A5B5C5D5E5F606162B5
:103E660063000000000000000000000000000000E9
:103E76000001010101010101010101020202020228
:103E86000202020202030303030303030303030400
:103E960004040404040404040405050505050505D5
:103EA60005050506060606060606060606070707AC
:103EB6000707070707070708080808080808080883
:103EC6000809090909090909090909000102030480
:103ED600050607080900010203040506070809008C
:103EE600010203040506070809000102030405068A
:103EF6000708090001020304050607080900010274
:103F0600030405060708090001020304050607085D
:103F1600090001020304050607080900010203045B
:103F2600050607080900010203040506070809003B
:103F360001020304050607080910111213141516C9
:103F46001718192021222324252627282930313223
:103F5600333435363738394041424344454647487D
:103F660049505152535455565758596061626364CB
:103F7600656667686970717273747576777879802B
:103F86008182838485868788899091929394959679
:103F96009798990404040404040404040401010128
:103FA60001010101010101080808080808080808BC
:103FB60008020202020202020202020808080808B7
:103FC6000808080808010101010101010101016D4C
:103FD6003E373F313E3E79317671776D7740403FCF
:103FE600065B4F666D7D077F6F4040404040402A2C
:023FF600540075
:083FF80080F4D8FFFFF8CFF1BF
:00000001FF
