:020000040000FA
:04000000A5EF0EF06A
:101C76001200FFFF0F013F8F3F9B1200CA94000E18
:101C8600386E1200550EA76EAA0EA76E0F013F8B77
:101C960012007650FC0B0209766E000E786E769472
:101CA6001200CA50FC0B0209CA6E000ECC6ECA9412
:101CB600000E386E12003F0E7916300E79127982B8
:101CC600000E7B6E000E7A6E79901200000E896E01
:101CD600000E8A6E000E8B6E080E856E000E886EE4
:101CE6001200CD503F0B8009CD6ECF0ECD16CD869E
:101CF600CD829A9E9E909D90CD901200D59AD59CAD
:101D0600D550F80B0509D56ED596000ED76E000E88
:101D1600D66EF29AF294D59E000E436E120042C021
:101D260001F0080E0118D8A49BEF0EF09DEF0EF0FF
:101D3600A1EF0EF0100E426EA4EF0EF0CA94000E44
:101D4600386E1200780EF66E1C0EF76E000EF86EE8
:101D56000900F5CF48F00900F5CF49F000EE2CF068
:101D66001C0EEE6AE806FDE1000EF86E000142EF79
:101D760012F0000E476E000E466E000E456E000E07
:101D8600446E000E416E000E406E000E3F6E000E59
:101D96003E6E000E3D6E000E3C6E000E3B6E000E5B
:101DA6003A6E1200000EB36E900EB26E010EB16E58
:101DB600270E926E530E936E0C0E946E8096809E36
:101DC6000F014869170E496FC18EC19CC150C70BE0
:101DD6000809C16EC150F80B0209C16E498FC29C39
:101DE600C29EC250C30B2C09C26EC280270E926ED1
:101DF6001200420E026E000E036E02C0D9FF03C02F
:101E0600DAFFDF50D8A40AEF0FF00CEF0FF014EF53
:101E16000FF002C0D9FF03C0DAFF030EDF6E22EF18
:101E26000FF002C0D9FF03C0DAFFDE04D8A41EEF0C
:101E36000FF020EF0FF022EF0FF00CEF0FF0120073
:101E460042C001F00A0E0118D8A42CEF0FF02EEFB5
:101E56000FF032EF0FF0090E426E4BEF0FF00B0E44
:101E66000118D8A439EF0FF03BEF0FF03FEF0FF05A
:101E76000C0E426E4BEF0FF0020E0118D8A446EF7F
:101E86000FF048EF0FF04BEF0FF0CA94000E386ECC
:101E9600120042C001F04550D8A454EF0FF056EF9F
:101EA6000FF07EEF0FF04450D8A45CEF0FF05EEF1A
:101EB6000FF07EEF0FF00104D8A464EF0FF066EF89
:101EC6000FF06AEF0FF0020E426E7EEF0FF0040E77
:101ED6000118D8B471EF0FF073EF0FF07CEF0FF02D
:101EE600110E0118D8A47AEF0FF07CEF0FF07EEFF9
:101EF6000FF00E0E426E1200000E066E000E056EFC
:101F060003500410D8B48AEF0FF08CEF0FF0B4EF43
:101F16000FF0010E076E94EF0FF0D89003360436DB
:101F2600072A04AE99EF0FF09BEF0FF090EF0FF03A
:101F3600D890053606360350015C04500258D8A0E6
:101F4600A7EF0FF0A9EF0FF0AEEF0FF00350015E11
:101F56000450025A0580D89004320332072E9BEFB4
:101F66000FF005C001F006C002F01200270E926EB7
:101F7600000E0E01E76F010EE86F020EE96FC08ECC
:101F86000F014D914D934C85F18CF18AF188F186C4
:101F9600F292F288F090F086F092F088F094F08A4F
:101FA600F28EF28C80BADAEF0FF0DCEF0FF0F4EF7E
:101FB6000FF080B2E1EF0FF0E3EF0FF0F4EF0FF068
:101FC60081B0E8EF0FF0EAEF0FF0F4EF0FF080B01A
:101FD600EFEF0FF0F1EF0FF0F4EF0FF0D39E4D9F00
:101FE6000300120042C001F04750D8A4FDEF0FF0E5
:101FF600FFEF0FF036EF10F04550D8A405EF10F0C4
:1020060007EF10F036EF10F04450D8A40DEF10F0A3
:102016000FEF10F036EF10F0030E0118D8A416EFEC
:1020260010F018EF10F01CEF10F0050E426E36EFB0
:1020360010F0050E0118D8A423EF10F025EF10F0CC
:1020460029EF10F0040E426E36EF10F0040E011860
:10205600D8A430EF10F032EF10F036EF10F0110E7A
:10206600426E36EF10F0120042C001F0100E011859
:10207600D8A440EF10F042EF10F04BEF10F0010E35
:10208600426E45EC0EF00F013F8B3F8F3DEC0EF09C
:102096000150D8A451EF10F053EF10F057EF10F0A5
:1020A600010E426E78EF10F0030E0118D8B45EEF01
:1020B60010F060EF10F069EF10F0090E0118D8A4C7
:1020C60067EF10F069EF10F06DEF10F00A0E426E38
:1020D60078EF10F00C0E0118D8A474EF10F076EF1C
:1020E60010F078EF10F00B0E426E1200420E056EE5
:1020F600000E066E05C0D9FF06C0DAFFDF50076E78
:102106000750D8A489EF10F08BEF10F093EF10F082
:1021160005C0D9FF06C0DAFF080EDF6EE8EF10F043
:102126000704D8B499EF10F09BEF10F08BEF10F086
:10213600070E0718D8A4A2EF10F0A4EF10F0A6EF30
:1021460010F08BEF10F0030E0718D8B4ADEF10F0B7
:10215600AFEF10F0CAEF10F0040E0718D8B4B6EFC0
:1021660010F0B8EF10F0CAEF10F0050E0718D8B44B
:10217600BFEF10F0C1EF10F0CAEF10F00A0E07180B
:10218600D8A4C8EF10F0CAEF10F0E8EF10F0010E77
:102196004664D0EF10F0D2EF10F0E8EF10F0010E29
:1021A6004764D8EF10F0DAEF10F0E2EF10F005C058
:1021B600D9FF06C0DAFF0B0EDF6EE8EF10F005C0A0
:1021C600D9FF06C0DAFF0C0EDF6E74EC11F01200B8
:1021D600420E066E000E076E06C0D9FF07C0DAFF74
:1021E600DF50D8A4F9EF10F0FBEF10F003EF11F079
:1021F60006C0D9FF07C0DAFF070EDF6E71EF11F0D8
:1022060006C0D9FF07C0DAFFDF50086E030E0818B4
:10221600D8B410EF11F012EF11F024EF11F00A0EFE
:102226000818D8B419EF11F01BEF11F024EF11F0D4
:10223600090E0818D8A422EF11F024EF11F044EF8C
:1022460011F0010E46642AEF11F02CEF11F071EF38
:1022560011F0010E476432EF11F034EF11F03CEF4C
:1022660011F006C0D9FF07C0DAFF0A0EDF6E71EF64
:1022760011F006C0D9FF07C0DAFF090EDF6E71EF55
:1022860011F00804D8B44AEF11F04CEF11F0FBEF4F
:1022960010F0080E0818D8B453EF11F055EF11F0EE
:1022A600FBEF10F00D0E0818D8A45CEF11F05EEFEE
:1022B60011F060EF11F0FBEF10F0040E0818D8A42F
:1022C60067EF11F069EF11F071EF11F006C0D9FF59
:1022D60007C0DAFF0B0EDF6E71EF11F0C4EC14F0DD
:1022E600120042C002F0080E0218D8A47DEF11F0C9
:1022F6007FEF11F0ACEF11F045EC0EF00F013F8BC4
:102306003F9FFC0E3F1799CF04F0D70E0424F66EBC
:10231600F76A3D0EF7220800F5CF01F00128036E9B
:102326003B0E036499EF11F09BEF11F09DEF11F056
:10233600000E036E3F0E0324F66EF76A3F0EF72279
:102346000800F5CF04F004C099FF000E986E41EF27
:1023560012F00B0E0218D8A4B3EF11F0B5EF11F07E
:10236600E3EF11F045EC0EF00F013F8B3F9F030E9C
:102376003F1398CF04F0D70E0424F66EF76A3D0E8D
:10238600F7220800F5CF01F00128036E630E0364FF
:10239600CFEF11F0D1EF11F0D3EF11F0000E036E75
:1023A6003F0E0324F66EF76A3F0EF7220800F5CFBC
:1023B60004F004C098FF3F8F3DEC0EF041EF12F0A1
:1023C6000C0E0218D8A4EAEF11F0ECEF11F00BEFA7
:1023D60012F045EC0EF00F013F8B3F9F3F813F937C
:1023E60099CF04F004C001F0070E01160128036E10
:1023F600060E036401EF12F003EF12F005EF12F080
:10240600000E036E3F8103C099FF3F8FDFEF11F08F
:102416000E0E0218D8A412EF12F014EF12F041EFCC
:1024260012F045EC0EF00F013F8B3F9F3ECF04F0BC
:1024360004AE20EF12F022EF12F032EF12F0FD0E92
:10244600046428EF12F02AEF12F02EEF12F0000EBD
:10245600046E3CEF12F0020E04263CEF12F07D0EE5
:10246600046438EF12F03AEF12F02EEF12F0820EFB
:10247600046E04C03EFF3F8FDFEF11F0120069ECDF
:102486000EF0D5EC0EF081EC0EF074EC0EF054EC80
:102496000EF05EEC0EF04CEC0EF067EC13F0BCECBC
:1024A6000EF0C0A659EF12F05BEF12F060EF12F0DB
:1024B600C0960F014C9167EF12F0000ECC6ECA84E5
:1024C600010E386E010E426EF28EF28CF18CF18A9C
:1024D600F188F186F18E000E376E000E366E000E14
:1024E600346E000E356E000E396E000E316E010E22
:1024F600306E000E2B6E7CEC16F0396E3850D8B468
:1025060087EF12F089EF12F0E6EF12F09F0ECC641F
:102516008FEF12F091EF12F0D8EF12F0000ECC6EA2
:10252600304A312A770E305C010E3158D8A09EEF22
:1025360012F0A0EF12F0D8EF12F042C02AF0475086
:10254600D8A4A8EF12F0AAEF12F0D4EF12F046507A
:10255600D8A4B0EF12F0B2EF12F0D4EF12F045505B
:10256600D8A4B8EF12F0BAEF12F0D4EF12F044503C
:10257600D8A4C0EF12F0C2EF12F0D4EF12F0100E92
:102586002A18D8B4C9EF12F0CBEF12F0D4EF12F03C
:10259600CA94000E316E000E306E000E386ED8EF03
:1025A60012F0000E316E640E306E30503110D8A429
:1025B600DFEF12F0E2EF12F0010EE3EF12F0000E81
:1025C6003912EAEF12F0000E316E010E306E3950FC
:1025D600D8B4F0EF12F0F2EF12F011EF13F034501E
:1025E600D8B4F8EF12F0FAEF12F0FFEF12F034065B
:1025F600020E2B6E7EEF12F0030E2B18D8A406EFF8
:1026060013F008EF13F00EEF13F019EC1AF0010EA9
:102616002B6E7EEF12F02B2A7EEF12F0530E936E86
:102626000C0E946E000E826E010E8116270E801619
:1026360045EC0EF00F013F8B3F8F000E426E000EF1
:102646002F6E000E2E6EBCEC0EF0000E436E000ECA
:10265600386E000E376ED59ECA940F013FB936EF1D
:1026660013F038EF13F030EF13F03F9B3DEC0EF014
:10267600F18EF292F288F090F086F092F088F09463
:10268600F08AF294F18CF18AF188F1869E90A490FA
:10269600F28EF28CB39EC2900F01499FB9EC0FF0F7
:1026A600000E316E010E306E000E346E000E366E68
:1026B600000E356E000E2B6E69EC0EF0D5EC0EF0AA
:1026C6007EEF12F000EF00F00F013FB96DEF13F04F
:1026D6006FEF13F067EF13F045EC0EF00F013F8B31
:1026E6003F9F3FB979EF13F07BEF13F074EF13F0D0
:1026F600000E016E030E3F1398CF02F0370E022430
:10270600F66EF76A3D0EF7220800F5CF03F0630E6A
:10271600036490EF13F092EF13F094EF13F0010EB1
:10272600016E995098CF02F0370E0224F66EF76AC2
:102736003D0EF7220800F5CF03F00350D8B4A6EFFC
:1027460013F0A8EF13F0B0EF13F01F0E0364AEEF13
:1027560013F0B0EF13F0B2EF13F0010E016E99CF44
:1027660002F0370E0224F66EF76A3D0EF7220800D5
:10277600F5CF03F00350D8B4C3EF13F0C5EF13F051
:10278600CDEF13F00C0E0364CBEF13F0CDEF13F087
:10279600CFEF13F0010E016E98CF02F0370E022430
:1027A600F66EF76A3D0EF7220800F5CF03F0170E16
:1027B6000364E0EF13F0E2EF13F0E4EF13F0010E21
:1027C600016E99CF02F0370E0224F66EF76A3D0EBF
:1027D600F7220800F5CF03F0060E0364F5EF13F0B9
:1027E600F7EF13F0F9EF13F0010E016E98CF02F038
:1027F600370E0224F66EF76A3D0EF7220800F5CF73
:1028060003F03B0E03640AEF14F00CEF14F00EEF26
:1028160014F0010E016E99CF02F0370E0224F66E07
:10282600F76A3D0EF7220800F5CF03F03B0E03646E
:102836001FEF14F021EF14F023EF14F0010E016ED8
:102846000150D8B429EF14F02BEF14F058EF14F020
:102856003FB930EF14F032EF14F02BEF14F0030E03
:102866003F13540EF66E3F0EF76E0800F5CF98FF35
:102876009950010E986E010E996E000E986E030E19
:10288600996E000E986E000E996E91909182010ECF
:102896008E6E010E8F6E000E8E6E010E8F6E000E06
:1028A6008E6E000E8F6EA7EF14F0000E016E9180F3
:1028B60091928ECF02F0370E0224F66EF76A3D0E25
:1028C600F7220800F5CF03F0170E03646DEF14F03E
:1028D6006FEF14F071EF14F0010E016E8F508FCF71
:1028E60002F0370E0224F66EF76A3D0EF722080054
:1028F600F5CF03F03B0E036483EF14F085EF14F07D
:1029060087EF14F0010E016E919091820150D8B4B8
:102916008FEF14F091EF14F09FEF14F0010E8E6E0E
:10292600010E8F6E000E8E6E010E8F6E000E8E6E75
:10293600000E8F6EA7EF14F0010E8E6E010E8F6ED5
:10294600010E8F6E000E8E6E3FB9ACEF14F0AEEF37
:1029560014F0A7EF14F03F913F93919C9150C30B55
:102966001809916E919E000E906EA3903F8F3FB90D
:10297600BFEF14F0C1EF14F0BAEF14F03DEC0EF017
:10298600120042C002F0070E0218D8A4CDEF14F0D0
:10299600CFEF14F0FDEF14F045EC0EF00F013F8B76
:1029A6003F9F3F813F9398CF05F0D70E0524F66EE3
:1029B600F76A3D0EF7220800F5CF01F00128046EF4
:1029C600170E0464E9EF14F0EBEF14F0EDEF14F0DA
:1029D600000E046E3F0E0424F66EF76A3F0EF722D1
:1029E6000800F5CF05F005C098FF3F8F3DEC0EF0CF
:1029F6007BEF16F0090E0218D8A404EF15F006EFC7
:102A060015F034EF15F045EC0EF00F013F8B3F9FAC
:102A16003F913F8399CF05F0D70E0524F66EF76AEE
:102A26003D0EF7220800F5CF01F00128046E0C0ECA
:102A3600046420EF15F022EF15F024EF15F0010ED7
:102A4600046E3F913F833F0E0424F66EF76A3F0EF5
:102A5600F7220800F5CF05F005C099FF3F8FF9EF83
:102A660014F00A0E0218D8A43BEF15F03DEF15F04E
:102A760010EF16F045EC0EF00F013F8B3F9F010E55
:102A8600036E3F813F9398CF05F0D70E0524F66E6F
:102A9600F76A3D0EF7220800F5CF04F00C0E04602D
:102AA60057EF15F059EF15F06AEF15F00C0E0426E6
:102AB6003F0E0424F66EF76A3F0EF7220800F5CFA4
:102AC60005F005C098FF000E036E77EF15F00C0EAB
:102AD600045E3F0E0424F66EF76A3F0EF7220800E6
:102AE600F5CF05F005C098FF0350D8B47DEF15F07B
:102AF6007FEF15F00DEF16F03F913F8398CF05F06D
:102B0600D70E0524F66EF76A3D0EF7220800F5CFBC
:102B160001F00128046E99CF05F0D70E0524F66E54
:102B2600F76A3D0EF7220800F5CF03F0020E0318F0
:102B3600D8A4A0EF15F0A2EF15F0AEEF15F01D0E1C
:102B46000464A8EF15F0AAEF15F000EF16F0010ED9
:102B5600046E00EF16F00304D8B4B4EF15F0B6EF28
:102B660015F0ECEF15F0030E0318D8B4BDEF15F011
:102B7600BFEF15F0ECEF15F0050E0318D8B4C6EF4D
:102B860015F0C8EF15F0ECEF15F0070E0318D8B4E2
:102B9600CFEF15F0D1EF15F0ECEF15F0080E031896
:102BA600D8B4D8EF15F0DAEF15F0ECEF15F00A0E01
:102BB6000318D8B4E1EF15F0E3EF15F0ECEF15F0DC
:102BC6000C0E0318D8A4EAEF15F0ECEF15F0F6EFAB
:102BD60015F01F0E0464F2EF15F0F4EF15F000EF98
:102BE60016F0AAEF15F01E0E0464FCEF15F0FEEFCA
:102BF60015F000EF16F0AAEF15F03F913F833F0E58
:102C06000424F66EF76A3F0EF7220800F5CF05F0AA
:102C160005C098FF3F8FF9EF14F00B0E0218D8A4E9
:102C260017EF16F019EF16F045EF16F045EC0EF01B
:102C36000F013F8B3F9F030E3F1398CF05F0D70E32
:102C46000524F66EF76A3D0EF7220800F5CF01F06F
:102C56000128046E630E046433EF16F035EF16F0A8
:102C660037EF16F0000E046E3F0E0424F66EF76A78
:102C76003F0EF7220800F5CF05F005C098FF3F8FFD
:102C8600F9EF14F00E0E0218D8A44CEF16F04EEF22
:102C960016F07BEF16F045EC0EF00F013F8B3F9FD1
:102CA6003ECF05F005AE5AEF16F05CEF16F06CEF6E
:102CB60016F0820E056062EF16F064EF16F068EF0C
:102CC60016F07E0E056E76EF16F0020E055E76EFB6
:102CD60016F0020E056072EF16F074EF16F068EF4C
:102CE60016F0FE0E056E05C03EFF3F8FF9EF14F09D
:102CF6001200000E236E000E1C6E430E266E000E92
:102D0600276EF4EF16F0470E286E000E296E400E61
:102D1600246E000E256E000E80BA010E196E6E0E20
:102D26001A6E200E1B6E980E1D6E1E0E1E6E460E21
:102D36001F6E1E0E206E11EF17F0460E286E000E47
:102D4600296E3E0E246E000E256E000E80B2010E18
:102D5600196EF80E1A6E1D0E1B6EEA0E1D6E1F0EF4
:102D66001E6E760E1F6E1C0E206E11EF17F0450EAE
:102D7600286E000E296E3C0E246E000E256E000E87
:102D860081B0010E196ED60E1A6E210E1B6E880EBC
:102D96001D6E290E1E6E820E1F6E1C0E206E11EF0A
:102DA60017F0440E286E000E296E3A0E246E000EA1
:102DB600256E000E80B0010E196EF20E1A6E200EF0
:102DC6001B6EE80E1D6E220E1E6E240E1F6E1D0E4D
:102DD600206E11EF17F0000E286E000E296E11EF0F
:102DE60017F02350096E0A6A0A50000AD8B4FEEF9B
:102DF60016F0EEEF16F00950000AD8B486EF16F07A
:102E0600010AD8B4A0EF16F0030AD8B4BAEF16F048
:102E1600010AD8B4D4EF16F0EEEF16F028502910B8
:102E2600D8B418EF17F01AEF17F00EEF1AF0195082
:102E3600D8B420EF17F022EF17F0E9EF19F0C2EF40
:102E460018F028C0D9FF29C0DAFF010EDF6E26C0B0
:102E5600D9FF27C0DAFFDF50D8A434EF17F036EFDA
:102E660017F045EF17F0000ED76E000ED66ED58E12
:102E760024C0D9FF25C0DAFF000EDE6E000EDD6E1F
:102E86005BEF17F0D6CF0FF0D7CF10F010500A6EC9
:102E9600096A0F500B6E0C6A09500B120A500C127D
:102EA60024C0D9FF25C0DAFF0BC0DEFF0CC0DDFF52
:102EB60023C009F0010E0A6E092A64EF17F0D890B4
:102EC6000A36092E62EF17F026C0D9FF27C0DAFFAF
:102ED6000A50DF12010E1C6E0EEF1AF0D6CF11F05B
:102EE600D7CF12F012500A6E096A11500B6E0C6A97
:102EF60009500B10216E0A500C10226E24C0D9FF07
:102F060025C0DAFFDECF09F0DDCF0AF021C00BF0D5
:102F160022C00CF009500B5E0A500C5A010E0B240D
:102F2600BA0E0C20800BD8A49BEF17F09DEF17F07C
:102F3600F4EF17F01D501E10D8B4A4EF17F0A6EF4B
:102F460017F0C8EF17F028C0D9FF29C0DAFF030E23
:102F5600DF6E24C0D9FF25C0DAFF21C0DEFF22C004
:102F6600DDFF02D8C1EF17F00500FA6E1D50FD6EA9
:102F76001E50FE6EF850FF6EFA501200010E386EAB
:102F8600000ECC6ECA846DEF17F028C0D9FF29C099
:102F9600DAFF000EDF6E23C009F0010E0A6E092A61
:102FA600D7EF17F0D8900A36092ED5EF17F00A504A
:102FB600FF0A0B6E26C0D9FF27C0DAFF0B50DF16BB
:102FC60026C0D9FF27C0DAFFDF50D8A4EDEF17F0EF
:102FD600EFEF17F0F2EF17F0D59E6DEF17F06DEFEC
:102FE60017F024C0D9FF25C0DAFFDECF09F0DDCF08
:102FF6000AF021C00BF022C00CF009500B5E0A50FB
:103006000C5A000E0B24FC0E0C20800BD8A40EEFDD
:1030160018F010EF18F06DEF17F028C0D9FF29C08F
:10302600DAFF020EDE18D8B41BEF18F01DEF18F009
:103036006DEF17F028C0D9FF29C0DAFF020EDF6E48
:103046001A501B10D8B42AEF18F02CEF18F039EFED
:1030560018F002D839EF18F00500FA6E1A50FD6E16
:103066001B50FE6EF850FF6EFA501200010E386EBD
:10307600000ECC6ECA846DEF17F0D6CF13F0D7CF03
:1030860014F014500A6E096A13500B6E0C6A09503C
:103096000B10216E0A500C10226E300E0E6E000EB2
:1030A6000D6E61EF18F0450E0E6E0D687EEF18F08E
:1030B600200E0E6E000E0D6E7EEF18F02350096E78
:1030C6000A6A0A50000AD8B46BEF18F07EEF18F0BF
:1030D6000950000AD8B47EEF18F0010AD8B456EFAA
:1030E60018F0030AD8B45BEF18F0010AD8B45BEF06
:1030F60018F07EEF18F024C0D9FF25C0DAFFDECF26
:1031060009F0DDCF0AF0091E0A1E094A0A2A0D50E7
:10311600095E0E500A5A2150092422500A20800BBB
:10312600D8A498EF18F09AEF18F06DEF17F024C0B6
:10313600D9FF25C0DAFF21C0DEFF22C0DDFF1D500A
:103146001E10D8B4A9EF18F0ABEF18F06DEF17F01A
:1031560002D8B8EF18F00500FA6E1D50FD6E1E502D
:10316600FE6EF850FF6EFA5012006DEF17F028C091
:10317600D9FF29C0DAFF030EDF6E6DEF17F028C006
:10318600D9FF29C0DAFFDF50096E0A6A0A50000A21
:10319600D8B4D0EF18F00EEF1AF00950000AD8B4E0
:1031A60024EF17F0010AD8B471EF17F0030AD8B468
:1031B60071EF17F0010AD8B440EF18F0070AD8B437
:1031C600BAEF18F00EEF1AF028C0D9FF29C0DAFFBF
:1031D600000EDF6E23C009F0010E0A6E092AF6EF13
:1031E60018F0D8900A36092EF4EF18F00A50FF0AA4
:1031F6000B6E26C0D9FF27C0DAFF0B50DF1626C09C
:10320600D9FF27C0DAFFDF50D8A40CEF19F00EEF74
:1032160019F06DEF17F0D59E0EEF1AF028C0D9FF02
:1032260029C0DAFF000EDF6E23C009F0010E0A6E18
:10323600092A20EF19F0D8900A36092E1EEF19F048
:103246000A50FF0A0B6E26C0D9FF27C0DAFF0B50C3
:10325600DF1626C0D9FF27C0DAFFDF50D8A436EF25
:1032660019F038EF19F03BEF19F0D59E3DEF19F044
:10327600010E1C6E1F502010D8B444EF19F046EF13
:1032860019F00EEF1AF002D853EF19F00500FA6E96
:103296001F50FD6E2050FE6EF850FF6EFA50120061
:1032A6000EEF1AF028C0D9FF29C0DAFF040EDF6E30
:1032B60026C0D9FF27C0DAFFDF50D8A465EF19F082
:1032C60067EF19F06EEF19F0000ED76E000ED66E8E
:1032D600D58E3BEF17F0D6CF15F0D7CF16F0165098
:1032E6000A6E096A15500B6E0C6A09500B120A50C9
:1032F6000C1224C0D9FF25C0DAFF0BC0DEFF0CC0BC
:10330600DDFF5BEF17F0D6CF17F0D7CF18F01850C8
:103316000A6E096A17500B6E0C6A09500B10216E63
:103326000A500C10226E24C0D9FF25C0DAFFDECF6A
:1033360009F0DDCF0AF021C00BF022C00CF00950D5
:103346000B5E0A500C5A000E0B24FC0E0C20800B50
:10335600D8A4B0EF19F0B2EF19F06DEF17F023C053
:1033660009F0010E0A6E092ABBEF19F0D8900A3649
:10337600092EB9EF19F00A50FF0A0B6E26C0D9FFC5
:1033860027C0DAFF0B50DF1626C0D9FF27C0DAFFA9
:10339600DF50D8A4D1EF19F0D3EF19F0D6EF19F01A
:1033A600D59ED8EF19F0010E1C6E28C0D9FF29C092
:1033B600DAFF000EDF6E1F502010D8B4E5EF19F0CB
:1033C600E7EF19F00EEF1AF046EF19F028C0D9FF13
:1033D60029C0DAFFDF50096E0A6A0A50000AD8B41B
:1033E600F7EF19F00EEF1AF00950000AD8B40EEFF5
:1033F6001AF0010AD8B4E7EF18F0030AD8B411EFAF
:1034060019F0010AD8B455EF19F0070AD8B486EFB7
:1034160019F00EEF1AF0232A030E236415EF1AF0A3
:1034260017EF1AF0F4EF16F01C50120037C016F022
:103436001650D8A421EF1AF023EF1AF0C6EF1AF0AF
:103446003650D8B429EF1AF02BEF1AF043EF1AF0E2
:10345600360635C010F010C034F01050D8B436EF30
:103466001AF038EF1AF0D0EF1AF01668530E936E72
:103476000C0E946E000E826E010E8116D0EF1AF0BD
:10348600640E366E530E936E0C0E946E000E826EA4
:10349600010E8116808CB38EB290B292B382000E6A
:1034A6000D6E000E0C6E0C4A0D2A0DBE64EF1AF05E
:1034B6000D5009E1320E0C5CD8A064EF1AF066EFED
:1034C6001AF056EF1AF0B392B280000E0F6E000E8D
:1034D6000E6E0E4A0F2A0FBE7AEF1AF00F5009E150
:1034E600320E0E5CD8A07AEF1AF07CEF1AF06CEF71
:1034F6001AF0B2909E9CC282C2B284EF1AF086EF96
:103506001AF07FEF1AF0C3CF12F0C4CF13F09E9CCF
:10351600809C12C02EF013C02FF012501310D8B496
:1035260097EF1AF099EF1AF0BEEF1AF0135009E16F
:10353600810E125CD8A0A2EF1AF0A4EF1AF0AAEF3F
:103546001AF0000E136E000E126EAEEF1AF0000E99
:10355600136E010E126E12C034F012C035F0125006
:103566001310D8B4B9EF1AF0BBEF1AF0C4EF1AF083
:103576001668D0EF1AF0000E346E000E356ED0EFDE
:103586001AF0D0EF1AF01628D8A4CCEF1AF0CEEF26
:103596001AF0D0EF1AF0000E166E1628D8B4D6EF31
:1035A6001AF0D8EF1AF098EF1EF01650D8A4DEEFF6
:1035B6001AF0E0EF1AF058EF1CF049684868000E60
:1035C600336E42C011F011C032F0E6EF1BF00F016E
:1035D6003F813F9398CF17F0D70E1724F66EF76A00
:1035E6003D0EF7220800F5CF49F0170E4964FEEFAD
:1035F6001AF000EF1BF002EF1BF0000E496EBB0E37
:103606004924F66EF76A3F0EF7220800F5CF49F017
:1036160099CF17F099CF17F0D70E1724F66EF76AE1
:103626003D0EF7220800F5CF48F03B0E48641EEF2A
:103636001BF020EF1BF022EF1BF0000E486E030E6E
:10364600336E33EF1CF0FC0E0F013F17496898CF1D
:1036560017F0D70E1724F66EF76A3D0EF72208000C
:10366600F5CF48F03B0E48643BEF1BF03DEF1BF0F7
:1036760033EF1CF0000E486E33EF1CF03ECF17F010
:1036860017AE48EF1BF04AEF1BF051EF1BF0800E10
:10369600496EFF0E171A172A52EF1BF04968D89089
:1036A6001730486E33EF1CF02EC001F02FC002F029
:1036B600000E046E640E036E7FEC0FF00150486E30
:1036C600496833EF1CF00F013F913F8398CF17F005
:1036D600D70E1724F66EF76A3D0EF7220800F5CFCF
:1036E60048F01F0E48647AEF1BF07CEF1BF07EEF6C
:1036F6001BF0010E486E99CF17F0D70E1724F66E01
:10370600F76A3D0EF7220800F5CF49F00C0E496422
:103716008FEF1BF091EF1BF093EF1BF0010E496E3C
:103726003F813F9398CF17F0D70E1724F66EF76AAE
:103736003D0EF7220800F5CF17F0170E1764A6EF17
:103746001BF0A8EF1BF0AAEF1BF0000E176EA30EDE
:103756001724F66EF76A3F0EF7220800F5CF33F00E
:1037660033EF1CF0030E0F013F1398CF17F0D70E5F
:103776001724F66EF76A3D0EF7220800F5CF48F0DB
:10378600630E4864C9EF1BF0CBEF1BF063EF1BF031
:10379600000E486E63EF1BF00F013F813F9399CFF8
:1037A60017F0060E1764DAEF1BF0DCEF1BF0DEEF06
:1037B6001BF0000E176E17C048F033EF1CF0070E13
:1037C600486E33EF1CF01150086E096A0950000A62
:1037D600D8B4F0EF1BF033EF1CF00850000AD8B451
:1037E60033EF1CF0010AD8B4EAEF1AF0030AD8B492
:1037F60026EF1BF0010AD8B466EF1BF0070AD8B40F
:10380600B5EF1BF0010AD8B4CFEF1BF0020AD8B40B
:10381600EAEF1AF00F0AD8B4EAEF1AF0010AD8B4A0
:1038260066EF1BF0030AD8B466EF1BF0010AD8B4A2
:10383600B5EF1BF0070AD8B4CFEF1BF0010AD8B4D6
:1038460026EF1BF0030AD8B441EF1BF01E0AD8B4CA
:10385600E2EF1BF0010AD8B457EF1BF033EF1CF070
:10386600050E1118D8B43AEF1CF03CEF1CF054EFDB
:103876001CF00C0E1118D8B443EF1CF045EF1CF0E9
:1038860054EF1CF0100E1118D8B44CEF1CF04EEF8C
:103896001CF054EF1CF0E60E2C6E3F0E2D6E58EF0A
:1038A6001CF0D60E2C6E3F0E2D6E2CC014F02DC0C3
:1038B60015F0010E166462EF1CF064EF1CF03FEF8A
:1038C6001DF049C017F01728D8B46CEF1CF06EEF46
:1038D6001CF033EF1DF0020E1618D8A475EF1CF07D
:1038E60077EF1CF0E8EF1CF0800E1718D8A47EEFD7
:1038F6001CF080EF1CF08FEF1CF00A0E1424086EEB
:10390600000E1520096E08C0F6FF09C0F7FF080073
:10391600F5CF17F0A3EF1CF0DB0E1724F66EF76A4F
:103926003E0EF7220800F5501424086E000E1520EE
:10393600096E08C0F6FF09C0F7FF0800F5CF17F0BB
:10394600530E936E0C0E946E000E826E010E81164F
:1039560017A0B0EF1CF0B2EF1CF0B3EF1CF082889A
:1039660017A2B8EF1CF0BAEF1CF0BBEF1CF0828A6E
:1039760017A4C0EF1CF0C2EF1CF0C3EF1CF0828C42
:1039860017A6C8EF1CF0CAEF1CF0CBEF1CF081861F
:1039960017A8D0EF1CF0D2EF1CF0D3EF1CF0828EEC
:1039A60017AAD8EF1CF0DAEF1CF0DBEF1CF0818AC7
:1039B60017ACE0EF1CF0E2EF1CF0E3EF1CF08184A3
:1039C6008192510E936E8DEF1EF0030E1618D8A439
:1039D600EFEF1CF0F1EF1CF03DEF1DF0530E936E70
:1039E6000C0E946E000E826E010E8116090E17647F
:1039F600FFEF1CF001EF1DF00BEF1DF00D0E176031
:103A060007EF1DF009EF1DF00BEF1DF08288818690
:103A160033B010EF1DF014EF1DF0086A082A15EFF9
:103A26001DF0086A083A084682500818DF0B081885
:103A3600826E33B221EF1DF025EF1DF0086A082AC9
:103A460026EF1DF0086A083A08460846825008180C
:103A5600BF0B0818826E819C130E936E8DEF1EF0BD
:103A6600530E936E0C0E946E000E826E010E81162E
:103A76008DEF1EF08DEF1EF048C017F01728D8B452
:103A860047EF1DF049EF1DF033EF1DF01650D8A497
:103A96004FEF1DF051EF1DF0D1EF1DF0D60E1418AB
:103AA60007E13F0E1518D8A45BEF1DF05DEF1DF082
:103AB60078EF1DF01750086E096AD8900836093657
:103AC60014C00AF015C00BF008500A2609500B2244
:103AD600010E0A26000E0B220AC0F6FF0BC0F7FFE6
:103AE6000800F5CF17F08CEF1DF0DB0E1724F66EED
:103AF600F76A3E0EF7220800F5501424086E000EF1
:103B06001520096E08C0F6FF09C0F7FF0800F5CFBB
:103B160017F0530E936E0C0E946E000E826E010E0D
:103B2600811617A099EF1DF09BEF1DF09CEF1DF07D
:103B3600828817A2A1EF1DF0A3EF1DF0A4EF1DF0E0
:103B4600828A17A4A9EF1DF0ABEF1DF0ACEF1DF0B4
:103B5600828C17A6B1EF1DF0B3EF1DF0B4EF1DF088
:103B6600818617A8B9EF1DF0BBEF1DF0BCEF1DF065
:103B7600828E17AAC1EF1DF0C3EF1DF0C4EF1DF032
:103B8600818A17ACC9EF1DF0CBEF1DF0CCEF1DF00D
:103B960081848296040E946E8DEF1EF01604D8A4CE
:103BA600D7EF1DF0D9EF1DF08DEF1EF0D60E1418CD
:103BB60007E13F0E1518D8A4E3EF1DF0E5EF1DF061
:103BC600FCEF1DF01750086E096AD89008360936C2
:103BD60014C00AF015C00BF008500A2609500B2233
:103BE6000AC0F6FF0BC0F7FF0800F5CF17F042EF4B
:103BF6001EF00A0E176002EF1EF004EF1EF02CEF07
:103C06001EF013EF1EF0000E176E42EF1EF014C0EA
:103C1600F6FF15C0F7FF0800F5CF17F042EF1EF0CC
:103C26003250086E096A0950000AD8B41DEF1EF01A
:103C36000AEF1EF00850030AD8B406EF1EF00A0A6F
:103C4600D8B406EF1EF0030AD8B406EF1EF00AEF4A
:103C56001EF0770E1724F66EF76A3E0EF72208005E
:103C6600F5CF17F017501424086E000E1520096EB4
:103C760008C0F6FF09C0F7FF0800F5CF17F0530E8E
:103C8600936E0C0E946E000E826E010E8116175006
:103C9600D8B450EF1EF052EF1EF03DEF1DF017A006
:103CA60057EF1EF059EF1EF05AEF1EF0828817A24A
:103CB6005FEF1EF061EF1EF062EF1EF0828A17A41E
:103CC60067EF1EF069EF1EF06AEF1EF0828C17A6F2
:103CD6006FEF1EF071EF1EF072EF1EF0818617A8CF
:103CE60077EF1EF079EF1EF07AEF1EF0828E17AA9C
:103CF6007FEF1EF081EF1EF082EF1EF0818A17AC77
:103D060087EF1EF089EF1EF08AEF1EF081848198FE
:103D1600430E936E162A030E166494EF1EF096EF6A
:103D26001EF098EF1EF0000E166E16C037F0120049
:103D360000000102030405060708097F7F7F7F7FD5
:103D46007F0A0B0C0D0E0F101112137F7F7F7F7FE2
:103D56007F1415161718191A1B1C1D7F7F7F7F7F6E
:103D66007F1E1F20212223242526277F7F7F7F7FFA
:103D76007F28292A2B2C2D2E2F30317F7F7F7F7F86
:103D86007F32333435363738393A3B7F7F7F7F7F12
:103D96007F3C3D3E3F4041424344457F7F7F7F7F9E
:103DA6007F464748494A4B4C4D4E4F7F7F7F7F7F2A
:103DB6007F505152535455565758597F7F7F7F7FB6
:103DC6007F5A5B5C5D5E5F606162637F7F7F7F7F42
:103DD6007F00010203040506070809000000000031
:103DE600000A0B0C0D0E0F1011121300000000003C
:103DF600001415161718191A1B1C1D0000000000C8
:103E0600001E1F2021222324252627000000000053
:103E16000028292A2B2C2D2E2F30310000000000DF
:103E26000032333435363738393A3B00000000006B
:103E3600003C3D3E3F4041424344450000000000F7
:103E460000464748494A4B4C4D4E4F000000000083
:103E5600005051525354555657585900000000000F
:103E6600005A5B5C5D5E5F6061626300000000009B
:103E76000000000000000000000000010101010137
:103E86000101010101020202020202020202020310
:103E960003030303030303030304040404040404E5
:103EA60004040405050505050505050505060606BC
:103EB6000606060606060607070707070707070793
:103EC6000708080808080808080808090909090968
:103ED6000909090909000102030405060708090082
:103EE600010203040506070809000102030405068A
:103EF6000708090001020304050607080900010274
:103F0600030405060708090001020304050607085D
:103F1600090001020304050607080900010203045B
:103F2600050607080900010203040506070809003B
:103F36000102030405060708090001020304050639
:103F46000708091011121314151617181920212223
:103F5600232425262728293031323334353637387D
:103F660039404142434445464748495051525354CB
:103F7600555657585960616263646566676869702B
:103F86007172737475767778798081828384858679
:103F960087888990919293949596979899010101B3
:103FA60001010101010101010102020202020202F4
:103FB60002020202020C0102030405060708090AAE
:103FC6000B0C0102030405060708090A0B042A5410
:103FD6006D3E373F313E3E79317671776D770040E1
:103FE6003F065B4F666D7D077F6F40404040404017
:013FF60000CA
:083FF80080F4D8FFFFF8CFF1BF
:00000001FF
