:020000040000FA
:040000001FEF0DF0F1
:10192E00FFFF0F013F8F3F9B1200CA94000E3B6ECC
:10193E001200550EA76EAA0EA76E0F013F8B120056
:10194E00000E3F6E000E3E6EF00EBA16769412002A
:10195E00CA50FC0B0209CA6E000ECC6ECA94000E61
:10196E003B6E12003F0E7916300E79127982000E00
:10197E007B6E000E7A6E799012007650FC0B020987
:10198E00766E000E786E76940F015291528312008D
:10199E00000E896E000E8A6E000E8B6E080E856E1E
:1019AE00000E886E1200CD503F0B8009CD6ECF0E0B
:1019BE00CD16CD86CD829A9E9E909D90CD90120092
:1019CE00D59AD59CD550F80B0509D56ED596000E37
:1019DE00D76E000ED66EF29AF294D59E000E496E18
:1019EE00120048C001F0080E0118D8A401EF0DF046
:1019FE0003EF0DF007EF0DF0100E486E0AEF0DF02D
:101A0E00CA94000E3B6E1200016EF00EBA1676945A
:101A1E000150F80DF350540F776E0150FC0DF3503A
:101A2E002A0FBB6E7684BA50F00B0C09BA6E1200F8
:101A3E002E0EF66E190EF76E000EF86E0900F5CF2B
:101A4E004EF00900F5CF4FF000EE34F01A0EEE6AAC
:101A5E00E806FDE1000EF86E000146EF13F0000EF1
:101A6E004D6E000E4C6E000E4B6E000E4A6E000E4A
:101A7E00476E000E466E000E456E000E446E000E52
:101A8E00436E000E426E000E416E000E406E12004E
:101A9E00000EB36E900EB26E010EB16E270E926EE8
:101AAE00530E936E080E946E8096809E0F014869B9
:101ABE001F0E496FC290270E926E550EA76EAA0E7C
:101ACE00A76E0E01FF910E0ED36FFF81120001C0A3
:101ADE003EF002C03FF04850D8A478EF0DF07AEFF8
:101AEE000DF07CEF0DF0010E486E010E3B6E000EF8
:101AFE00CC6ECA84BA9EBA9C540E776ECF0EBA16AE
:101B0E002A0EBB6E7684BA50F00B0C09BA6E120018
:101B1E0048C001F00A0E0118D8A498EF0DF09AEF04
:101B2E000DF09EEF0DF0090E486EB7EF0DF00B0E97
:101B3E000118D8A4A5EF0DF0A7EF0DF0ABEF0DF047
:101B4E000C0E486EB7EF0DF0020E0118D8A4B2EFCE
:101B5E000DF0B4EF0DF0B7EF0DF0CA94000E3B6E22
:101B6E00120048C001F04B50D8A4C0EF0DF0C2EFE8
:101B7E000DF0EAEF0DF04A50D8A4C8EF0DF0CAEF01
:101B8E000DF0EAEF0DF00104D8A4D0EF0DF0D2EF76
:101B9E000DF0D6EF0DF0020E486EEAEF0DF0040ECA
:101BAE000118D8B4DDEF0DF0DFEF0DF0E8EF0DF01A
:101BBE00110E0118D8A4E6EF0DF0E8EF0DF0EAEFE4
:101BCE000DF00E0E486E120048C001F04D50D8A414
:101BDE00F3EF0DF0F5EF0DF01DEF0EF04B50D8A416
:101BEE00FBEF0DF0FDEF0DF01DEF0EF04A50D8A4F7
:101BFE0003EF0EF005EF0EF01DEF0EF0030E0118C1
:101C0E00D8A40CEF0EF00EEF0EF012EF0EF0050E44
:101C1E00486E1DEF0EF0050E0118D8A419EF0EF048
:101C2E001BEF0EF01DEF0EF0040E486E1200480E64
:101C3E00026E000E036E02C0D9FF03C0DAFF060E5D
:101C4E00DE18D8A42DEF0EF02FEF0EF057EF0EF09A
:101C5E00020E4D18D8B436EF0EF038EF0EF041EFFD
:101C6E000EF0030E4D18D8A43FEF0EF041EF0EF01C
:101C7E0057EF0EF04B50D8A447EF0EF049EF0EF091
:101C8E0057EF0EF04A50D8A44FEF0EF051EF0EF072
:101C9E0057EF0EF002C0D9FF03C0DAFF0F0EDF6E52
:101CAE001200270E926E000E0E01E76F010EE86F06
:101CBE00020EE96FC08E0F014D914D934C85F18C44
:101CCE00F18AF188F186F292F288F090F086F09225
:101CDE00F088F094F08AA49091AE02D0A38001D047
:101CEE00A390F28EF28C80BA7FEF0EF081EF0EF0A1
:101CFE009AEF0EF080B286EF0EF088EF0EF09AEFAC
:101D0E000EF081B08DEF0EF08FEF0EF09AEF0EF019
:101D1E0080B094EF0EF096EF0EF09AEF0EF0D39E89
:101D2E000F014D9F030012003E503F10D8B4A2EF9A
:101D3E000EF0A4EF0EF0A6EF0EF0A7EC0CF048C0DC
:101D4E0001F0100E0118D8A4AFEF0EF0B1EF0EF0A7
:101D5E00BAEF0EF0010E486EA0EC0CF00F013F8BA7
:101D6E003F8F98EC0CF00150D8A4C0EF0EF0C2EFEC
:101D7E000EF0C6EF0EF0010E486EE7EF0EF0030EFA
:101D8E000118D8B4CDEF0EF0CFEF0EF0D8EF0EF065
:101D9E00090E0118D8A4D6EF0EF0D8EF0EF0DCEF36
:101DAE000EF00A0E486EE7EF0EF00C0E0118D8A4D6
:101DBE00E3EF0EF0E5EF0EF0E7EF0EF00B0E486ED0
:101DCE0012003E503F10D8B4EFEF0EF0F1EF0EF0D0
:101DDE00F3EF0EF0A7EC0CF0480E056E000E066E3B
:101DEE0005C0D9FF06C0DAFFDF50076E0750D8A432
:101DFE0003EF0FF005EF0FF00DEF0FF005C0D9FF59
:101E0E0006C0DAFF080EDF6E62EF0FF00704D8B4DB
:101E1E0013EF0FF015EF0FF005EF0FF0070E071889
:101E2E00D8A41CEF0FF01EEF0FF020EF0FF005EF10
:101E3E000FF0030E0718D8B427EF0FF029EF0FF0AD
:101E4E0044EF0FF0040E0718D8B430EF0FF032EF56
:101E5E000FF044EF0FF0050E0718D8B439EF0FF05E
:101E6E003BEF0FF044EF0FF00A0E0718D8A442EF25
:101E7E000FF044EF0FF062EF0FF0010E4C644AEFDB
:101E8E000FF04CEF0FF062EF0FF0010E4D6452EFBA
:101E9E000FF054EF0FF05CEF0FF005C0D9FF06C046
:101EAE00DAFF0B0EDF6E62EF0FF005C0D9FF06C032
:101EBE00DAFF0C0EDF6ED4EC10F012003E503F1025
:101ECE00D8B46CEF0FF06EEF0FF070EF0FF0A7ECD1
:101EDE000CF0480E066E000E076E06C0D9FF07C046
:101EEE00DAFFDF50D8A47EEF0FF080EF0FF088EF0F
:101EFE000FF006C0D9FF07C0DAFF070EDF6EF6EF50
:101F0E000FF006C0D9FF07C0DAFFDF50086E030ED0
:101F1E000818D8B495EF0FF097EF0FF0A9EF0FF068
:101F2E000A0E0818D8B49EEF0FF0A0EF0FF0A9EF2D
:101F3E000FF0090E0818D8A4A7EF0FF0A9EF0FF0B5
:101F4E00C9EF0FF0010E4C64AFEF0FF0B1EF0FF0D1
:101F5E00F6EF0FF0010E4D64B7EF0FF0B9EF0FF083
:101F6E00C1EF0FF006C0D9FF07C0DAFF0A0EDF6E11
:101F7E00F6EF0FF006C0D9FF07C0DAFF090EDF6ECD
:101F8E00F6EF0FF00804D8B4CFEF0FF0D1EF0FF04B
:101F9E0080EF0FF0080E0818D8B4D8EF0FF0DAEF74
:101FAE000FF080EF0FF00D0E0818D8A4E1EF0FF030
:101FBE00E3EF0FF0E5EF0FF080EF0FF0040E0818CF
:101FCE00D8A4ECEF0FF0EEEF0FF0F6EF0FF006C027
:101FDE00D9FF07C0DAFF0B0EDF6EF6EF0FF0B7EC8E
:101FEE0014F012003E503F10D8B400EF10F002EF84
:101FFE0010F004EF10F0A7EC0CF0480E066E000E79
:10200E00076E06C0D9FF07C0DAFFDF50D8A412EF63
:10201E0010F014EF10F01CEF10F006C0D9FF07C03F
:10202E00DAFF030EDF6ED3EF10F006C0D9FF07C044
:10203E00DAFFDE04D8B426EF10F028EF10F035EFFB
:10204E0010F006C0D9FF07C0DAFF020EDE18D8A4C2
:10205E0033EF10F035EF10F03DEF10F006C0D9FF62
:10206E0007C0DAFF060EDF6ED3EF10F006C0D9FF01
:10207E0007C0DAFF0F0EDE18D8A448EF10F04AEFB3
:10208E0010F0D3EF10F0020E4D18D8B451EF10F03F
:10209E0053EF10F05CEF10F0030E4D18D8A45AEF6A
:1020AE0010F05CEF10F0D3EF10F04B50D8A462EFAD
:1020BE0010F064EF10F0D3EF10F04A50D8A46AEF8E
:1020CE0010F06CEF10F0D3EF10F0A0EC0CF00F014D
:1020DE003F8B3F9F9150C30B1809916E91AE7AEFD3
:1020EE0010F07DEF10F0010E7EEF10F0000E046E7A
:1020FE00056A04500510D8A487EF10F08BEF10F08E
:10210E00016A012A8CEF10F0016A013A014601467C
:10211E0091500118BF0B0118916E04500510D8A4F0
:10212E009BEF10F09DEF10F0A3EF10F0000E036E7A
:10213E00000E026EA6EF10F0000E036E026802C0D3
:10214E0090FF04500510D8A4AFEF10F0B3EF10F0CD
:10215E00016A012AB4EF10F0016AA3500118FE0BB8
:10216E000118A36EA49004500510D8A4C1EF10F06E
:10217E00C5EF10F0016A012AC6EF10F0016A0132B4
:10218E000132915001187F0B0118916E0F013F8F94
:10219E0098EC0CF0D3EF10F0120048C002F0080ECD
:1021AE000218D8A4DDEF10F0DFEF10F00CEF11F0F5
:1021BE00A0EC0CF00F013F8B3F9FFC0E3F1799CF09
:1021CE0004F0CB0E0424F66EF76A3D0EF7220800DB
:1021DE00F5CF01F00128036E3B0E0364F9EF10F00A
:1021EE00FBEF10F0FDEF10F0000E036E330E032424
:1021FE00F66EF76A3F0EF7220800F5CF04F004C022
:10220E0099FF000E986EE9EF11F00B0E0218D8A48C
:10221E0013EF11F015EF11F043EF11F0A0EC0CF0ED
:10222E000F013F8B3F9F030E3F1398CF04F0CB0E51
:10223E000424F66EF76A3D0EF7220800F5CF01F082
:10224E000128036E630E03642FEF11F031EF11F0CE
:10225E0033EF11F0000E036E330E0324F66EF76AA1
:10226E003F0EF7220800F5CF04F004C098FF3F8F11
:10227E0098EC0CF0E9EF11F00C0E0218D8A44AEF0E
:10228E0011F04CEF11F06BEF11F0A0EC0CF00F0110
:10229E003F8B3F9F3F813F9399CF04F004C001F0E5
:1022AE00070E01160128036E060E036461EF11F08E
:1022BE0063EF11F065EF11F0000E036E3F8103C066
:1022CE0099FF3F8F3FEF11F00E0E0218D8A472EF58
:1022DE0011F074EF11F0A1EF11F0A0EC0CF00F0162
:1022EE003F8B3F9F3ECF04F004AE80EF11F082EFA4
:1022FE0011F092EF11F0FD0E046488EF11F08AEFE9
:10230E0011F08EEF11F0000E046E9CEF11F0020E24
:10231E0004269CEF11F07D0E046498EF11F09AEFF5
:10232E0011F08EEF11F0820E046E04C03EFF3F8F4F
:10233E003FEF11F0060E0218D8B4A8EF11F0AAEF75
:10234E0011F0B3EF11F00F0E0218D8A4B1EF11F087
:10235E00B3EF11F0E9EF11F0A0EC0CF00F013F8B91
:10236E003F9F919091928FCF04F0CB0E0424F66E86
:10237E00F76A3D0EF7220800F5CF01F00128036E33
:10238E003B0E0364CDEF11F0CFEF11F0D1EF11F052
:10239E00000E036E330E0324F66EF76A3F0EF7221D
:1023AE000800F5CF04F004C08FFF000E8E6E9190E2
:1023BE009182010E8E6E010E8F6E010E8F6E3F8F0B
:1023CE003FEF11F012000F013FB9F0EF11F0F2EFF5
:1023DE0011F0EAEF11F0A0EC0CF00F013F8B3F9FD4
:1023EE003FB9FCEF11F0FEEF11F0F7EF11F0000E18
:1023FE00016E030E3F1398CF02F02B0E0224F66EE1
:10240E00F76A3D0EF7220800F5CF03F0630E036462
:10241E0013EF12F015EF12F017EF12F0010E016E1E
:10242E00995098CF02F02B0E0224F66EF76A3D0EED
:10243E00F7220800F5CF03F01F0E036429EF12F008
:10244E002BEF12F02DEF12F0010E016E99CF02F06C
:10245E002B0E0224F66EF76A3D0EF7220800F5CF1A
:10246E0003F00350D8B43EEF12F040EF12F048EFF5
:10247E0012F00C0E036446EF12F048EF12F04AEF22
:10248E0012F0010E016E98CF02F02B0E0224F66EA2
:10249E00F76A3D0EF7220800F5CF03F0170E03641E
:1024AE005BEF12F05DEF12F05FEF12F0010E016EB6
:1024BE0099CF02F02B0E0224F66EF76A3D0EF7222C
:1024CE000800F5CF03F0060E036470EF12F072EF02
:1024DE0012F074EF12F0010E016E98CF02F02B0E77
:1024EE000224F66EF76A3D0EF7220800F5CF03F0D0
:1024FE003B0E036485EF12F087EF12F089EF12F0B6
:10250E00010E016E99CF02F02B0E0224F66EF76AC1
:10251E003D0EF7220800F5CF03F03B0E03649AEF51
:10252E0012F09CEF12F09EEF12F0010E016E0150B0
:10253E00D8B4A4EF12F0A6EF12F0D8EF12F03FB914
:10254E00ABEF12F0ADEF12F0A6EF12F0030E3F1349
:10255E00480EF66E3F0EF76E0800F5CF98FF9950B5
:10256E00010E986E010E996E3F0EF66E3F0EF76ECF
:10257E000800F5CF98FF030E996E000E986E000EB0
:10258E00996E91909182010E8E6E010E8F6E000EDD
:10259E008E6E010E8F6E000E8E6E000E8F6E29EFF8
:1025AE0013F0000E016E918091928ECF02F02B0EE1
:1025BE000224F66EF76A3D0EF7220800F5CF03F0FF
:1025CE00170E0364EDEF12F0EFEF12F0F1EF12F0D1
:1025DE00010E016E8F508FCF02F02B0E0224F66E7D
:1025EE00F76A3D0EF7220800F5CF03F03B0E0364A9
:1025FE0003EF13F005EF13F007EF13F0010E016E6A
:10260E000150D8B40DEF13F00FEF13F01FEF13F0CE
:10261E0091909182010E8E6E010E8F6E000E8E6E57
:10262E00010E8F6E000E8E6E000E8F6E29EF13F060
:10263E0091909182010E8E6E010E8F6E010E8F6E35
:10264E00000E8E6E3FB92EEF13F030EF13F029EF20
:10265E0013F03F913F93919C9150C30B1809916ECB
:10266E00919E000E906EA3903F8F3FB941EF13F0F5
:10267E0043EF13F03CEF13F098EC0CF01200CFEC9C
:10268E000CF04FEC0DF0E7EC0CF0DAEC0CF0AFECDC
:10269E000CF0B9EC0CF0C4EC0CF0EAEC11F036ECEA
:1026AE000DF0C0A65DEF13F05FEF13F064EF13F0C3
:1026BE00C0960F014C9171EF13F0000ECC6ECA84D0
:1026CE00010E3B6E010E486E010E026EC00E016EC3
:1026DE006EEC0DF0F28EF28CF18CF18AF188F186AF
:1026EE00F18E000E3A6E000E3C6E000E376E010E2D
:1026FE00366E000E306EA4A087EF13F089EF13F044
:10270E0093EF13F0A4909068170E026E700E016E88
:10271E006EEC0DF0000E3D6E78EC16F03C6E3B50FC
:10272E00D8B49CEF13F09EEF13F04BEF14F09F0E06
:10273E00CC64A4EF13F0A6EF13F03DEF14F0000EEF
:10274E00CC6E3E0E326E000E336E32C0D9FF33C0E9
:10275E00DAFFDE50DE10D8B4B7EF13F0B9EF13F096
:10276E00F8EF13F032C0D9FF33C0DAFFDE06000EE9
:10277E00DD5A32C0D9FF33C0DAFFDECF2EF0DDCF07
:10278E002FF02E502F10D8A4CFEF13F0D1EF13F05F
:10279E00D5EF13F0A7EC0CF0F4EF13F02EC02AF0E7
:1027AE002FC02BF0060E2C6ED8902B322A322C2EE8
:1027BE00DBEF13F02A50070B0BEC0DF03DC031F0A0
:1027CE00312AEF0E3164EEEF13F0F0EF13F0F2EF6B
:1027DE0013F0000E316E31C03DF0000E376E640EF8
:1027EE00366E364A372A5E0E365C010E3758D8A042
:1027FE0003EF14F005EF14F03DEF14F048C02DF088
:10280E004D50D8A40DEF14F00FEF14F039EF14F073
:10281E004C50D8A415EF14F017EF14F039EF14F054
:10282E004B50D8A41DEF14F01FEF14F039EF14F035
:10283E004A50D8A425EF14F027EF14F039EF14F016
:10284E00100E2D18D8B42EEF14F030EF14F039EF1F
:10285E0014F0CA94000E376E000E366E000E3B6EEC
:10286E003DEF14F0000E376E640E366E3650371094
:10287E00D8A444EF14F047EF14F0010E48EF14F013
:10288E00000E3C124FEF14F0000E376E010E366E36
:10289E003C50D8B455EF14F057EF14F067EF14F026
:1028AE00030E3018D8A45EEF14F060EF14F064EF4E
:1028BE0014F0000E306E15EC1AF0302A82EF13F081
:1028CE00010E936E000E946E000E826E010E811636
:1028DE00270E8016A0EC0CF00F013F8B3F8F000EE1
:1028EE00486E36EC0DF0000E496E000E3B6E000E7B
:1028FE003A6ED59ECA940F013FB988EF14F08AEF55
:10290E0014F082EF14F03F9B98EC0CF0A7EC0CF057
:10291E00F18EF292F288F090F086F092F088F094B8
:10292E00F08AF294F18CF18AF188F1869E90A4904F
:10293E0091AE02D0A38001D0A390F28EF28CC29001
:10294E0058EC0EF0000E376E010E366E000E306E25
:10295E00CFEC0CF04FEC0DF082EF13F000EF00F027
:10296E0048C002F0070E0218D8A4C0EF14F0C2EF50
:10297E0014F0F0EF14F0A0EC0CF00F013F8B3F9F22
:10298E003F813F9398CF05F0CB0E0524F66EF76A84
:10299E003D0EF7220800F5CF01F00128046E170E48
:1029AE000464DCEF14F0DEEF14F0E0EF14F0000E30
:1029BE00046E330E0424F66EF76A3F0EF7220800FB
:1029CE00F5CF05F005C098FF3F8F98EC0CF077EF30
:1029DE0016F0090E0218D8A4F7EF14F0F9EF14F060
:1029EE0027EF15F0A0EC0CF00F013F8B3F9F3F91AE
:1029FE003F8399CF05F0CB0E0524F66EF76A3D0E98
:102A0E00F7220800F5CF01F00128046E0C0E0464C5
:102A1E0013EF15F015EF15F017EF15F0010E046E0C
:102A2E003F913F83330E0424F66EF76A3F0EF72272
:102A3E000800F5CF05F005C099FF3F8FECEF14F0BD
:102A4E000A0E0218D8A42EEF15F030EF15F0C6EFCF
:102A5E0015F0A0EC0CF00F013F8B3F9F3F913F8391
:102A6E0098CF05F0CB0E0524F66EF76A3D0EF722D1
:102A7E000800F5CF01F00128046E99CF05F0CB0EBA
:102A8E000524F66EF76A3D0EF7220800F5CF03F027
:102A9E00020E0318D8A456EF15F058EF15F064EF98
:102AAE0015F01D0E04645EEF15F060EF15F0B6EF35
:102ABE0015F0010E046EB6EF15F00304D8B46AEFEC
:102ACE0015F06CEF15F0A2EF15F0030E0318D8B445
:102ADE0073EF15F075EF15F0A2EF15F0050E031854
:102AEE00D8B47CEF15F07EEF15F0A2EF15F0070EBF
:102AFE000318D8B485EF15F087EF15F0A2EF15F097
:102B0E00080E0318D8B48EEF15F090EF15F0A2EF63
:102B1E0015F00A0E0318D8B497EF15F099EF15F0CB
:102B2E00A2EF15F00C0E0318D8A4A0EF15F0A2EF2B
:102B3E0015F0ACEF15F01F0E0464A8EF15F0AAEF18
:102B4E0015F0B6EF15F060EF15F01E0E0464B2EF3F
:102B5E0015F0B4EF15F0B6EF15F060EF15F03F91EC
:102B6E003F83330E0424F66EF76A3F0EF7220800F9
:102B7E00F5CF05F005C098FF3F8FECEF14F00B0E6C
:102B8E000218D8A4CDEF15F0CFEF15F0FBEF15F02E
:102B9E00A0EC0CF00F013F8B3F9F030E3F1398CF1D
:102BAE0005F0CB0E0524F66EF76A3D0EF7220800EF
:102BBE00F5CF01F00128046E630E0464E9EF15F001
:102BCE00EBEF15F0EDEF15F0000E046E330E04244E
:102BDE00F66EF76A3F0EF7220800F5CF05F005C036
:102BEE0098FF3F8FECEF14F00E0E0218D8A402EFF0
:102BFE0016F004EF16F031EF16F0A0EC0CF00F010A
:102C0E003F8B3F9F3ECF05F005AE10EF16F012EF53
:102C1E0016F022EF16F0820E056018EF16F01AEF7E
:102C2E0016F01EEF16F07E0E056E2CEF16F0020E4D
:102C3E00055E2CEF16F0020E056028EF16F02AEF57
:102C4E0016F01EEF16F0FE0E056E05C03EFF3F8F0E
:102C5E00ECEF14F0060E0218D8B438EF16F03AEF77
:102C6E0016F043EF16F00F0E0218D8A441EF16F02F
:102C7E0043EF16F077EF16F0A0EC0CF00F013F8B40
:102C8E003F9F918091928ECF05F0CB0E0524F66E6C
:102C9E00F76A3D0EF7220800F5CF01F00128046E09
:102CAE00170E04645DEF16F05FEF16F061EF16F08D
:102CBE00000E046E330E0424F66EF76A3F0EF722F2
:102CCE000800F5CF05F005C08EFF91909182010EA0
:102CDE008E6E010E8F6E010E8F6E3F8FECEF14F025
:102CEE001200000E236E000E1C6E490E266E000E94
:102CFE00276EF0EF16F04D0E286E000E296E460E62
:102D0E00246E000E256E000E80BA010E196E360E60
:102D1E001A6E1D0E1B6E700E1D6E1B0E1E6E1E0E7F
:102D2E001F6E1B0E206E0DEF17F04C0E286E000E50
:102D3E00296E440E246E000E256E000E80B2010E1A
:102D4E00196EF20E1A6E1F0E1B6ED60E1D6E1B0E18
:102D5E001E6E3C0E1F6E1C0E206E0DEF17F04B0EEE
:102D6E00286E000E296E420E246E000E256E000E89
:102D7E0081B0010E196ECA0E1A6E1E0E1B6E6E0EED
:102D8E001D6E290E1E6E380E1F6E190E206E0DEF63
:102D9E0017F04A0E286E000E296E400E246E000E9D
:102DAE00256E000E80B0010E196ED00E1A6E1D0E1D
:102DBE001B6EA80E1D6E210E1E6EF00E1F6E190ECE
:102DCE00206E0DEF17F0000E286E000E296E0DEF1F
:102DDE0017F02350096E0A6A0A50000AD8B4FAEFA7
:102DEE0016F0EAEF16F00950000AD8B482EF16F08A
:102DFE00010AD8B49CEF16F0030AD8B4B6EF16F059
:102E0E00010AD8B4D0EF16F0EAEF16F028502910C8
:102E1E00D8B414EF17F016EF17F00AEF1AF0195096
:102E2E00D8B41CEF17F01EEF17F0E5EF19F0BEEF58
:102E3E0018F028C0D9FF29C0DAFF010EDF6E26C0B8
:102E4E00D9FF27C0DAFFDF50D8A430EF17F032EFEA
:102E5E0017F041EF17F0000ED76E000ED66ED58E1E
:102E6E0024C0D9FF25C0DAFF000EDE6E000EDD6E27
:102E7E0057EF17F0D6CF0DF0D7CF0EF00E500A6EDB
:102E8E00096A0D500B6E0C6A09500B120A500C1287
:102E9E0024C0D9FF25C0DAFF0BC0DEFF0CC0DDFF5A
:102EAE0023C009F0010E0A6E092A60EF17F0D890C0
:102EBE000A36092E5EEF17F026C0D9FF27C0DAFFBB
:102ECE000A50DF12010E1C6E0AEF1AF0D6CF0FF069
:102EDE00D7CF10F010500A6E096A0F500B6E0C6AA5
:102EEE0009500B10216E0A500C10226E24C0D9FF0F
:102EFE0025C0DAFFDECF09F0DDCF0AF021C00BF0DE
:102F0E0022C00CF009500B5E0A500C5A010E0B2415
:102F1E00BA0E0C20800BD8A497EF17F099EF17F08C
:102F2E00F0EF17F01D501E10D8B4A0EF17F0A2EF5F
:102F3E0017F0C4EF17F028C0D9FF29C0DAFF030E2F
:102F4E00DF6E24C0D9FF25C0DAFF21C0DEFF22C00C
:102F5E00DDFF02D8BDEF17F00500FA6E1D50FD6EB5
:102F6E001E50FE6EF850FF6EFA501200010E3B6EB0
:102F7E00000ECC6ECA8469EF17F028C0D9FF29C0A5
:102F8E00DAFF000EDF6E23C009F0010E0A6E092A69
:102F9E00D3EF17F0D8900A36092ED1EF17F00A505A
:102FAE00FF0A0B6E26C0D9FF27C0DAFF0B50DF16C3
:102FBE0026C0D9FF27C0DAFFDF50D8A4E9EF17F0FB
:102FCE00EBEF17F0EEEF17F0D59E69EF17F069EF04
:102FDE0017F024C0D9FF25C0DAFFDECF09F0DDCF10
:102FEE000AF021C00BF022C00CF009500B5E0A5003
:102FFE000C5A000E0B24FC0E0C20800BD8A40AEFEA
:10300E0018F00CEF18F069EF17F028C0D9FF29C09F
:10301E00DAFF020EDE18D8B417EF18F019EF18F019
:10302E0069EF17F028C0D9FF29C0DAFF020EDF6E54
:10303E001A501B10D8B426EF18F028EF18F035EF01
:10304E0018F002D835EF18F00500FA6E1A50FD6E22
:10305E001B50FE6EF850FF6EFA501200010E3B6EC2
:10306E00000ECC6ECA8469EF17F0D6CF11F0D7CF11
:10307E0012F012500A6E096A11500B6E0C6A09504A
:10308E000B10216E0A500C10226E300E186E000EB0
:10309E00176E5DEF18F0450E186E17687AEF18F080
:1030AE00200E186E000E176E7AEF18F02350096E70
:1030BE000A6A0A50000AD8B467EF18F07AEF18F0CF
:1030CE000950000AD8B47AEF18F0010AD8B452EFBA
:1030DE0018F0030AD8B457EF18F0010AD8B457EF16
:1030EE0018F07AEF18F024C0D9FF25C0DAFFDECF32
:1030FE0009F0DDCF0AF0091E0A1E094A0A2A1750E6
:10310E00095E18500A5A2150092422500A20800BB9
:10311E00D8A494EF18F096EF18F069EF17F024C0CA
:10312E00D9FF25C0DAFF21C0DEFF22C0DDFF1D5012
:10313E001E10D8B4A5EF18F0A7EF18F069EF17F02E
:10314E0002D8B4EF18F00500FA6E1D50FD6E1E5039
:10315E00FE6EF850FF6EFA50120069EF17F028C09D
:10316E00D9FF29C0DAFF030EDF6E69EF17F028C012
:10317E00D9FF29C0DAFFDF50096E0A6A0A50000A29
:10318E00D8B4CCEF18F00AEF1AF00950000AD8B4F0
:10319E0020EF17F0010AD8B46DEF17F0030AD8B478
:1031AE006DEF17F0010AD8B43CEF18F0070AD8B447
:1031BE00B6EF18F00AEF1AF028C0D9FF29C0DAFFCF
:1031CE00000EDF6E23C009F0010E0A6E092AF2EF1F
:1031DE0018F0D8900A36092EF0EF18F00A50FF0AB0
:1031EE000B6E26C0D9FF27C0DAFF0B50DF1626C0A4
:1031FE00D9FF27C0DAFFDF50D8A408EF19F00AEF85
:10320E0019F069EF17F0D59E0AEF1AF028C0D9FF12
:10321E0029C0DAFF000EDF6E23C009F0010E0A6E20
:10322E00092A1CEF19F0D8900A36092E1AEF19F058
:10323E000A50FF0A0B6E26C0D9FF27C0DAFF0B50CB
:10324E00DF1626C0D9FF27C0DAFFDF50D8A432EF31
:10325E0019F034EF19F037EF19F0D59E39EF19F058
:10326E00010E1C6E1F502010D8B440EF19F042EF23
:10327E0019F00AEF1AF002D84FEF19F00500FA6EA6
:10328E001F50FD6E2050FE6EF850FF6EFA50120069
:10329E000AEF1AF028C0D9FF29C0DAFF040EDF6E3C
:1032AE0026C0D9FF27C0DAFFDF50D8A461EF19F08E
:1032BE0063EF19F06AEF19F0000ED76E000ED66E9E
:1032CE00D58E37EF17F0D6CF13F0D7CF14F01450AA
:1032DE000A6E096A13500B6E0C6A09500B120A50D3
:1032EE000C1224C0D9FF25C0DAFF0BC0DEFF0CC0C4
:1032FE00DDFF57EF17F0D6CF15F0D7CF16F01650DB
:10330E000A6E096A15500B6E0C6A09500B10216E6D
:10331E000A500C10226E24C0D9FF25C0DAFFDECF72
:10332E0009F0DDCF0AF021C00BF022C00CF00950DD
:10333E000B5E0A500C5A000E0B24FC0E0C20800B58
:10334E00D8A4ACEF19F0AEEF19F069EF17F023C067
:10335E0009F0010E0A6E092AB7EF19F0D8900A3655
:10336E00092EB5EF19F00A50FF0A0B6E26C0D9FFD1
:10337E0027C0DAFF0B50DF1626C0D9FF27C0DAFFB1
:10338E00DF50D8A4CDEF19F0CFEF19F0D2EF19F02E
:10339E00D59ED4EF19F0010E1C6E28C0D9FF29C09E
:1033AE00DAFF000EDF6E1F502010D8B4E1EF19F0D7
:1033BE00E3EF19F00AEF1AF042EF19F028C0D9FF27
:1033CE0029C0DAFFDF50096E0A6A0A50000AD8B423
:1033DE00F3EF19F00AEF1AF00950000AD8B40AEF09
:1033EE001AF0010AD8B4E3EF18F0030AD8B40DEFBF
:1033FE0019F0010AD8B451EF19F0070AD8B482EFC8
:10340E0019F00AEF1AF0232A030E236411EF1AF0B3
:10341E0013EF1AF0F0EF16F01C5012003AC008F03D
:10342E000850D8A41DEF1AF01FEF1AF0BDEF1BF0D5
:10343E004F684E68000E396E48C007F007C038F06E
:10344E0047EF1BF00F013F813F9398CF0BF0CB0E50
:10345E000B24F66EF76A3D0EF7220800F5CF4FF0FB
:10346E00170E4F643DEF1AF03FEF1AF041EF1AF0CE
:10347E00000E4F6E995099CF0BF0CB0E0B24F66EBB
:10348E00F76A3D0EF7220800F5CF4EF03B0E4E6464
:10349E0053EF1AF055EF1AF057EF1AF0000E4E6E6A
:1034AE003E503F10D8B45EEF1AF060EF1AF098EF6E
:1034BE001BF03D40E8423F0B016E026A970E01245D
:1034CE00F66E3F0E0220F76E0800F5CF39F098EF3A
:1034DE001BF0FC0E0F013F174F6898CF0BF0CB0E71
:1034EE000B24F66EF76A3D0EF7220800F5CF4EF06C
:1034FE003B0E4E6485EF1AF087EF1AF098EF1BF033
:10350E00000E4E6E98EF1BF03ECF0BF00BAE92EF0F
:10351E001AF094EF1AF09BEF1AF0800E4F6EFF0E1A
:10352E000B1A0B2A9CEF1AF04F68D8900B304E6E88
:10353E0098EF1BF00F013F913F8398CF0BF0CB0E0E
:10354E000B24F66EF76A3D0EF7220800F5CF4EF00B
:10355E001F0E4E64B5EF1AF0B7EF1AF0B9EF1AF06E
:10356E00010E4E6E99CF0BF0CB0E0B24F66EF76A52
:10357E003D0EF7220800F5CF4FF00C0E4F64CAEF48
:10358E001AF0CCEF1AF0CEEF1AF0010E4F6E010EBC
:10359E00396E98EF1BF0030E0F013F1398CF0BF00F
:1035AE00CB0E0B24F66EF76A3D0EF7220800F5CF10
:1035BE004EF0630E4E64E6EF1AF0E8EF1AF0EAEF03
:1035CE001AF0000E4E6E140E4F6E98EF1BF00F0198
:1035DE003F813F9399CF0BF0060E0B64F9EF1AF073
:1035EE00FBEF1AF0FDEF1AF0000E0B6E0BC04EF053
:1035FE0098EF1BF0918091928ECF0BF0CB0E0B2497
:10360E00F66EF76A3D0EF7220800F5CF4FF0170E53
:10361E004F6414EF1BF016EF1BF018EF1BF0000EAB
:10362E004F6E8F508FCF0BF0CB0E0B24F66EF76ACA
:10363E003D0EF7220800F5CF4EF03B0E4E642AEFFA
:10364E001BF02CEF1BF02EEF1BF0000E4E6E91BEFA
:10365E0033EF1BF035EF1BF03BEF1BF0000E066E49
:10366E00000E056E3FEF1BF0000E066E020E056E8D
:10367E0005C039F098EF1BF0070E4E6E98EF1BF059
:10368E000750016E026A0250000AD8B451EF1BF0C7
:10369E0098EF1BF00150000AD8B498EF1BF0010A06
:1036AE00D8B429EF1AF0030AD8B470EF1AF0010A51
:1036BE00D8B4A1EF1AF0070AD8B4D2EF1AF0010A63
:1036CE00D8B4EEEF1AF0030AD8B401EF1BF0010ADA
:1036DE00D8B429EF1AF00F0AD8B429EF1AF0010A5C
:1036EE00D8B4A1EF1AF0030AD8B4A1EF1AF0010A68
:1036FE00D8B4D2EF1AF0070AD8B4EEEF1AF0010AD6
:10370E00D8B470EF1AF0030AD8B48BEF1AF0010A8E
:10371E00D8B401EF1BF01F0AD8B443EF1BF098EF9B
:10372E001BF0050E0718D8B49FEF1BF0A1EF1BF08E
:10373E00B9EF1BF00C0E0718D8B4A8EF1BF0AAEFC8
:10374E001BF0B9EF1BF0100E0718D8B4B1EF1BF039
:10375E00B3EF1BF0B9EF1BF0E40E346E3F0E356E77
:10376E00BDEF1BF0D40E346E3F0E356E34C009F033
:10377E0035C00AF0010E0864C7EF1BF0C9EF1BF04D
:10378E0027EF1DF04FC00BF00B28D8B4D1EF1BF074
:10379E00D3EF1BF01AEF1DF0020E0818D8A4DAEFC3
:1037AE001BF0DCEF1BF056EF1CF0800E0B18D8A4AC
:1037BE00E3EF1BF0E5EF1BF0F4EF1BF00A0E09240C
:1037CE00016E000E0A20026E01C0F6FF02C0F7FF66
:1037DE000800F5CF0BF008EF1CF0CF0E0B24F66EA1
:1037EE00F76A3E0EF7220800F5500924016E000E0E
:1037FE000A20026E01C0F6FF02C0F7FF0800F5CFE7
:10380E000BF0530E936E080E946EF00E82122C0E69
:10381E008112808C0BA016EF1CF018EF1CF019EF24
:10382E001CF082980BA21EEF1CF020EF1CF021EF73
:10383E001CF0829A0BA426EF1CF028EF1CF029EF47
:10384E001CF0829C0BA62EEF1CF030EF1CF031EF1B
:10385E001CF081960BA836EF1CF038EF1CF039EFF8
:10386E001CF0829E0BAA3EEF1CF040EF1CF041EFC5
:10387E001CF0819A0BAC46EF1CF048EF1CF049EFA0
:10388E001CF0819439A04EEF1CF050EF1CF051EF5C
:10389E001CF0809C8182510E936E87EF1EF0030EFA
:1038AE000818D8A45DEF1CF05FEF1CF087EF1EF038
:1038BE000A0E0B6065EF1CF067EF1CF0A3EF1CF017
:1038CE0076EF1CF0000E0B6EC4EF1CF009C0F6FF75
:1038DE000AC0F7FF0800F5CF0BF0C4EF1CF038500C
:1038EE00016E026A0250000AD8B480EF1CF06DEF30
:1038FE001CF00150010AD8B469EF1CF0020AD8B4CA
:10390E0069EF1CF0050AD8B469EF1CF0010AD8B4AF
:10391E0069EF1CF00F0AD8B469EF1CF0010AD8B495
:10392E0069EF1CF0030AD8B469EF1CF0050AD8B48D
:10393E0069EF1CF06DEF1CF0800E0B18D8A4AAEFE7
:10394E001CF0ACEF1CF0AEEF1CF069EF1CF06B0E30
:10395E000B24F66EF76A3E0EF7220800F5CF0BF039
:10396E000B500924016E000E0A20026E01C0F6FFF4
:10397E0002C0F7FF0800F5CF0BF0530E936E080E42
:10398E00946EF00E82122C0E8112808C0B50D8B4D5
:10399E00D3EF1CF0D5EF1CF025EF1DF00BA0DAEFE6
:1039AE001CF0DCEF1CF0DDEF1CF082980BA2E2EFB6
:1039BE001CF0E4EF1CF0E5EF1CF0829A0BA4EAEF8A
:1039CE001CF0ECEF1CF0EDEF1CF0829C0BA6F2EF5E
:1039DE001CF0F4EF1CF0F5EF1CF081960BA8FAEF3B
:1039EE001CF0FCEF1CF0FDEF1CF0829E0BAA02EF08
:1039FE001DF004EF1DF005EF1DF0819A0BAC0AEFE0
:103A0E001DF00CEF1DF00DEF1DF0819439A412EF97
:103A1E001DF014EF1DF015EF1DF0809C818C130E20
:103A2E00936E87EF1EF0530E936E080E946EF00E8B
:103A3E0082122C0E8112808C87EF1EF087EF1EF003
:103A4E004EC00BF00B28D8B42FEF1DF031EF1DF048
:103A5E001AEF1DF00850D8A437EF1DF039EF1DF006
:103A6E00C2EF1DF0D40E091807E13F0E0A18D8A4B4
:103A7E0043EF1DF045EF1DF060EF1DF00B50016E92
:103A8E00026AD8900136023609C003F00AC004F06B
:103A9E000150032602500422010E0326000E0422BA
:103AAE0003C0F6FF04C0F7FF0800F5CF0BF074EF6C
:103ABE001DF0CF0E0B24F66EF76A3E0EF7220800AD
:103ACE00F5500924016E000E0A20026E01C0F6FFA9
:103ADE0002C0F7FF0800F5CF0BF0530E936E080EE1
:103AEE00946EF00E82122C0E8112808C0BA082EF3F
:103AFE001DF084EF1DF085EF1DF082980BA28AEF6A
:103B0E001DF08CEF1DF08DEF1DF0829A0BA492EF3D
:103B1E001DF094EF1DF095EF1DF0829C0BA69AEF11
:103B2E001DF09CEF1DF09DEF1DF081960BA8A2EFEE
:103B3E001DF0A4EF1DF0A5EF1DF0829E0BAAAAEFBB
:103B4E001DF0ACEF1DF0ADEF1DF0819A0BACB2EF96
:103B5E001DF0B4EF1DF0B5EF1DF0819439A2BAEF50
:103B6E001DF0BCEF1DF0BDEF1DF0809C8286000E97
:103B7E00946E87EF1EF00804D8A4C8EF1DF0CAEFAC
:103B8E001DF087EF1EF0D40E091807E13F0E0A183C
:103B9E00D8A4D4EF1DF0D6EF1DF0EDEF1DF00B50B5
:103BAE00016E026AD8900136023609C003F00AC0CF
:103BBE0004F0015003260250042203C0F6FF04C095
:103BCE00F7FF0800F5CF0BF033EF1EF00A0E0B6077
:103BDE00F3EF1DF0F5EF1DF01DEF1EF004EF1EF0DC
:103BEE00000E0B6E33EF1EF009C0F6FF0AC0F7FF92
:103BFE000800F5CF0BF033EF1EF03850016E026A5D
:103C0E000250000AD8B40EEF1EF0FBEF1DF001506B
:103C1E00030AD8B4F7EF1DF00A0AD8B4F7EF1DF077
:103C2E00030AD8B4F7EF1DF0FBEF1DF06B0E0B245B
:103C3E00F66EF76A3E0EF7220800F5CF0BF00B502A
:103C4E000924016E000E0A20026E01C0F6FF02C0AA
:103C5E00F7FF0800F5CF0BF0530E936E080E946E1F
:103C6E00F00E82122C0E8112808C0B50D8B442EFC3
:103C7E001EF044EF1EF025EF1DF00BA049EF1EF0D5
:103C8E004BEF1EF04CEF1EF082980BA251EF1EF080
:103C9E0053EF1EF054EF1EF0829A0BA459EF1EF054
:103CAE005BEF1EF05CEF1EF0829C0BA661EF1EF028
:103CBE0063EF1EF064EF1EF081960BA869EF1EF005
:103CCE006BEF1EF06CEF1EF0829E0BAA71EF1EF0D2
:103CDE0073EF1EF074EF1EF0819A0BAC79EF1EF0AD
:103CEE007BEF1EF07CEF1EF0819439A681EF1EF063
:103CFE0083EF1EF084EF1EF0809C8188430E936E3E
:103D0E00082A030E08648EEF1EF090EF1EF092EF5D
:103D1E001EF0000E086E08C03AF0120000000102FC
:103D2E00030405060708097F7F7F7F7F7F0A0B0C40
:103D3E000D0E0F101112137F7F7F7F7F7F141516CC
:103D4E001718191A1B1C1D7F7F7F7F7F7F1E1F2058
:103D5E00212223242526277F7F7F7F7F7F28292AE4
:103D6E002B2C2D2E2F30317F7F7F7F7F7F32333470
:103D7E0035363738393A3B7F7F7F7F7F7F3C3D3EFC
:103D8E003F4041424344457F7F7F7F7F7F46474888
:103D9E00494A4B4C4D4E4F7F7F7F7F7F7F50515214
:103DAE00535455565758597F7F7F7F7F7F5A5B5CA0
:103DBE005D5E5F606162637F7F7F7F7F7F00010258
:103DCE00030405060708090000000000000A0B0C9A
:103DDE000D0E0F1011121300000000000014151626
:103DEE001718191A1B1C1D0000000000001E1F20B2
:103DFE002122232425262700000000000028292A3E
:103E0E002B2C2D2E2F3031000000000000323334C9
:103E1E0035363738393A3B0000000000003C3D3E55
:103E2E003F404142434445000000000000464748E1
:103E3E00494A4B4C4D4E4F0000000000005051526D
:103E4E00535455565758590000000000005A5B5CF9
:103E5E005D5E5F60616263000000000000000000B4
:103E6E00000000000000000101010101010101013B
:103E7E000102020202020202020202030303030310
:103E8E0003030303030404040404040404040405E8
:103E9E0005050505050505050506060606060606BD
:103EAE000606060707070707070707070708080894
:103EBE00080808080808080909090909090909096B
:103ECE0009000102030405060708090001020304A4
:103EDE000506070809000102030405060708090084
:103EEE000102030405060708090001020304050682
:103EFE00070809000102030405060708090001026C
:103F0E000304050607080900010203040506070855
:103F1E000900010203040506070809000102030453
:103F2E000506070809000102030405060708091023
:103F3E0011121314151617181920212223242526C1
:103F4E00272829303132333435363738394041421B
:103F5E004344454647484950515253545556575875
:103F6E0059606162636465666768697071727374C3
:103F7E007576777879808182838485868788899023
:103F8E0091929394959697989904040404040404CA
:103F9E0004040401010101010101010101080808E5
:103FAE0008080808080808020202020202020202B9
:103FBE00020808080808080808080801010101019C
:103FCE000101010101046D3E373F313E3E793176EC
:103FDE0071776D7700403F065B4F666D7D077F6F93
:093FEE004040404040402A5400CC
:083FF80080F4D8FFFFF8CFF1BF
:00000001FF
