:020000040000FA
:0400000009EF0FF005
:101D3E001200FFFF0F013F8F3F9B1200CA94000E4F
:101D4E00386E1200550EA76EAA0EA76E0F013F8BAE
:101D5E0012007650FC0B0209766E000E786E7694A9
:101D6E001200CA50FC0B0209CA6E000ECC6ECA9449
:101D7E00000E386E12003F0E7916300E79127982EF
:101D8E00000E7B6E000E7A6E79901200000E896E38
:101D9E00000E8A6E000E8B6E080E856E000E886E1B
:101DAE001200CD503F0B8009CD6ECF0ECD16CD86D5
:101DBE00CD829A9E9E909D90CD901200D59AD59CE4
:101DCE00D550F80B0509D56ED596000ED76E000EC0
:101DDE00D66EF29AF294D59E000E426E120041C05B
:101DEE0001F0080E0118D8A4FFEF0EF001EF0FF06E
:101DFE0005EF0FF0100E416E08EF0FF0CA94000EB3
:101E0E00386E1200400EF66E1D0EF76E000EF86E56
:101E1E000900F5CF47F00900F5CF48F000EE2EF09F
:101E2E00190EEE6AE806FDE1000EF86E0001BAEF3B
:101E3E0012F0000E466E000E456E000E446E000E41
:101E4E00436E000E406E000E3F6E000E3E6E000E94
:101E5E003D6E000E3C6E000E3B6E000E3A6E000E96
:101E6E00396E1200000EB36E900EB26E010EB16E90
:101E7E00270E926E530E936E0C0E946E8096809E6D
:101E8E000F014869170E496FC18EC19CC150C70B17
:101E9E000809C16EC150F80B0209C16E498FC29C70
:101EAE00C29EC250C30B2C09C26EC280270E926E08
:101EBE001200410E026E000E036E02C0D9FF03C067
:101ECE00DAFFDF50D8A46EEF0FF070EF0FF078EF5F
:101EDE000FF002C0D9FF03C0DAFF030EDF6E86EFEC
:101EEE000FF002C0D9FF03C0DAFFDE04D8A482EFE0
:101EFE000FF084EF0FF086EF0FF070EF0FF012007F
:101F0E0041C001F00A0E0118D8A490EF0FF092EF25
:101F1E000FF096EF0FF0090E416EAFEF0FF00B0EB4
:101F2E000118D8A49DEF0FF09FEF0FF0A3EF0FF065
:101F3E000C0E416EAFEF0FF0020E0118D8A4AAEFEF
:101F4E000FF0ACEF0FF0AFEF0FF0CA94000E386E3B
:101F5E0012004450D8A4B6EF0FF0B8EF0FF0E2EF36
:101F6E000FF04350D8A4BEEF0FF0C0EF0FF0E2EF2A
:101F7E000FF041C001F00104D8A4C8EF0FF0CAEF72
:101F8E000FF0CEEF0FF0020E416EE2EF0FF0040EE7
:101F9E000118D8B4D5EF0FF0D7EF0FF0E0EF0FF038
:101FAE00110E0118D8A4DEEF0FF0E0EF0FF0E2EF04
:101FBE000FF00E0E416E1200000E066E000E056E34
:101FCE0003500410D8B4EEEF0FF0F0EF0FF018EF4F
:101FDE0010F0010E076EF8EF0FF0D89003360436AE
:101FEE00072A04AEFDEF0FF0FFEF0FF0F4EF0FF046
:101FFE00D890053606360350015C04500258D8A01E
:10200E000BEF10F00DEF10F012EF10F00350015E19
:10201E000450025A0580D89004320332072EFFEF87
:10202E000FF005C001F006C002F01200270E926EEE
:10203E00000E0E01E76F010EE86F020EE96FC08E03
:10204E000F014D914D934C85F18CF18AF188F186FB
:10205E00F292F288F090F086F092F088F094F08A86
:10206E00F28EF28C80BA3EEF10F040EF10F058EF87
:10207E0010F080B245EF10F047EF10F058EF10F06F
:10208E0081B04CEF10F04EEF10F058EF10F080B022
:10209E0053EF10F055EF10F058EF10F0D39E4D9F08
:1020AE000300120041C001F0100E0118D8A462EF17
:1020BE0010F064EF10F06DEF10F0010E416EA9EC10
:1020CE000EF00F013F8B3F8FA1EC0EF00150D8A404
:1020DE0073EF10F075EF10F079EF10F0010E416E06
:1020EE009AEF10F0030E0118D8B480EF10F082EFC3
:1020FE0010F08BEF10F0090E0118D8A489EF10F034
:10210E008BEF10F08FEF10F00A0E416E9AEF10F079
:10211E000C0E0118D8A496EF10F098EF10F09AEF6D
:10212E0010F00B0E416E12004650D8A4A1EF10F025
:10213E00A3EF10F0F0EF10F04450D8A4A9EF10F078
:10214E00ABEF10F0F0EF10F04350D8A4B1EF10F059
:10215E00B3EF10F0F0EF10F0410E026E000E036EB2
:10216E0002C0D9FF03C0DAFFDF50016E030E011863
:10217E00D8A4C4EF10F0C6EF10F0CEEF10F002C0EE
:10218E00D9FF03C0DAFF050EDF6EF0EF10F0050E7B
:10219E000118D8A4D5EF10F0D7EF10F0DFEF10F044
:1021AE0002C0D9FF03C0DAFF040EDF6EF0EF10F0AD
:1021BE00040E0118D8A4E6EF10F0E8EF10F0F0EFDF
:1021CE0010F002C0D9FF03C0DAFF110EDF6EF0EF80
:1021DE0010F01200410E056E000E066E05C0D9FFFE
:1021EE0006C0DAFFDF50076E0750D8A401EF11F0DA
:1021FE0003EF11F00BEF11F005C0D9FF06C0DAFFA7
:10220E00080EDF6E60EF11F00704D8B411EF11F075
:10221E0013EF11F003EF11F0070E0718D8A41AEF01
:10222E0011F01CEF11F01EEF11F003EF11F0030E81
:10223E000718D8B425EF11F027EF11F042EF11F087
:10224E00040E0718D8B42EEF11F030EF11F042EF54
:10225E0011F0050E0718D8B437EF11F039EF11F061
:10226E0042EF11F00A0E0718D8A440EF11F042EF1A
:10227E0011F060EF11F0010E456448EF11F04AEFD6
:10228E0011F060EF11F0010E466450EF11F052EFB5
:10229E0011F05AEF11F005C0D9FF06C0DAFF0B0E90
:1022AE00DF6E60EF11F005C0D9FF06C0DAFF0C0E2D
:1022BE00DF6EECEC11F01200410E066E000E076E92
:1022CE0006C0D9FF07C0DAFFDF50D8A471EF11F0B6
:1022DE0073EF11F07BEF11F006C0D9FF07C0DAFFE4
:1022EE00070EDF6EE9EF11F006C0D9FF07C0DAFF67
:1022FE00DF50086E030E0818D8B488EF11F08AEF7D
:10230E0011F09CEF11F00A0E0818D8B491EF11F0ED
:10231E0093EF11F09CEF11F0090E0818D8A49AEF64
:10232E0011F09CEF11F0BCEF11F0010E4564A2EF1D
:10233E0011F0A4EF11F0E9EF11F0010E4664AAEFCF
:10234E0011F0ACEF11F0B4EF11F006C0D9FF07C0D9
:10235E00DAFF0A0EDF6EE9EF11F006C0D9FF07C0F3
:10236E00DAFF090EDF6EE9EF11F00804D8B4C2EF00
:10237E0011F0C4EF11F073EF11F0080E0818D8B475
:10238E00CBEF11F0CDEF11F073EF11F00D0E081829
:10239E00D8A4D4EF11F0D6EF11F0D8EF11F073EFFF
:1023AE0011F0040E0818D8A4DFEF11F0E1EF11F0D0
:1023BE00E9EF11F006C0D9FF07C0DAFF0B0EDF6E92
:1023CE00E9EF11F01FEC15F0120041C002F0080EFB
:1023DE000218D8A4F5EF11F0F7EF11F024EF12F078
:1023EE00A9EC0EF00F013F8B3F9FFC0E3F1799CFCC
:1023FE0004F0D90E0424F66EF76A3D0EF72208009B
:10240E00F5CF01F00128036E3B0E036411EF12F0BD
:10241E0013EF12F015EF12F0000E036E410E0324AF
:10242E00F66EF76A3F0EF7220800F5CF04F004C0EF
:10243E0099FF000E986EB9EF12F00B0E0218D8A489
:10244E002BEF12F02DEF12F05BEF12F0A9EC0EF065
:10245E000F013F8B3F9F030E3F1398CF04F0D90E11
:10246E000424F66EF76A3D0EF7220800F5CF01F050
:10247E000128036E630E036447EF12F049EF12F06A
:10248E004BEF12F0000E036E410E0324F66EF76A48
:10249E003F0EF7220800F5CF04F004C098FF3F8FDF
:1024AE00A1EC0EF0B9EF12F00C0E0218D8A462EFE8
:1024BE0012F064EF12F083EF12F0A9EC0EF00F01A0
:1024CE003F8B3F9F3F813F9399CF04F004C001F0B3
:1024DE00070E01160128036E060E036479EF12F043
:1024EE007BEF12F07DEF12F0000E036E3F8103C002
:1024FE0099FF3F8F57EF12F00E0E0218D8A48AEFF5
:10250E0012F08CEF12F0B9EF12F0A9EC0EF00F01F1
:10251E003F8B3F9F3ECF04F004AE98EF12F09AEF40
:10252E0012F0AAEF12F0FD0E0464A0EF12F0A2EF6B
:10253E0012F0A6EF12F0000E046EB4EF12F0020EBF
:10254E000426B4EF12F07D0E0464B0EF12F0B2EF79
:10255E0012F0A6EF12F0820E046E04C03EFF3F8F03
:10256E0057EF12F01200CDEC0EF039EC0FF0E5EC57
:10257E000EF0D8EC0EF0B8EC0EF0C2EC0EF0B0ECA3
:10258E000EF0C8EC13F020EC0FF0C0A6D1EF12F055
:10259E00D3EF12F0D8EF12F0C0960F014C91DFEF8F
:1025AE0012F0000ECC6ECA84010E386E010E416E12
:1025BE00F28EF28CF18CF18AF188F186F18E000E9A
:1025CE00376E000E366E000E346E000E356E000E37
:1025DE002D6E010E2C6E000E2B6EA1EC16F02A6ED7
:1025EE003850D8B4FDEF12F0FFEF12F05AEF13F09F
:1025FE009F0ECC6405EF13F007EF13F04CEF13F0C2
:10260E00000ECC6E2C4A2D2A5E0E2C5C010E2D581F
:10261E00D8A014EF13F016EF13F04CEF13F0465052
:10262E00D8A41CEF13F01EEF13F048EF13F0455033
:10263E00D8A424EF13F026EF13F048EF13F0445014
:10264E00D8A42CEF13F02EEF13F048EF13F04350F5
:10265E00D8A434EF13F036EF13F048EF13F0100E4A
:10266E004118D8B43DEF13F03FEF13F048EF13F0DD
:10267E00CA94000E2D6E000E2C6E000E386E4CEFAE
:10268E0013F0000E2D6E640E2C6E2C502D10D8A44F
:10269E0053EF13F056EF13F0010E57EF13F0000E39
:1026AE002A125EEF13F0000E2D6E010E2C6E2A50C4
:1026BE00D8B464EF13F066EF13F076EF13F0030E59
:1026CE002B18D8A46DEF13F06FEF13F073EF13F018
:1026DE00000E2B6EFFEC19F02B2AF4EF12F0530EB6
:1026EE00936E0C0E946E000E826E010E8116270EE6
:1026FE008016A9EC0EF00F013F8B3F8F000E416E3E
:10270E0020EC0FF0000E426E000E386E000E316E91
:10271E00000E306E000E376ED59ECA940F013FB973
:10272E009BEF13F09DEF13F095EF13F03F9BA1EC91
:10273E000EF0F292F288F090F086F092F088F0941B
:10274E00F08AF294F18CF18AF188F1869E90A49031
:10275E00F28EF28CC2901DEC10F0000E2D6E010E5A
:10276E002C6E000E2B6E000E346E000E366E000EAA
:10277E00356ECDEC0EF039EC0FF0F4EF12F000EFF9
:10278E0000F00F013FB9CEEF13F0D0EF13F0C8EF0A
:10279E0013F0A9EC0EF00F013F8B3F9F3FB9DAEF1C
:1027AE0013F0DCEF13F0D5EF13F0000E016E030EF5
:1027BE003F1398CF02F0390E0224F66EF76A3D0EE3
:1027CE00F7220800F5CF03F0630E0364F1EF13F068
:1027DE00F3EF13F0F5EF13F0010E016E995098CF51
:1027EE0002F0390E0224F66EF76A3D0EF72208004B
:1027FE00F5CF03F01F0E036407EF14F009EF14F08A
:10280E000BEF14F0010E016E99CF02F0390E022477
:10281E00F66EF76A3D0EF7220800F5CF03F003506F
:10282E00D8B41CEF14F01EEF14F026EF14F00C0EBB
:10283E00036424EF14F026EF14F028EF14F0010EC9
:10284E00016E98CF02F0390E0224F66EF76A3D0E35
:10285E00F7220800F5CF03F0170E036439EF14F0DA
:10286E003BEF14F03DEF14F0010E016E99CF02F024
:10287E00390E0224F66EF76A3D0EF7220800F5CFE8
:10288E0003F0060E03644EEF14F050EF14F052EF07
:10289E0014F0010E016E98CF02F0390E0224F66E7E
:1028AE00F76A3D0EF7220800F5CF03F03B0E0364E6
:1028BE0063EF14F065EF14F067EF14F0010E016E84
:1028CE0099CF02F0390E0224F66EF76A3D0EF7220A
:1028DE000800F5CF03F03B0E036478EF14F07AEFA7
:1028EE0014F07CEF14F0010E016E0150D8B482EF9B
:1028FE0014F084EF14F0B1EF14F03FB989EF14F037
:10290E008BEF14F084EF14F0030E3F13560EF66E99
:10291E003F0EF76E0800F5CF98FF9950010E986E96
:10292E00010E996E000E986E030E996E000E986E43
:10293E00000E996E91909182010E8E6E010E8F6E29
:10294E00000E8E6E010E8F6E000E8E6E000E8F6E4E
:10295E0002EF15F0000E016E918091928ECF02F073
:10296E00390E0224F66EF76A3D0EF7220800F5CFF7
:10297E0003F0170E0364C6EF14F0C8EF14F0CAEF9D
:10298E0014F0010E016E8F508FCF02F0390E02241B
:10299E00F66EF76A3D0EF7220800F5CF03F03B0EF8
:1029AE000364DCEF14F0DEEF14F0E0EF14F0010E30
:1029BE00016E0150D8B4E6EF14F0E8EF14F0F8EF22
:1029CE0014F091909182010E8E6E010E8F6E000E9C
:1029DE008E6E010E8F6E000E8E6E000E8F6E02EFDB
:1029EE0015F091909182010E8E6E010E8F6E010E7A
:1029FE008F6E000E8E6E3FB907EF15F009EF15F0D2
:102A0E0002EF15F03F913F93919C9150C30B180923
:102A1E00916E919E000E906EA3903F8F3FB91AEF6C
:102A2E0015F01CEF15F015EF15F0A1EC0EF01200DD
:102A3E0041C002F0070E0218D8A428EF15F02AEFB5
:102A4E0015F058EF15F0A9EC0EF00F013F8B3F9FDC
:102A5E003F813F9398CF04F0D90E0424F66EF76AA7
:102A6E003D0EF7220800F5CF01F00128056E170E76
:102A7E00056444EF15F046EF15F048EF15F0000E23
:102A8E00056E410E0524F66EF76A3F0EF72208001A
:102A9E00F5CF04F004C098FF3F8FA1EC0EF0A0EF2D
:102AAE0016F0090E0218D8A45FEF15F061EF15F0BD
:102ABE008FEF15F0A9EC0EF00F013F8B3F9F3F916A
:102ACE003F8399CF04F0D90E0424F66EF76A3D0EBB
:102ADE00F7220800F5CF01F00128056E0C0E0564F3
:102AEE007BEF15F07DEF15F07FEF15F0010E056E03
:102AFE003F913F83410E0524F66EF76A3F0EF72293
:102B0E000800F5CF04F004C099FF3F8F54EF15F085
:102B1E000A0E0218D8A496EF15F098EF15F06BEF89
:102B2E0016F0A9EC0EF00F013F8B3F9F010E036EC6
:102B3E003F813F9398CF04F0D90E0424F66EF76AC6
:102B4E003D0EF7220800F5CF05F00C0E0560B2EF32
:102B5E0015F0B4EF15F0C5EF15F00C0E0526410E6D
:102B6E000524F66EF76A3F0EF7220800F5CF04F043
:102B7E0004C098FF000E036ED2EF15F00C0E055E2A
:102B8E00410E0524F66EF76A3F0EF7220800F5CFC8
:102B9E0004F004C098FF0350D8B4D8EF15F0DAEF64
:102BAE0015F068EF16F03F913F8398CF04F0D90EE1
:102BBE000424F66EF76A3D0EF7220800F5CF01F0F9
:102BCE000128056E99CF04F0D90E0424F66EF76A2B
:102BDE003D0EF7220800F5CF03F0020E0318D8A41D
:102BEE00FBEF15F0FDEF15F009EF16F01D0E056465
:102BFE0003EF16F005EF16F05BEF16F0010E056E03
:102C0E005BEF16F00304D8B40FEF16F011EF16F0C9
:102C1E0047EF16F0030E0318D8B418EF16F01AEF9C
:102C2E0016F047EF16F0050E0318D8B421EF16F084
:102C3E0023EF16F047EF16F0070E0318D8B42AEF5D
:102C4E0016F02CEF16F047EF16F0080E0318D8B456
:102C5E0033EF16F035EF16F047EF16F00A0E0318A5
:102C6E00D8B43CEF16F03EEF16F047EF16F00C0E10
:102C7E000318D8A445EF16F047EF16F051EF16F0F3
:102C8E001F0E05644DEF16F04FEF16F05BEF16F0CA
:102C9E0005EF16F01E0E056457EF16F059EF16F0FD
:102CAE005BEF16F005EF16F03F913F83410E0524C2
:102CBE00F66EF76A3F0EF7220800F5CF04F004C057
:102CCE0098FF3F8F54EF15F00B0E0218D8A472EF39
:102CDE0016F074EF16F0A0EF16F0A9EC0EF00F013F
:102CEE003F8B3F9F030E3F1398CF04F0D90E042461
:102CFE00F66EF76A3D0EF7220800F5CF01F00128B7
:102D0E00056E630E05648EEF16F090EF16F092EFDF
:102D1E0016F0000E056E410E0524F66EF76A3F0E94
:102D2E00F7220800F5CF04F004C098FF3F8F54EF50
:102D3E0015F01200000E236E000E1C6E420E246E55
:102D4E00000E256E13EF17F0450E286E000E296E3D
:102D5E003D0E266E000E276E000E80B2010E196E0D
:102D6E00C00E1A6E1E0E1B6E360E1D6E210E1E6EC0
:102D7E003E0E1F6E1D0E206E2CEF17F0440E286EA9
:102D8E00000E296E3B0E266E000E276E000E81B0D1
:102D9E00010E196EC60E1A6E220E1B6E3E0E1D6EA3
:102DAE002A0E1E6E4A0E1F6E1D0E206E2CEF17F091
:102DBE00430E286E000E296E390E266E000E276EFB
:102DCE00000E80B0010E196EE20E1A6E210E1B6EF1
:102DDE00D80E1D6E230E1E6EEC0E1F6E1D0E206E77
:102DEE002CEF17F0460E286E000E296E3F0E266E43
:102DFE00000E276E000E80BA010E196EB20E1A6EFC
:102E0E00200E1B6E600E1D6E1F0E1E6E0E0E1F6EA2
:102E1E001F0E206E2CEF17F02350096E0A6A0A500F
:102E2E00000AD8B41DEF17F0F9EF16F00950010A99
:102E3E00D8B4ABEF16F0030AD8B4C5EF16F0010AFA
:102E4E00D8B4DFEF16F0F9EF16F01950D8B432EF10
:102E5E0017F034EF17F0CFEF19F0A8EF18F028C0E5
:102E6E00D9FF29C0DAFF010EDF6E24C0D9FF25C0BD
:102E7E00DAFFDF50D8A446EF17F048EF17F057EF00
:102E8E0017F0000ED76E000ED66ED58E26C0D9FF67
:102E9E0027C0DAFF000EDE6E000EDD6E6DEF17F04E
:102EAE00D6CF0FF0D7CF10F010500A6E096A0F5020
:102EBE000B6E0C6A09500B120A500C1226C0D9FF69
:102ECE0027C0DAFF0BC0DEFF0CC0DDFF23C009F008
:102EDE00010E0A6E092A76EF17F0D8900A36092EDF
:102EEE0074EF17F024C0D9FF25C0DAFF0A50DF12A5
:102EFE00010E1C6EF4EF19F0D6CF11F0D7CF12F0F1
:102F0E0012500A6E096A11500B6E0C6A09500B10A2
:102F1E00216E0A500C10226E26C0D9FF27C0DAFF90
:102F2E00DECF09F0DDCF0AF021C00BF022C00CF08D
:102F3E0009500B5E0A500C5A010E0B24BA0E0C20CF
:102F4E00800BD8A4ADEF17F0AFEF17F0DAEF17F054
:102F5E0028C0D9FF29C0DAFF030EDF6E26C0D9FFC5
:102F6E0027C0DAFF21C0DEFF22C0DDFF1D501E107C
:102F7E00D8B4C4EF17F0C6EF17F0D3EF17F002D89E
:102F8E00D3EF17F00500FA6E1D50FD6E1E50FE6E4B
:102F9E00F850FF6EFA501200010E386E000ECC6E15
:102FAE00CA847FEF17F026C0D9FF27C0DAFFDECF25
:102FBE0009F0DDCF0AF021C00BF022C00CF0095051
:102FCE000B5E0A500C5A000E0B24FC0E0C20800BCC
:102FDE00D8A4F4EF17F0F6EF17F07FEF17F028C034
:102FEE00D9FF29C0DAFF020EDE18D8B401EF18F0AF
:102FFE0003EF18F07FEF17F028C0D9FF29C0DAFFD2
:10300E00020EDF6E1A501B10D8B410EF18F012EF2C
:10301E0018F01FEF18F002D81FEF18F00500FA6E27
:10302E001A50FD6E1B50FE6EF850FF6EFA501200D5
:10303E00010E386E000ECC6ECA847FEF17F0D6CF1D
:10304E0013F0D7CF14F014500A6E096A13500B6E9A
:10305E000C6A09500B10216E0A500C10226E300EA5
:10306E000E6E000E0D6E47EF18F0450E0E6E0D68CB
:10307E0064EF18F0200E0E6E000E0D6E64EF18F059
:10308E002350096E0A6A0A50000AD8B451EF18F09C
:10309E0064EF18F00950000AD8B464EF18F0010A72
:1030AE00D8B43CEF18F0030AD8B441EF18F0010A77
:1030BE00D8B441EF18F064EF18F026C0D9FF27C03E
:1030CE00DAFFDECF09F0DDCF0AF0091E0A1E094A2B
:1030DE000A2A0D50095E0E500A5A21500924225018
:1030EE000A20800BD8A47EEF18F080EF18F07FEF47
:1030FE0017F026C0D9FF27C0DAFF21C0DEFF22C09D
:10310E00DDFF1D501E10D8B48FEF18F091EF18F0A0
:10311E007FEF17F002D89EEF18F00500FA6E1D50E3
:10312E00FD6E1E50FE6EF850FF6EFA5012007FEFCD
:10313E0017F028C0D9FF29C0DAFF030EDF6E7FEF2C
:10314E0017F028C0D9FF29C0DAFFDF50096E0A6ACE
:10315E000A50000AD8B4B6EF18F0F4EF19F009507F
:10316E00000AD8B436EF17F0010AD8B483EF17F07F
:10317E00030AD8B483EF17F0010AD8B426EF18F07B
:10318E00070AD8B4A0EF18F0F4EF19F028C0D9FF51
:10319E0029C0DAFF000EDF6E23C009F0010E0A6EA1
:1031AE00092ADCEF18F0D8900A36092EDAEF18F05B
:1031BE000A50FF0A0B6E24C0D9FF25C0DAFF0B5050
:1031CE00DF1624C0D9FF25C0DAFFDF50D8A4F2EFF6
:1031DE0018F0F4EF18F07FEF17F0D59EF4EF19F01A
:1031EE0028C0D9FF29C0DAFF000EDF6E23C009F018
:1031FE00010E0A6E092A06EF19F0D8900A36092E2A
:10320E0004EF19F00A50FF0A0B6E24C0D9FF25C037
:10321E00DAFF0B50DF1624C0D9FF25C0DAFFDF50CE
:10322E00D8A41CEF19F01EEF19F021EF19F0D59E5E
:10323E0023EF19F0010E1C6E1F502010D8B42AEF88
:10324E0019F02CEF19F0F4EF19F002D839EF19F04C
:10325E000500FA6E1F50FD6E2050FE6EF850FF6E88
:10326E00FA501200F4EF19F028C0D9FF29C0DAFF86
:10327E00040EDF6E24C0D9FF25C0DAFFDF50D8A4BC
:10328E004BEF19F04DEF19F054EF19F0000ED76E09
:10329E00000ED66ED58E4DEF17F0D6CF15F0D7CFD8
:1032AE0016F016500A6E096A15500B6E0C6A09500C
:1032BE000B120A500C1226C0D9FF27C0DAFF0BC022
:1032CE00DEFF0CC0DDFF6DEF17F0D6CF17F0D7CFB6
:1032DE0018F018500A6E096A17500B6E0C6A0950D6
:1032EE000B10216E0A500C10226E26C0D9FF27C07B
:1032FE00DAFFDECF09F0DDCF0AF021C00BF022C0DD
:10330E000CF009500B5E0A500C5A000E0B24FC0EEA
:10331E000C20800BD8A496EF19F098EF19F07FEFE0
:10332E0017F023C009F0010E0A6E092AA1EF19F059
:10333E00D8900A36092E9FEF19F00A50FF0A0B6E2D
:10334E0024C0D9FF25C0DAFF0B50DF1624C0D9FFE9
:10335E0025C0DAFFDF50D8A4B7EF19F0B9EF19F096
:10336E00BCEF19F0D59EBEEF19F0010E1C6E28C0F1
:10337E00D9FF29C0DAFF000EDF6E1F502010D8B41F
:10338E00CBEF19F0CDEF19F0F4EF19F02CEF19F097
:10339E0028C0D9FF29C0DAFFDF50096E0A6A0A5029
:1033AE00000AD8B4DDEF19F0F4EF19F00950000A55
:1033BE00D8B4F4EF19F0010AD8B4CDEF18F0030A1F
:1033CE00D8B4F7EF18F0010AD8B43BEF19F0070A9A
:1033DE00D8B46CEF19F0F4EF19F0232A030E23641E
:1033EE00FBEF19F0FDEF19F013EF17F01C50120060
:1033FE0037C016F03450D8B407EF1AF009EF1AF0B0
:10340E000CEF1AF0340699EF1EF01650D8A412EFF6
:10341E001AF014EF1AF0C7EF1AF03650D8B41AEFAC
:10342E001AF01CEF1AF034EF1AF0360635C010F011
:10343E0010C034F01050D8B427EF1AF029EF1AF05C
:10344E00D1EF1AF01668530E936E0C0E946E000E9A
:10345E00826E010E8116D1EF1AF0640E366E530E87
:10346E00936E0C0E946E000E826E010E8116808C81
:10347E00B38EB290B292B382000E0D6E000E0C6E31
:10348E000C4A0D2A0DBE55EF1AF00D5009E1320E01
:10349E000C5CD8A055EF1AF057EF1AF047EF1AF060
:1034AE00B392B280000E0F6E000E0E6E0E4A0F2AF1
:1034BE000FBE6BEF1AF00F5009E1320E0E5CD8A062
:1034CE006BEF1AF06DEF1AF05DEF1AF0B2909E9C52
:1034DE00C282C2B275EF1AF077EF1AF070EF1AF0DF
:1034EE00C3CF12F0C4CF13F09E9C809C12C030F05C
:1034FE0013C031F012501310D8B488EF1AF08AEFBF
:10350E001AF0BFEF1AF0135009E1810E125CD8A029
:10351E0093EF1AF095EF1AF09BEF1AF0000E136E60
:10352E00000E126EAFEF1AF012C008F013C009F0C1
:10353E00060E0A6ED890093208320A2EA1EF1AF042
:10354E0008500208126E0950D8A0E82A0008136E1F
:10355E0012C034F012C035F012501310D8B4BAEFB6
:10356E001AF0BCEF1AF0C5EF1AF01668D1EF1AF088
:10357E00000E346E000E356ED1EF1AF0D1EF1AF048
:10358E001628D8A4CDEF1AF0CFEF1AF0D1EF1AF01B
:10359E00000E166E1628D8B4D7EF1AF0D9EF1AF01F
:1035AE0099EF1EF01650D8A4DFEF1AF0E1EF1AF0E3
:1035BE0059EF1CF048684768000E336E41C011F099
:1035CE0011C032F0E7EF1BF0070E476E34EF1CF020
:1035DE000F013F813F9398CF17F0D90E1724F66E47
:1035EE00F76A3D0EF7220800F5CF48F0170E486433
:1035FE0003EF1BF005EF1BF007EF1BF0000E486EFC
:10360E00BD0E4824F66EF76A3F0EF7220800F5CF7E
:10361E0048F099CF17F099CF17F0D90E1724F66E00
:10362E00F76A3D0EF7220800F5CF47F03B0E4764D0
:10363E0023EF1BF025EF1BF027EF1BF0000E476E5C
:10364E00030E336E34EF1CF0FC0E0F013F1748686B
:10365E0098CF17F0D90E1724F66EF76A3D0EF722A3
:10366E000800F5CF47F03B0E476440EF1BF042EFEA
:10367E001BF034EF1CF0000E476E34EF1CF03ECF03
:10368E0017F017AE4DEF1BF04FEF1BF056EF1BF080
:10369E00800E486EFF0E171A172A57EF1BF0486858
:1036AE00D8901730476E34EF1CF030C001F031C0A7
:1036BE0002F0000E046E640E036EE3EC0FF0015088
:1036CE00476E486834EF1CF00F013F913F8398CF4F
:1036DE0017F0D90E1724F66EF76A3D0EF722080082
:1036EE00F5CF47F01F0E47647FEF1BF081EF1BF005
:1036FE0083EF1BF0010E476E99CF17F0D90E1724EA
:10370E00F66EF76A3D0EF7220800F5CF48F00C0E64
:10371E00486494EF1BF096EF1BF098EF1BF0010E30
:10372E00486E3F813F9398CF17F0D90E1724F66E4F
:10373E00F76A3D0EF7220800F5CF17F0170E176443
:10374E00ABEF1BF0ADEF1BF0AFEF1BF0000E176EE3
:10375E00A50E1724F66EF76A3F0EF7220800F5CF76
:10376E0033F034EF1CF0030E0F013F1398CF17F018
:10377E00D90E1724F66EF76A3D0EF7220800F5CF24
:10378E0047F0630E4764CEEF1BF0D0EF1BF068EFEF
:10379E001BF0000E476E68EF1BF00F013F813F9349
:1037AE0099CF17F0060E1764DFEF1BF0E1EF1BF059
:1037BE00E3EF1BF0000E176E17C047F034EF1CF04E
:1037CE001150086E096A0950000AD8B4F1EF1BF0C7
:1037DE0034EF1CF00850000AD8B434EF1CF0010A84
:1037EE00D8B4EFEF1AF0030AD8B42BEF1BF0010A8E
:1037FE00D8B46BEF1BF0070AD8B4BAEF1BF0010A6E
:10380E00D8B4D4EF1BF0020AD8B4EFEF1AF00F0AB7
:10381E00D8B4EFEF1AF0010AD8B46BEF1BF0030A1D
:10382E00D8B46BEF1BF0010AD8B4BAEF1BF0070A3D
:10383E00D8B4D4EF1BF0010AD8B42BEF1BF0030A57
:10384E00D8B446EF1BF01E0AD8B4EBEF1AF0010AFB
:10385E00D8B45CEF1BF034EF1CF0050E1118D8B481
:10386E003BEF1CF03DEF1CF055EF1CF00C0E111849
:10387E00D8B444EF1CF046EF1CF055EF1CF0100EC0
:10388E001118D8B44DEF1CF04FEF1CF055EF1CF093
:10389E00E70E2E6E3F0E2F6E59EF1CF0D70E2E6ECA
:1038AE003F0E2F6E2EC014F02FC015F0010E1664B1
:1038BE0063EF1CF065EF1CF040EF1DF048C017F0F1
:1038CE001728D8B46DEF1CF06FEF1CF034EF1DF01D
:1038DE00020E1618D8A476EF1CF078EF1CF0E9EF64
:1038EE001CF0800E1718D8A47FEF1CF081EF1CF08F
:1038FE0090EF1CF00A0E1424086E000E1520096EAF
:10390E0008C0F6FF09C0F7FF0800F5CF17F0A4EFC7
:10391E001CF0DD0E1724F66EF76A3E0EF722080035
:10392E00F5501424086E000E1520096E08C0F6FF1F
:10393E0009C0F7FF0800F5CF17F0530E936E0C0E6B
:10394E00946E000E826E010E811617A0B1EF1CF060
:10395E00B3EF1CF0B4EF1CF0828817A2B9EF1CF085
:10396E00BBEF1CF0BCEF1CF0828A17A4C1EF1CF059
:10397E00C3EF1CF0C4EF1CF0828C17A6C9EF1CF02D
:10398E00CBEF1CF0CCEF1CF0818617A8D1EF1CF00A
:10399E00D3EF1CF0D4EF1CF0828E17AAD9EF1CF0D7
:1039AE00DBEF1CF0DCEF1CF0818A17ACE1EF1CF0B2
:1039BE00E3EF1CF0E4EF1CF081848192510E936EC4
:1039CE008EEF1EF0030E1618D8A4F0EF1CF0F2EFD7
:1039DE001CF03EEF1DF0530E936E0C0E946E000E07
:1039EE00826E010E8116090E176400EF1DF002EFB4
:1039FE001DF00CEF1DF00D0E176008EF1DF00AEF15
:103A0E001DF00CEF1DF08288818633B011EF1DF092
:103A1E0015EF1DF0086A082A16EF1DF0086A083A1D
:103A2E00084682500818DF0B0818826E33B222EF58
:103A3E001DF026EF1DF0086A082A27EF1DF0086A10
:103A4E00083A0846084682500818BF0B0818826EBE
:103A5E00819C130E936E8EEF1EF0530E936E0C0E12
:103A6E00946E000E826E010E81168EEF1EF08EEF9A
:103A7E001EF047C017F01728D8B448EF1DF04AEFD4
:103A8E001DF034EF1DF01650D8A450EF1DF052EF7C
:103A9E001DF0D2EF1DF0D70E141807E13F0E1518CA
:103AAE00D8A45CEF1DF05EEF1DF079EF1DF01750FE
:103ABE00086E096AD8900836093614C00AF015C087
:103ACE000BF008500A2609500B22010E0A26000E92
:103ADE000B220AC0F6FF0BC0F7FF0800F5CF17F058
:103AEE008DEF1DF0DD0E1724F66EF76A3E0EF722EF
:103AFE000800F5501424086E000E1520096E08C03B
:103B0E00F6FF09C0F7FF0800F5CF17F0530E936EBE
:103B1E000C0E946E000E826E010E811617A09AEF97
:103B2E001DF09CEF1DF09DEF1DF0828817A2A2EFF5
:103B3E001DF0A4EF1DF0A5EF1DF0828A17A4AAEFC9
:103B4E001DF0ACEF1DF0ADEF1DF0828C17A6B2EF9D
:103B5E001DF0B4EF1DF0B5EF1DF0818617A8BAEF7A
:103B6E001DF0BCEF1DF0BDEF1DF0828E17AAC2EF47
:103B7E001DF0C4EF1DF0C5EF1DF0818A17ACCAEF22
:103B8E001DF0CCEF1DF0CDEF1DF081848296040E5A
:103B9E00946E8EEF1EF01604D8A4D8EF1DF0DAEF57
:103BAE001DF08EEF1EF0D70E141807E13F0E1518FC
:103BBE00D8A4E4EF1DF0E6EF1DF0FDEF1DF0175059
:103BCE00086E096AD8900836093614C00AF015C076
:103BDE000BF008500A2609500B220AC0F6FF0BC044
:103BEE00F7FF0800F5CF17F043EF1EF00A0E17602F
:103BFE0003EF1EF005EF1EF02DEF1EF014EF1EF07A
:103C0E00000E176E43EF1EF014C0F6FF15C0F7FF3F
:103C1E000800F5CF17F043EF1EF03250086E096A18
:103C2E000950000AD8B41EEF1EF00BEF1EF008501C
:103C3E00030AD8B407EF1EF00A0AD8B407EF1EF035
:103C4E00030AD8B407EF1EF00BEF1EF0790E1724FF
:103C5E00F66EF76A3E0EF7220800F5CF17F01750F2
:103C6E001424086E000E1520096E08C0F6FF09C058
:103C7E00F7FF0800F5CF17F0530E936E0C0E946EEF
:103C8E00000E826E010E81161750D8B451EF1EF041
:103C9E0053EF1EF03EEF1DF017A058EF1EF05AEF37
:103CAE001EF05BEF1EF0828817A260EF1EF062EF2F
:103CBE001EF063EF1EF0828A17A468EF1EF06AEF03
:103CCE001EF06BEF1EF0828C17A670EF1EF072EFD7
:103CDE001EF073EF1EF0818617A878EF1EF07AEFB4
:103CEE001EF07BEF1EF0828E17AA80EF1EF082EF81
:103CFE001EF083EF1EF0818A17AC88EF1EF08AEF5C
:103D0E001EF08BEF1EF081848198430E936E162A5F
:103D1E00030E166495EF1EF097EF1EF099EF1EF04E
:103D2E00000E166E16C037F01200000001020304DA
:103D3E0005060708097F7F7F7F7F7F0A0B0C0D0E1C
:103D4E000F101112137F7F7F7F7F7F1415161718A8
:103D5E00191A1B1C1D7F7F7F7F7F7F1E1F20212234
:103D6E0023242526277F7F7F7F7F7F28292A2B2CC0
:103D7E002D2E2F30317F7F7F7F7F7F32333435364C
:103D8E003738393A3B7F7F7F7F7F7F3C3D3E3F40D8
:103D9E0041424344457F7F7F7F7F7F464748494A64
:103DAE004B4C4D4E4F7F7F7F7F7F7F5051525354F0
:103DBE0055565758597F7F7F7F7F7F5A5B5C5D5E7C
:103DCE005F606162637F7F7F7F7F7F0001020304FC
:103DDE0005060708090000000000000A0B0C0D0E76
:103DEE000F10111213000000000000141516171802
:103DFE00191A1B1C1D0000000000001E1F2021228E
:103E0E00232425262700000000000028292A2B2C19
:103E1E002D2E2F30310000000000003233343536A5
:103E2E003738393A3B0000000000003C3D3E3F4031
:103E3E004142434445000000000000464748494ABD
:103E4E004B4C4D4E4F000000000000505152535449
:103E5E0055565758590000000000005A5B5C5D5ED5
:103E6E005F6061626300000000000000000000005F
:103E7E000000000000010101010101010101010228
:103E8E0002020202020202020203030303030303FD
:103E9E0003030304040404040404040404050505D4
:103EAE0005050505050505060606060606060606AB
:103EBE000607070707070707070707080808080880
:103ECE000808080808090909090909090909090062
:103EDE000102030405060708090001020304050692
:103EEE00070809000102030405060708090001027C
:103EFE000304050607080900010203040506070866
:103F0E000900010203040506070809000102030463
:103F1E000506070809000102030405060708090043
:103F2E000102030405060708090001020304050641
:103F3E0007080900010203040506070809101112FB
:103F4E001314151617181920212223242526272885
:103F5E0029303132333435363738394041424344D3
:103F6E004546474849505152535455565758596033
:103F7E006162636465666768697071727374757681
:103F8E0077787980818283848586878889909192DB
:103F9E0093949596979899010101010101010101F0
:103FAE000101010202020202020202020202020CDC
:103FBE000102030405060708090A0B0C010203049B
:103FCE0005060708090A0B2A546D3E373F313E3E5F
:103FDE0079317671776D7700403F065B4F666D7D68
:0A3FEE00077F6F4040404040400054
:083FF80080F4D8FFFFF8CFF1BF
:00000001FF
