:020000040000FA
:0400000009EF14F000
:10274A001200FFFF0F013F8F3F9B1200CA94000E39
:10275A00346E1200550EA76EAA0EA76E0F013F8B9C
:10276A0012007650FC0B0209766E000E786E769493
:10277A001200CA50FC0B0209CA6E000ECC6ECA9433
:10278A00000E346E12003F0E7916300E79127982DD
:10279A00000E7B6E000E7A6E79901200000E896E22
:1027AA00000E8A6E000E8B6E080E856E000E886E05
:1027BA001200CD503F0B8009CD6ECF0ECD16CD86BF
:1027CA00CD829A9E9E909D90CD9012003EC001F0BF
:1027DA00080E0118D8A403D0100E3E6E1200CA9437
:1027EA00000E346E1200D59AD59CD550F80B050907
:1027FA00D56ED596000ED76E000ED66EF29AF2946A
:10280A00D59E000E3F6E12004C0EF66E270EF76E26
:10281A00000EF86E0900F5CF44F00900F5CF45F037
:10282A0000EE29F01B0EEE6AE806FDE1000EF86ED6
:10283A00000128EF16F03EC001F00A0E0118D8A4D4
:10284A0003D0090E3E6E12000B0E0118D8A403D055
:10285A000C0E3E6E1200020E0118D8A41200CA9481
:10286A00000E346E12003EC001F04150D8A412008E
:10287A004050D8A412000104D8A403D0020E3E6E20
:10288A001200040E0118D8B404D0110E0118D8A4ED
:10289A0012000E0E3E6E12003E0E026E0250D96EED
:1028AA00DA6ADF50D8A40AD0000E2C6E010E2B6E05
:1028BA000250D96EDA6A030EDF6E12000250D96E28
:1028CA00DA6ADE04D8A41200F3D7000E436E000EB3
:1028DA00426E000E416E000E406E000E3D6E000EFE
:1028EA003C6E000E3B6E000E3A6E000E396E000E04
:1028FA00386E000E376E000E366E12003EC001F0C2
:10290A004350D8A412004150D8A412004050D8A471
:10291A001200030E0118D8A403D0050E3E6E120051
:10292A00050E0118D8A403D0040E3E6E1200040E40
:10293A000118D8A41200110E3E6E1200000EB36EDA
:10294A00900EB26E010EB16E270E926E530E936EFA
:10295A000C0E946E8096809E0F014869170E496F7F
:10296A00C18EC19CC150C70B0809C16EC150F80B7A
:10297A000209C16E498FC29CC29EC250C30B2C0968
:10298A00C26EC280270E926E1200270E926E000E41
:10299A000E01E76F010EE86F020EE96FC08E0F019C
:1029AA004D914D934C85F18CF18AF188F186F29222
:1029BA00F288F090F086F092F088F094F08AF28E25
:1029CA00F28C80BA120080B2120081B0120080B07C
:1029DA001200D39E4D9F030012003EC001F0100E5C
:1029EA000118D8A408D0010E3E6EAFEC13F03F8B4D
:1029FA003F8FA7EC13F00150D8A407D0000E2C6E1D
:102A0A00010E2B6E010E3E6E1200030E0118D8B491
:102A1A0004D0090E0118D8A403D00A0E3E6E120083
:102A2A000C0E0118D8A412000B0E3E6E12003E0EB8
:102A3A00056E0550D96EDA6ADF50066E0650D8A4C4
:102A4A0005D00550D96EDA6A080E26D00604D8B425
:102A5A00F8D7070E0618D8B4F4D7030E0618D8B458
:102A6A000CD0040E0618D8B408D0050E0618D8B42F
:102A7A0004D00A0E0618D8A410D0010E42640DD054
:102A8A00010E436405D00550D96EDA6A0B0E04D0E4
:102A9A000550D96EDA6A0C0EDF6E9AEC15F0120048
:102AAA003E0E066E0650D96EDA6ADF50D8A405D0FB
:102ABA000650D96EDA6A070E34D00650D96EDA6A31
:102ACA00DF50076E030E0718D8B408D00A0E07188D
:102ADA00D8B404D0090E0718D8A410D0010E426445
:102AEA0021D0010E436405D00650D96EDA6A0A0E67
:102AFA0018D00650D96EDA6A090E13D00704D8B472
:102B0A00D7D7080E0718D8B4D3D70D0E0718D8B4DC
:102B1A00CFD7040E0718D8A405D00650D96EDA6AA2
:102B2A000B0EDF6EECEC17F012003EC002F0080E3E
:102B3A000218D8A426D0AFEC13F03F8B3F9FFC0EAF
:102B4A003F1799CF04F0D70E0424F66EF76A3D0EAC
:102B5A00F7220800F5CF01F00128036E3B0E03644B
:102B6A0002D0000E036E3F0E0324F66EF76A3F0E84
:102B7A00F7220800F5CF04F004C099FF000E986E02
:102B8A0012000B0E0218D8A427D0AFEC13F03F8B1B
:102B9A003F9F030E3F1398CF04F0D70E0424F66E1E
:102BAA00F76A3D0EF7220800F5CF01F00128036EFF
:102BBA00630E036402D0000E036E3F0E0324F66E0A
:102BCA00F76A3F0EF7220800F5CF04F004C098FF19
:102BDA003F8FA7EC13F012000C0E0218D8A417D0DE
:102BEA00AFEC13F03F8B3F9F3F813F9399CF04F0A7
:102BFA0004C001F0070E01160128036E060E0364D5
:102C0A0002D0000E036E3F8103C099FFE1D70E0E7A
:102C1A000218D8A41200AFEC13F03F8B3F9F3ECFAF
:102C2A0004F004AE08D0FD0E046402D0000E07D0F2
:102C3A00020E042605D07D0E0464FAD7820E046EB5
:102C4A0004C03EFFC5D7D3EC13F0A3EC14F0F8ECA4
:102C5A0013F0DEEC13F0BEEC13F0C8EC13F0B6EC94
:102C6A0013F0F7EC16F06AEC14F0C0A603D0C09685
:102C7A004C9107D0000ECC6ECA84010E346E010E40
:102C8A003E6EF28EF28CF18CF18AF188F186F18E29
:102C9A00000E336E000E326E000E306E000E316E74
:102CAA00000E356E000E2C6E010E2B6E000E286E75
:102CBA00F8EC18F0356E3450D8B434D09F0ECC648A
:102CCA0028D0000ECC6E2B4A2C2A770E2B5C010ED4
:102CDA002C58D8A01ED03EC027F04350D8A415D0F7
:102CEA004250D8A412D04150D8A40FD04050D8A4F2
:102CFA000CD0100E2718D8B408D0CA94000E2C6E27
:102D0A00000E2B6E000E346E04D0000E2C6E640E74
:102D1A002B6E2B502C10D8B402D0010E01D0000E0D
:102D2A00351204D0000E2C6E010E2B6E3550D8B41D
:102D3A0010D03050D8B403D03006030EB8D7030EE3
:102D4A002818D8A404D0A8EC1BF0010EB0D7282A62
:102D5A00AFD7530E936E0C0E946E000E826E010E58
:102D6A008116270E8016AFEC13F03F8B3F8F000EB3
:102D7A003E6E000E2F6E6AEC14F0000E3F6E000ECF
:102D8A00346E000E336ED59ECA943FB9FED73F9B70
:102D9A00A7EC13F0F18EF292F288F090F086F0929E
:102DAA00F088F094F08AF294F18CF18AF188F18635
:102DBA009E90A490F28EF28CB39EC290499FCAEC68
:102DCA0014F0000E2C6E010E2B6E000E306E000EEB
:102DDA00326E000E316E000E286ED3EC13F0A3ECA7
:102DEA0014F066D70F013FB9FDD7AFEC13F03F8B54
:102DFA003F9F3FB9FED7000E016E030E3F1398CFD7
:102E0A0002F0370E0224F66EF76A3D0EF72208002A
:102E1A00F5CF03F0630E036402D0010E016E9950E0
:102E2A0098CF02F0370E0224F66EF76A3D0EF722AB
:102E3A000800F5CF03F00350D8B403D01F0E036483
:102E4A0002D0010E016E99CF02F0370E0224F66EFF
:102E5A00F76A3D0EF7220800F5CF03F00350D8B405
:102E6A0003D00C0E036402D0010E016E98CF02F05B
:102E7A00370E0224F66EF76A3D0EF7220800F5CFE8
:102E8A0003F0170E036402D0010E016E99CF02F00F
:102E9A00370E0224F66EF76A3D0EF7220800F5CFC8
:102EAA0003F0060E036402D0010E016E98CF02F001
:102EBA00370E0224F66EF76A3D0EF7220800F5CFA8
:102ECA0003F03B0E036402D0010E016E99CF02F0AB
:102EDA00370E0224F66EF76A3D0EF7220800F5CF88
:102EEA0003F03B0E036402D0010E016E0150D8B408
:102EFA0026D03FB9FED7030E3F13560EF66E3F0E8D
:102F0A00F76E0800F5CF98FF9950010E986E010EE2
:102F1A00996E000E986E030E996E000E986E000E52
:102F2A00996E9190918235D0010E8F6E000E8E6E41
:102F3A00010E8F6E000E8E6E000E8F6E35D0000E53
:102F4A00016E918091928ECF02F0370E0224F66EB6
:102F5A00F76A3D0EF7220800F5CF03F0170E036457
:102F6A0002D0010E016E8F508FCF02F0370E02246D
:102F7A00F66EF76A3D0EF7220800F5CF03F03B0E16
:102F8A00036402D0010E016E919091820150D8B46F
:102F9A0003D0010E8E6EC8D7010E8E6E010E8F6E93
:102FAA00010E8F6E000E8E6E3FB9FED73F913F9392
:102FBA00919C9150C30B1809916E919E000E906ED0
:102FCA00A3903F8F3FB9FED7A7EC13F012003EC083
:102FDA0002F0070E0218D8A427D0AFEC13F03F8BEB
:102FEA003F9F3F813F9398CF05F0D70E0524F66E99
:102FFA00F76A3D0EF7220800F5CF01F00128046EAA
:10300A00170E046402D0000E046E3F0E0424F66EFE
:10301A00F76A3F0EF7220800F5CF05F005C098FFC2
:10302A003F8FA7EC13F01200090E0218D8A426D07D
:10303A00AFEC13F03F8B3F9F3F913F8399CF05F051
:10304A00D70E0524F66EF76A3D0EF7220800F5CF73
:10305A0001F00128046E0C0E046402D0010E046E05
:10306A003F913F833F0E0424F66EF76A3F0EF72224
:10307A000800F5CF05F005C099FFD2D70A0E02184D
:10308A00D8A47CD0AFEC13F03F8B3F9F010E036EA8
:10309A003F813F9398CF05F0D70E0524F66EF76A65
:1030AA003D0EF7220800F5CF04F00C0E046010D094
:1030BA000C0E04263F0E0424F66EF76A3F0EF72222
:1030CA000800F5CF05F005C098FF000E036E0DD07D
:1030DA000C0E045E3F0E0424F66EF76A3F0EF722CA
:1030EA000800F5CF05F005C098FF0350D8B498D76B
:1030FA003F913F8398CF05F0D70E0524F66EF76A05
:10310A003D0EF7220800F5CF01F00128046E99CF91
:10311A0005F0D70E0524F66EF76A3D0EF722080071
:10312A00F5CF03F0020E0318D8A406D01D0E0464CE
:10313A0022D0010E046E1FD00304D8B418D0030E97
:10314A000318D8B414D0050E0318D8B410D0070E3B
:10315A000318D8B40CD0080E0318D8B408D00A0E35
:10316A000318D8B404D00C0E0318D8A402D01F0E2A
:10317A00DED71E0EDCD73F913F8347D70B0E0218CE
:10318A00D8A415D0AFEC13F03F8B3F9F030E3F132B
:10319A0098CF05F0D70E0524F66EF76A3D0EF72292
:1031AA000800F5CF01F00128046E630E2AD70E0E2F
:1031BA000218D8A41200AFEC13F03F8B3F9F3ECF0A
:1031CA0005F005AE08D0820E056002D07E0E07D04B
:1031DA00020E055E05D0020E0560FAD7FE0E056ED8
:1031EA0005C03EFF1DD7000E226E000E1B6E3F0E5D
:1031FA00246E5AD0430E256E266A3C0E236E000EAC
:10320A0080BA010E186EE40E196E290E1A6E700E2F
:10321A001C6E280E1D6E400E1E6E280E3ED0420EEB
:10322A00256E266A3A0E236E000E80B2010E186EC3
:10323A00A20E196E280E1A6E060E1C6E290E1D6E2F
:10324A004A0E1E6E270E29D0410E256E266A380EAA
:10325A00236E000E81B0010E186EAA0E196E2A0E88
:10326A001A6ED80E1C6E2F0E1D6E560E1E6E270E6F
:10327A0014D0400E256E266A360E236E000E80B0DC
:10328A00010E186E380E196E2A0E1A6E340E1C6E46
:10329A002B0E1D6ED60E1E6E270E1F6E1AD0000E36
:1032AA00256E000E266E15D02250086E096A095046
:1032BA00000AD8A4F4D70850000AD8B49BD7010A48
:1032CA00D8B4ADD7030AD8B4BFD7010AD8B4D1D776
:1032DA00E6D725502610D8B430D21850D8A442D1F7
:1032EA0011D225C0D9FF26C0DAFF010EDF6E2450A5
:1032FA00D96EDA6ADF50D8A40DD0000ED76E000E50
:10330A00D66ED58E2350D96EDA6A000EDE6E000EA6
:10331A00DD6E15D0D6CF0EF0D7CF0FF00F50096E55
:10332A00086A0E500A6E0B6A08500A1209500B12EC
:10333A002350D96EDA6A0AC0DEFF0BC0DDFF22C055
:10334A0008F0010E096E082A02D0D8900936082E14
:10335A00FCD72450D96EDA6A0950DF12010E1B6EAF
:10336A00ECD1D6CF10F0D7CF11F01150096E086A00
:10337A0010500A6E0B6A08500A10206E09500B1082
:10338A00216E2350D96EDA6ADECF08F0DDCF09F05C
:10339A0020C00AF021C00BF008500A5E09500B5AEF
:1033AA00010E0A24BA0E0B20800BD8A43ED01C5062
:1033BA001D10D8B41AD025C0D9FF26C0DAFF030ED3
:1033CA00DF6E2350D96EDA6A20C0DEFF21C0DDFF2E
:1033DA0001D806D00500FA6E1C50FD6E1D5054D05F
:1033EA00010E346E56D0CA84B9D725C0D9FF26C07B
:1033FA00DAFF000EDF6E22C008F0010E096E082AFD
:10340A0002D0D8900936082EFCD70950FF0A0A6E56
:10341A002450D96EDA6A0A50DF162450D96EDA6A55
:10342A00DF50D8A49BD7D59E99D72350D96EDA6A94
:10343A00DECF08F0DDCF09F020C00AF021C00BF082
:10344A0008500A5E09500B5A000E0A24FC0E0B2083
:10345A00800BD8A483D725C0D9FF26C0DAFF020E75
:10346A00DE18D8B47BD725C0D9FF26C0DAFF020EF2
:10347A00DF6E19501A10D8B4B3D701D8B1D70500E6
:10348A00FA6E1950FD6E1A50FE6EF850FF6EFA5021
:10349A001200000ECC6EA7D7D6CF12F0D7CF13F0FA
:1034AA001350096E086A12500A6E0B6A08500A1005
:1034BA00206E09500B10216E300E0D6E000E0C6E30
:1034CA0009D0450E0D6E0C6819D0200E0D6E000E37
:1034DA000C6E14D02250086E096A0950000AD8A44A
:1034EA000DD00850000AD8B409D0010AD8B4E9D7D7
:1034FA00030AD8B4EAD7010AD8B4E7D72350D96E59
:10350A00DA6ADECF08F0DDCF09F0081E091E084A84
:10351A00092A0C50085E0D50095A205008242150DF
:10352A000920800BD8A41AD72350D96EDA6A20C092
:10353A00DEFF21C0DDFF1C501D10D8B40FD701D803
:10354A000DD70500FA6E1C50FD6E1D50FE6EF85028
:10355A00FF6EFA50120025C0D9FF26C0DAFF030E0B
:10356A00DF6EFCD625C0D9FF26C0DAFFDF50086E11
:10357A00096A0950000AD8A4E0D00850000AD8B451
:10358A00B0D6010AD8B4EDD6030AD8B4EAD6010AED
:10359A00D8B482D7070AD8B4DED7CFD025C0D9FF8E
:1035AA0026C0DAFF000EDF6E22C008F0010E096E97
:1035BA00082A02D0D8900936082EFCD70950FF0AEB
:1035CA000A6E2450D96EDA6A0A50DF162450D96E70
:1035DA00DA6ADF50D8A4C2D6D59EAFD025C0D9FFAB
:1035EA0026C0DAFF000EDF6E22C008F0010E096E57
:1035FA00082A02D0D8900936082EFCD70950FF0AAB
:10360A000A6E2450D96EDA6A0A50DF162450D96E2F
:10361A00DA6ADF50D8A402D0D59E02D0010E1B6E02
:10362A001E501F10D8B489D001D887D00500FA6E71
:10363A001E50FD6E1F50FE6EF850FF6EFA501200BB
:10364A0025C0D9FF26C0DAFF040EDF6E2450D96EDA
:10365A00DA6ADF50D8B451D6D6CF14F0D7CF15F0E6
:10366A001550096E086A14505DD6D6CF16F0D7CF1A
:10367A0017F01750096E086A16500A6E0B6A08503E
:10368A000A10206E09500B10216E2350D96EDA6A87
:10369A00DECF08F0DDCF09F020C00AF021C00BF020
:1036AA0008500A5E09500B5A000E0A24FC0E0B2021
:1036BA00800BD8A453D622C008F0010E096E082A3E
:1036CA0002D0D8900936082EFCD70950FF0A0A6E94
:1036DA002450D96EDA6A0A50DF162450D96EDA6A93
:1036EA00DF50D8A402D0D59E02D0010E1B6E25C091
:1036FA00D9FF26C0DAFF000EDF6E1E501F10D8A4B5
:10370A0093D71BD025C0D9FF26C0DAFFDF50086E39
:10371A00096A0950000AD8A410D00850000AD8B47F
:10372A000CD0010AD8B43AD7030AD8B457D7010A39
:10373A00D8B486D7070AD8B498D7222A030E2264A7
:10374A00B3D51B50120033C011F01150D8A479D050
:10375A003250D8B412D0320631C009F009C030F064
:10376A000950D8B473D01168530E936E0C0E946E30
:10377A00000E826E010E811669D0640E326E530EEF
:10378A00936E0C0E946E000E826E010E8116808C62
:10379A00B38EB290B292B382000E066E000E056E20
:1037AA00054A062A06BEFCD7065004E1320E055C1D
:1037BA00D8A0F6D7B392B280000E086E000E076E3C
:1037CA0008BE06D0085007E1320E075CD8B003D015
:1037DA00074A082AF5D7B2909E9CC282C2B2FED787
:1037EA00C3CF0BF0C4CF0CF09E9C809C0BC001F0A1
:1037FA000CC002F0060E036ED89002320132032E7C
:10380A00FBD701502F6E0B500C10D8B415D00C50AA
:10381A0004E1400E0B5CD8A005D0000E0C6E000E21
:10382A000B6E05D0000E0C6E010E0B6E11680BC0EC
:10383A0030F00BC031F00AD0000E306E000E316E3F
:10384A0005D01128D8A402D0000E116E1128D8B4C0
:10385A006AD21150D8A40FD145684468000E2E6E62
:10386A003EC00DF00DC02DF0BAD00F013F813F933D
:10387A0098CF12F0D70E1224F66EF76A3D0EF72291
:10388A000800F5CF45F0170E456402D0000E456ECC
:10389A00BB0E4524F66EF76A3F0EF7220800F5CFF5
:1038AA0045F099CF12F099CF12F0D70E1224F66E86
:1038BA00F76A3D0EF7220800F5CF44F03B0E446448
:1038CA0002D0000E446E030E2E6EC1D0FC0E0F0104
:1038DA003F17456898CF12F0D70E1224F66EF76A92
:1038EA003D0EF7220800F5CF44F03B0E4464AFD0FA
:1038FA00000E73D03ECF12F012AE06D0800E456E87
:10390A00FF0E121A122A01D04568D890123065D0DB
:10391A002FC044F052D00F013F913F8398CF12F04D
:10392A00D70E1224F66EF76A3D0EF7220800F5CF7D
:10393A0044F01F0E446402D0010E446E99CF12F077
:10394A00D70E1224F66EF76A3D0EF7220800F5CF5D
:10395A0045F00C0E456402D0010E456E3F813F933F
:10396A0098CF12F0D70E1224F66EF76A3D0EF722A0
:10397A000800F5CF12F0170E126402D0000E126E74
:10398A00A30E1224F66EF76A3F0EF7220800F5CF4F
:10399A002EF05DD0030E0F013F1398CF12F0D70E11
:1039AA001224F66EF76A3D0EF7220800F5CF44F0AE
:1039BA00630E446402D0000E446E456848D00F017D
:1039CA003F813F9399CF12F0060E126402D0000E87
:1039DA00126E12C044F03BD0070E446E38D00D5020
:1039EA00016E026A0250000AD8A431D00150000ABE
:1039FA00D8B42DD0010AD8B438D7030AD8B466D7B8
:103A0A00010AD8B488D7070AD8B4C4D7010AD8B4E7
:103A1A00D6D7020AD8B429D70F0AD8B426D7010AAA
:103A2A00D8B479D7030AD8B476D7010AD8B4B2D7AA
:103A3A00070AD8B4C4D7010AD8B448D7030AD8B4F5
:103A4A0059D71E0AD8B4C8D7010AD8B461D7050E07
:103A5A000D18D8B40CD00C0E0D18D8B408D0100E0E
:103A6A000D18D8B404D0E60E296E3F0E03D0D60E38
:103A7A00296E3F0E2A6E29C00FF02AC010F0010EDF
:103A8A0011647DD045C012F01228D8B46FD0020E4E
:103A9A001118D8A43CD0800E1218D8A402D00A0E4D
:103AAA0008D0DB0E1224F66EF76A3E0EF7220800E3
:103ABA00F5500F24016E000E1020026E01C0F6FFB1
:103ACA0002C0F7FF0800F5CF12F0000E0A6E000ED2
:103ADA000E6E12B00E8812B20E8A12B40E8C12B684
:103AEA000A8612B80E8E12BA0A8A12BC0A840C0E00
:103AFA00946E530E936E000E826E010E81160E5056
:103B0A0082120A508112510E936E818206D10C0ED6
:103B1A00946E530E936E000E826E010E8116090E7C
:103B2A00126405D00D0E126002D0828881862EA002
:103B3A0003D0016A012A01D0016A013A0146825082
:103B4A000118DF0B0118826E2EA203D0016A012A26
:103B5A0001D0016A013A0146014682500118BF0BA1
:103B6A000118826E130E936E818CD7D0530E936E0A
:103B7A000C0E946E000E826E010E8116CED044C0D9
:103B8A0012F01228D8B4F2D71150D8A454D0D60EB5
:103B9A000F181BE13F0E1018D8A417D01250016E4F
:103BAA00026AD890013602360FC003F010C004F042
:103BBA000150032602500422010E0326000E04229D
:103BCA0003C0F6FF04C0F7FF11D0DB0E1224F66E15
:103BDA00F76A3E0EF7220800F5500F24016E000E18
:103BEA001020026E01C0F6FF02C0F7FF0800F5CFF1
:103BFA0012F0000E0A6E000E0E6E12B00E8812B28D
:103C0A000E8A12B40E8C12B60A8612B80E8E12BA28
:103C1A000A8A12BC0A84530E936E0C0E946E000E1E
:103C2A00826E010E81160E5082120A508112040E03
:103C3A00946E828672D0D60E0F1817E13F0E1018B6
:103C4A00D8A413D01250016E026AD89001360236F7
:103C5A000FC003F010C004F00150032602500422E2
:103C6A0003C0F6FF04C0F7FF31D00A0E12601BD062
:103C7A0008D0000E126E2DD00FC0F6FF10C0F7FF4D
:103C8A0025D02D50016E026A0250000AD8A4F4D73A
:103C9A000150030AD8B4EDD70A0AD8B4EAD7030AFE
:103CAA00D8B4E7D7E9D7770E1224F66EF76A3E0E34
:103CBA00F7220800F5CF12F012500F24016E000E01
:103CCA001020026E01C0F6FF02C0F7FF0800F5CF10
:103CDA0012F0000E0A6E000E0E6E12B00E8812B2AC
:103CEA000E8A12B40E8C12B60A8612B80E8E12BA48
:103CFA000A8A12BC0A84530E936E0C0E946E000E3E
:103D0A00826E010E81161250D8B407D00E5082125C
:103D1A000A508112430E936E8188112A030E116490
:103D2A0002D0000E116E11C033F012000000010221
:103D3A00030405060708097F7F7F7F7F7F0A0B0C34
:103D4A000D0E0F101112137F7F7F7F7F7F141516C0
:103D5A001718191A1B1C1D7F7F7F7F7F7F1E1F204C
:103D6A00212223242526277F7F7F7F7F7F28292AD8
:103D7A002B2C2D2E2F30317F7F7F7F7F7F32333464
:103D8A0035363738393A3B7F7F7F7F7F7F3C3D3EF0
:103D9A003F4041424344457F7F7F7F7F7F4647487C
:103DAA00494A4B4C4D4E4F7F7F7F7F7F7F50515208
:103DBA00535455565758597F7F7F7F7F7F5A5B5C94
:103DCA005D5E5F606162637F7F7F7F7F7F0001024C
:103DDA00030405060708090000000000000A0B0C8E
:103DEA000D0E0F101112130000000000001415161A
:103DFA001718191A1B1C1D0000000000001E1F20A6
:103E0A002122232425262700000000000028292A31
:103E1A002B2C2D2E2F3031000000000000323334BD
:103E2A0035363738393A3B0000000000003C3D3E49
:103E3A003F404142434445000000000000464748D5
:103E4A00494A4B4C4D4E4F00000000000050515261
:103E5A00535455565758590000000000005A5B5CED
:103E6A005D5E5F60616263000000000000000000A8
:103E7A00000000000000000101010101010101012F
:103E8A000102020202020202020202030303030304
:103E9A0003030303030404040404040404040405DC
:103EAA0005050505050505050506060606060606B1
:103EBA000606060707070707070707070708080888
:103ECA00080808080808080909090909090909095F
:103EDA000900010203040506070809000102030498
:103EEA000506070809000102030405060708090078
:103EFA000102030405060708090001020304050676
:103F0A00070809000102030405060708090001025F
:103F1A000304050607080900010203040506070849
:103F2A000900010203040506070809000102030447
:103F3A000506070809000102030405060708091017
:103F4A0011121314151617181920212223242526B5
:103F5A00272829303132333435363738394041420F
:103F6A004344454647484950515253545556575869
:103F7A0059606162636465666768697071727374B7
:103F8A007576777879808182838485868788899017
:103F9A0091929394959697989901010101010101D3
:103FAA0001010101010202020202020202020202EC
:103FBA00020C0102030405060708090A0B0C010298
:103FCA00030405060708090A0B042A546D3E373F05
:103FDA00313E3E79317671776D7700403F065B4F0F
:0D3FEA00666D7D077F6F4040404040400005
:083FF80080F4D8FFFFF8CFF1BF
:00000001FF
