:020000040000FA
:0400000098EF12F073
:10240C00FFFF0F013F8F3F9B1200CA94000E376EE7
:10241C001200550EA76EAA0EA76E0F013F8B12006D
:10242C0046684768000E456E040E446E1200000E9E
:10243C003B6E000E3A6EF00EBA1676941200000E39
:10244C00476E000E466E000E456E000E446E120076
:10245C00CA50FC0B0209CA6E000ECC6ECA94000E58
:10246C00376E12003F0E7916300E79127982000EFB
:10247C007B6E000E7A6E799012007650FC0B02097E
:10248C00766E000E786E76940F0152915283120084
:10249C00000E896E000E8A6E000E8B6E080E856E15
:1024AC00000E886E1200CD503F0B8009CD6ECF0E02
:1024BC00CD16CD86CD829A9E9E909D90CD90120089
:1024CC0048C001F0080E0118D8A403D0100E486EB5
:1024DC001200CA94000E376E1200D59AD59CD550B6
:1024EC00F80B0509D56ED596000ED76E000ED66E7C
:1024FC00F29AF294D59E000E496E1200016EF00E07
:10250C00BA1676940150F80DF350540F776E0150B3
:10251C00FC0DF3502A0FBB6E7684BA50F00B0C09ED
:10252C00BA6E12000C0EF66E240EF76E000EF86EDC
:10253C000900F5CF4EF00900F5CF4FF000EE30F06A
:10254C001E0EEE6AE806FDE1000EF86E0001F3EFD8
:10255C0017F0000E4D6E000E4C6E000E4B6E000E02
:10256C004A6E000E436E000E426E000E416E000E5F
:10257C00406E000E3F6E000E3E6E000E3D6E000E65
:10258C003C6E120048C001F04B50D8A412004A50C7
:10259C00D8A412000104D8A405D0020E486E16EC83
:1025AC0012F01200040E0118D8B404D0110E011848
:1025BC00D8A412000E0EF2D748C001F04D50D8A48A
:1025CC0012004B50D8A412004A50D8A41200030E8B
:1025DC000118D8A403D0050E486E1200050E011880
:1025EC00D8A41200040E486E16EC12F0120048C06B
:1025FC0001F00A0E0118D8A402D0090E05D00B0E5A
:10260C000118D8A403D00C0E486E07D0020E011886
:10261C00D8A403D0CA94000E376E4C50D8A4120024
:10262C0025EC12F0120001C03AF002C03BF0485009
:10263C00D8A402D0010E486E010E376E000ECC6E7F
:10264C00CA84BA9EBA9C540E776ECF0EBA162A0E56
:10265C00BB6E7684BA50F00B0C09BA6E1200000EE9
:10266C00B36E900EB26E010EB16E270E926E530EBB
:10267C00936E080E946E8096809E0F0148691F0E13
:10268C00496FC290270E926E550EA76EAA0EA76EBA
:10269C000E01FF910E0ED36FFF811200480E026ED9
:1026AC000250D96EDA6A060EDE18D8A413D0020EC8
:1026BC004D18D8B404D0030E4D18D8A40BD04B50E1
:1026CC00D8A408D04A50D8A405D00250D96EDA6AE2
:1026DC000F0EDF6E4D50D8A4120025EC12F0120034
:1026EC003A503B10D8A41DEC12F048C001F0100E6B
:1026FC000118D8A408D0010E486E0FEC12F03F8BD5
:10270C003F8F07EC12F00150D8A407D0000E336EA7
:10271C00010E326E010E486E1200030E0118D8B471
:10272C0004D0090E0118D8A403D00A0E486E12006A
:10273C000C0E0118D8A412000B0E486E1200270EB6
:10274C00926E000E0E01E76F010EE86F020EE96F3C
:10275C00C08E0F014D914D934C85F18CF18AF1880F
:10276C00F186F292F288F090F086F092F088F09474
:10277C00F08AA49091AE02D0A38001D0A390F28EE7
:10278C00F28C80BA120080B2120081B0120080B0BC
:10279C001200D39E0F014D9F03001200460E036ED4
:1027AC000350D96EDA6ADE50DE10D8B41200035032
:1027BC00D96EDA6ADE06000EDD5A0350D96EDA6A7B
:1027CC00DE50DE10D8A412000350D96EDA6AFF0E68
:1027DC00DE6EFF0EDD6E440E036E0350D96EDA6AA8
:1027EC00DE50DE10D8B412000350D96EDA6ADE0661
:1027FC00000EDD5A0350D96EDA6ADE50DE10D8A412
:10280C00120025EC12F0000E486E12003A503B10EC
:10281C00D8A41DEC12F0480E056E0550D96EDA6A7C
:10282C00DF50066E0650D8A405D00550D96EDA6A72
:10283C00080E26D00604D8B4F8D7070E0618D8B45C
:10284C00F4D7030E0618D8B40CD0040E0618D8B45E
:10285C0008D0050E0618D8B404D00A0E0618D8A451
:10286C0010D0010E4C640DD0010E4D6405D00550F6
:10287C00D96EDA6A0B0E04D00550D96EDA6A0C0EDA
:10288C00DF6E28EC15F025EC12F012003A503B10DC
:10289C00D8A41DEC12F0480E066E0650D96EDA6AFA
:1028AC00DF50D8A405D00650D96EDA6A070E34D0A2
:1028BC000650D96EDA6ADF50076E030E0718D8B4CB
:1028CC0008D00A0E0718D8B404D0090E0718D8A4DB
:1028DC0010D0010E4C6421D0010E4D6405D0065071
:1028EC00D96EDA6A0A0E18D00650D96EDA6A090E59
:1028FC0013D00704D8B4D7D7080E0718D8B4D3D739
:10290C000D0E0718D8B4CFD7040E0718D8A405D0CD
:10291C000650D96EDA6A0B0EDF6EE5EC16F025EC7C
:10292C0012F012003A503B10D8A41DEC12F0480ED5
:10293C00066E0650D96EDA6ADF50D8A40AD0000EA3
:10294C00336E010E326E0650D96EDA6A030EDF6EEC
:10295C0012000650D96EDA6ADE04D8B407D00650DD
:10296C00D96EDA6A020EDE18D8A408D00650D96ED9
:10297C00DA6A060EDF6E16EC12F012000650D96EF3
:10298C00DA6A0F0EDE18D8A41200020E4D18D8B455
:10299C0004D0030E4D18D8A412004B50D8A412002A
:1029AC004A50D8A412000FEC12F03F8B3F9F91506D
:1029BC00C30B1809916E91BE02D0010E01D0000E0E
:1029CC00046E056A04500510D8B403D0016A012ABC
:1029DC0001D0016A013A0146014691500118BF0B22
:1029EC000118916E04500510D8A405D0000E036E8A
:1029FC00000E026E03D0000E036E026802C090FF40
:102A0C0004500510D8B403D0016A012A01D0016A20
:102A1C00A3500118FE0B0118A36EA49004500510CE
:102A2C00D8B403D0016A012A01D0016A0132013203
:102A3C00915001187F0B0118916E0F013F8F07EC1D
:102A4C0012F0120048C002F0080E0218D8A426D0CA
:102A5C000FEC12F03F8B3F9FFC0E3F1799CF04F009
:102A6C00CB0E0424F66EF76A3D0EF7220800F5CF64
:102A7C0001F00128036E3B0E036402D0000E036EBE
:102A8C00330E0324F66EF76A3F0EF7220800F5CFDB
:102A9C0004F004C099FF000E986E12000B0E021881
:102AAC00D8A427D00FEC12F03F8B3F9F030E3F139F
:102ABC0098CF04F0CB0E0424F66EF76A3D0EF72285
:102ACC000800F5CF01F00128036E630E036402D0F9
:102ADC00000E036E330E0324F66EF76A3F0EF722D8
:102AEC000800F5CF04F004C098FF3F8F07EC12F0FC
:102AFC0012000C0E0218D8A417D00FEC12F03F8B5A
:102B0C003F9F3F813F9399CF04F004C001F0070E23
:102B1C0001160128036E060E036402D0000E036E2C
:102B2C003F8103C099FFE1D70E0E0218D8A418D02C
:102B3C000FEC12F03F8B3F9F3ECF04F004AE08D059
:102B4C00FD0E046402D0000E07D0020E042605D040
:102B5C007D0E0464FAD7820E046E04C03EFFC5D706
:102B6C00060E0218D8B404D00F0E0218D8A4120006
:102B7C000FEC12F03F8B3F9F919091928FCF04F00E
:102B8C00CB0E0424F66EF76A3D0EF7220800F5CF43
:102B9C0001F00128036E3B0E036402D0000E036E9D
:102BAC00330E0324F66EF76A3F0EF7220800F5CFBA
:102BBC0004F004C08FFF000E8E6E91909182010E76
:102BCC008E6E010E8F6E010E8F6E8FD73FB9FED7B2
:102BDC000FEC12F03F8B3F9F3FB9FED7000E016EFA
:102BEC00030E3F1398CF02F02B0E0224F66EF76AF9
:102BFC003D0EF7220800F5CF03F0630E036402D0FC
:102C0C00010E016E995098CF02F02B0E0224F66E35
:102C1C00F76A3D0EF7220800F5CF03F00350D8B445
:102C2C0003D01F0E036402D0010E016E99CF02F087
:102C3C002B0E0224F66EF76A3D0EF7220800F5CF34
:102C4C0003F00350D8B403D00C0E036402D0010E71
:102C5C00016E98CF02F02B0E0224F66EF76A3D0E31
:102C6C00F7220800F5CF03F0170E036402D0010E13
:102C7C00016E99CF02F02B0E0224F66EF76A3D0E10
:102C8C00F7220800F5CF03F0060E036402D0010E04
:102C9C00016E98CF02F02B0E0224F66EF76A3D0EF1
:102CAC00F7220800F5CF03F03B0E036402D0010EAF
:102CBC00016E99CF02F02B0E0224F66EF76A3D0ED0
:102CCC00F7220800F5CF03F03B0E036402D0010E8F
:102CDC00016E0150D8B42BD03FB9FED7030E3F1371
:102CEC004C0EF66E3F0EF76E0800F5CF98FF99501C
:102CFC00010E986E010E996E3F0EF66E3F0EF76E3A
:102D0C000800F5CF98FF030E996E000E986E000E1A
:102D1C00996E9190918235D0010E8F6E000E8E6E51
:102D2C00010E8F6E000E8E6E000E8F6E35D0000E63
:102D3C00016E918091928ECF02F02B0E0224F66ED2
:102D4C00F76A3D0EF7220800F5CF03F0170E036467
:102D5C0002D0010E016E8F508FCF02F02B0E022489
:102D6C00F66EF76A3D0EF7220800F5CF03F03B0E26
:102D7C00036402D0010E016E919091820150D8B47F
:102D8C0003D0010E8E6EC8D7010E8E6E010E8F6EA3
:102D9C00010E8F6E000E8E6E3FB9FED73F913F93A2
:102DAC00919C9150C30B1809916E919E000E906EE0
:102DBC00A3903F8F3FB9FED707EC12F0120048C02A
:102DCC0002F0070E0218D8A427D00FEC12F03F8B9C
:102DDC003F9F3F813F9398CF05F0CB0E0524F66EB5
:102DEC00F76A3D0EF7220800F5CF01F00128046EBA
:102DFC00170E046402D0000E046E330E0424F66E1B
:102E0C00F76A3F0EF7220800F5CF05F005C098FFD2
:102E1C003F8F07EC12F01200090E0218D8A426D02E
:102E2C000FEC12F03F8B3F9F3F913F8399CF05F002
:102E3C00CB0E0524F66EF76A3D0EF7220800F5CF8F
:102E4C0001F00128046E0C0E046402D0010E046E15
:102E5C003F913F83330E0424F66EF76A3F0EF72240
:102E6C000800F5CF05F005C099FFD2D70A0E02185D
:102E7C00D8A44AD00FEC12F03F8B3F9F3F913F8379
:102E8C0098CF05F0CB0E0524F66EF76A3D0EF722AF
:102E9C000800F5CF01F00128046E99CF05F0CB0E98
:102EAC000524F66EF76A3D0EF7220800F5CF03F005
:102EBC00020E0318D8A406D01D0E046422D0010EF5
:102ECC00046E1FD00304D8B418D0030E0318D8B462
:102EDC0014D0050E0318D8B410D0070E0318D8B4AC
:102EEC000CD0080E0318D8B408D00A0E0318D8B4A6
:102EFC0004D00C0E0318D8A402D01F0EDED71E0E61
:102F0C00DCD73F913F8379D70B0E0218D8A415D08C
:102F1C000FEC12F03F8B3F9F030E3F1398CF05F041
:102F2C00CB0E0524F66EF76A3D0EF7220800F5CF9E
:102F3C0001F00128046E630E5CD70E0E0218D8A4A3
:102F4C0018D00FEC12F03F8B3F9F3ECF05F005AE33
:102F5C0008D0820E056002D07E0E07D0020E055EF0
:102F6C0005D0020E0560FAD7FE0E056E05C03EFFB9
:102F7C004FD7060E0218D8B404D00F0E0218D8A4DE
:102F8C0012000FEC12F03F8B3F9F918091928ECFED
:102F9C0005F0CB0E0524F66EF76A3D0EF7220800FD
:102FAC00F5CF01F00128046E170E046402D0000E58
:102FBC00046E330E0424F66EF76A3F0EF7220800F7
:102FCC00F5CF05F005C08EFF91909182010E8E6EAB
:102FDC00010E8F6E010E8F6E1BD74EEC12F035EC7E
:102FEC0013F073EC12F059EC12F02EEC12F038ECEA
:102FFC0012F043EC12F0ECEC15F0AFEC12F0C0A6B2
:10300C0003D0C0964C910DD0000ECC6ECA84010E2C
:10301C00376E010E486E010E026EC00E016E19EC79
:10302C0013F0F28EF28CF18CF18AF188F186F18E2C
:10303C00000E366E000E386E000E336E010E326EC0
:10304C00000E2D6E25EC12F0A4A00AD0A49090686E
:10305C00170E026E700E016E19EC13F0000E396E25
:10306C0009EC19F0386E3750D8B470D09F0ECC6480
:10307C0062D0000ECC6E3A0E2F6E2F50D96EDA6ADB
:10308C00DE50DE10D8B431D02F50D96EDA6ADE069D
:10309C00000EDD5A2F50D96EDA6ADECF2BF0DDCF61
:1030AC002CF02B502C10D8A403D01DEC12F019D0FE
:1030BC002BC027F02CC028F0060E296ED890283291
:1030CC002732292EFBD72750070B84EC12F039C07E
:1030DC002EF02E2AEF0E2E6402D0000E2E6E2EC075
:1030EC0039F0000E336E640E326E324A332A770E8C
:1030FC00325C010E3358D8A01ED048C02AF04D5077
:10310C00D8A415D04C50D8A412D04B50D8A40FD062
:10311C004A50D8A40CD0100E2A18D8B408D0CA948F
:10312C00000E336E000E326E000E376E04D0000EA1
:10313C00336E640E326E32503310D8B402D0010E9E
:10314C0001D0000E3812D4EC13F004D0000E336E04
:10315C00010E326E3850D8B40BD0030E2D18D8A4F3
:10316C0005D0B9EC1BF0010E2D6E6ED72D2A6CD745
:10317C0025EC12F0010E936E000E946E000E826E12
:10318C00010E8116270E80160FEC12F03F8B3F8F2D
:10319C00000E486EAFEC12F0000E496E000E376E4A
:1031AC00000E366ED59ECA943FB9FED73F9B07ECF6
:1031BC0012F01DEC12F0F18EF292F288F090F08683
:1031CC00F092F088F094F08AF294F18CF18AF18804
:1031DC00F1869E90A49091AE02D0A38001D0A390D2
:1031EC00F28EF28CB39EC2900F01499FA5EC13F0A6
:1031FC00000E336E010E326E000E2D6E4EEC12F080
:10320C0035EC13F021D7000E226E000E1B6E490E0A
:10321C00246E5AD04D0E256E266A420E236E000E79
:10322C0080BA010E186EEC0E196E260E1A6E900EE8
:10323C001C6E250E1D6EFA0E1E6E250E3ED04C0E0B
:10324C00256E266A400E236E000E80B2010E186E9B
:10325C00300E196E290E1A6EC40E1C6E250E1D6EC4
:10326C00A80E1E6E260E29D04B0E256E266A3E0E1B
:10327C00236E000E81B0010E186E980E196E280E7A
:10328C001A6ECA0E1C6E2D0E1D6E160E1E6E240EA0
:10329C0014D04A0E256E266A3C0E236E000E80B0AA
:1032AC00010E186E180E196E280E1A6E500E1C6E2A
:1032BC002A0E1D6ECC0E1E6E240E1F6E1AD0000E22
:1032CC00256E000E266E15D02250086E096A095024
:1032DC00000AD8A4F4D70850000AD8B49BD7010A26
:1032EC00D8B4ADD7030AD8B4BFD7010AD8B4D1D754
:1032FC00E6D725502610D8B430D21850D8A442D1D5
:10330C0011D225C0D9FF26C0DAFF010EDF6E245082
:10331C00D96EDA6ADF50D8A40DD0000ED76E000E2D
:10332C00D66ED58E2350D96EDA6A000EDE6E000E84
:10333C00DD6E15D0D6CF0CF0D7CF0DF00D50096E39
:10334C00086A0C500A6E0B6A08500A1209500B12CC
:10335C002350D96EDA6A0AC0DEFF0BC0DDFF22C033
:10336C0008F0010E096E082A02D0D8900936082EF2
:10337C00FCD72450D96EDA6A0950DF12010E1B6E8D
:10338C00ECD1D6CF0EF0D7CF0FF00F50096E086AE4
:10339C000E500A6E0B6A08500A10206E09500B1062
:1033AC00216E2350D96EDA6ADECF08F0DDCF09F03A
:1033BC0020C00AF021C00BF008500A5E09500B5ACD
:1033CC00010E0A24BA0E0B20800BD8A43ED01C5040
:1033DC001D10D8B41AD025C0D9FF26C0DAFF030EB1
:1033EC00DF6E2350D96EDA6A20C0DEFF21C0DDFF0C
:1033FC0001D806D00500FA6E1C50FD6E1D5054D03D
:10340C00010E376E56D0CA84B9D725C0D9FF26C055
:10341C00DAFF000EDF6E22C008F0010E096E082ADA
:10342C0002D0D8900936082EFCD70950FF0A0A6E34
:10343C002450D96EDA6A0A50DF162450D96EDA6A33
:10344C00DF50D8A49BD7D59E99D72350D96EDA6A72
:10345C00DECF08F0DDCF09F020C00AF021C00BF060
:10346C0008500A5E09500B5A000E0A24FC0E0B2061
:10347C00800BD8A483D725C0D9FF26C0DAFF020E53
:10348C00DE18D8B47BD725C0D9FF26C0DAFF020ED0
:10349C00DF6E19501A10D8B4B3D701D8B1D70500C4
:1034AC00FA6E1950FD6E1A50FE6EF850FF6EFA50FF
:1034BC001200000ECC6EA7D7D6CF10F0D7CF11F0DC
:1034CC001150096E086A10500A6E0B6A08500A10E7
:1034DC00206E09500B10216E300E176E000E166EFA
:1034EC0009D0450E176E166819D0200E176E000EF7
:1034FC00166E14D02250086E096A0950000AD8A41E
:10350C000DD00850000AD8B409D0010AD8B4E9D7B4
:10351C00030AD8B4EAD7010AD8B4E7D72350D96E36
:10352C00DA6ADECF08F0DDCF09F0081E091E084A62
:10353C00092A1650085E1750095A205008242150A9
:10354C000920800BD8A41AD72350D96EDA6A20C070
:10355C00DEFF21C0DDFF1C501D10D8B40FD701D8E1
:10356C000DD70500FA6E1C50FD6E1D50FE6EF85006
:10357C00FF6EFA50120025C0D9FF26C0DAFF030EE9
:10358C00DF6EFCD625C0D9FF26C0DAFFDF50086EEF
:10359C00096A0950000AD8A4E0D00850000AD8B42F
:1035AC00B0D6010AD8B4EDD6030AD8B4EAD6010ACB
:1035BC00D8B482D7070AD8B4DED7CFD025C0D9FF6C
:1035CC0026C0DAFF000EDF6E22C008F0010E096E75
:1035DC00082A02D0D8900936082EFCD70950FF0AC9
:1035EC000A6E2450D96EDA6A0A50DF162450D96E4E
:1035FC00DA6ADF50D8A4C2D6D59EAFD025C0D9FF89
:10360C0026C0DAFF000EDF6E22C008F0010E096E34
:10361C00082A02D0D8900936082EFCD70950FF0A88
:10362C000A6E2450D96EDA6A0A50DF162450D96E0D
:10363C00DA6ADF50D8A402D0D59E02D0010E1B6EE0
:10364C001E501F10D8B489D001D887D00500FA6E4F
:10365C001E50FD6E1F50FE6EF850FF6EFA50120099
:10366C0025C0D9FF26C0DAFF040EDF6E2450D96EB8
:10367C00DA6ADF50D8B451D6D6CF12F0D7CF13F0C8
:10368C001350096E086A12505DD6D6CF14F0D7CFFE
:10369C0015F01550096E086A14500A6E0B6A085022
:1036AC000A10206E09500B10216E2350D96EDA6A65
:1036BC00DECF08F0DDCF09F020C00AF021C00BF0FE
:1036CC0008500A5E09500B5A000E0A24FC0E0B20FF
:1036DC00800BD8A453D622C008F0010E096E082A1C
:1036EC0002D0D8900936082EFCD70950FF0A0A6E72
:1036FC002450D96EDA6A0A50DF162450D96EDA6A71
:10370C00DF50D8A402D0D59E02D0010E1B6E25C06E
:10371C00D9FF26C0DAFF000EDF6E1E501F10D8A492
:10372C0093D71BD025C0D9FF26C0DAFFDF50086E17
:10373C00096A0950000AD8A410D00850000AD8B45D
:10374C000CD0010AD8B43AD7030AD8B457D7010A17
:10375C00D8B486D7070AD8B498D7222A030E226485
:10376C00B3D51B50120036C008F00850D8A42CD189
:10377C004F684E68000E356E48C007F007C034F035
:10378C00D7D00F013F813F9398CF0DF0CB0E0D2476
:10379C00F66EF76A3D0EF7220800F5CF4FF0170EC4
:1037AC004F6402D0000E4F6E99CF0DF099CF0DF0F3
:1037BC00CB0E0D24F66EF76A3D0EF7220800F5CFFE
:1037CC004EF03B0E4E6402D0000E4E6E3A503B1043
:1037DC00D8B4E6D03940E8423F0B016E026A970E2E
:1037EC000124F66E3F0E0220F76E0800F5CF35F07F
:1037FC00D7D0FC0E0F013F174F6898CF0DF0CB0EB2
:10380C000D24F66EF76A3D0EF7220800F5CF4EF048
:10381C003B0E4E64C5D0000E89D03ECF0DF00DAEE0
:10382C0006D0800E4F6EFF0E0D1A0D2A01D04F6878
:10383C00D8900D307BD00F013F913F8398CF0DF086
:10384C00CB0E0D24F66EF76A3D0EF7220800F5CF6D
:10385C004EF01F0E4E6402D0010E4E6E99CF0DF03D
:10386C00CB0E0D24F66EF76A3D0EF7220800F5CF4D
:10387C004FF00C0E4F6402D0010E4F6E010E356EE0
:10388C008FD0030E0F013F1398CF0DF0CB0E0D24EC
:10389C00F66EF76A3D0EF7220800F5CF4EF0630E78
:1038AC004E6402D0000E4E6E140E4F6E79D00F0186
:1038BC003F813F9399CF0DF0060E0D6402D0000EA0
:1038CC000D6E0DC04EF06CD0918091928ECF0DF09C
:1038DC00CB0E0D24F66EF76A3D0EF7220800F5CFDD
:1038EC004FF0170E4F6402D0000E4F6E8FCF0DF0BD
:1038FC008FCF0DF0CB0E0D24F66EF76A3D0EF7222E
:10390C000800F5CF4EF03B0E4E6402D0000E4E6E0A
:10391C0091BE04D0000E066E000E03D0000E066E93
:10392C00020E056E05C035F03BD0070E4E6E38D03A
:10393C000750016E026A0250000AD8A431D001501F
:10394C00010AD8B41ED7030AD8B453D7010AD8B485
:10395C0072D7070AD8B495D7010AD8B4A8D7030AE6
:10396C00D8B4B2D7010AD8B40CD70F0AD8B409D737
:10397C00010AD8B460D7030AD8B45DD7010AD8B409
:10398C0080D7070AD8B493D7010AD8B432D7030A20
:10399C00D8B443D7010AD8B497D71F0AD8B4C5D71F
:1039AC00050E0718D8B40CD00C0E0718D8B408D0D4
:1039BC00100E0718D8B404D0E40E306E3F0E03D0AE
:1039CC00D40E306E3F0E316E30C009F031C00AF0AB
:1039DC00010E0864C3D04FC00DF00D28D8B4B4D07C
:1039EC00020E0818D8A440D0800E0D18D8A402D00E
:1039FC000A0E08D0CF0E0D24F66EF76A3E0EF72293
:103A0C000800F5500924016E000E0A20026E01C058
:103A1C00F6FF02C0F7FF0800F5CF0DF0000E0B6E9D
:103A2C00000E0C6E0DB00C880DB20C8A0DB40C8C03
:103A3C000DB60B860DB80C8E0DBA0B8A0DBC0B8413
:103A4C000B1E0C1E080E946E530E936EF00E82120B
:103A5C002C0E8112808C0C5082160B50811635B0B6
:103A6C00809C8182510E51D10A0E0D602AD008D053
:103A7C00000E0D6E40D009C0F6FF0AC0F7FF38D01B
:103A8C003450016E026A0250000AD8A4F4D70150D7
:103A9C00010AD8B4EDD7020AD8B4EAD7050AD8B4CB
:103AAC00E7D7010AD8B4E4D70F0AD8B4E1D7010A92
:103ABC00D8B4DED7030AD8B4DBD7050AD8B4D8D724
:103ACC00DAD7800E0D18D8B4D3D76B0E0D24F66E42
:103ADC00F76A3E0EF7220800F5CF0DF00D500924C1
:103AEC00016E000E0A20026E01C0F6FF02C0F7FF45
:103AFC000800F5CF0DF0000E0B6E000E0C6E0DB025
:103B0C000C880DB20C8A0DB40C8C0DB60B860DB84E
:103B1C000C8E0DBA0B8A0DBC0B840B1E0C1E080EE2
:103B2C00946E530E936EF00E82122C0E8112808CBA
:103B3C000D50D8B4EBD00C5082160B50811635B406
:103B4C00809C818C130EE1D0530E936E080E946EF4
:103B5C00F00E82122C0E8112808CD8D04EC00DF03B
:103B6C000D28D8B4F1D70850D8A459D0D40E0918C0
:103B7C001BE13F0E0A18D8A417D00D50016E026A33
:103B8C00D8900136023609C003F00AC004F0015087
:103B9C00032602500422010E0326000E042203C049
:103BAC00F6FF04C0F7FF11D0CF0E0D24F66EF76AA6
:103BBC003E0EF7220800F5500924016E000E0A2073
:103BCC00026E01C0F6FF02C0F7FF0800F5CF0DF042
:103BDC00000E0B6E000E0C6E0DB00C880DB20C8A24
:103BEC000DB40C8C0DB60B860DB80C8E0DBA0B8A61
:103BFC000DBC0B840B1E0C1E530E936E080E946E94
:103C0C00F00E82122C0E8112808C0C5082160B50EE
:103C1C00811635B2809C8286000E946E77D0D40EBD
:103C2C00091817E13F0E0A18D8A413D00D50016ED5
:103C3C00026AD8900136023609C003F00AC004F0BB
:103C4C00015003260250042203C0F6FF04C0F7FF04
:103C5C0031D00A0E0D601BD008D0000E0D6E2DD089
:103C6C0009C0F6FF0AC0F7FF25D03450016E026A76
:103C7C000250000AD8A4F4D70150030AD8B4EDD7E7
:103C8C000A0AD8B4EAD7030AD8B4E7D7E9D76B0E37
:103C9C000D24F66EF76A3E0EF7220800F5CF0DF0F4
:103CAC000D500924016E000E0A20026E01C0F6FFB1
:103CBC0002C0F7FF0800F5CF0DF0000E0B6E000EE2
:103CCC000C6E0DB00C880DB20C8A0DB40C8C0DB6AC
:103CDC000B860DB80C8E0DBA0B8A0DBC0B840B1E0B
:103CEC000C1E530E936E080E946EF00E82122C0E58
:103CFC008112808C0D50D8B409D00C5082160B5008
:103D0C00811635B6809C8188430E936E082A030E6B
:103D1C00086402D0000E086E08C036F012000000D5
:103D2C000102030405060708097F7F7F7F7F7F0A56
:103D3C000B0C0D0E0F101112137F7F7F7F7F7F14E2
:103D4C0015161718191A1B1C1D7F7F7F7F7F7F1E6E
:103D5C001F20212223242526277F7F7F7F7F7F28FA
:103D6C00292A2B2C2D2E2F30317F7F7F7F7F7F3286
:103D7C00333435363738393A3B7F7F7F7F7F7F3C12
:103D8C003D3E3F4041424344457F7F7F7F7F7F469E
:103D9C004748494A4B4C4D4E4F7F7F7F7F7F7F502A
:103DAC005152535455565758597F7F7F7F7F7F5AB6
:103DBC005B5C5D5E5F606162637F7F7F7F7F7F00A6
:103DCC000102030405060708090000000000000AB0
:103DDC000B0C0D0E0F10111213000000000000143C
:103DEC0015161718191A1B1C1D0000000000001EC8
:103DFC001F20212223242526270000000000002854
:103E0C00292A2B2C2D2E2F303100000000000032DF
:103E1C00333435363738393A3B0000000000003C6B
:103E2C003D3E3F40414243444500000000000046F7
:103E3C004748494A4B4C4D4E4F0000000000005083
:103E4C005152535455565758590000000000005A0F
:103E5C005B5C5D5E5F6061626300000000000000FF
:103E6C00000000000000000000010101010101013F
:103E7C000101010202020202020202020203030316
:103E8C0003030303030303040404040404040404ED
:103E9C0004050505050505050505050606060606C2
:103EAC00060606060607070707070707070707089A
:103EBC00080808080808080808090909090909096F
:103ECC00090909000102030405060708090001029B
:103EDC000304050607080900010203040506070888
:103EEC000900010203040506070809000102030486
:103EFC000506070809000102030405060708090066
:103F0C000102030405060708090001020304050663
:103F1C00070809000102030405060708090001024D
:103F2C000304050607080900010203040506070837
:103F3C0009101112131415161718192021222324F5
:103F4C002526272829303132333435363738394055
:103F5C0041424344454647484950515253545556A3
:103F6C0057585960616263646566676869707172FD
:103F7C007374757677787980818283848586878857
:103F8C0089909192939495969798990404040404BB
:103F9C0004040404040101010101010101010108EF
:103FAC0008080808080808080802020202020202AF
:103FBC00020202080808080808080808080101019C
:103FCC0001010101010101046D3E373F313E3E7993
:103FDC00317671776D7700403F065B4F666D7D07DC
:0B3FEC007F6F4040404040402A5400DE
:083FF80080F4D8FFFFF8CFF1BF
:00000001FF
