:020000040000FA
:0400000023EF0FF0EB
:101D3600FFFF0F013F8F3F9B1200CA94000E3A6EC1
:101D46001200550EA76EAA0EA76E0F013F8B12004A
:101D5600000E3C6E000E3B6EF00EBA167694120024
:101D6600CA50FC0B0209CA6E000ECC6ECA94000E55
:101D76003A6E12003F0E7916300E79127982000EF5
:101D86007B6E000E7A6E799012007650FC0B02097B
:101D9600766E000E786E76940F0152915283120081
:101DA600000E896E000E8A6E000E8B6E080E856E12
:101DB600000E886E1200CD503F0B8009CD6ECF0EFF
:101DC600CD16CD86CD829A9E9E909D90CD90120086
:101DD600D59AD59CD550F80B0509D56ED596000E2B
:101DE600D76E000ED66EF29AF294D59E000E466E0F
:101DF600120045C001F0080E0118D8A405EF0FF037
:101E060007EF0FF00BEF0FF00F0E456E0EEF0FF012
:101E1600CA94000E3A6E1200016EF00EBA1676944F
:101E26000150F80DF350540F776E0150FC0DF3502E
:101E36002A0FBB6E7684BA50F00B0C09BA6E1200EC
:101E4600360EF66E1D0EF76E000EF86E0900F5CF13
:101E56004BF00900F5CF4CF000EE35F0160EEE6AA9
:101E6600E806FDE1000EF86E0001B4EF14F0000E76
:101E76004A6E000E496E000E486E000E476E000E4A
:101E8600446E000E436E000E426E000E416E000E52
:101E9600406E000E3F6E000E3E6E000E3D6E12004E
:101EA6004850D8A459EF0FF05BEF0FF06DEF0FF02D
:101EB6004750D8A461EF0FF063EF0FF06DEF0FF00E
:101EC6004504D8A469EF0FF06BEF0FF06DEF0FF03C
:101ED600020E456E1200000EB36E900EB26E010E2B
:101EE600B16E270E926E530E936E080E946E809608
:101EF600809E0F0148691F0E496FC290270E926E91
:101F0600550EA76EAA0EA76E0E01FF910E0ED36F89
:101F1600FF811200170E3C6E700E3B6E4550D8A422
:101F260097EF0FF099EF0FF09BEF0FF0010E456E54
:101F3600010E3A6E000ECC6ECA84BA9EBA9C540E3E
:101F4600776ECF0EBA162A0EBB6E7684BA50F00B99
:101F56000C09BA6E120045C001F00A0E0118D8A489
:101F6600B7EF0FF0B9EF0FF0BDEF0FF0090E456EAA
:101F7600D6EF0FF00B0E0118D8A4C4EF0FF0C6EF82
:101F86000FF0CAEF0FF00C0E456ED6EF0FF0020EF3
:101F96000118D8A4D1EF0FF0D3EF0FF0D6EF0FF062
:101FA600CA94000E3A6E1200450E026E000E036EC3
:101FB60002C0D9FF03C0DAFF060EDE18D8A4E6EF8A
:101FC6000FF0E8EF0FF010EF10F0020E4A18D8B439
:101FD600EFEF0FF0F1EF0FF0FAEF0FF0030E4A18E4
:101FE600D8A4F8EF0FF0FAEF0FF010EF10F048500A
:101FF600D8A400EF10F002EF10F010EF10F04750E9
:10200600D8A408EF10F00AEF10F010EF10F002C09D
:10201600D9FF03C0DAFF0E0EDF6E12004A50D8A4B5
:1020260017EF10F019EF10F053EF10F04850D8A446
:102036001FEF10F021EF10F053EF10F04750D8A427
:1020460027EF10F029EF10F053EF10F0450E026E57
:10205600000E036E02C0D9FF03C0DAFFDF50016E27
:10206600030E0118D8A43AEF10F03CEF10F044EF3D
:1020760010F002C0D9FF03C0DAFF050EDF6E53EF82
:1020860010F0050E0118D8A44BEF10F04DEF10F02C
:1020960053EF10F002C0D9FF03C0DAFF040EDF6E63
:1020A6001200270E926E000E0E01E76F010EE86F0A
:1020B600020EE96FC08E0F014D914D934C85F18C48
:1020C600F18AF188F186F292F288F090F086F09229
:1020D600F088F094F08AA49091AE02D0A38001D04B
:1020E600A390F28EF28C80BA7BEF10F07DEF10F0A9
:1020F60096EF10F080B282EF10F084EF10F096EFBA
:1021060010F081B089EF10F08BEF10F096EF10F021
:1021160080B090EF10F092EF10F096EF10F0D39E93
:102126000F014D9F030012003B503C10D8B49EEFA8
:1021360010F0A0EF10F0A2EF10F0ABEC0EF045C0DF
:1021460001F00F0E0118D8A4ABEF10F0ADEF10F0B0
:10215600B6EF10F0010E456EA4EC0EF00F013F8BAA
:102166003F8F9CEC0EF00150D8A4BCEF10F0BEEFF0
:1021760010F0C2EF10F0010E456EE3EF10F0030E03
:102186000118D8B4C9EF10F0CBEF10F0D4EF10F06F
:10219600090E0118D8A4D2EF10F0D4EF10F0D8EF42
:1021A60010F00A0E456EE3EF10F00C0E0118D8A4DD
:1021B600DFEF10F0E1EF10F0E3EF10F00B0E456EDD
:1021C60012003B503C10D8B4EBEF10F0EDEF10F0DE
:1021D600EFEF10F0ABEC0EF0450E056E000E066E3E
:1021E60005C0D9FF06C0DAFFDF50076E0750D8A436
:1021F600FFEF10F001EF11F009EF11F005C0D9FF64
:1022060006C0DAFF080EDF6E5EEF11F00704D8B4E1
:102216000FEF11F011EF11F001EF11F0070E071893
:10222600D8A418EF11F01AEF11F01CEF11F001EF1E
:1022360011F0030E0718D8B423EF11F025EF11F0B3
:1022460040EF11F0040E0718D8B42CEF11F02EEF62
:1022560011F040EF11F0050E0718D8B435EF11F064
:1022660037EF11F040EF11F00A0E0718D8A43EEF31
:1022760011F040EF11F05EEF11F0010E496446EFE8
:1022860011F048EF11F05EEF11F0010E4A644EEFC7
:1022960011F050EF11F058EF11F005C0D9FF06C04C
:1022A600DAFF0B0EDF6E5EEF11F005C0D9FF06C038
:1022B600DAFF0C0EDF6ED0EC12F012003B503C1031
:1022C600D8B468EF11F06AEF11F06CEF11F0ABECD7
:1022D6000EF0450E066E000E076E06C0D9FF07C04B
:1022E600DAFFDF50D8A47AEF11F07CEF11F084EF1B
:1022F60011F006C0D9FF07C0DAFF070EDF6EF2EF56
:1023060011F006C0D9FF07C0DAFFDF50086E030ED2
:102316000818D8B491EF11F093EF11F0A5EF11F072
:102326000A0E0818D8B49AEF11F09CEF11F0A5EF39
:1023360011F0090E0818D8A4A3EF11F0A5EF11F0BB
:10234600C5EF11F0010E4964ABEF11F0ADEF11F0DE
:10235600F2EF11F0010E4A64B3EF11F0B5EF11F090
:10236600BDEF11F006C0D9FF07C0DAFF0A0EDF6E17
:10237600F2EF11F006C0D9FF07C0DAFF090EDF6ED3
:10238600F2EF11F00804D8B4CBEF11F0CDEF11F055
:102396007CEF11F0080E0818D8B4D4EF11F0D6EF80
:1023A60011F07CEF11F00D0E0818D8A4DDEF11F036
:1023B600DFEF11F0E1EF11F07CEF11F0040E0818D9
:1023C600D8A4E8EF11F0EAEF11F0F2EF11F006C031
:1023D600D9FF07C0DAFF0B0EDF6EF2EF11F005EC46
:1023E60016F012003B503C10D8B4FCEF11F0FEEF93
:1023F60011F000EF12F0ABEC0EF0450E066E000E7B
:10240600076E06C0D9FF07C0DAFFDF50D8A40EEF6B
:1024160012F010EF12F018EF12F006C0D9FF07C045
:10242600DAFF030EDF6ECFEF12F006C0D9FF07C04A
:10243600DAFFDE04D8B422EF12F024EF12F031EF07
:1024460012F006C0D9FF07C0DAFF020EDE18D8A4C4
:102456002FEF12F031EF12F039EF12F006C0D9FF6C
:1024660007C0DAFF060EDF6ECFEF12F006C0D9FF07
:1024760007C0DAFF0E0EDE18D8A444EF12F046EFBE
:1024860012F0CFEF12F0020E4A18D8B44DEF12F048
:102496004FEF12F058EF12F0030E4A18D8A456EF79
:1024A60012F058EF12F0CFEF12F04850D8A45EEFBA
:1024B60012F060EF12F0CFEF12F04750D8A466EF9B
:1024C60012F068EF12F0CFEF12F0A4EC0EF00F014D
:1024D6003F8B3F9F9150C30B1809916E91AE76EFDB
:1024E60012F079EF12F0010E7AEF12F0000E046E80
:1024F600056A04500510D8A483EF12F087EF12F096
:10250600016A012A88EF12F0016A013A0146014682
:1025160091500118BF0B0118916E04500510D8A4F4
:1025260097EF12F099EF12F09FEF12F0000E036E84
:10253600000E026EA2EF12F0000E036E026802C0D9
:1025460090FF04500510D8A4ABEF12F0AFEF12F0D5
:10255600016A012AB0EF12F0016AA3500118FE0BBE
:102566000118A36EA49004500510D8A4BDEF12F074
:10257600C1EF12F0016A012AC2EF12F0016A0132BC
:102586000132915001187F0B0118916E0F013F8F98
:102596009CEC0EF0CFEF12F0120045C002F0080ED0
:1025A6000218D8A4D9EF12F0DBEF12F008EF13F0FF
:1025B600A4EC0EF00F013F8B3F9FFC0E3F1799CF07
:1025C60003F0090E0324F66EF76A3E0EF7220800A2
:1025D600F5CF01F00128046E3B0E0464F5EF12F00E
:1025E600F7EF12F0F9EF12F0000E046E710E0424EC
:1025F600F66EF76A3F0EF7220800F5CF03F003C028
:1026060099FF000E986EAFEF13F00B0E0218D8A4C8
:102616000FEF13F011EF13F03FEF13F0A4EC0EF0F1
:102626000F013F8B3F9F030E3F1398CF03F0090E18
:102636000324F66EF76A3E0EF7220800F5CF01F086
:102646000128046E630E04642BEF13F02DEF13F0D4
:102656002FEF13F0000E046E710E0424F66EF76A67
:102666003F0EF7220800F5CF03F003C098FF3F8F17
:102676009CEC0EF0AFEF13F00C0E0218D8A446EF48
:1026860013F048EF13F067EF13F0A4EC0EF00F0110
:102696003F8B3F9F3F813F9399CF03F003C001F0EB
:1026A600070E01160128046E060E04645DEF13F092
:1026B6005FEF13F061EF13F0000E046E3F8104C06C
:1026C60099FF3F8F3BEF13F0060E0218D8B46EEF5A
:1026D60013F070EF13F079EF13F00E0E0218D8A472
:1026E60077EF13F079EF13F0AFEF13F0A4EC0EF0E1
:1026F6000F013F8B3F9F919091928FCF03F0090E70
:102706000324F66EF76A3E0EF7220800F5CF01F0B5
:102716000128046E3B0E046493EF13F095EF13F05B
:1027260097EF13F0000E046E710E0424F66EF76A2E
:102736003F0EF7220800F5CF03F003C08FFF000E0F
:102746008E6E91909182010E8E6E010E8F6E010E2D
:102756008F6E3F8F3BEF13F012000F013FB9B6EFBC
:1027660013F0B8EF13F0B0EF13F0A4EC0EF00F0176
:102776003F8B3F9F3FB9C2EF13F0C4EF13F0BDEF9D
:1027860013F0000E016E030E3F1398CF02F0090EF0
:102796000224F66EF76A3E0EF7220800F5CF03F024
:1027A600630E0364D9EF13F0DBEF13F0DDEF13F0E4
:1027B600010E016E995098CF02F0090E0224F66EB2
:1027C600F76A3E0EF7220800F5CF03F01F0E0364EA
:1027D600EFEF13F0F1EF13F0F3EF13F0010E016ECC
:1027E60099CF02F0090E0224F66EF76A3E0EF72222
:1027F6000800F5CF03F00350D8B404EF14F006EF49
:1028060014F00EEF14F00C0E03640CEF14F00EEF40
:1028160014F010EF14F0010E016E98CF02F0090EBD
:102826000224F66EF76A3E0EF7220800F5CF03F093
:10283600170E036421EF14F023EF14F025EF14F0C4
:10284600010E016E99CF02F0090E0224F66EF76AA8
:102856003E0EF7220800F5CF03F0060E036436EFAE
:1028660014F038EF14F03AEF14F0010E016E98CF21
:1028760002F0090E0224F66EF76A3E0EF7220800F1
:10288600F5CF03F03B0E03644BEF14F04DEF14F05D
:102896004FEF14F0010E016E99CF02F0090E0224DB
:1028A600F66EF76A3E0EF7220800F5CF03F03B0EF0
:1028B600036460EF14F062EF14F064EF14F0010E9D
:1028C600016E0150D8B46AEF14F06CEF14F097EF74
:1028D60014F03FB971EF14F073EF14F06CEF14F0CD
:1028E600030E3F13850EF66E3F0EF76E0800F5CF0A
:1028F60098FF9950010E986E010E996E000E986E13
:10290600030E996E000E986E000E996E919091824C
:10291600010E8E6E010E8F6E000E8E6E010E8F6E84
:10292600000E8E6E000E8F6E3FB99CEF14F09EEF78
:1029360014F097EF14F03F913F93919C9150C30B85
:102946001809916E919E000E906EA3903F8F3FB92D
:10295600AFEF14F0B1EF14F0AAEF14F09CEC0EF008
:102966001200D3EC0EF06EEC0FF0EBEC0EF0DEEC9A
:102976000EF0B3EC0EF0BDEC0EF0C8EC0EF0B0ECC1
:1029860013F03AEC0FF0C0A6CBEF14F0CDEF14F035
:10299600D2EF14F0C0960F014C91D9EF14F0000E4F
:1029A600CC6ECA84010E3A6E010E456EF28EF28C22
:1029B600F18CF18AF188F186F18E000E396E000EE7
:1029C600346E010E336E000E306EA4A0EDEF14F0DF
:1029D600EFEF14F0F3EF14F0A49090688DEC0FF085
:1029E60090EC17F02F6E3A50D8B4FCEF14F0FEEFCF
:1029F60014F09AEF15F09F0ECC6404EF15F006EF75
:102A060015F08CEF15F0000ECC6E3B0E316E000EFD
:102A1600326E31C0D9FF32C0DAFFDE50DE10D8B4D4
:102A260017EF15F019EF15F049EF15F031C0D9FF82
:102A360032C0DAFFDE06000EDD5A31C0D9FF32C0E1
:102A4600DAFFDECF2DF0DDCF2EF02D502E10D8A4DC
:102A56002FEF15F031EF15F035EF15F0ABEC0EF06A
:102A660045EF15F02DC02AF02EC02BF0060E2C6E69
:102A7600D8902B322A322C2E3BEF15F02A50070B1A
:102A86000FEC0FF0000E346E640E336E334A342AA8
:102A96005E0E335C010E3458D8A054EF15F056EF95
:102AA60015F08CEF15F04A50D8A45CEF15F05EEFE8
:102AB60015F088EF15F04950D8A464EF15F066EFCD
:102AC60015F088EF15F04850D8A46CEF15F06EEFAE
:102AD60015F088EF15F04750D8A474EF15F076EF8F
:102AE60015F088EF15F00F0E4518D8B47DEF15F0E8
:102AF6007FEF15F088EF15F0CA94000E346E000EC5
:102B0600336E000E3A6E8CEF15F0000E346E640EC6
:102B1600336E33503410D8A493EF15F096EF15F0BA
:102B2600010E97EF15F0000E2F129EEF15F0000E16
:102B3600346E010E336E2F50D8B4A4EF15F0A6EF05
:102B460015F0B6EF15F0030E3018D8A4ADEF15F05A
:102B5600AFEF15F0B3EF15F0000E306EEEEC1AF095
:102B6600302AE8EF14F0530E936E080E946E000EA2
:102B7600826E010E8116270E8016A4EC0EF00F0150
:102B86003F8B3F8F000E456E3AEC0FF0000E466EFF
:102B9600000E3A6E000E396ED59ECA940F013FB9EB
:102BA600D7EF15F0D9EF15F0D1EF15F03F9B9CEC60
:102BB6000EF0ABEC0EF0F292F288F090F086F09206
:102BC600F088F094F08AF294F18CF18AF188F1861B
:102BD6009E90A49091AE02D0A38001D0A390F28ED5
:102BE600F28CC29054EC10F0000E346E010E336E6F
:102BF600000E306ED3EC0EF06EEC0FF0E8EF14F032
:102C060000EF00F045C002F0070E0218D8A40EEF40
:102C160016F010EF16F03EEF16F0A4EC0EF00F01D2
:102C26003F8B3F9F3F813F9398CF04F0090E0424CA
:102C3600F66EF76A3E0EF7220800F5CF01F001287E
:102C4600056E170E05642AEF16F02CEF16F02EEF20
:102C560016F0000E056E710E0524F66EF76A3F0E2D
:102C6600F7220800F5CF04F004C098FF3F8F9CECD4
:102C76000EF08FEF17F0090E0218D8A445EF16F0E4
:102C860047EF16F075EF16F0A4EC0EF00F013F8B30
:102C96003F9F3F913F8399CF04F0090E0424F66EBF
:102CA600F76A3E0EF7220800F5CF01F00128056EFF
:102CB6000C0E056461EF16F063EF16F065EF16F083
:102CC600010E056E3F913F83710E0524F66EF76A7D
:102CD6003F0EF7220800F5CF04F004C099FF3F8F9E
:102CE6003AEF16F00A0E0218D8A47CEF16F07EEF23
:102CF60016F014EF17F0A4EC0EF00F013F8B3F9F78
:102D06003F913F8398CF04F0090E0424F66EF76ACC
:102D16003E0EF7220800F5CF01F00128056E99CF87
:102D260004F0090E0424F66EF76A3E0EF722080038
:102D3600F5CF03F0020E0318D8A4A4EF16F0A6EF01
:102D460016F0B2EF16F01D0E0564ACEF16F0AEEFFE
:102D560016F004EF17F0010E056E04EF17F00304EA
:102D6600D8B4B8EF16F0BAEF16F0F0EF16F0030E7F
:102D76000318D8B4C1EF16F0C3EF16F0F0EF16F053
:102D8600050E0318D8B4CAEF16F0CCEF16F0F0EF24
:102D960016F0070E0318D8B4D3EF16F0D5EF16F0D9
:102DA600F0EF16F0080E0318D8B4DCEF16F0DEEFDD
:102DB60016F0F0EF16F00A0E0318D8B4E5EF16F089
:102DC600E7EF16F0F0EF16F00C0E0318D8A4EEEFAE
:102DD60016F0F0EF16F0FAEF16F01F0E0564F6EF98
:102DE60016F0F8EF16F004EF17F0AEEF16F01E0E21
:102DF600056400EF17F002EF17F004EF17F0AEEFDF
:102E060016F03F913F83710E0524F66EF76A3F0E6A
:102E1600F7220800F5CF04F004C098FF3F8F3AEF81
:102E260016F00B0E0218D8A41BEF17F01DEF17F0C3
:102E360049EF17F0A4EC0EF00F013F8B3F9F030EF6
:102E46003F1398CF04F0090E0424F66EF76A3E0E7F
:102E5600F7220800F5CF01F00128056E630E056420
:102E660037EF17F039EF17F03BEF17F0000E056E4E
:102E7600710E0524F66EF76A3F0EF7220800F5CFAD
:102E860004F004C098FF3F8F3AEF16F0060E0218C2
:102E9600D8B450EF17F052EF17F05BEF17F00E0EA5
:102EA6000218D8A459EF17F05BEF17F08FEF17F061
:102EB600A4EC0EF00F013F8B3F9F918091928ECF35
:102EC60004F0090E0424F66EF76A3E0EF722080097
:102ED600F5CF01F00128056E170E056475EF17F0A2
:102EE60077EF17F079EF17F0000E056E710E0524D7
:102EF600F66EF76A3F0EF7220800F5CF04F004C01D
:102F06008EFF91909182010E8E6E010E8F6E010ED4
:102F16008F6E3F8F3AEF16F01200000E236E000EF2
:102F26001C6E460E246E000E256E02EF18F0490E3A
:102F3600286E000E296E410E266E000E276E000EBC
:102F460080B2010E196EEA0E1A6E230E1B6E220E49
:102F56001D6E200E1E6EAE0E1F6E1F0E206E1BEF18
:102F660018F0480E286E000E296E3F0E266E000ED3
:102F7600276E000E81B0010E196EC20E1A6E220E59
:102F86001B6E0A0E1D6E2C0E1E6E400E1F6E1D0E43
:102F9600206E1BEF18F0470E286E000E296E3D0EB0
:102FA600266E000E276E000E80B0010E196EC80E3A
:102FB6001A6E210E1B6EA00E1D6E250E1E6EF80ECD
:102FC6001F6E1D0E206E1BEF18F04A0E286E000EA7
:102FD600296E430E266E000E276E000E80BA010E75
:102FE600196E2E0E1A6E210E1B6EA60E1D6E1E0E6D
:102FF6001E6E5C0E1F6E1F0E206E1BEF18F0235008
:10300600096E0A6A0A50000AD8B40CEF18F0E8EF05
:1030160017F00950010AD8B49AEF17F0030AD8B48A
:10302600B4EF17F0010AD8B4CEEF17F0E8EF17F0B7
:103036001950D8B421EF18F023EF18F0BEEF1AF0AC
:1030460097EF19F028C0D9FF29C0DAFF010EDF6E0D
:1030560024C0D9FF25C0DAFFDF50D8A435EF18F019
:1030660037EF18F046EF18F0000ED76E000ED66E4A
:10307600D58E26C0D9FF27C0DAFF000EDE6E000E01
:10308600DD6E5CEF18F0D6CF0DF0D7CF0EF00E50F8
:103096000A6E096A0D500B6E0C6A09500B120A5023
:1030A6000C1226C0D9FF27C0DAFF0BC0DEFF0CC00A
:1030B600DDFF23C009F0010E0A6E092A65EF18F03C
:1030C600D8900A36092E63EF18F024C0D9FF25C020
:1030D600DAFF0A50DF12010E1C6EE3EF1AF0D6CFAC
:1030E6000FF0D7CF10F010500A6E096A0F500B6E12
:1030F6000C6A09500B10216E0A500C10226E26C065
:10310600D9FF27C0DAFFDECF09F0DDCF0AF021C0F4
:103116000BF022C00CF009500B5E0A500C5A010E3F
:103126000B24BA0E0C20800BD8A49CEF18F09EEF4F
:1031360018F0C9EF18F028C0D9FF29C0DAFF030E2E
:10314600DF6E26C0D9FF27C0DAFF21C0DEFF22C00E
:10315600DDFF1D501E10D8B4B3EF18F0B5EF18F010
:10316600C2EF18F002D8C2EF18F00500FA6E1D5033
:10317600FD6E1E50FE6EF850FF6EFA501200010EE4
:103186003A6E000ECC6ECA846EEF18F026C0D9FFD8
:1031960027C0DAFFDECF09F0DDCF0AF021C00BF041
:1031A60022C00CF009500B5E0A500C5A000E0B247C
:1031B600FC0E0C20800BD8A4E3EF18F0E5EF18F016
:1031C6006EEF18F028C0D9FF29C0DAFF020EDE180C
:1031D600D8B4F0EF18F0F2EF18F06EEF18F028C040
:1031E600D9FF29C0DAFF020EDF6E1A501B10D8B4C1
:1031F600FFEF18F001EF19F00EEF19F002D80EEFFD
:1032060019F00500FA6E1A50FD6E1B50FE6EF8504E
:10321600FF6EFA501200010E3A6E000ECC6ECA8492
:103226006EEF18F0D6CF11F0D7CF12F012500A6E0B
:10323600096A11500B6E0C6A09500B10216E0A5068
:103246000C10226E300E186E000E176E36EF19F047
:10325600450E186E176853EF19F0200E186E000E03
:10326600176E53EF19F02350096E0A6A0A50000AC6
:10327600D8B440EF19F053EF19F00950000AD8B44A
:1032860053EF19F0010AD8B42BEF19F0030AD8B49A
:1032960030EF19F0010AD8B430EF19F053EF19F0F6
:1032A60026C0D9FF27C0DAFFDECF09F0DDCF0AF04E
:1032B600091E0A1E094A0A2A1750095E18500A5A98
:1032C6002150092422500A20800BD8A46DEF19F052
:1032D6006FEF19F06EEF18F026C0D9FF27C0DAFF9E
:1032E60021C0DEFF22C0DDFF1D501E10D8B47EEFC8
:1032F60019F080EF19F06EEF18F002D88DEF19F083
:103306000500FA6E1D50FD6E1E50FE6EF850FF6EE3
:10331600FA5012006EEF18F028C0D9FF29C0DAFF64
:10332600030EDF6E6EEF18F028C0D9FF29C0DAFF52
:10333600DF50096E0A6A0A50000AD8B4A5EF19F0E0
:10334600E3EF1AF00950000AD8B425EF18F0010A85
:10335600D8B472EF18F0030AD8B472EF18F0010A65
:10336600D8B415EF19F0070AD8B48FEF19F0E3EFC8
:103376001AF028C0D9FF29C0DAFF000EDF6E23C07D
:1033860009F0010E0A6E092ACBEF19F0D8900A3619
:10339600092EC9EF19F00A50FF0A0B6E24C0D9FF97
:1033A60025C0DAFF0B50DF1624C0D9FF25C0DAFF8F
:1033B600DF50D8A4E1EF19F0E3EF19F06EEF18F043
:1033C600D59EE3EF1AF028C0D9FF29C0DAFF000E18
:1033D600DF6E23C009F0010E0A6E092AF5EF19F017
:1033E600D8900A36092EF3EF19F00A50FF0A0B6E31
:1033F60024C0D9FF25C0DAFF0B50DF1624C0D9FF41
:1034060025C0DAFFDF50D8A40BEF1AF00DEF1AF043
:1034160010EF1AF0D59E12EF1AF0010E1C6E1F5017
:103426002010D8B419EF1AF01BEF1AF0E3EF1AF0D8
:1034360002D828EF1AF00500FA6E1F50FD6E2050D4
:10344600FE6EF850FF6EFA501200E3EF1AF028C035
:10345600D9FF29C0DAFF040EDF6E24C0D9FF25C0CC
:10346600DAFFDF50D8A43AEF1AF03CEF1AF043EF38
:103476001AF0000ED76E000ED66ED58E3CEF18F001
:10348600D6CF13F0D7CF14F014500A6E096A135032
:103496000B6E0C6A09500B120A500C1226C0D9FF8B
:1034A60027C0DAFF0BC0DEFF0CC0DDFF5CEF18F0B3
:1034B600D6CF15F0D7CF16F016500A6E096A1550FA
:1034C6000B6E0C6A09500B10216E0A500C10226EFE
:1034D60026C0D9FF27C0DAFFDECF09F0DDCF0AF01C
:1034E60021C00BF022C00CF009500B5E0A500C5A9A
:1034F600000E0B24FC0E0C20800BD8A485EF1AF0CE
:1035060087EF1AF06EEF18F023C009F0010E0A6E6D
:10351600092A90EF1AF0D8900A36092E8EEF1AF083
:103526000A50FF0A0B6E24C0D9FF25C0DAFF0B50E4
:10353600DF1624C0D9FF25C0DAFFDF50D8A4A6EFD6
:103546001AF0A8EF1AF0ABEF1AF0D59EADEF1AF00D
:10355600010E1C6E28C0D9FF29C0DAFF000EDF6EEF
:103566001F502010D8B4BAEF1AF0BCEF1AF0E3EFF0
:103576001AF01BEF1AF028C0D9FF29C0DAFFDF5076
:10358600096E0A6A0A50000AD8B4CCEF1AF0E3EFC3
:103596001AF00950000AD8B4E3EF1AF0010AD8B4B9
:1035A600BCEF19F0030AD8B4E6EF19F0010AD8B453
:1035B6002AEF1AF0070AD8B45BEF1AF0E3EF1AF015
:1035C600232A030E2364EAEF1AF0ECEF1AF002EF57
:1035D60018F01C50120039C008F00850D8A4F6EFB5
:1035E6001AF0F8EF1AF063EF1CF04C684B68000E07
:1035F600386E45C007F007C037F0F1EF1BF0070E35
:103606004B6E3EEF1CF00F013F813F9398CF0BF0BE
:10361600090E0B24F66EF76A3E0EF7220800F5CF68
:103626004CF0170E4C641AEF1BF01CEF1BF01EEF4C
:103636001BF0000E4C6E995099CF0BF0090E0B241F
:10364600F66EF76A3E0EF7220800F5CF4BF03B0EFA
:103656004B6430EF1BF032EF1BF03EEF1CF0000E18
:103666004B6E3EEF1CF0FC0E0F013F174C6898CFD7
:103676000BF0090E0B24F66EF76A3E0EF7220800D1
:10368600F5CF4BF03B0E4B644BEF1BF04DEF1BF0B1
:103696003EEF1CF032EF1BF00F013F913F8398CFB6
:1036A6000BF0090E0B24F66EF76A3E0EF7220800A1
:1036B600F5CF4BF01F0E4B6463EF1BF065EF1BF06D
:1036C60067EF1BF0010E4B6E99CF0BF0090E0B2422
:1036D600F66EF76A3E0EF7220800F5CF4CF00C0E98
:1036E6004C6478EF1BF07AEF1BF07CEF1BF0010EB9
:1036F6004C6E010E386E3EEF1CF0030E0F013F13A9
:1037060098CF0BF0090E0B24F66EF76A3E0EF722E1
:103716000800F5CF4BF0630E4B6494EF1BF096EF69
:103726001BF098EF1BF0000E4B6E140E4C6E3EEF26
:103736001CF00F013F813F9399CF0BF0060E0B64EF
:10374600A7EF1BF0A9EF1BF0ABEF1BF0000E0B6E03
:103756000BC04BF03EEF1CF0918091928ECF0BF098
:10376600090E0B24F66EF76A3E0EF7220800F5CF17
:103776004CF0170E4C64C2EF1BF0C4EF1BF0C6EF03
:103786001BF0000E4C6E8F508FCF0BF0090E0B24E2
:10379600F66EF76A3E0EF7220800F5CF4BF03B0EA9
:1037A6004B64D8EF1BF0DAEF1BF0DCEF1BF0000EDA
:1037B6004B6E91BEE1EF1BF0E3EF1BF0E9EF1BF060
:1037C600000E066E000E056EEDEF1BF0000E066E87
:1037D600020E056E05C038F03EEF1CF00750016E74
:1037E600026A0250000AD8B4FBEF1BF03EEF1CF051
:1037F6000150000AD8B43EEF1CF0010AD8B406EF17
:103806001BF0030AD8B436EF1BF0010AD8B44FEF09
:103816001BF0070AD8B480EF1BF0010AD8B49CEF5E
:103826001BF0030AD8B4AFEF1BF0010AD8B406EFB9
:103836001BF00F0AD8B406EF1BF0010AD8B44FEFFD
:103846001BF0030AD8B44FEF1BF0010AD8B480EF7F
:103856001BF0070AD8B49CEF1BF0010AD8B436EF68
:103866001BF0030AD8B4AFEF1BF0010AD8B402EF7D
:103876001BF03EEF1CF0050E0718D8B445EF1CF000
:1038860047EF1CF05FEF1CF00C0E0718D8B44EEF94
:103896001CF050EF1CF05FEF1CF00F0E0718D8B4A9
:1038A60057EF1CF059EF1CF05FEF1CF0E50E356E7C
:1038B6003F0E366E63EF1CF0D50E356E3F0E366E3C
:1038C60035C009F036C00AF0010E08646DEF1CF031
:1038D6006FEF1CF0A0EF1DF04C28D8B475EF1CF06C
:1038E60077EF1CF093EF1DF0020E0818D8A47EEFB8
:1038F6001CF080EF1CF0E2EF1CF00D0E4C24F66E6F
:10390600F76A3F0EF7220800F5500924016E000EF3
:103916000A20026E01C0F6FF02C0F7FF0800F5CFCD
:103926000BF0530E936E080E946E000E826E010E0F
:103936008116809C0BA0A2EF1CF0A4EF1CF0A5EF53
:103946001CF082880BA2AAEF1CF0ACEF1CF0ADEFC6
:103956001CF0828A0BA4B2EF1CF0B4EF1CF0B5EF9A
:103966001CF0828C0BA6BAEF1CF0BCEF1CF0BDEF6E
:103976001CF081860BA8C2EF1CF0C4EF1CF0C5EF4B
:103986001CF0828E0BAACAEF1CF0CCEF1CF0CDEF18
:103996001CF0818A0BACD2EF1CF0D4EF1CF0D5EFF3
:1039A6001CF0818438A0DAEF1CF0DCEF1CF0DDEFB0
:1039B6001CF0808C8192510E936EF6EF1EF0030E72
:1039C6000818D8A4E9EF1CF0EBEF1CF0F6EF1EF098
:1039D600530E936E080E946E000E826E010E8116C3
:1039E600809C0A0E4C60FAEF1CF0FCEF1CF038EFDE
:1039F6001DF00BEF1DF0000E0B6E4EEF1DF009C013
:103A0600F6FF0AC0F7FF0800F5CF0BF04EEF1DF0EA
:103A16003750016E026A0250000AD8B415EF1DF045
:103A260002EF1DF00150010AD8B4FEEF1CF0020AA5
:103A3600D8B4FEEF1CF0050AD8B4FEEF1CF0010A5C
:103A4600D8B4FEEF1CF00F0AD8B4FEEF1CF0010A42
:103A5600D8B4FEEF1CF0030AD8B4FEEF1CF0040A3B
:103A6600D8B4FEEF1CF002EF1DF0A90E4C24F66E42
:103A7600F76A3E0EF7220800F5CF0BF00B5009242B
:103A8600016E000E0A20026E01C0F6FF02C0F7FFAB
:103A96000800F5CF0BF00B50D8B454EF1DF056EFDD
:103AA6001DF09EEF1DF00BA05BEF1DF05DEF1DF00E
:103AB6005EEF1DF082880BA263EF1DF065EF1DF02F
:103AC60066EF1DF0828A0BA46BEF1DF06DEF1DF003
:103AD6006EEF1DF0828C0BA673EF1DF075EF1DF0D7
:103AE60076EF1DF081860BA87BEF1DF07DEF1DF0B4
:103AF6007EEF1DF0828E0BAA83EF1DF085EF1DF081
:103B060086EF1DF0818A0BAC8BEF1DF08DEF1DF05B
:103B16008EEF1DF08184819C130E936EF6EF1EF0DE
:103B2600530E936E080E946E000E826E010E811671
:103B3600809CF6EF1EF0F6EF1EF04B28D8B4A6EFE9
:103B46001DF0A8EF1DF093EF1DF00850D8A4AEEFBE
:103B56001DF0B0EF1DF039EF1EF0D50E091807E184
:103B66003F0E0A18D8A4BAEF1DF0BCEF1DF0D7EF30
:103B76001DF04B50016E026AD8900136023609C01C
:103B860003F00AC004F00150032602500422010E7D
:103B96000326000E042203C0F6FF04C0F7FF080048
:103BA600F5CF0BF0EBEF1DF00D0E4B24F66EF76A1A
:103BB6003F0EF7220800F5500924016E000E0A2078
:103BC600026E01C0F6FF02C0F7FF0800F5CF0BF04A
:103BD600530E936E080E946E000E826E010E8116C1
:103BE600809C0BA0F9EF1DF0FBEF1DF0FCEF1DF024
:103BF60082880BA201EF1EF003EF1EF004EF1EF009
:103C0600828A0BA409EF1EF00BEF1EF00CEF1EF0DC
:103C1600828C0BA611EF1EF013EF1EF014EF1EF0B0
:103C260081860BA819EF1EF01BEF1EF01CEF1EF08D
:103C3600828E0BAA21EF1EF023EF1EF024EF1EF05A
:103C4600818A0BAC29EF1EF02BEF1EF02CEF1EF035
:103C5600818438A231EF1EF033EF1EF034EF1EF0F0
:103C6600808C8296000E946EF6EF1EF00804D8A49F
:103C76003FEF1EF041EF1EF0F6EF1EF0D50E0918CD
:103C860007E13F0E0A18D8A44BEF1EF04DEF1EF0C9
:103C960064EF1EF04B50016E026AD8900136023670
:103CA60009C003F00AC004F00150032602500422A2
:103CB60003C0F6FF04C0F7FF0800F5CF0BF0AAEF2C
:103CC6001EF00A0E4B606AEF1EF06CEF1EF094EFCA
:103CD6001EF07BEF1EF0000E0B6EAAEF1EF009C061
:103CE600F6FF0AC0F7FF0800F5CF0BF0AAEF1EF0AB
:103CF6003750016E026A0250000AD8B485EF1EF0F2
:103D060072EF1EF00150030AD8B46EEF1EF00A0AD5
:103D1600D8B46EEF1EF0030AD8B46EEF1EF072EF41
:103D26001EF0A90E4B24F66EF76A3E0EF722080027
:103D3600F5CF0BF00B500924016E000E0A20026E1F
:103D460001C0F6FF02C0F7FF0800F5CF0BF0530ED7
:103D5600936E080E946E000E826E010E8116809C84
:103D66000B50D8B4B9EF1EF0BBEF1EF09EEF1DF05E
:103D76000BA0C0EF1EF0C2EF1EF0C3EF1EF082884C
:103D86000BA2C8EF1EF0CAEF1EF0CBEF1EF0828A20
:103D96000BA4D0EF1EF0D2EF1EF0D3EF1EF0828CF4
:103DA6000BA6D8EF1EF0DAEF1EF0DBEF1EF08186D1
:103DB6000BA8E0EF1EF0E2EF1EF0E3EF1EF0828E9E
:103DC6000BAAE8EF1EF0EAEF1EF0EBEF1EF0818A79
:103DD6000BACF0EF1EF0F2EF1EF0F3EF1EF0818455
:103DE6008198430E936E082A030E0864FDEF1EF0B9
:103DF600FFEF1EF001EF1FF0000E086E08C039F04D
:103E0600120000000102030405060708090000006D
:103E16000000000A0B0C0D0E0F101112130000000B
:103E26000000001415161718191A1B1C1D00000097
:103E36000000001E1F202122232425262700000023
:103E460000000028292A2B2C2D2E2F3031000000AF
:103E560000000032333435363738393A3B0000003B
:103E66000000003C3D3E3F404142434445000000C7
:103E7600000000464748494A4B4C4D4E4F00000053
:103E860000000050515253545556575859000000DF
:103E96000000005A5B5C5D5E5F606162630000006B
:103EA6000000000000000000000000000001010109
:103EB60001010101010101020202020202020202E3
:103EC60002030303030303030303030404040404B8
:103ED6000404040404050505050505050505050690
:103EE6000606060606060606060707070707070765
:103EF600070707080808080808080808080909093C
:103F06000909090909090900010203040506070848
:103F1600090001020304050607080900010203045B
:103F2600050607080900010203040506070809003B
:103F36000102030405060708090001020304050639
:103F46000708090001020304050607080900010223
:103F5600030405060708090001020304050607080D
:103F6600090001020304050607080900010203040B
:103F7600050607080910111213141516171819202B
:103F86002122232425262728293031323334353679
:103F960037383940414243444546474849505152D3
:103FA600535455565758596061626364656667682D
:103FB600697071727374757677787980818283847B
:103FC6008586878889909192939495969798996D0E
:103FD6003E373F313E3E79317671776D7740403FCF
:103FE600065B4F666D7D077F6F4040404040402A2C
:023FF600540075
:083FF80080F4D8FFFFF8CFF1BF
:00000001FF
