:020000040000FA
:0400000001EF10F00C
:101F4C001200FFFF0F013F8F3F9B1200CA94000E3F
:101F5C00396E1200CA94000E396E1200550EA76E1F
:101F6C00AA0EA76E0F013F8B12007650FC0B0209D4
:101F7C00766E000E786E76941200CA50FC0B020935
:101F8C00CA6E000ECC6ECA94000E396E12003F0E53
:101F9C007916300E79127982000E7B6E000E7A6EF5
:101FAC0079901200000E896E000E8A6E000E8B6EF8
:101FBC00080E856E000E886E1200CD503F0B800906
:101FCC00CD6ECF0ECD16CD86CD829A9E9E909D90D5
:101FDC00CD901200D59AD59CD550F80B0509D56E2D
:101FEC00D596000ED76E000ED66EF29AF294D59E50
:101FFC00000E436E12004E0EF66E1F0EF76E000EA4
:10200C00F86E0900F5CF48F00900F5CF49F000EE65
:10201C002FF0190EEE6AE806FDE1000EF86E0001D5
:10202C0079EF14F04550D8A41EEF10F020EF10F00B
:10203C0036EF10F04450D8A426EF10F028EF10F033
:10204C0036EF10F042500F0BE806D8A430EF10F02A
:10205C0032EF10F036EF10F04250F00B0209426EE6
:10206C001200000EB36E900EB26E010EB16E270E02
:10207C00926E530E936E0C0E946E8096809E0F0192
:10208C004869170E496FC18EC19CC150C70B080916
:10209C00C16EC150F80B0209C16E498FC29CC29E21
:1020AC00C250C30B2C09C26EC280270E926E120056
:1020BC00420E016E000E026E01C0D9FF02C0DAFFA3
:1020CC00DF500F0B0009D8A46EEF10F070EF10F07A
:1020DC007AEF10F001C0D9FF02C0DAFFDF50F00B2D
:1020EC000309DF6E90EF10F001C0D9FF02C0DAFFD8
:1020FC00DF500F0BE806D8A486EF10F088EF10F035
:10210C0090EF10F001C0D9FF02C0DAFFDF50F00BE6
:10211C000309DF6E120042500F0B016E0150026E6C
:10212C00036A090E02180310D8A49FEF10F0A1EF58
:10213C0010F0A7EF10F04250F00B0809426EC4EFFC
:10214C0010F00A0E02180310D8A4AFEF10F0B1EF84
:10215C0010F0B7EF10F04250F00B0B09426EC4EFC9
:10216C0010F0020E02180310D8A4BFEF10F0C1EF4C
:10217C0010F0C4EF10F0CA94000E396E1200000E6D
:10218C00066E000E056E03500410D8B4D0EF10F09C
:10219C00D2EF10F0FAEF10F0010E076EDAEF10F03C
:1021AC00D89003360436072A04AEDFEF10F0E1EFC7
:1021BC0010F0D6EF10F0D890053606360350015CBF
:1021CC0004500258D8A0EDEF10F0EFEF10F0F4EF40
:1021DC0010F00350015E0450025A0580D89004326E
:1021EC000332072EE1EF10F005C001F006C002F03B
:1021FC001200000E0E01E76F010EE86F020EE96F80
:10220C00C08E0F014D914D934C8533C04EFF42C093
:10221C004FFFF18CF18AF188F186F292F288F090FE
:10222C00F086F092F088F094F08AF28EF28C80BAFC
:10223C0022EF11F024EF11F03CEF11F080B229EFF6
:10224C0011F02BEF11F03CEF11F081B030EF11F0E9
:10225C0032EF11F03CEF11F080B037EF11F039EFA5
:10226C0011F03CEF11F0D39E4D9F0300120042A8D9
:10227C0042EF11F044EF11F04CEF11F04298B4EC36
:10228C000FF00F013F8B3F8FA8EC0FF042500F0B5C
:10229C00016E0150026E036A02500310D8A459EF6C
:1022AC0011F05BEF11F061EF11F04250F00B0109EE
:1022BC00426E89EF11F0030E02180310D8B469EFC7
:1022CC0011F06BEF11F075EF11F0080E02180310FE
:1022DC00D8A473EF11F075EF11F07BEF11F04250B1
:1022EC00F00B0909426E89EF11F00B0E0218031066
:1022FC00D8A483EF11F085EF11F089EF11F0425063
:10230C00F00B0A09426E12004750D8A490EF11F05E
:10231C0092EF11F0E6EF11F04550D8A498EF11F0C0
:10232C009AEF11F0E6EF11F04450D8A4A0EF11F0A1
:10233C00A2EF11F0E6EF11F0420E026E000E036EEA
:10234C0002C0D9FF03C0DAFFDF500F0B016E030E82
:10235C000118D8A4B4EF11F0B6EF11F0C0EF11F0E2
:10236C0002C0D9FF03C0DAFFDF50F00B0509DF6EA6
:10237C00E6EF11F0050E0118D8A4C7EF11F0C9EF64
:10238C0011F0D3EF11F002C0D9FF03C0DAFFDF5018
:10239C00F00B0409DF6EE6EF11F0040E0118D8A45F
:1023AC00DAEF11F0DCEF11F0E6EF11F002C0D9FF1B
:1023BC0003C0DAFFDF50F00B0D09DF6EE6EF11F012
:1023CC001200420E066E000E076E06C0D9FF07C043
:1023DC00DAFFDF500F0B0009D8A4F7EF11F0F9EF7B
:1023EC0011F003EF12F006C0D9FF07C0DAFFDF507F
:1023FC00F00B0709DF6E62EF12F006C0D9FF07C0C1
:10240C00DAFFDF500F0B056E0504D8B410EF12F095
:10241C0012EF12F01BEF12F0060E0518D8A419EFEC
:10242C0012F01BEF12F025EF12F006C0D9FF07C017
:10243C00DAFFDF50F00B0709DF6E62EF12F0030ECC
:10244C000518D8B42CEF12F02EEF12F040EF12F06A
:10245C00040E0518D8B435EF12F037EF12F040EF38
:10246C0012F0050E0518D8A43EEF12F040EF12F052
:10247C0062EF12F0010E466446EF12F048EF12F0D4
:10248C0062EF12F0010E47644EEF12F050EF12F0B3
:10249C005AEF12F006C0D9FF07C0DAFFDF50F00B7D
:1024AC000A09DF6E62EF12F006C0D9FF07C0DAFF2F
:1024BC00DF50F00B0B09DF6EECEC12F01200420E49
:1024CC00066E000E076E06C0D9FF07C0DAFFDF509C
:1024DC000F0B0009D8A475EF12F077EF12F081EF13
:1024EC0012F006C0D9FF07C0DAFFDF50F00B060967
:1024FC00DF6EE9EF12F006C0D9FF07C0DAFFDF503C
:10250C000F0B086E030E0818D8B48FEF12F091EF72
:10251C0012F0A3EF12F0090E0818D8B498EF12F0CD
:10252C009AEF12F0A3EF12F0080E0818D8A4A1EF3E
:10253C0012F0A3EF12F0C7EF12F0010E4664A9EFF0
:10254C0012F0ABEF12F0E9EF12F0010E4764B1EFAD
:10255C0012F0B3EF12F0BDEF12F006C0D9FF07C0B6
:10256C00DAFFDF50F00B0909DF6EE9EF12F006C05D
:10257C00D9FF07C0DAFFDF50F00B0809DF6EE9EF77
:10258C0012F00804D8B4CDEF12F0CFEF12F0E1EF57
:10259C0012F0070E0818D8B4D6EF12F0D8EF12F0DC
:1025AC00E1EF12F00C0E0818D8A4DFEF12F0E1EFF7
:1025BC0012F0E9EF12F006C0D9FF07C0DAFFDF50C6
:1025CC00F00B0609DF6EBEEC15F0120042500F0B3B
:1025DC00026E070E0218D8A4F6EF12F0F8EF12F004
:1025EC0026EF13F0B4EC0FF00F013F8B3F9FFC0E66
:1025FC003F1799CF03F0DD0E0324F66EF76A3D0EFC
:10260C00F7220800F5CF01F00128046E3B0E04649C
:10261C0012EF13F014EF13F016EF13F0000E046E1C
:10262C00450E0424F66EF76A3F0EF7220800F5CF2C
:10263C0003F003C099FF000E986E428885EF13F0EB
:10264C000A0E0218D8A42DEF13F02FEF13F05DEF44
:10265C0013F0B4EC0FF00F013F8B3F9F030E3F13B1
:10266C0098CF03F0DD0E0324F66EF76A3D0EF722C9
:10267C000800F5CF01F00128046E630E046449EFE5
:10268C0013F04BEF13F04DEF13F0000E046E450EEC
:10269C000424F66EF76A3F0EF7220800F5CF03F01C
:1026AC0003C098FF3F8FA8EC0FF085EF13F00B0ED3
:1026BC000218D8A464EF13F066EF13F085EF13F053
:1026CC00B4EC0FF00F013F8B3F9F3F813F9399CFAD
:1026DC0003F003C001F0070E01160128046E060E6C
:1026EC0004647BEF13F07DEF13F07FEF13F0000E1B
:1026FC00046E3F8104C099FF3F8F59EF13F0120015
:10270C000F013FB98CEF13F08EEF13F086EF13F03F
:10271C00B4EC0FF00F013F8B3F9F3FB998EF13F0D4
:10272C009AEF13F093EF13F0000E016E030E3F13AC
:10273C0098CF02F0DD0E0224F66EF76A3D0EF722FA
:10274C000800F5CF03F0630E0364AFEF13F0B1EFA5
:10275C0013F0B3EF13F0010E016E995098CF02F005
:10276C00DD0E0224F66EF76A3D0EF7220800F5CF57
:10277C0003F01F0E0364C5EF13F0C7EF13F0C9EF9E
:10278C0013F0010E016E99CF02F0DD0E0224F66EED
:10279C00F76A3D0EF7220800F5CF03F00350D8B4CA
:1027AC00DAEF13F0DCEF13F0E4EF13F00C0E03642C
:1027BC00E2EF13F0E4EF13F0E6EF13F0010E016E0D
:1027CC0098CF02F0DD0E0224F66EF76A3D0EF7226A
:1027DC000800F5CF03F0170E0364F7EF13F0F9EFD1
:1027EC0013F0FBEF13F0010E016E99CF02F0DD0E2A
:1027FC000224F66EF76A3D0EF7220800F5CF03F0BF
:10280C00060E03640CEF14F00EEF14F010EF14F03E
:10281C00010E016E98CF02F0DD0E0224F66EF76AFF
:10282C003D0EF7220800F5CF03F03B0E036421EFB9
:10283C0014F023EF14F025EF14F0010E016E99CF74
:10284C0002F0DD0E0224F66EF76A3D0EF722080048
:10285C00F5CF03F03B0E036436EF14F038EF14F0B1
:10286C003AEF14F0010E016E0150D8B440EF14F0A1
:10287C0042EF14F05FEF14F03FB947EF14F049EF5B
:10288C0014F042EF14F0030E3F13590EF66E3F0E88
:10289C00F76E0800F5CF98FF9950010E986E010E57
:1028AC00996E000E986E030E996E000E986E000EC7
:1028BC00996E3FB964EF14F066EF14F05FEF14F00B
:1028CC003F913F93919C918491969198919A919E6E
:1028DC003F8F3FB974EF14F076EF14F06FEF14F0F4
:1028EC00A8EC0FF01200D8EC0FF037EC10F0F0EC75
:1028FC000FF0E3EC0FF0C3EC0FF0CDEC0FF0BBECF2
:10290C000FF086EC13F0C0A68EEF14F090EF14F0DD
:10291C00AAEF14F0C0960F014C914ECF33F04FCF6D
:10292C0042F033C02EF02E50030B476E2E30E8329F
:10293C00030B466E2E38030B456E2E38E832E83208
:10294C00030B446EC1EF14F0D8EC0FF0FC0E3316F1
:10295C00F30E3316CF0E33163F0E3316000ECC6E1D
:10296C00CA84010E396E4250F00B0109426E33C01D
:10297C004EFF42C04FFFF28EF28CF18CF18AF1883F
:10298C00F186F18E000E386E000E376E000E356E2D
:10299C00000E2D6E010E2C6E000E2B6E41EC17F0FE
:1029AC002A6E3950D8B4DDEF14F0DFEF14F031EFAC
:1029BC0015F09F0ECC64E5EF14F0E7EF14F023EF65
:1029CC0015F0000ECC6E2C4A2D2A5E0E2C5C010EDE
:1029DC002D58D8A0F4EF14F0F6EF14F023EF15F007
:1029EC004750D8A4FCEF14F0FEEF14F01FEF15F0D5
:1029FC004650D8A404EF15F006EF15F01FEF15F0B4
:102A0C004550D8A40CEF15F00EEF15F01FEF15F094
:102A1C004450D8A414EF15F016EF15F01FEF15F075
:102A2C00CA94000E2D6E000E2C6E000E396E23EF24
:102A3C0015F0000E2D6E640E2C6E2C502D10D8A49B
:102A4C002AEF15F02DEF15F0010E2EEF15F0000EFC
:102A5C002A1235EF15F0000E2D6E010E2C6E2A5039
:102A6C00D8B43BEF15F03DEF15F04DEF15F0030E1C
:102A7C002B18D8A444EF15F046EF15F04AEF15F0DB
:102A8C00000E2B6E9FEC1AF02B2AD4EF14F0530E81
:102A9C00936E0C0E946E000E826E010E8116270E34
:102AAC00801642B85CEF15F05EEF15F063EF15F091
:102ABC00B4EC0FF00F013F8B3F8FF00E4216FC0E63
:102ACC003316F30E3316CF0E33163F0E3316000E9D
:102ADC00416E000E406E000E3F6E000E3E6E000EFC
:102AEC003D6E000E3C6E000E3B6E000E3A6E000EFC
:102AFC00436E000E396E000E326E000E316E000EFB
:102B0C00386ED59ECA940F013FB98FEF15F091EF37
:102B1C0015F089EF15F03F9BA8EC0FF0F292F288BC
:102B2C00F090F086F092F088F094F08AF294F18CA8
:102B3C00F18AF188F1869E90A490F28EF28CC2906C
:102B4C00FFEC10F0000E2D6E010E2C6E000E2B6E95
:102B5C00000E356E000E376E4ECF33F04FCF42F075
:102B6C00D8EC0FF037EC10F0D4EF14F000EF00F0CD
:102B7C0042500F0B026E060E0218D8A4C8EF15F0C7
:102B8C00CAEF15F0F8EF15F0B4EC0FF00F013F8B16
:102B9C003F9F3F813F9398CF04F0DD0E0424F66EE7
:102BAC00F76A3D0EF7220800F5CF01F00128056EFB
:102BBC00170E0564E4EF15F0E6EF15F0E8EF15F0ED
:102BCC00000E056E450E0524F66EF76A3F0EF722D1
:102BDC000800F5CF04F004C098FF3F8FA8EC0FF06D
:102BEC0040EF17F0080E0218D8A4FFEF15F001EF14
:102BFC0016F02FEF16F0B4EC0FF00F013F8B3F9F48
:102C0C003F913F8399CF04F0DD0E0424F66EF76AF2
:102C1C003D0EF7220800F5CF01F00128056E0C0ED1
:102C2C0005641BEF16F01DEF16F01FEF16F0010EEA
:102C3C00056E3F913F83450E0524F66EF76A3F0EF5
:102C4C00F7220800F5CF04F004C099FF3F8FF4EF92
:102C5C0015F0090E0218D8A436EF16F038EF16F05E
:102C6C000BEF17F0B4EC0FF00F013F8B3F9F010EF1
:102C7C00036E3F813F9398CF04F0DD0E0424F66E73
:102C8C00F76A3D0EF7220800F5CF05F00C0E056033
:102C9C0052EF16F054EF16F065EF16F00C0E0526F9
:102CAC00450E0524F66EF76A3F0EF7220800F5CFA5
:102CBC0004F004C098FF000E036E72EF16F00C0EB9
:102CCC00055E450E0524F66EF76A3F0EF7220800E6
:102CDC00F5CF04F004C098FF0350D8B478EF16F089
:102CEC007AEF16F008EF17F03F913F8398CF04F07E
:102CFC00DD0E0424F66EF76A3D0EF7220800F5CFC0
:102D0C0001F00128056E99CF04F0DD0E0424F66E57
:102D1C00F76A3D0EF7220800F5CF03F0020E0318F8
:102D2C00D8A49BEF16F09DEF16F0A9EF16F01D0E30
:102D3C000564A3EF16F0A5EF16F0FBEF16F0010EED
:102D4C00056EFBEF16F00304D8B4AFEF16F0B1EF3D
:102D5C0016F0E7EF16F0030E0318D8B4B8EF16F020
:102D6C00BAEF16F0E7EF16F0050E0318D8B4C1EF62
:102D7C0016F0C3EF16F0E7EF16F0070E0318D8B4F1
:102D8C00CAEF16F0CCEF16F0E7EF16F0080E0318AA
:102D9C00D8B4D3EF16F0D5EF16F0E7EF16F00A0E15
:102DAC000318D8B4DCEF16F0DEEF16F0E7EF16F0F0
:102DBC000C0E0318D8A4E5EF16F0E7EF16F0F1EFC0
:102DCC0016F01F0E0564EDEF16F0EFEF16F0FBEFAB
:102DDC0016F0A5EF16F01E0E0564F7EF16F0F9EFDE
:102DEC0016F0FBEF16F0A5EF16F03F913F83450E62
:102DFC000524F66EF76A3F0EF7220800F5CF04F0B3
:102E0C0004C098FF3F8FF4EF15F00A0E0218D8A4F7
:102E1C0012EF17F014EF17F040EF17F0B4EC0FF0BF
:102E2C000F013F8B3F9F030E3F1398CF04F0DD0E35
:102E3C000424F66EF76A3D0EF7220800F5CF01F078
:102E4C000128056E630E05642EEF17F030EF17F0B6
:102E5C0032EF17F0000E056E450E0524F66EF76A7C
:102E6C003F0EF7220800F5CF04F004C098FF3F8F07
:102E7C00F4EF15F01200000E236E000E1C6E430EC4
:102E8C00246E000E256EB3EF17F0460E286E000E62
:102E9C00296E3E0E266E000E276E000E80B2010EBD
:102EAC00196EBC0E1A6E200E1B6E140E1D6E230EA8
:102EBC001E6E4C0E1F6E1F0E206ECCEF17F0450EC3
:102ECC00286E000E296E3C0E266E000E276E000E2C
:102EDC0081B0010E196ECA0E1A6E240E1B6E7C0E7A
:102EEC001D6E2B0E1E6E600E1F6E1F0E206ECCEF15
:102EFC0017F0440E286E000E296E3A0E266E000E48
:102F0C00276E000E80B0010E196ECE0E1A6E230EB7
:102F1C001B6ED80E1D6E250E1E6E580E1F6E1F0ECC
:102F2C00206ECCEF17F0470E286E000E296E400E67
:102F3C00266E000E276E000E80BA010E196E7A0EE8
:102F4C001A6E220E1B6E300E1D6E200E1E6E220E81
:102F5C001F6E210E206ECCEF17F02350096E0A6AFB
:102F6C000A50000AD8B4BDEF17F099EF17F00950CA
:102F7C00010AD8B44BEF17F0030AD8B465EF17F079
:102F8C00010AD8B47FEF17F099EF17F01950D8B4A5
:102F9C00D2EF17F0D4EF17F06FEF1AF048EF19F0EB
:102FAC0028C0D9FF29C0DAFF010EDF6E24C0D9FF7B
:102FBC0025C0DAFFDF50D8A4E6EF17F0E8EF17F0E2
:102FCC00F7EF17F0000ED76E000ED66ED58E26C01A
:102FDC00D9FF27C0DAFF000EDE6E000EDD6E0DEF9E
:102FEC0018F0D6CF0FF0D7CF10F010500A6E096A38
:102FFC000F500B6E0C6A09500B120A500C1226C0A3
:10300C00D9FF27C0DAFF0BC0DEFF0CC0DDFF23C0E9
:10301C0009F0010E0A6E092A16EF18F0D8900A363C
:10302C00092E14EF18F024C0D9FF25C0DAFF0A507E
:10303C00DF12010E1C6E94EF1AF0D6CF11F0D7CF21
:10304C0012F012500A6E096A11500B6E0C6A09507C
:10305C000B10216E0A500C10226E26C0D9FF27C00F
:10306C00DAFFDECF09F0DDCF0AF021C00BF022C071
:10307C000CF009500B5E0A500C5A010E0B24BA0EC0
:10308C000C20800BD8A44DEF18F04FEF18F07AEF0E
:10309C0018F028C0D9FF29C0DAFF030EDF6E26C056
:1030AC00D9FF27C0DAFF21C0DEFF22C0DDFF1D5093
:1030BC001E10D8B464EF18F066EF18F073EF18F028
:1030CC0002D873EF18F00500FA6E1D50FD6E1E50FD
:1030DC00FE6EF850FF6EFA501200010E396E000EA3
:1030EC00CC6ECA841FEF18F026C0D9FF27C0DAFFB8
:1030FC00DECF09F0DDCF0AF021C00BF022C00CF0BE
:10310C0009500B5E0A500C5A000E0B24FC0E0C20BE
:10311C00800BD8A494EF18F096EF18F01FEF18F06E
:10312C0028C0D9FF29C0DAFF020EDE18D8B4A1EFEF
:10313C0018F0A3EF18F01FEF18F028C0D9FF29C022
:10314C00DAFF020EDF6E1A501B10D8B4B0EF18F075
:10315C00B2EF18F0BFEF18F002D8BFEF18F005006F
:10316C00FA6E1A50FD6E1B50FE6EF850FF6EFA5040
:10317C001200010E396E000ECC6ECA841FEF18F0CF
:10318C00D6CF13F0D7CF14F014500A6E096A13502F
:10319C000B6E0C6A09500B10216E0A500C10226E2B
:1031AC00300E0E6E000E0D6EE7EF18F0450E0E6E23
:1031BC000D6804EF19F0200E0E6E000E0D6E04EF6C
:1031CC0019F02350096E0A6A0A50000AD8B4F1EFBC
:1031DC0018F004EF19F00950000AD8B404EF19F0F4
:1031EC00010AD8B4DCEF18F0030AD8B4E1EF18F0F8
:1031FC00010AD8B4E1EF18F004EF19F026C0D9FF9A
:10320C0027C0DAFFDECF09F0DDCF0AF0091E0A1E57
:10321C00094A0A2A0D50095E0E500A5A21500924F7
:10322C0022500A20800BD8A41EEF19F020EF19F0C1
:10323C001FEF18F026C0D9FF27C0DAFF21C0DEFF30
:10324C0022C0DDFF1D501E10D8B42FEF19F031EF46
:10325C0019F01FEF18F002D83EEF19F00500FA6EC6
:10326C001D50FD6E1E50FE6EF850FF6EFA5012008F
:10327C001FEF18F028C0D9FF29C0DAFF030EDF6E4C
:10328C001FEF18F028C0D9FF29C0DAFFDF50096EF4
:10329C000A6A0A50000AD8B456EF19F094EF1AF0E3
:1032AC000950000AD8B4D6EF17F0010AD8B423EFAE
:1032BC0018F0030AD8B423EF18F0010AD8B4C6EFFB
:1032CC0018F0070AD8B440EF19F094EF1AF028C0A0
:1032DC00D9FF29C0DAFF000EDF6E23C009F0010E02
:1032EC000A6E092A7CEF19F0D8900A36092E7AEF6B
:1032FC0019F00A50FF0A0B6E24C0D9FF25C0DAFF63
:10330C000B50DF1624C0D9FF25C0DAFFDF50D8A43C
:10331C0092EF19F094EF19F01FEF18F0D59E94EF7F
:10332C001AF028C0D9FF29C0DAFF000EDF6E23C0C7
:10333C0009F0010E0A6E092AA6EF19F0D8900A3688
:10334C00092EA4EF19F00A50FF0A0B6E24C0D9FF06
:10335C0025C0DAFF0B50DF1624C0D9FF25C0DAFFD9
:10336C00DF50D8A4BCEF19F0BEEF19F0C1EF19F083
:10337C00D59EC3EF19F0010E1C6E1F502010D8B44F
:10338C00CAEF19F0CCEF19F094EF1AF002D8D9EF7C
:10339C0019F00500FA6E1F50FD6E2050FE6EF850AD
:1033AC00FF6EFA50120094EF1AF028C0D9FF29C012
:1033BC00DAFF040EDF6E24C0D9FF25C0DAFFDF5020
:1033CC00D8A4EBEF19F0EDEF19F0F4EF19F0000EB3
:1033DC00D76E000ED66ED58EEDEF17F0D6CF15F05A
:1033EC00D7CF16F016500A6E096A15500B6E0C6A80
:1033FC0009500B120A500C1226C0D9FF27C0DAFF55
:10340C000BC0DEFF0CC0DDFF0DEF18F0D6CF17F0B0
:10341C00D7CF18F018500A6E096A17500B6E0C6A49
:10342C0009500B10216E0A500C10226E26C0D9FFC9
:10343C0027C0DAFFDECF09F0DDCF0AF021C00BF098
:10344C0022C00CF009500B5E0A500C5A000E0B24D3
:10345C00FC0E0C20800BD8A436EF1AF038EF1AF0C3
:10346C001FEF18F023C009F0010E0A6E092A41EF74
:10347C001AF0D8900A36092E3FEF1AF00A50FF0ABC
:10348C000B6E24C0D9FF25C0DAFF0B50DF1624C009
:10349C00D9FF25C0DAFFDF50D8A457EF1AF059EF47
:1034AC001AF05CEF1AF0D59E5EEF1AF0010E1C6E4E
:1034BC0028C0D9FF29C0DAFF000EDF6E1F50201084
:1034CC00D8B46BEF1AF06DEF1AF094EF1AF0CCEF52
:1034DC0019F028C0D9FF29C0DAFFDF50096E0A6A3B
:1034EC000A50000AD8B47DEF1AF094EF1AF0095084
:1034FC00000AD8B494EF1AF0010AD8B46DEF19F0A1
:10350C00030AD8B497EF19F0010AD8B4DBEF19F01D
:10351C00070AD8B40CEF1AF094EF1AF0232A030E12
:10352C0023649BEF1AF09DEF1AF0B3EF17F01C50C9
:10353C00120038C016F03550D8B4A7EF1AF0A9EF26
:10354C001AF0ACEF1AF03506EBEF1EF01650D8A4BB
:10355C00B2EF1AF0B4EF1AF067EF1BF03750D8B493
:10356C00BAEF1AF0BCEF1AF0D4EF1AF0370636C0E7
:10357C0010F010C035F01050D8B4C7EF1AF0C9EFE6
:10358C001AF071EF1BF01668530E936E0C0E946EBE
:10359C00000E826E010E811671EF1BF0640E376EF9
:1035AC00530E936E0C0E946E000E826E010E8116ED
:1035BC00808CB38EB290B292B382000E0D6E000E60
:1035CC000C6E0C4A0D2A0DBEF5EF1AF00D5009E1E8
:1035DC00320E0C5CD8A0F5EF1AF0F7EF1AF0E7EF0B
:1035EC001AF0B392B280000E0F6E000E0E6E0E4AE1
:1035FC000F2A0FBE0BEF1BF00F5009E1320E0E5CC1
:10360C00D8A00BEF1BF00DEF1BF0FDEF1AF0B290F2
:10361C009E9CC282C2B215EF1BF017EF1BF010EF8D
:10362C001BF0C3CF12F0C4CF13F09E9C809C12C031
:10363C0031F013C032F012501310D8B428EF1BF035
:10364C002AEF1BF05FEF1BF0135009E1810E125CA7
:10365C00D8A033EF1BF035EF1BF03BEF1BF0000E47
:10366C00136E000E126E4FEF1BF012C008F013C059
:10367C0009F0060E0A6ED890093208320A2E41EF74
:10368C001BF008500208126E0950D8A0E82A000856
:10369C00136E12C035F012C036F012501310D8B49D
:1036AC005AEF1BF05CEF1BF065EF1BF0166871EF27
:1036BC001BF0000E356E000E366E71EF1BF071EFC5
:1036CC001BF01628D8A46DEF1BF06FEF1BF071EFF9
:1036DC001BF0000E166E1628D8B477EF1BF079EF9E
:1036EC001BF0EBEF1EF01650D8A47FEF1BF081EF10
:1036FC001BF0CEEF1CF049684868000E346E425047
:10370C000F0B116E6DEF1CF00F013F813F9398CFA3
:10371C0017F0DD0E1724F66EF76A3D0EF72208003F
:10372C00F5CF49F0170E49649EEF1BF0A0EF1BF08C
:10373C00A2EF1BF0000E496EC10E4924F66EF76A1B
:10374C003F0EF7220800F5CF49F099CF17F099CF2B
:10375C0017F0DD0E1724F66EF76A3D0EF7220800FF
:10376C00F5CF48F03B0E4864BEEF1BF0C0EF1BF0EA
:10377C00C2EF1BF0000E486E030E346EB2EF1CF05D
:10378C00FC0E0F013F17496898CF17F0DD0E172478
:10379C00F66EF76A3D0EF7220800F5CF48F03B0EA7
:1037AC004864DBEF1BF0DDEF1BF0B2EF1CF0000EFA
:1037BC00486EB2EF1CF031C001F032C002F0000EC6
:1037CC00046E640E036EC5EC10F00150486E49682F
:1037DC00B2EF1CF00F013F913F8398CF17F0DD0E35
:1037EC001724F66EF76A3D0EF7220800F5CF48F065
:1037FC001F0E486404EF1CF006EF1CF008EF1CF0E1
:10380C00010E486E99CF17F0DD0E1724F66EF76A8D
:10381C003D0EF7220800F5CF49F00C0E496419EF64
:10382C001CF01BEF1CF01DEF1CF0010E496E3F81CC
:10383C003F9398CF17F0DD0E1724F66EF76A3D0E06
:10384C00F7220800F5CF17F0170E176430EF1CF0B5
:10385C0032EF1CF034EF1CF0000E176EA90E17247B
:10386C00F66EF76A3F0EF7220800F5CF34F0B2EF90
:10387C001CF0030E0F013F1398CF17F0DD0E172429
:10388C00F66EF76A3D0EF7220800F5CF48F0630E8E
:10389C00486453EF1CF055EF1CF0EDEF1BF0000EDD
:1038AC00486EEDEF1BF00F013F813F9399CF17F05E
:1038BC00060E176464EF1CF066EF1CF068EF1CF04A
:1038CC00000E176E496817C048F0B2EF1CF011508B
:1038DC00086E096A0950000AD8B477EF1CF0B2EFF1
:1038EC001CF00850000AD8B4B2EF1CF0010AD8B48E
:1038FC008AEF1BF0030AD8B4C6EF1BF0010AD8B448
:10390C00F0EF1BF0070AD8B43FEF1CF0010AD8B453
:10391C0059EF1CF0030AD8B48AEF1BF0010AD8B493
:10392C008AEF1BF00F0AD8B4F0EF1BF0010AD8B4E1
:10393C00F0EF1BF0030AD8B43FEF1CF0010AD8B427
:10394C0059EF1CF0070AD8B4C6EF1BF0010AD8B423
:10395C00E1EF1BF0B2EF1CF0050E1118D8B4B9EF63
:10396C001CF0BBEF1CF0CAEF1CF00B0E1118D8B4F6
:10397C00C2EF1CF0C4EF1CF0CAEF1CF0D90E2F6E76
:10398C003F0E306ECEEF1CF0E90E2F6E3F0E306EF8
:10399C002FC014F030C015F0010E1664D8EF1CF0D7
:1039AC00DAEF1CF093EF1DF04928D8B4E0EF1CF0CF
:1039BC00E2EF1CF087EF1DF0020E1618D8A4E9EF09
:1039CC001CF0EBEF1CF044EF1DF0E10E4924F66EF9
:1039DC00F76A3E0EF7220800F5501424086E000E0C
:1039EC001520096E08C0F6FF09C0F7FF0800F5CFD7
:1039FC0017F0530E936E0C0E946E000E826E010E29
:103A0C00811617A00CEF1DF00EEF1DF00FEF1DF03F
:103A1C00828817A214EF1DF016EF1DF017EF1DF0A2
:103A2C00828A17A41CEF1DF01EEF1DF01FEF1DF076
:103A3C00828C17A624EF1DF026EF1DF027EF1DF04A
:103A4C00818617A82CEF1DF02EEF1DF02FEF1DF027
:103A5C00828E17AA34EF1DF036EF1DF037EF1DF0F4
:103A6C00818A17AC3CEF1DF03EEF1DF03FEF1DF0CF
:103A7C0081848192510E936EE0EF1EF0030E1618A6
:103A8C00D8A44BEF1DF04DEF1DF091EF1DF0530E30
:103A9C00936E0C0E946E000E826E010E8116090E42
:103AAC0049645BEF1DF05DEF1DF05FEF1DF0828848
:103ABC00818634B064EF1DF068EF1DF0086A082AA7
:103ACC0069EF1DF0086A083A084682500818DF0BA7
:103ADC000818826E34B275EF1DF079EF1DF0086A8C
:103AEC00082A7AEF1DF0086A083A08460846825000
:103AFC000818BF0B0818826E819C130E936EE0EFB2
:103B0C001EF0530E936E0C0E946E000E826E010E10
:103B1C008116E0EF1EF0E0EF1EF04828D8B499EFC4
:103B2C001DF09BEF1DF087EF1DF01650D8A4A1EFF0
:103B3C001DF0A3EF1DF023EF1EF0E90E141807E1A2
:103B4C003F0E1518D8A4ADEF1DF0AFEF1DF0CAEF66
:103B5C001DF04850086E096AD8900836093614C012
:103B6C000AF015C00BF008500A2609500B22010E62
:103B7C000A26000E0B220AC0F6FF0BC0F7FF080046
:103B8C00F5CF17F0DEEF1DF0E10E4824F66EF76A64
:103B9C003E0EF7220800F5501424086E000E152076
:103BAC00096E08C0F6FF09C0F7FF0800F5CF17F043
:103BBC00530E936E0C0E946E000E826E010E8116D7
:103BCC0017A0EBEF1DF0EDEF1DF0EEEF1DF082886E
:103BDC0017A2F3EF1DF0F5EF1DF0F6EF1DF0828A42
:103BEC0017A4FBEF1DF0FDEF1DF0FEEF1DF0828C16
:103BFC0017A603EF1EF005EF1EF006EF1EF08186F0
:103C0C0017A80BEF1EF00DEF1EF00EEF1EF0828EBC
:103C1C0017AA13EF1EF015EF1EF016EF1EF0818A97
:103C2C0017AC1BEF1EF01DEF1EF01EEF1EF0818473
:103C3C008296040E946EE0EF1EF01604D8A429EFC1
:103C4C001EF02BEF1EF0E0EF1EF0E90E141807E14A
:103C5C003F0E1518D8A435EF1EF037EF1EF04EEFBF
:103C6C001EF04850086E096AD8900836093614C000
:103C7C000AF015C00BF008500A2609500B220AC096
:103C8C00F6FF0BC0F7FF0800F5CF17F095EF1EF00D
:103C9C000A0E486054EF1EF056EF1EF07FEF1EF038
:103CAC0065EF1EF0000E176E95EF1EF014C0F6FFB8
:103CBC0015C0F7FF0800F5CF17F095EF1EF0425036
:103CCC000F0B086E096A0950000AD8B470EF1EF089
:103CDC005CEF1EF00850030AD8B458EF1EF00B0A24
:103CEC00D8B458EF1EF0010AD8B458EF1EF05CEFB0
:103CFC001EF07D0E4824F66EF76A3E0EF722080081
:103D0C00F5CF17F017501424086E000E1520096E0D
:103D1C0008C0F6FF09C0F7FF0800F5CF17F0530EE7
:103D2C00936E0C0E946E000E826E010E811617505F
:103D3C00D8B4A3EF1EF0A5EF1EF091EF1DF017A065
:103D4C00AAEF1EF0ACEF1EF0ADEF1EF0828817A2AA
:103D5C00B2EF1EF0B4EF1EF0B5EF1EF0828A17A47E
:103D6C00BAEF1EF0BCEF1EF0BDEF1EF0828C17A652
:103D7C00C2EF1EF0C4EF1EF0C5EF1EF0818617A82F
:103D8C00CAEF1EF0CCEF1EF0CDEF1EF0828E17AAFC
:103D9C00D2EF1EF0D4EF1EF0D5EF1EF0818A17ACD7
:103DAC00DAEF1EF0DCEF1EF0DDEF1EF0818481985F
:103DBC00430E936E162A030E1664E7EF1EF0E9EF1E
:103DCC001EF0EBEF1EF0000E166E16C038F012004F
:103DDC0000000102030405060708090000000000AA
:103DEC00000A0B0C0D0E0F10111213000000000036
:103DFC00001415161718191A1B1C1D0000000000C2
:103E0C00001E1F202122232425262700000000004D
:103E1C000028292A2B2C2D2E2F30310000000000D9
:103E2C000032333435363738393A3B000000000065
:103E3C00003C3D3E3F4041424344450000000000F1
:103E4C0000464748494A4B4C4D4E4F00000000007D
:103E5C000050515253545556575859000000000009
:103E6C00005A5B5C5D5E5F60616263000000000095
:103E7C000000000000000000000000010101010131
:103E8C00010101010102020202020202020202030A
:103E9C0003030303030303030304040404040404DF
:103EAC0004040405050505050505050505060606B6
:103EBC00060606060606060707070707070707078D
:103ECC000708080808080808080808090909090962
:103EDC00090909090900010203040506070809007C
:103EEC000102030405060708090001020304050684
:103EFC00070809000102030405060708090001026E
:103F0C000304050607080900010203040506070857
:103F1C000900010203040506070809000102030455
:103F2C000506070809000102030405060708090035
:103F3C000102030405060708090001020304050633
:103F4C00070809101112131415161718192021221D
:103F5C002324252627282930313233343536373877
:103F6C0039404142434445464748495051525354C5
:103F7C005556575859606162636465666768697025
:103F8C007172737475767778798081828384858673
:103F9C0087888990919293949596979899010101AD
:103FAC0001010101010101010102020202020202EE
:103FBC0002020202020C0102030405060708090AA8
:103FCC000B0C0102030405060708090A0B3F065BEC
:103FDC004F666D7D077F6F4040404040406D3E37DF
:0C3FEC003F313E3E79317671776D7700F1
:083FF80080F4D8FFFFF8CFF1BF
:00000001FF
