:020000040000FA
:0400000050EF10F0BD
:101FEA001200FFFF0F013F8F3F9B1200CA94000EA1
:101FFA00396E1200CA94000E396E1200550EA76E81
:10200A00AA0EA76E0F013F8B12007650FC0B020935
:10201A00766E000E786E76941200CA50FC0B020996
:10202A00CA6E000ECC6ECA94000E396E12003F0EB4
:10203A007916300E79127982000E7B6E000E7A6E56
:10204A0079901200000E896E000E8A6E000E8B6E59
:10205A00080E856E000E886E1200CD503F0B800967
:10206A00CD6ECF0ECD16CD86CD829A9E9E909D9036
:10207A00CD901200D59AD59CD550F80B0509D56E8E
:10208A00D596000ED76E000ED66EF29AF294D59EB1
:10209A00000E436E1200EC0EF66E1F0EF76E000E67
:1020AA00F86E0900F5CF48F00900F5CF49F000EEC7
:1020BA002FF0190EEE6AE806FDE1000EF86E000137
:1020CA00F4EF13F04550D8A46DEF10F06FEF10F055
:1020DA0085EF10F04450D8A475EF10F077EF10F0A8
:1020EA0085EF10F042500F0BE806D8A47FEF10F0EE
:1020FA0081EF10F085EF10F04250F00B0209426EAA
:10210A001200000EB36E900EB26E010EB16E270E63
:10211A00926E530E936E0C0E946E8096809E0F01F3
:10212A004869170E496FC18EC19CC150C70B080977
:10213A00C16EC150F80B0209C16E498FC29CC29E82
:10214A00C250C30B2C09C26EC280270E926E1200B7
:10215A00420E016E000E026E01C0D9FF02C0DAFF04
:10216A00DF500F0B0009D8A4BDEF10F0BFEF10F03D
:10217A00C9EF10F001C0D9FF02C0DAFFDF50F00B3F
:10218A000309DF6EDFEF10F001C0D9FF02C0DAFFEA
:10219A00DF500F0BE806D8A4D5EF10F0D7EF10F0F8
:1021AA00DFEF10F001C0D9FF02C0DAFFDF50F00BF9
:1021BA000309DF6E120042500F0B016E0150026ECE
:1021CA00036A090E02180310D8A4EEEF10F0F0EF1C
:1021DA0010F0F6EF10F04250F00B0809426E13EFC0
:1021EA0011F00A0E02180310D8A4FEEF10F000EF47
:1021FA0011F006EF11F04250F00B0B09426E13EF8B
:10220A0011F0020E02180310D8A40EEF11F010EF0D
:10221A0011F013EF11F0CA94000E396E1200000E7D
:10222A000E01E76F010EE86F020EE96FC08E0F0113
:10223A004D914D934C8533C04EFF42C04FFFF18CF8
:10224A00F18AF188F186F292F288F090F086F092A3
:10225A00F088F094F08AF28EF28C80BA37EF11F09F
:10226A0039EF11F051EF11F080B23EEF11F040EF6B
:10227A0011F051EF11F081B045EF11F047EF11F075
:10228A0051EF11F080B04CEF11F04EEF11F051EF19
:10229A0011F0D39E4D9F030012004750D8A458EF67
:1022AA0011F05AEF11F099EF11F04550D8A460EFF0
:1022BA0011F062EF11F099EF11F04450D8A468EFD1
:1022CA0011F06AEF11F099EF11F0420E026E000E52
:1022DA00036E02C0D9FF03C0DAFFDF500F0B016E95
:1022EA00030E0118D8A47CEF11F07EEF11F088EFED
:1022FA0011F002C0D9FF03C0DAFFDF50F00B050965
:10230A00DF6E99EF11F0050E0118D8A48FEF11F0C6
:10231A0091EF11F099EF11F002C0D9FF03C0DAFF73
:10232A00DF50F00B0409DF6E120042A89FEF11F094
:10233A00A1EF11F0A9EF11F0429803EC10F00F0190
:10234A003F8B3F8FF7EC0FF042500F0B016E01509D
:10235A00026E036A02500310D8A4B6EF11F0B8EF68
:10236A0011F0BEEF11F04250F00B0109426EE6EF98
:10237A0011F0030E02180310D8B4C6EF11F0C8EF1B
:10238A0011F0D2EF11F0080E02180310D8A4D0EF02
:10239A0011F0D2EF11F0D8EF11F04250F00B090909
:1023AA00426EE6EF11F00B0E02180310D8A4E0EF0C
:1023BA0011F0E2EF11F0E6EF11F04250F00B0A09CA
:1023CA00426E1200420E076E000E086E07C0D9FF59
:1023DA0008C0DAFFDF500F0B0009D8A4F7EF11F09D
:1023EA00F9EF11F003EF12F007C0D9FF08C0DAFFC6
:1023FA00DF50F00B0709DF6E62EF12F007C0D9FF5A
:10240A0008C0DAFFDF500F0B066E0604D8B410EFCF
:10241A0012F012EF12F01BEF12F0060E0618D8A4F3
:10242A0019EF12F01BEF12F025EF12F007C0D9FFD7
:10243A0008C0DAFFDF50F00B0709DF6E62EF12F017
:10244A00030E0618D8B42CEF12F02EEF12F040EF5C
:10245A0012F0040E0618D8B435EF12F037EF12F066
:10246A0040EF12F0050E0618D8A43EEF12F040EF26
:10247A0012F062EF12F0010E466446EF12F048EFD6
:10248A0012F062EF12F0010E47644EEF12F050EFB5
:10249A0012F05AEF12F007C0D9FF08C0DAFFDF5076
:1024AA00F00B0A09DF6E62EF12F007C0D9FF08C00D
:1024BA00DAFFDF50F00B0B09DF6E7FEC16F012002B
:1024CA00420E066E000E076E06C0D9FF07C0DAFF7D
:1024DA00DF500F0B0009D8A475EF12F077EF12F056
:1024EA0081EF12F006C0D9FF07C0DAFFDF50F00B08
:1024FA000609DF6EFEEF12F006C0D9FF07C0DAFF49
:10250A00DF500F0B086E030E0818D8B48FEF12F0C5
:10251A0091EF12F0A3EF12F0090E0818D8B498EF51
:10252A0012F09AEF12F0A3EF12F0080E0818D8A4CE
:10253A00A1EF12F0A3EF12F0C7EF12F0010E4664FA
:10254A00A9EF12F0ABEF12F0FEEF12F0010E4764A2
:10255A00B1EF12F0B3EF12F0BDEF12F006C0D9FFDF
:10256A0007C0DAFFDF50F00B0909DF6EFEEF12F049
:10257A0006C0D9FF07C0DAFFDF50F00B0809DF6E8B
:10258A00FEEF12F00804D8B4CDEF12F0CFEF12F03C
:10259A00E1EF12F0070E0818D8B4D6EF12F0D8EF10
:1025AA0012F0E1EF12F00C0E0818D8A4DFEF12F0C7
:1025BA00E1EF12F0EBEF12F006C0D9FF07C0DAFF25
:1025CA00DF50F00B0609DF6EFEEF12F0040E08185A
:1025DA00D8A4F2EF12F0F4EF12F0FEEF12F006C0F8
:1025EA00D9FF07C0DAFFDF50F00B0A09DF6EFEEFF2
:1025FA0012F039EC15F012000F013FB907EF13F092
:10260A0009EF13F001EF13F003EC10F00F013F8B09
:10261A003F9F3FB913EF13F015EF13F00EEF13F0CE
:10262A00000E016E030E3F1398CF02F0DD0E022456
:10263A00F66EF76A3D0EF7220800F5CF03F0630E37
:10264A0003642AEF13F02CEF13F02EEF13F0010EB0
:10265A00016E995098CF02F0DD0E0224F66EF76AE9
:10266A003D0EF7220800F5CF03F01F0E036440EF7A
:10267A0013F042EF13F044EF13F0010E016E99CFFD
:10268A0002F0DD0E0224F66EF76A3D0EF72208000C
:10269A00F5CF03F00350D8B455EF13F057EF13F00A
:1026AA005FEF13F00C0E03645DEF13F05FEF13F0AE
:1026BA0061EF13F0010E016E98CF02F0DD0E0224D5
:1026CA00F66EF76A3D0EF7220800F5CF03F0170EF3
:1026DA00036472EF13F074EF13F076EF13F0010E48
:1026EA00016E99CF02F0DD0E0224F66EF76A3D0EF6
:1026FA00F7220800F5CF03F0060E036487EF13F004
:10270A0089EF13F08BEF13F0010E016E98CF02F0F0
:10271A00DD0E0224F66EF76A3D0EF7220800F5CFA9
:10272A0003F03B0E03649CEF13F09EEF13F0A0EF4F
:10273A0013F0010E016E99CF02F0DD0E0224F66E3F
:10274A00F76A3D0EF7220800F5CF03F03B0E03644B
:10275A00B1EF13F0B3EF13F0B5EF13F0010E016E02
:10276A000150D8B4BBEF13F0BDEF13F0DAEF13F05A
:10277A003FB9C2EF13F0C4EF13F0BDEF13F0030E2D
:10278A003F13590EF66E3F0EF76E0800F5CF98FF0D
:10279A009950010E986E010E996E000E986E030EF6
:1027AA00996E000E986E000E996E3FB9DFEF13F026
:1027BA00E1EF13F0DAEF13F03F913F93919C91848C
:1027CA0091969198919A919E3F8F3FB9EFEF13F0AE
:1027DA00F1EF13F0EAEF13F0F7EC0FF0120027EC29
:1027EA0010F086EC10F03FEC10F032EC10F012EC26
:1027FA0010F01CEC10F00AEC10F001EC13F0C0A67B
:10280A0009EF14F00BEF14F025EF14F0C0960F0146
:10281A004C914ECF33F04FCF42F033C02EF02E50B2
:10282A00030B476E2E30E832030B466E2E38030B2D
:10283A00456E2E38E832E832030B446E3CEF14F052
:10284A0027EC10F0FC0E3316F30E3316CF0E3316A8
:10285A003F0E3316000ECC6ECA84010E396E4250FA
:10286A00F00B0109426E33C04EFF42C04FFFF28E99
:10287A00F28CF18CF18AF188F186F18E000E386EB5
:10288A00000E376E000E356E000E2D6E010E2C6E88
:10289A00000E2B6ECDEC17F02A6E3950D8B458EFD3
:1028AA0014F05AEF14F0ACEF14F09F0ECC6460EF02
:1028BA0014F062EF14F09EEF14F0000ECC6E2C4A66
:1028CA002D2A5E0E2C5C010E2D58D8A06FEF14F045
:1028DA0071EF14F09EEF14F04750D8A477EF14F07C
:1028EA0079EF14F09AEF14F04650D8A47FEF14F061
:1028FA0081EF14F09AEF14F04550D8A487EF14F042
:10290A0089EF14F09AEF14F04450D8A48FEF14F022
:10291A0091EF14F09AEF14F0CA94000E2D6E000E87
:10292A002C6E000E396E9EEF14F0000E2D6E640EA2
:10293A002C6E2C502D10D8A4A5EF14F0A8EF14F08B
:10294A00010EA9EF14F0000E2A12B0EF14F0000ED7
:10295A002D6E010E2C6E2A50D8B4B6EF14F0B8EFD3
:10296A0014F0C8EF14F0030E2B18D8A4BFEF14F01C
:10297A00C1EF14F0C5EF14F0000E2B6E2BEC1BF018
:10298A002B2A4FEF14F0530E936E0C0E946E000E1A
:10299A00826E010E8116270E801642B8D7EF14F008
:1029AA00D9EF14F0DEEF14F003EC10F00F013F8BB7
:1029BA003F8FF00E4216FC0E3316F30E3316CF0E6F
:1029CA0033163F0E3316000E416E000E406E000E97
:1029DA003F6E000E3E6E000E3D6E000E3C6E000E07
:1029EA003B6E000E3A6E000E436E000E396E000EFC
:1029FA00326E000E316E000E386ED59ECA940F01EB
:102A0A003FB90AEF15F00CEF15F004EF15F03F9BF4
:102A1A00F7EC0FF0F292F288F090F086F092F088DC
:102A2A00F094F08AF294F18CF18AF188F1869E9002
:102A3A00A490F28EF28CC29014EC11F0000E2D6E5E
:102A4A00010E2C6E000E2B6E000E356E000E376EC8
:102A5A004ECF33F04FCF42F027EC10F086EC10F057
:102A6A004FEF14F000EF00F042500F0B026E060E0B
:102A7A000218D8A443EF15F045EF15F073EF15F0DF
:102A8A0003EC10F00F013F8B3F9F3F813F9398CF9C
:102A9A0004F0DD0E0424F66EF76A3D0EF7220800F4
:102AAA00F5CF01F00128056E170E05645FEF15F0EA
:102ABA0061EF15F063EF15F0000E056E450E052463
:102ACA00F66EF76A3F0EF7220800F5CF04F004C04D
:102ADA0098FF3F8FF7EC0FF07EEF16F0080E021802
:102AEA00D8A47AEF15F07CEF15F0AAEF15F003ECF5
:102AFA0010F00F013F8B3F9F3F913F8399CF04F026
:102B0A00DD0E0424F66EF76A3D0EF7220800F5CFB3
:102B1A0001F00128056E0C0E056496EF15F098EF8A
:102B2A0015F09AEF15F0010E056E3F913F83450EA1
:102B3A000524F66EF76A3F0EF7220800F5CF04F077
:102B4A0004C099FF3F8F6FEF15F0090E0218D8A441
:102B5A00B1EF15F0B3EF15F049EF16F003EC10F0F2
:102B6A000F013F8B3F9F3F913F8398CF04F0DD0ECB
:102B7A000424F66EF76A3D0EF7220800F5CF01F03D
:102B8A000128056E99CF04F0DD0E0424F66EF76A6B
:102B9A003D0EF7220800F5CF03F0020E0318D8A461
:102BAA00D9EF15F0DBEF15F0E7EF15F01D0E056410
:102BBA00E1EF15F0E3EF15F039EF16F0010E056EAF
:102BCA0039EF16F00304D8B4EDEF15F0EFEF15F076
:102BDA0025EF16F0030E0318D8B4F6EF15F0F8EF48
:102BEA0015F025EF16F0050E0318D8B4FFEF15F00F
:102BFA0001EF16F025EF16F0070E0318D8B408EF08
:102C0A0016F00AEF16F025EF16F0080E0318D8B4DE
:102C1A0011EF16F013EF16F025EF16F00A0E03184F
:102C2A00D8B41AEF16F01CEF16F025EF16F00C0EBA
:102C3A000318D8A423EF16F025EF16F02FEF16F09D
:102C4A001F0E05642BEF16F02DEF16F039EF16F074
:102C5A00E3EF15F01E0E056435EF16F037EF16F0A8
:102C6A0039EF16F0E3EF15F03F913F83450E052447
:102C7A00F66EF76A3F0EF7220800F5CF04F004C09B
:102C8A0098FF3F8F6FEF15F00A0E0218D8A450EF85
:102C9A0016F052EF16F07EEF16F003EC10F00F016B
:102CAA003F8B3F9F030E3F1398CF04F0DD0E0424A1
:102CBA00F66EF76A3D0EF7220800F5CF01F00128FB
:102CCA00056E630E05646CEF16F06EEF16F070EF8A
:102CDA0016F0000E056E450E0524F66EF76A3F0ED5
:102CEA00F7220800F5CF04F004C098FF3F8F6FEF7A
:102CFA0015F0120042500F0B026E070E0218D8A4EC
:102D0A0089EF16F08BEF16F0B9EF16F003EC10F01E
:102D1A000F013F8B3F9FFC0E3F1799CF04F0DD0E4A
:102D2A000424F66EF76A3D0EF7220800F5CF01F08B
:102D3A000128056E3B0E0564A5EF16F0A7EF16F005
:102D4A00A9EF16F0000E056E450E0524F66EF76A19
:102D5A003F0EF7220800F5CF04F004C099FF000ED9
:102D6A00986E4288CCEF17F00A0E0218D8A4C0EF6A
:102D7A0016F0C2EF16F0F0EF16F003EC10F00F01A8
:102D8A003F8B3F9F030E3F1398CF04F0DD0E0424C0
:102D9A00F66EF76A3D0EF7220800F5CF01F001281A
:102DAA00056E630E0564DCEF16F0DEEF16F0E0EF59
:102DBA0016F0000E056E450E0524F66EF76A3F0EF4
:102DCA00F7220800F5CF04F004C098FF3F8FF7EC14
:102DDA000FF0CCEF17F00B0E0218D8A4F7EF16F08D
:102DEA00F9EF16F018EF17F003EC10F00F013F8B14
:102DFA003F9F3F813F9399CF04F004C001F0070E33
:102E0A0001160128056E060E05640EEF17F010EF85
:102E1A0017F012EF17F0000E056E3F8105C099FFFB
:102E2A003F8FECEF16F0090E0218D8A41FEF17F027
:102E3A0021EF17F0B7EF17F003EC10F00F013F8BFB
:102E4A003F9F3F913F8398CF04F0DD0E0424F66E36
:102E5A00F76A3D0EF7220800F5CF01F00128056E4A
:102E6A0099CF04F0DD0E0424F66EF76A3D0EF722C0
:102E7A000800F5CF03F0020E0318D8A447EF17F0A5
:102E8A0049EF17F055EF17F01D0E05644FEF17F0D5
:102E9A0051EF17F0A7EF17F0010E056EA7EF17F025
:102EAA000304D8B45BEF17F05DEF17F093EF17F058
:102EBA00030E0318D8B464EF17F066EF17F093EF18
:102ECA0017F0050E0318D8B46DEF17F06FEF17F06F
:102EDA0093EF17F0070E0318D8B476EF17F078EFD0
:102EEA0017F093EF17F0080E0318D8B47FEF17F016
:102EFA0081EF17F093EF17F00A0E0318D8B488EF92
:102F0A0017F08AEF17F093EF17F00C0E0318D8A4F6
:102F1A0091EF17F093EF17F09DEF17F01F0E05646E
:102F2A0099EF17F09BEF17F0A7EF17F051EF17F093
:102F3A001E0E0564A3EF17F0A5EF17F0A7EF17F021
:102F4A0051EF17F03F913F83450E0524F66EF76A5D
:102F5A003F0EF7220800F5CF04F004C098FF3F8F18
:102F6A00ECEF16F00C0E0218D8A4BEEF17F0C0EF63
:102F7A0017F0CCEF17F003EC10F00F013F8B3F9FD7
:102F8A00FC0E3F17000E986E3F8FECEF16F0120002
:102F9A00000E236E000E1C6E430E246E000E256E6C
:102FAA003FEF18F0460E286E000E296E3E0E266E72
:102FBA00000E276E000E80B2010E196E5A0E1A6E9E
:102FCA00210E1B6EA40E1D6E220E1E6EEA0E1F6EC1
:102FDA001F0E206E58EF18F0450E286E000E296E4F
:102FEA003C0E266E000E276E000E81B0010E196E81
:102FFA00CA0E1A6E240E1B6E720E1D6E2A0E1E6EDD
:10300A00FE0E1F6E1F0E206E58EF18F0440E286E2B
:10301A00000E296E3A0E266E000E276E000E80B044
:10302A00010E196ECE0E1A6E230E1B6EFE0E1D6E4B
:10303A002C0E1E6EF60E1F6E1F0E206E58EF18F025
:10304A00470E286E000E296E400E266E000E276E61
:10305A00000E80BA010E196E340E1A6E230E1B6E04
:10306A00CE0E1D6E200E1E6EC00E1F6E210E206E1D
:10307A0058EF18F02350096E0A6A0A50000AD8B4A9
:10308A0049EF18F025EF18F00950010AD8B4D7EF24
:10309A0017F0030AD8B4F1EF17F0010AD8B40BEF0E
:1030AA0018F025EF18F01950D8B45EEF18F060EF59
:1030BA0018F0FBEF1AF0D4EF19F028C0D9FF29C095
:1030CA00DAFF010EDF6E24C0D9FF25C0DAFFDF5018
:1030DA00D8A472EF18F074EF18F083EF18F0000E0E
:1030EA00D76E000ED66ED58E26C0D9FF27C0DAFF5E
:1030FA00000EDE6E000EDD6E99EF18F0D6CF0FF0DF
:10310A00D7CF10F010500A6E096A0F500B6E0C6A76
:10311A0009500B120A500C1226C0D9FF27C0DAFF39
:10312A000BC0DEFF0CC0DDFF23C009F0010E0A6EE2
:10313A00092AA2EF18F0D8900A36092EA0EF18F043
:10314A0024C0D9FF25C0DAFF0A50DF12010E1C6E17
:10315A0020EF1BF0D6CF11F0D7CF12F012500A6E23
:10316A00096A11500B6E0C6A09500B10216E0A5035
:10317A000C10226E26C0D9FF27C0DAFFDECF09F075
:10318A00DDCF0AF021C00BF022C00CF009500B5E13
:10319A000A500C5A010E0B24BA0E0C20800BD8A42C
:1031AA00D9EF18F0DBEF18F006EF19F028C0D9FFB5
:1031BA0029C0DAFF030EDF6E26C0D9FF27C0DAFF67
:1031CA0021C0DEFF22C0DDFF1D501E10D8B4F0EF73
:1031DA0018F0F2EF18F0FFEF18F002D8FFEF18F02E
:1031EA000500FA6E1D50FD6E1E50FE6EF850FF6E01
:1031FA00FA501200010E396E000ECC6ECA84ABEF83
:10320A0018F026C0D9FF27C0DAFFDECF09F0DDCFDC
:10321A000AF021C00BF022C00CF009500B5E0A50D4
:10322A000C5A000E0B24FC0E0C20800BD8A420EFA5
:10323A0019F022EF19F0ABEF18F028C0D9FF29C016
:10324A00DAFF020EDE18D8B42DEF19F02FEF19F0BD
:10325A00ABEF18F028C0D9FF29C0DAFF020EDF6EE3
:10326A001A501B10D8B43CEF19F03EEF19F04BEF8F
:10327A0019F002D84BEF19F00500FA6E1A50FD6EDC
:10328A001B50FE6EF850FF6EFA501200010E396E96
:10329A00000ECC6ECA84ABEF18F0D6CF13F0D7CF9E
:1032AA0014F014500A6E096A13500B6E0C6A095016
:1032BA000B10216E0A500C10226E300E0E6E000E8C
:1032CA000D6E73EF19F0450E0E6E0D6890EF19F042
:1032DA00200E0E6E000E0D6E90EF19F02350096E3F
:1032EA000A6A0A50000AD8B47DEF19F090EF19F073
:1032FA000950000AD8B490EF19F0010AD8B468EF5F
:10330A0019F0030AD8B46DEF19F0010AD8B46DEFB9
:10331A0019F090EF19F026C0D9FF27C0DAFFDECFE7
:10332A0009F0DDCF0AF0091E0A1E094A0A2A0D50C1
:10333A00095E0E500A5A2150092422500A20800B95
:10334A00D8A4AAEF19F0ACEF19F0ABEF18F026C029
:10335A00D9FF27C0DAFF21C0DEFF22C0DDFF1D50E2
:10336A001E10D8B4BBEF19F0BDEF19F0ABEF18F08F
:10337A0002D8CAEF19F00500FA6E1D50FD6E1E50F4
:10338A00FE6EF850FF6EFA501200ABEF18F028C02C
:10339A00D9FF29C0DAFF030EDF6EABEF18F028C0A1
:1033AA00D9FF29C0DAFFDF50096E0A6A0A50000AFB
:1033BA00D8B4E2EF19F020EF1BF00950000AD8B494
:1033CA0062EF18F0010AD8B4AFEF18F0030AD8B4C4
:1033DA00AFEF18F0010AD8B452EF19F0070AD8B4BF
:1033EA00CCEF19F020EF1BF028C0D9FF29C0DAFF73
:1033FA00000EDF6E23C009F0010E0A6E092A08EFDB
:10340A001AF0D8900A36092E06EF1AF00A50FF0A67
:10341A000B6E24C0D9FF25C0DAFF0B50DF1624C07B
:10342A00D9FF25C0DAFFDF50D8A41EEF1AF020EF2B
:10343A001AF0ABEF18F0D59E20EF1BF028C0D9FF89
:10344A0029C0DAFF000EDF6E23C009F0010E0A6EF2
:10345A00092A32EF1AF0D8900A36092E30EF1AF0FC
:10346A000A50FF0A0B6E24C0D9FF25C0DAFF0B50A1
:10347A00DF1624C0D9FF25C0DAFFDF50D8A448EFF1
:10348A001AF04AEF1AF04DEF1AF0D59E4FEF1AF0E4
:10349A00010E1C6E1F502010D8B456EF1AF058EFC8
:1034AA001AF020EF1BF002D865EF1AF00500FA6E49
:1034BA001F50FD6E2050FE6EF850FF6EFA5012003B
:1034CA0020EF1BF028C0D9FF29C0DAFF040EDF6EF7
:1034DA0024C0D9FF25C0DAFFDF50D8A477EF1AF04D
:1034EA0079EF1AF080EF1AF0000ED76E000ED66E42
:1034FA00D58E79EF18F0D6CF15F0D7CF16F0165033
:10350A000A6E096A15500B6E0C6A09500B120A50A2
:10351A000C1226C0D9FF27C0DAFF0BC0DEFF0CC091
:10352A00DDFF99EF18F0D6CF17F0D7CF18F0185063
:10353A000A6E096A17500B6E0C6A09500B10216E3D
:10354A000A500C10226E26C0D9FF27C0DAFFDECF40
:10355A0009F0DDCF0AF021C00BF022C00CF00950AF
:10356A000B5E0A500C5A000E0B24FC0E0C20800B2A
:10357A00D8A4C2EF1AF0C4EF1AF0ABEF18F023C0C8
:10358A0009F0010E0A6E092ACDEF1AF0D8900A3610
:10359A00092ECBEF1AF00A50FF0A0B6E24C0D9FF8E
:1035AA0025C0DAFF0B50DF1624C0D9FF25C0DAFF89
:1035BA00DF50D8A4E3EF1AF0E5EF1AF0E8EF1AF0BB
:1035CA00D59EEAEF1AF0010E1C6E28C0D9FF29C059
:1035DA00DAFF000EDF6E1F502010D8B4F7EF1AF092
:1035EA00F9EF1AF020EF1BF058EF1AF028C0D9FFB4
:1035FA0029C0DAFFDF50096E0A6A0A50000AD8B4F5
:10360A0009EF1BF020EF1BF00950000AD8B420EF95
:10361A001BF0010AD8B4F9EF19F0030AD8B423EF62
:10362A001AF0010AD8B467EF1AF0070AD8B498EF6B
:10363A001AF020EF1BF0232A030E236427EF1BF056
:10364A0029EF1BF03FEF18F01C50120038C006F0AB
:10365A000650D8A433EF1BF035EF1BF045EF1CF0F2
:10366A0049684868000E346E42500F0B056EE8EF49
:10367A001BF00F013F813F9398CF09F0DD0E09241B
:10368A00F66EF76A3D0EF7220800F5CF49F0170EDD
:10369A00496452EF1BF054EF1BF056EF1BF0000E7B
:1036AA00496E995099CF09F0DD0E0924F66EF76A32
:1036BA003D0EF7220800F5CF48F03B0E486468EF4C
:1036CA001BF06AEF1BF029EF1CF0000E486E29EF81
:1036DA001CF0FC0E0F013F17496898CF09F0DD0E68
:1036EA000924F66EF76A3D0EF7220800F5CF48F076
:1036FA003B0E486483EF1BF085EF1BF029EF1CF0AB
:10370A006AEF1BF00F013F913F8398CF09F0DD0E5E
:10371A000924F66EF76A3D0EF7220800F5CF48F045
:10372A001F0E48649BEF1BF09DEF1BF09FEF1BF0F1
:10373A00010E486E99CF09F0DD0E0924F66EF76A7C
:10374A003D0EF7220800F5CF49F00C0E4964B0EFA0
:10375A001BF0B2EF1BF0B4EF1BF0010E496E010E25
:10376A00346E29EF1CF0030E0F013F1398CF09F0B6
:10377A00DD0E0924F66EF76A3D0EF7220800F5CF32
:10378A0048F0630E4864CCEF1BF0CEEF1BF0D0EF8D
:10379A001BF0000E486E140E496E29EF1CF00F0143
:1037AA003F813F9399CF09F0060E0964DFEF1BF0C2
:1037BA00E1EF1BF0E3EF1BF0000E096E496809C048
:1037CA0048F029EF1CF00550016E026A0250000A07
:1037DA00D8B4F2EF1BF029EF1CF00150000AD8B45C
:1037EA0029EF1CF0010AD8B43EEF1BF0030AD8B443
:1037FA006EEF1BF0010AD8B487EF1BF0070AD8B4A2
:10380A00B8EF1BF0010AD8B4D4EF1BF0030AD8B4FE
:10381A003EEF1BF0010AD8B43EEF1BF00F0AD8B4F2
:10382A0087EF1BF0010AD8B487EF1BF0030AD8B45C
:10383A00B8EF1BF0010AD8B4D4EF1BF0070AD8B4CA
:10384A006EEF1BF029EF1CF0050E0518D8B430EF07
:10385A001CF032EF1CF041EF1CF00B0E0518D8B427
:10386A0039EF1CF03BEF1CF041EF1CF0D90E2F6E24
:10387A003F0E306E45EF1CF0E90E2F6E3F0E306E94
:10388A002FC007F030C008F0010E06644FEF1CF09D
:10389A0051EF1CF086EF1DF04928D8B457EF1CF001
:1038AA0059EF1CF079EF1DF0020E0618D8A460EF4C
:1038BA001CF062EF1CF0CFEF1CF0E10E4924F66E0B
:1038CA00F76A3E0EF7220800F5500724016E000E33
:1038DA000820026E01C0F6FF02C0F7FF0800F5CF0C
:1038EA0009F0530E936E0C0E946EF00E82122C0E8B
:1038FA008112808C09A084EF1CF086EF1CF087EF00
:10390A001CF0829809A28CEF1CF08EEF1CF08FEF4E
:10391A001CF0829A09A494EF1CF096EF1CF097EF22
:10392A001CF0829C09A69CEF1CF09EEF1CF09FEFF6
:10393A001CF0819609A8A4EF1CF0A6EF1CF0A7EFD3
:10394A001CF0829E09AAACEF1CF0AEEF1CF0AFEFA0
:10395A001CF0819A09ACB4EF1CF0B6EF1CF0B7EF7B
:10396A001CF081943450D8A4BDEF1CF0C1EF1CF0B8
:10397A00016A012AC2EF1CF0016A013A01460146B6
:10398A0080500118BF0B0118806E8182510E936E10
:10399A00E0EF1EF0030E0618D8A4D6EF1CF0D8EFFD
:1039AA001CF0E0EF1EF0530E936E0C0E946EF00EA8
:1039BA0082122C0E8112808C0A0E4960E7EF1CF0ED
:1039CA00E9EF1CF01EEF1DF0F8EF1CF0000E096E77
:1039DA0034EF1DF007C0F6FF08C0F7FF0800F5CF67
:1039EA0009F034EF1DF042500F0B016E026A0250CB
:1039FA00000AD8B403EF1DF0EFEF1CF00150010AE2
:103A0A00D8B4EBEF1CF0020AD8B4EBEF1CF0050AAD
:103A1A00D8B4EBEF1CF0010AD8B4EBEF1CF00F0A94
:103A2A00D8B4EBEF1CF0010AD8B4EBEF1CF0EFEFBF
:103A3A001CF07D0E4924F66EF76A3E0EF722080046
:103A4A00F5CF09F009500724016E000E0820026E16
:103A5A0001C0F6FF02C0F7FF0800F5CF09F00950D0
:103A6A00D8B43AEF1DF03CEF1DF084EF1DF009A029
:103A7A0041EF1DF043EF1DF044EF1DF0829809A2BB
:103A8A0049EF1DF04BEF1DF04CEF1DF0829A09A48F
:103A9A0051EF1DF053EF1DF054EF1DF0829C09A663
:103AAA0059EF1DF05BEF1DF05CEF1DF0819609A840
:103ABA0061EF1DF063EF1DF064EF1DF0829E09AA0D
:103ACA0069EF1DF06BEF1DF06CEF1DF0819A09ACE8
:103ADA0071EF1DF073EF1DF074EF1DF08194818C6E
:103AEA00130E936EE0EF1EF0530E936E0C0E946E4F
:103AFA00F00E82122C0E8112808CE0EF1EF0E0EFA5
:103B0A001EF04828D8B48CEF1DF08EEF1DF0D7EFC9
:103B1A001EF00650D8A494EF1DF096EF1DF017EF93
:103B2A001EF0E90E071807E13F0E0818D8A4A0EF07
:103B3A001DF0A2EF1DF0BDEF1DF04850016E026AA4
:103B4A00D8900136023607C003F008C004F00150CD
:103B5A00032602500422010E0326000E042203C08B
:103B6A00F6FF04C0F7FF0800F5CF09F0D1EF1DF00A
:103B7A00E10E4824F66EF76A3E0EF7220800F55069
:103B8A000724016E000E0820026E01C0F6FF02C073
:103B9A00F7FF0800F5CF09F0530E936E0C0E946EE2
:103BAA00F00E82122C0E8112808C09A0DFEF1DF01C
:103BBA00E1EF1DF0E2EF1DF0829809A2E7EF1DF098
:103BCA00E9EF1DF0EAEF1DF0829A09A4EFEF1DF06C
:103BDA00F1EF1DF0F2EF1DF0829C09A6F7EF1DF040
:103BEA00F9EF1DF0FAEF1DF0819609A8FFEF1DF01D
:103BFA0001EF1EF002EF1EF0829E09AA07EF1EF0E7
:103C0A0009EF1EF00AEF1EF0819A09AC0FEF1EF0C1
:103C1A0011EF1EF012EF1EF081948286040E946E4C
:103C2A00E0EF1EF00604D8A41DEF1EF01FEF1EF0F1
:103C3A00E0EF1EF0E90E071807E13F0E0818D8A4B6
:103C4A0029EF1EF02BEF1EF042EF1EF04850016ED6
:103C5A00026AD8900136023607C003F008C004F0A1
:103C6A00015003260250042203C0F6FF04C0F7FFE6
:103C7A000800F5CF09F089EF1EF00A0E486048EFF8
:103C8A001EF04AEF1EF073EF1EF059EF1EF0000E01
:103C9A00096E89EF1EF007C0F6FF08C0F7FF08009B
:103CAA00F5CF09F089EF1EF042500F0B016E026A40
:103CBA000250000AD8B464EF1EF050EF1EF0015013
:103CCA00030AD8B44CEF1EF00B0AD8B44CEF1EF01E
:103CDA00010AD8B44CEF1EF050EF1EF07D0E4824B6
:103CEA00F66EF76A3E0EF7220800F5CF09F0095082
:103CFA000724016E000E0820026E01C0F6FF02C002
:103D0A00F7FF0800F5CF09F0530E936E0C0E946E70
:103D1A00F00E82122C0E8112808C0950D8B498EFC2
:103D2A001EF09AEF1EF084EF1DF009A09FEF1EF01F
:103D3A00A1EF1EF0A2EF1EF0829809A2A7EF1EF0D3
:103D4A00A9EF1EF0AAEF1EF0829A09A4AFEF1EF0A7
:103D5A00B1EF1EF0B2EF1EF0829C09A6B7EF1EF07B
:103D6A00B9EF1EF0BAEF1EF0819609A8BFEF1EF058
:103D7A00C1EF1EF0C2EF1EF0829E09AAC7EF1EF025
:103D8A00C9EF1EF0CAEF1EF0819A09ACCFEF1EF000
:103D9A00D1EF1EF0D2EF1EF081948188430E936E0C
:103DAA00E0EF1EF0530E936E0C0E946EF00E82121C
:103DBA002C0E8112808C062A030E0664E7EF1EF091
:103DCA00E9EF1EF0EBEF1EF0000E066E06C038F0AB
:103DDA00120000000102030405060708090000009A
:103DEA000000000A0B0C0D0E0F1011121300000038
:103DFA000000001415161718191A1B1C1D000000C4
:103E0A000000001E1F20212223242526270000004F
:103E1A0000000028292A2B2C2D2E2F3031000000DB
:103E2A0000000032333435363738393A3B00000067
:103E3A000000003C3D3E3F404142434445000000F3
:103E4A00000000464748494A4B4C4D4E4F0000007F
:103E5A00000000505152535455565758590000000B
:103E6A000000005A5B5C5D5E5F6061626300000097
:103E7A000000000000000000000000000001010135
:103E8A00010101010101010202020202020202020F
:103E9A0002030303030303030303030404040404E4
:103EAA0004040404040505050505050505050506BC
:103EBA000606060606060606060707070707070791
:103ECA000707070808080808080808080809090968
:103EDA000909090909090900010203040506070875
:103EEA000900010203040506070809000102030488
:103EFA000506070809000102030405060708090068
:103F0A000102030405060708090001020304050665
:103F1A00070809000102030405060708090001024F
:103F2A000304050607080900010203040506070839
:103F3A000900010203040506070809000102030437
:103F4A000506070809101112131415161718192057
:103F5A0021222324252627282930313233343536A5
:103F6A0037383940414243444546474849505152FF
:103F7A005354555657585960616263646566676859
:103F8A0069707172737475767778798081828384A7
:103F9A0085868788899091929394959697989901A6
:103FAA0001010101010101010101010202020202F2
:103FBA00020202020202020C0102030405060708B9
:103FCA00090A0B0C0102030405060708090A0B3F3C
:103FDA00065B4F666D7D077F6F4040404040406DF5
:0E3FEA003E373F313E3E79317671776D77007C
:083FF80080F4D8FFFFF8CFF1BF
:00000001FF
