:020000040000FA
:0400000064EF11F0A8
:1021E6001200FFFF0F013F8F3F9B1200CA94000EA3
:1021F6003A6E1200CA94000E3A6E1200550EA76E81
:10220600AA0EA76E0F013F8B12007650FC0B020937
:10221600766E000E786E76941200CA50FC0B020998
:10222600CA6E000ECC6ECA94000E3A6E12003F0EB5
:102236007916300E79127982000E7B6E000E7A6E58
:1022460079901200000E896E000E8A6E000E8B6E5B
:10225600080E856E000E886E1200CD503F0B800969
:10226600CD6ECF0ECD16CD86CD829A9E9E909D9038
:10227600CD901200D59AD59CD550F80B0509D56E90
:10228600D596000ED76E000ED66EF29AF294D59EB3
:10229600000E446E1200000EB36E900EB26E010E6A
:1022A600B16E270E926E530E936E0C0E946E809640
:1022B600809E0F0148691F0E496FC290270E926ECD
:1022C6001200E80EF66E210EF76E000EF86E09008B
:1022D600F5CF49F00900F5CF4AF000EE2FF01A0EBF
:1022E600EE6AE806FDE1000EF86E000168EF15F0F3
:1022F600430E016E000E026E01C0D9FF02C0DAFF66
:10230600DF500F0B0009D8A48BEF11F08DEF11F001
:1023160095EF11F001C0D9FF02C0DAFFDF50F00BD4
:102326000309DF6E12004650D8A49CEF11F09EEF11
:1023360011F0B4EF11F04550D8A4A4EF11F0A6EFB8
:1023460011F0B4EF11F043500F0BE806D8A4AEEF2E
:1023560011F0B0EF11F0B4EF11F04350F00B020999
:10236600436E120043500F0B016E0150026E036A5A
:102376000A0E02180310D8A4C3EF11F0C5EF11F02E
:10238600CBEF11F04350F00B0909436EE8EF11F063
:102396000B0E02180310D8A4D3EF11F0D5EF11F0ED
:1023A600DBEF11F04350F00B0C09436EE8EF11F030
:1023B600020E02180310D8A4E3EF11F0E5EF11F0B6
:1023C600E8EF11F0CA94000E3A6E1200270E926ED4
:1023D600000E0E01E76F010EE86F020EE96FC08E68
:1023E6000F014D914D934C8533C04EFF43C04FFFB7
:1023F600F18CF18AF188F186F292F288F090F086FB
:10240600F092F088F094F08AF28EF28C80BA0EEF99
:1024160012F010EF12F028EF12F080B215EF12F062
:1024260017EF12F028EF12F081B01CEF12F01EEF3A
:1024360012F028EF12F080B023EF12F025EF12F021
:1024460028EF12F0D39E4D9F030012004850D8A4E7
:102456002FEF12F031EF12F070EF12F04650D8A4C1
:1024660037EF12F039EF12F070EF12F04550D8A4A2
:102476003FEF12F041EF12F070EF12F0430E026ED2
:10248600000E036E02C0D9FF03C0DAFFDF500F0B48
:10249600016E030E0118D8A453EF12F055EF12F097
:1024A6005FEF12F002C0D9FF03C0DAFFDF50F00B76
:1024B6000509DF6E70EF12F0050E0118D8A466EF5D
:1024C60012F068EF12F070EF12F002C0D9FF03C0ED
:1024D600DAFFDF50F00B0409DF6E120043A876EF37
:1024E60012F078EF12F080EF12F0439801EC11F041
:1024F6000F013F8B3F8FF5EC10F043500F0B016E31
:102506000150026E036A02500310D8A48DEF12F038
:102516008FEF12F095EF12F04350F00B0109436E66
:10252600BDEF12F0030E02180310D8B49DEF12F09F
:102536009FEF12F0A9EF12F0090E02180310D8A4AB
:10254600A7EF12F0A9EF12F0AFEF12F04350F00B25
:102556000A09436EBDEF12F00C0E02180310D8A440
:10256600B7EF12F0B9EF12F0BDEF12F04350F00BD7
:102576000B09436E1200430E066E000E076E06C070
:10258600D9FF07C0DAFFDF500F0B0009D8A4CEEF42
:1025960012F0D0EF12F0DAEF12F006C0D9FF07C042
:1025A600DAFFDF50F00B0809DF6E39EF13F006C0D3
:1025B600D9FF07C0DAFFDF500F0B056E0504D8B44C
:1025C600E7EF12F0E9EF12F0F2EF12F0070E05183E
:1025D600D8A4F0EF12F0F2EF12F0FCEF12F006C002
:1025E600D9FF07C0DAFFDF50F00B0809DF6E39EFBD
:1025F60013F0030E0518D8B403EF13F005EF13F02C
:1026060017EF13F0040E0518D8B40CEF13F00EEF05
:1026160013F017EF13F0050E0518D8A415EF13F0F5
:1026260017EF13F039EF13F0010E47641DEF13F0A7
:102636001FEF13F039EF13F0010E486425EF13F086
:1026460027EF13F031EF13F006C0D9FF07C0DAFF0A
:10265600DF50F00B0B09DF6E39EF13F006C0D9FF20
:1026660007C0DAFFDF50F00B0C09DF6E3CEC13F00D
:10267600120043500F0B026E080E0218D8A446EF44
:1026860013F048EF13F076EF13F001EC11F00F01A1
:102696003F8B3F9FFC0E3F1799CF03F00D0E03248F
:1026A600F66EF76A3E0EF7220800F5CF01F0012814
:1026B600046E3B0E046462EF13F064EF13F066EFF2
:1026C60013F0000E046E750E0424F66EF76A3F0EC4
:1026D600F7220800F5CF03F003C099FF000E986EAD
:1026E6004388D5EF13F00B0E0218D8A47DEF13F034
:1026F6007FEF13F0ADEF13F001EC11F00F013F8BFC
:102706003F9F030E3F1398CF03F00D0E0324F66E82
:10271600F76A3E0EF7220800F5CF01F00128046E95
:10272600630E046499EF13F09BEF13F09DEF13F023
:10273600000E046E750E0424F66EF76A3F0EF7223D
:102746000800F5CF03F003C098FF3F8FF5EC10F0BB
:10275600D5EF13F00C0E0218D8A4B4EF13F0B6EFB1
:1027660013F0D5EF13F001EC11F00F013F8B3F9FF3
:102776003F813F9399CF03F003C001F0070E011686
:102786000128046E060E0464CBEF13F0CDEF13F0B0
:10279600CFEF13F0000E046E3F8104C099FF3F8F08
:1027A600A9EF13F01200430E066E000E076E06C068
:1027B600D9FF07C0DAFFDF500F0B0009D8A4E6EFF8
:1027C60013F0E8EF13F0F2EF13F006C0D9FF07C0DD
:1027D600DAFFDF50F00B0709DF6E6FEF14F006C06B
:1027E600D9FF07C0DAFFDF500F0B086E030E08187B
:1027F600D8B400EF14F002EF14F014EF14F00A0E40
:102806000818D8B409EF14F00BEF14F014EF14F015
:10281600090E0818D8A412EF14F014EF14F038EFCC
:1028260014F0010E47641AEF14F01CEF14F06FEF6A
:1028360014F0010E486422EF14F024EF14F02EEF8A
:1028460014F006C0D9FF07C0DAFFDF50F00B0A0903
:10285600DF6E6FEF14F006C0D9FF07C0DAFFDF5056
:10286600F00B0909DF6E6FEF14F00804D8B43EEFE1
:1028760014F040EF14F052EF14F0080E0818D8B414
:1028860047EF14F049EF14F052EF14F00D0E08184C
:10289600D8A450EF14F052EF14F05CEF14F006C019
:1028A600D9FF07C0DAFFDF50F00B0709DF6E6FEFC5
:1028B60014F0040E0818D8A463EF14F065EF14F0B2
:1028C6006FEF14F006C0D9FF07C0DAFFDF50F00B38
:1028D6000B09DF6E6FEF14F0ADEC16F012000F016E
:1028E6003FB978EF14F07AEF14F072EF14F001ECC0
:1028F60011F00F013F8B3F9F3FB984EF14F086EF35
:1029060014F07FEF14F0000E016E030E3F1398CF04
:1029160002F00D0E0224F66EF76A3E0EF72208004C
:10292600F5CF03F0630E03649BEF14F09DEF14F0F4
:102936009FEF14F0010E016E995098CF02F00D0E24
:102946000224F66EF76A3E0EF7220800F5CF03F072
:102956001F0E0364B1EF14F0B3EF14F0B5EF14F0EB
:10296600010E016E99CF02F00D0E0224F66EF76A83
:102976003E0EF7220800F5CF03F00350D8B4C6EF99
:1029860014F0C8EF14F0D0EF14F00C0E0364CEEF81
:1029960014F0D0EF14F0D2EF14F0010E016E98CFC0
:1029A60002F00D0E0224F66EF76A3E0EF7220800BC
:1029B600F5CF03F0170E0364E3EF14F0E5EF14F020
:1029C600E7EF14F0010E016E99CF02F00D0E02240E
:1029D600F66EF76A3E0EF7220800F5CF03F0060EF4
:1029E6000364F8EF14F0FAEF14F0FCEF14F0010EA4
:1029F600016E98CF02F00D0E0224F66EF76A3E0EB7
:102A0600F7220800F5CF03F03B0E03640DEF15F037
:102A16000FEF15F011EF15F0010E016E99CF02F0D0
:102A26000D0E0224F66EF76A3E0EF7220800F5CF69
:102A360003F03B0E036422EF15F024EF15F026EFAA
:102A460015F0010E016E0150D8B42CEF15F02EEFE3
:102A560015F04BEF15F03FB933EF15F035EF15F0E4
:102A66002EEF15F0030E3F13890EF66E3F0EF76E2E
:102A76000800F5CF98FF9950010E986E010E996ED9
:102A8600000E986E030E996E000E986E000E996EEB
:102A96003FB950EF15F052EF15F04BEF15F03F919F
:102AA6003F93919C918491969198919A919E000E54
:102AB600906EA3903F8F3FB963EF15F065EF15F069
:102AC6005EEF15F0F5EC10F0120025EC11F04EEC6F
:102AD60011F03DEC11F030EC11F010EC11F01AECA5
:102AE60011F008EC11F072EC14F0C0A67DEF15F0B1
:102AF6007FEF15F099EF15F0C0960F014C914ECF70
:102B060033F04FCF43F033C02EF02E50030B486EF8
:102B16002E30E832030B476E2E38030B466E2E38E6
:102B2600E832E832030B456EB0EF15F025EC11F0F4
:102B3600FC0E3316F30E3316CF0E33163F0E331636
:102B4600000ECC6ECA84010E3A6E4350F00B01099A
:102B5600436E33C04EFF43C04FFFF28EF28CF18CB2
:102B6600F18AF188F186F18E000E396E000E386E0C
:102B7600000E366E000E2D6E010E2C6E000E2B6EA4
:102B8600F3EC17F02A6E3A50D8B4CCEF15F0CEEF2E
:102B960015F020EF16F09F0ECC64D4EF15F0D6EFAB
:102BA60015F012EF16F0000ECC6E2C4A2D2A5E0E92
:102BB6002C5C010E2D58D8A0E3EF15F0E5EF15F0CB
:102BC60012EF16F04850D8A4EBEF15F0EDEF15F024
:102BD6000EEF16F04750D8A4F3EF15F0F5EF15F009
:102BE6000EEF16F04650D8A4FBEF15F0FDEF15F0EA
:102BF6000EEF16F04550D8A403EF16F005EF16F0C9
:102C06000EEF16F0CA94000E2D6E000E2C6E000EFE
:102C16003A6E12EF16F0000E2D6E640E2C6E2C50CE
:102C26002D10D8A419EF16F01CEF16F0010E1DEFAB
:102C360016F0000E2A1224EF16F0000E2D6E010E6D
:102C46002C6E2A50D8B42AEF16F02CEF16F03CEF73
:102C560016F0030E2B18D8A433EF16F035EF16F046
:102C660039EF16F0000E2B6E51EC1BF02B2AC3EF3A
:102C760015F0530E936E0C0E946E000E826E010EBE
:102C86008116270E801643B84BEF16F04DEF16F05F
:102C960052EF16F001EC11F00F013F8B3F8FF00E53
:102CA6004316FC0E3316F30E3316CF0E33163F0EB5
:102CB6003316000E426E000E416E000E406E000E80
:102CC6003F6E000E3E6E000E3D6E000E3C6E000E18
:102CD6003B6E000E446E000E3A6E000E326E000E13
:102CE600316E000E396ED59ECA940F013FB97EEF44
:102CF60016F080EF16F078EF16F03F9BF5EC10F02B
:102D0600F292F288F090F086F092F088F094F08AD1
:102D1600F294F18CF18AF188F1869E90A490F28E5D
:102D2600F28CC290E9EC11F0000E2D6E010E2C6EA5
:102D3600000E2B6E000E366E000E386E4ECF33F040
:102D46004FCF43F025EC11F04EEC11F0C3EF15F028
:102D560000EF00F043500F0B026E070E0218D8A4C6
:102D6600B7EF16F0B9EF16F0E7EF16F001EC11F039
:102D76000F013F8B3F9F3F813F9398CF04F00D0E8D
:102D86000424F66EF76A3E0EF7220800F5CF01F02E
:102D96000128056E170E0564D3EF16F0D5EF16F071
:102DA600D7EF16F0000E056E750E0524F66EF76A5F
:102DB6003F0EF7220800F5CF04F004C098FF3F8FBE
:102DC600F5EC10F0F2EF17F0090E0218D8A4EEEFAA
:102DD60016F0F0EF16F01EEF17F001EC11F00F01F0
:102DE6003F8B3F9F3F913F8399CF04F00D0E042404
:102DF600F66EF76A3E0EF7220800F5CF01F00128BD
:102E0600056E0C0E05640AEF17F00CEF17F00EEFC7
:102E160017F0010E056E3F913F83750E0524F66E81
:102E2600F76A3F0EF7220800F5CF04F004C099FFB9
:102E36003F8FE3EF16F00A0E0218D8A425EF17F01D
:102E460027EF17F0BDEF17F001EC11F00F013F8BE4
:102E56003F9F3F913F8398CF04F00D0E0424F66EFA
:102E6600F76A3E0EF7220800F5CF01F00128056E3D
:102E760099CF04F00D0E0424F66EF76A3E0EF72283
:102E86000800F5CF03F0020E0318D8A44DEF17F093
:102E96004FEF17F05BEF17F01D0E056455EF17F0B7
:102EA60057EF17F0ADEF17F0010E056EADEF17F007
:102EB6000304D8B461EF17F063EF17F099EF17F03A
:102EC600030E0318D8B46AEF17F06CEF17F099EFFA
:102ED60017F0050E0318D8B473EF17F075EF17F057
:102EE60099EF17F0070E0318D8B47CEF17F07EEFB2
:102EF60017F099EF17F0080E0318D8B485EF17F0FE
:102F060087EF17F099EF17F00A0E0318D8B48EEF73
:102F160017F090EF17F099EF17F00C0E0318D8A4DE
:102F260097EF17F099EF17F0A3EF17F01F0E056450
:102F36009FEF17F0A1EF17F0ADEF17F057EF17F06F
:102F46001E0E0564A9EF17F0ABEF17F0ADEF17F003
:102F560057EF17F03F913F83750E0524F66EF76A1B
:102F66003F0EF7220800F5CF04F004C098FF3F8F0C
:102F7600E3EF16F00B0E0218D8A4C4EF17F0C6EF55
:102F860017F0F2EF17F001EC11F00F013F8B3F9FA6
:102F9600030E3F1398CF04F00D0E0424F66EF76A65
:102FA6003E0EF7220800F5CF01F00128056E630EEC
:102FB6000564E0EF17F0E2EF17F0E4EF17F0000E0C
:102FC600056E750E0524F66EF76A3F0EF7220800A9
:102FD600F5CF04F004C098FF3F8FE3EF16F0120020
:102FE600000E236E000E1C6E440E246E000E256E1F
:102FF60065EF18F0470E286E000E296E3F0E266EFE
:10300600000E276E000E80B2010E196EF60E1A6EB5
:10301600220E1B6E520E1D6E240E1E6EE60E1F6EC7
:10302600210E206E7EEF18F0460E286E000E296ED9
:103036003D0E266E000E276E000E81B0010E196E33
:10304600AC0E1A6E270E1B6E5A0E1D6E2D0E1E6EC0
:10305600FA0E1F6E210E206E7EEF18F0450E286EBA
:10306600000E296E3B0E266E000E276E000E80B0F7
:10307600010E196E7C0E1A6E250E1B6E780E1D6ED5
:10308600260E1E6EF20E1F6E210E206E7EEF18F0BB
:10309600480E286E000E296E410E266E000E276E13
:1030A600000E80BA010E196EE20E1A6E240E1B6E09
:1030B6002C0E1D6E230E1E6E6A0E1F6E230E206EC4
:1030C6007EEF18F02350096E0A6A0A50000AD8B437
:1030D6006FEF18F04BEF18F00950010AD8B4FDEF66
:1030E60017F0030AD8B417EF18F0010AD8B431EF75
:1030F60018F04BEF18F01950D8B484EF18F086EF9B
:1031060018F021EF1BF0FAEF19F028C0D9FF29C0FB
:10311600DAFF010EDF6E24C0D9FF25C0DAFFDF50CB
:10312600D8A498EF18F09AEF18F0A9EF18F0000E4F
:10313600D76E000ED66ED58E26C0D9FF27C0DAFF11
:10314600000EDE6E000EDD6EBFEF18F0D6CF0FF06C
:10315600D7CF10F010500A6E096A0F500B6E0C6A2A
:1031660009500B120A500C1226C0D9FF27C0DAFFED
:103176000BC0DEFF0CC0DDFF23C009F0010E0A6E96
:10318600092AC8EF18F0D8900A36092EC6EF18F0AB
:1031960024C0D9FF25C0DAFF0A50DF12010E1C6ECB
:1031A60046EF1BF0D6CF11F0D7CF12F012500A6EB1
:1031B600096A11500B6E0C6A09500B10216E0A50E9
:1031C6000C10226E26C0D9FF27C0DAFFDECF09F029
:1031D600DDCF0AF021C00BF022C00CF009500B5EC7
:1031E6000A500C5A010E0B24BA0E0C20800BD8A4E0
:1031F600FFEF18F001EF19F02CEF19F028C0D9FFF6
:1032060029C0DAFF030EDF6E26C0D9FF27C0DAFF1A
:1032160021C0DEFF22C0DDFF1D501E10D8B416EF00
:1032260019F018EF19F025EF19F002D825EF19F06B
:103236000500FA6E1D50FD6E1E50FE6EF850FF6EB4
:10324600FA501200010E3A6E000ECC6ECA84D1EF0F
:1032560018F026C0D9FF27C0DAFFDECF09F0DDCF90
:103266000AF021C00BF022C00CF009500B5E0A5088
:103276000C5A000E0B24FC0E0C20800BD8A446EF33
:1032860019F048EF19F0D1EF18F028C0D9FF29C07E
:10329600DAFF020EDE18D8B453EF19F055EF19F025
:1032A600D1EF18F028C0D9FF29C0DAFF020EDF6E71
:1032B6001A501B10D8B462EF19F064EF19F071EFD1
:1032C60019F002D871EF19F00500FA6E1A50FD6E6A
:1032D6001B50FE6EF850FF6EFA501200010E3A6E49
:1032E600000ECC6ECA84D1EF18F0D6CF13F0D7CF2C
:1032F60014F014500A6E096A13500B6E0C6A0950CA
:103306000B10216E0A500C10226E300E0E6E000E3F
:103316000D6E99EF19F0450E0E6E0D68B6EF19F0A9
:10332600200E0E6E000E0D6EB6EF19F02350096ECC
:103336000A6A0A50000AD8B4A3EF19F0B6EF19F0DA
:103346000950000AD8B4B6EF19F0010AD8B48EEFC6
:1033560019F0030AD8B493EF19F0010AD8B493EF21
:1033660019F0B6EF19F026C0D9FF27C0DAFFDECF75
:1033760009F0DDCF0AF0091E0A1E094A0A2A0D5075
:10338600095E0E500A5A2150092422500A20800B49
:10339600D8A4D0EF19F0D2EF19F0D1EF18F026C06B
:1033A600D9FF27C0DAFF21C0DEFF22C0DDFF1D5096
:1033B6001E10D8B4E1EF19F0E3EF19F0D1EF18F0D1
:1033C60002D8F0EF19F00500FA6E1D50FD6E1E5082
:1033D600FE6EF850FF6EFA501200D1EF18F028C0BA
:1033E600D9FF29C0DAFF030EDF6ED1EF18F028C02F
:1033F600D9FF29C0DAFFDF50096E0A6A0A50000AAF
:10340600D8B408EF1AF046EF1BF00950000AD8B4FA
:1034160088EF18F0010AD8B4D5EF18F0030AD8B42B
:10342600D5EF18F0010AD8B478EF19F0070AD8B426
:10343600F2EF19F046EF1BF028C0D9FF29C0DAFFDA
:10344600000EDF6E23C009F0010E0A6E092A2EEF68
:103456001AF0D8900A36092E2CEF1AF00A50FF0AF5
:103466000B6E24C0D9FF25C0DAFF0B50DF1624C02F
:10347600D9FF25C0DAFFDF50D8A444EF1AF046EF93
:103486001AF0D1EF18F0D59E46EF1BF028C0D9FFF1
:1034960029C0DAFF000EDF6E23C009F0010E0A6EA6
:1034A600092A58EF1AF0D8900A36092E56EF1AF064
:1034B6000A50FF0A0B6E24C0D9FF25C0DAFF0B5055
:1034C600DF1624C0D9FF25C0DAFFDF50D8A46EEF7F
:1034D6001AF070EF1AF073EF1AF0D59E75EF1AF026
:1034E600010E1C6E1F502010D8B47CEF1AF07EEF30
:1034F6001AF046EF1BF002D88BEF1AF00500FA6EB1
:103506001F50FD6E2050FE6EF850FF6EFA501200EE
:1035160046EF1BF028C0D9FF29C0DAFF040EDF6E84
:1035260024C0D9FF25C0DAFFDF50D8A49DEF1AF0DA
:103536009FEF1AF0A6EF1AF0000ED76E000ED66EA9
:10354600D58E9FEF18F0D6CF15F0D7CF16F01650C0
:103556000A6E096A15500B6E0C6A09500B120A5056
:103566000C1226C0D9FF27C0DAFF0BC0DEFF0CC045
:10357600DDFFBFEF18F0D6CF17F0D7CF18F01850F1
:103586000A6E096A17500B6E0C6A09500B10216EF1
:103596000A500C10226E26C0D9FF27C0DAFFDECFF4
:1035A60009F0DDCF0AF021C00BF022C00CF0095063
:1035B6000B5E0A500C5A000E0B24FC0E0C20800BDE
:1035C600D8A4E8EF1AF0EAEF1AF0D1EF18F023C00A
:1035D60009F0010E0A6E092AF3EF1AF0D8900A369E
:1035E600092EF1EF1AF00A50FF0A0B6E24C0D9FF1C
:1035F60025C0DAFF0B50DF1624C0D9FF25C0DAFF3D
:10360600DF50D8A409EF1BF00BEF1BF00EEF1BF0F9
:10361600D59E10EF1BF0010E1C6E28C0D9FF29C0E5
:10362600DAFF000EDF6E1F502010D8B41DEF1BF01E
:103636001FEF1BF046EF1BF07EEF1AF028C0D9FFF4
:1036460029C0DAFFDF50096E0A6A0A50000AD8B4A8
:103656002FEF1BF046EF1BF00950000AD8B446EFD7
:103666001BF0010AD8B41FEF1AF0030AD8B449EFC9
:103676001AF0010AD8B48DEF1AF0070AD8B4BEEFD3
:103686001AF046EF1BF0232A030E23644DEF1BF0BE
:103696004FEF1BF065EF18F01C50120039C006F012
:1036A6000650D8A459EF1BF05BEF1BF06DEF1CF032
:1036B6004A684968000E356E43500F0B056E05C00B
:1036C60034F010EF1CF00F013F813F9398CF09F0C3
:1036D6000D0E0924F66EF76A3E0EF7220800F5CFA6
:1036E6004AF0170E4A647AEF1BF07CEF1BF07EEF70
:1036F6001BF0000E4A6E995099CF09F00D0E092461
:10370600F66EF76A3E0EF7220800F5CF49F03B0E3B
:10371600496490EF1BF092EF1BF051EF1CF0000E86
:10372600496E51EF1CF0FC0E0F013F174A6898CF07
:1037360009F00D0E0924F66EF76A3E0EF722080010
:10374600F5CF49F03B0E4964ABEF1BF0ADEF1BF034
:1037560051EF1CF092EF1BF00F013F913F8398CF82
:1037660009F00D0E0924F66EF76A3E0EF7220800E0
:10377600F5CF49F01F0E4964C3EF1BF0C5EF1BF0F0
:10378600C7EF1BF0010E496E99CF09F00D0E092403
:10379600F66EF76A3E0EF7220800F5CF4AF00C0ED9
:1037A6004A64D8EF1BF0DAEF1BF0DCEF1BF0010EDA
:1037B6004A6E010E356E51EF1CF0030E0F013F13DA
:1037C60098CF09F00D0E0924F66EF76A3E0EF72221
:1037D6000800F5CF49F0630E4964F4EF1BF0F6EFED
:1037E6001BF0F8EF1BF0000E496E140E4A6E51EFF7
:1037F6001CF00F013F813F9399CF09F0060E096433
:1038060007EF1CF009EF1CF00BEF1CF0000E096E21
:103816004A6809C049F051EF1CF00550016E026A72
:103826000250000AD8B41AEF1CF051EF1CF00150F8
:10383600000AD8B451EF1CF0010AD8B466EF1BF0A9
:10384600030AD8B496EF1BF0010AD8B4AFEF1BF009
:10385600070AD8B4E0EF1BF0010AD8B4FCEF1BF05E
:10386600020AD8B466EF1BF00F0AD8B466EF1BF055
:10387600010AD8B4AFEF1BF0030AD8B4AFEF1BF0C0
:10388600010AD8B4E0EF1BF0070AD8B4FCEF1BF02E
:10389600010AD8B496EF1BF051EF1CF0050E05187F
:1038A600D8B458EF1CF05AEF1CF069EF1CF00C0E60
:1038B6000518D8B461EF1CF063EF1CF069EF1CF03B
:1038C600D90E2F6E3F0E306E6DEF1CF0E90E2F6E87
:1038D6003F0E306E2FC007F030C008F0010E0664B0
:1038E60077EF1CF079EF1CF0A2EF1DF04A28D8B450
:1038F6007FEF1CF081EF1CF095EF1DF0020E06180D
:10390600D8A488EF1CF08AEF1CF0ECEF1CF0110E27
:103916004A24F66EF76A3F0EF7220800F550072490
:10392600016E000E0820026E01C0F6FF02C0F7FF0E
:103936000800F5CF09F0530E936E0C0E946E000E30
:10394600826E010E8116809C09A0ACEF1CF0AEEFD2
:103956001CF0AFEF1CF0828809A2B4EF1CF0B6EFA2
:103966001CF0B7EF1CF0828A09A4BCEF1CF0BEEF76
:103976001CF0BFEF1CF0828C09A6C4EF1CF0C6EF4A
:103986001CF0C7EF1CF0818609A8CCEF1CF0CEEF27
:103996001CF0CFEF1CF0828E09AAD4EF1CF0D6EFF4
:1039A6001CF0D7EF1CF0818A09ACDCEF1CF0DEEFCF
:1039B6001CF0DFEF1CF0818435A0E4EF1CF0E6EF8D
:1039C6001CF0E7EF1CF0808C8192510E936EF8EF9D
:1039D6001EF0030E0618D8A4F3EF1CF0F5EF1CF04A
:1039E600F8EF1EF0530E936E0C0E946E000E826E60
:1039F600010E8116809C0A0E4A6004EF1DF006EF48
:103A06001DF03AEF1DF015EF1DF0000E096E50EF98
:103A16001DF007C0F6FF08C0F7FF0800F5CF09F054
:103A260050EF1DF03450016E026A0250000AD8B4FD
:103A36001FEF1DF00CEF1DF00150010AD8B408EF7E
:103A46001DF0020AD8B408EF1DF0040AD8B408EF36
:103A56001DF00F0AD8B408EF1DF0010AD8B408EF1C
:103A66001DF0030AD8B408EF1DF00CEF1DF0AD0EE3
:103A76004A24F66EF76A3E0EF7220800F5CF09F0E3
:103A860009500724016E000E0820026E01C0F6FFE1
:103A960002C0F7FF0800F5CF09F00950D8B456EF79
:103AA6001DF058EF1DF0A0EF1DF009A05DEF1DF011
:103AB6005FEF1DF060EF1DF0828809A265EF1DF033
:103AC60067EF1DF068EF1DF0828A09A46DEF1DF007
:103AD6006FEF1DF070EF1DF0828C09A675EF1DF0DB
:103AE60077EF1DF078EF1DF0818609A87DEF1DF0B8
:103AF6007FEF1DF080EF1DF0828E09AA85EF1DF085
:103B060087EF1DF088EF1DF0818A09AC8DEF1DF05F
:103B16008FEF1DF090EF1DF08184819C130E936E44
:103B2600F8EF1EF0530E936E0C0E946E000E826E1E
:103B3600010E8116809CF8EF1EF0F8EF1EF0492862
:103B4600D8B4A8EF1DF0AAEF1DF095EF1DF00650B2
:103B5600D8A4B0EF1DF0B2EF1DF03BEF1EF0E90E5A
:103B6600071807E13F0E0818D8A4BCEF1DF0BEEFFA
:103B76001DF0D9EF1DF04950016E026AD89001364A
:103B8600023607C003F008C004F0015003260250B5
:103B96000422010E0326000E042203C0F6FF04C011
:103BA600F7FF0800F5CF09F0EDEF1DF0110E4924DF
:103BB600F66EF76A3F0EF7220800F5500724016EED
:103BC600000E0820026E01C0F6FF02C0F7FF0800D3
:103BD600F5CF09F0530E936E0C0E946E000E826EA6
:103BE600010E8116809C09A0FBEF1DF0FDEF1DF074
:103BF600FEEF1DF0828809A203EF1EF005EF1EF00E
:103C060006EF1EF0828A09A40BEF1EF00DEF1EF0E0
:103C16000EEF1EF0828C09A613EF1EF015EF1EF0B4
:103C260016EF1EF0818609A81BEF1EF01DEF1EF091
:103C36001EEF1EF0828E09AA23EF1EF025EF1EF05E
:103C460026EF1EF0818A09AC2BEF1EF02DEF1EF039
:103C56002EEF1EF0818435A233EF1EF035EF1EF0F5
:103C660036EF1EF0808C8296040E946EF8EF1EF0EE
:103C76000604D8A441EF1EF043EF1EF0F8EF1EF045
:103C8600E90E071807E13F0E0818D8A44DEF1EF0FD
:103C96004FEF1EF066EF1EF04950016E026AD89093
:103CA6000136023607C003F008C004F001500326AF
:103CB6000250042203C0F6FF04C0F7FF0800F5CF48
:103CC60009F0ACEF1EF00A0E49606CEF1EF06EEFC5
:103CD6001EF096EF1EF07DEF1EF0000E096EACEFA3
:103CE6001EF007C0F6FF08C0F7FF0800F5CF09F081
:103CF600ACEF1EF03450016E026A0250000AD8B4CE
:103D060087EF1EF074EF1EF00150030AD8B470EF6F
:103D16001EF00A0AD8B470EF1EF0030AD8B470EF8A
:103D26001EF074EF1EF0AD0E4924F66EF76A3E0ED5
:103D3600F7220800F5CF09F009500724016E000E9E
:103D46000820026E01C0F6FF02C0F7FF0800F5CF9B
:103D560009F0530E936E0C0E946E000E826E010ED9
:103D66008116809C0950D8B4BBEF1EF0BDEF1EF043
:103D7600A0EF1DF009A0C2EF1EF0C4EF1EF0C5EFC4
:103D86001EF0828809A2CAEF1EF0CCEF1EF0CDEF1E
:103D96001EF0828A09A4D2EF1EF0D4EF1EF0D5EFF2
:103DA6001EF0828C09A6DAEF1EF0DCEF1EF0DDEFC6
:103DB6001EF0818609A8E2EF1EF0E4EF1EF0E5EFA3
:103DC6001EF0828E09AAEAEF1EF0ECEF1EF0EDEF70
:103DD6001EF0818A09ACF2EF1EF0F4EF1EF0F5EF4B
:103DE6001EF081848198430E936E062A030E0664A4
:103DF600FFEF1EF001EF1FF003EF1FF0000E066E3F
:103E060006C039F012000000010203040506070887
:103E1600090000000000000A0B0C0D0E0F10111215
:103E2600130000000000001415161718191A1B1CA1
:103E36001D0000000000001E1F202122232425262D
:103E46002700000000000028292A2B2C2D2E2F30B9
:103E56003100000000000032333435363738393A45
:103E66003B0000000000003C3D3E3F4041424344D1
:103E760045000000000000464748494A4B4C4D4E5D
:103E86004F000000000000505152535455565758E9
:103E9600590000000000005A5B5C5D5E5F60616275
:103EA60063000000000000000000000000000000A9
:103EB60000010101010101010101010202020202E8
:103EC60002020202020303030303030303030304C0
:103ED6000404040404040404040505050505050595
:103EE600050505060606060606060606060707076C
:103EF6000707070707070708080808080808080843
:103F0600080909090909090909090900010203043F
:103F1600050607080900010203040506070809004B
:103F26000102030405060708090001020304050649
:103F36000708090001020304050607080900010233
:103F4600030405060708090001020304050607081D
:103F5600090001020304050607080900010203041B
:103F660005060708090001020304050607080900FB
:103F76000102030405060708091011121314151689
:103F860017181920212223242526272829303132E3
:103F9600333435363738394041424344454647483D
:103FA600495051525354555657585960616263648B
:103FB60065666768697071727374757677787980EB
:103FC6008182838485868788899091929394959639
:103FD6009798993F065B4F666D7D077F6F4040401F
:103FE6004040406D3E373F313E3E79317671776DC8
:023FF600770052
:083FF80080F4D8FFFFF8CFF1BF
:00000001FF
